{
	"contracts/CrowdFunding.sol": {
		"CrowdFunding": {
			"abi": [
				{
					"anonymous": false,
					"inputs": [
						{
							"indexed": false,
							"internalType": "uint256",
							"name": "campaignId",
							"type": "uint256"
						},
						{
							"indexed": false,
							"internalType": "uint256",
							"name": "amountCollected",
							"type": "uint256"
						}
					],
					"name": "TargetAchieved",
					"type": "event"
				},
				{
					"inputs": [
						{
							"internalType": "uint256",
							"name": "",
							"type": "uint256"
						}
					],
					"name": "campaigns",
					"outputs": [
						{
							"internalType": "address",
							"name": "owner",
							"type": "address"
						},
						{
							"internalType": "string",
							"name": "title",
							"type": "string"
						},
						{
							"internalType": "string",
							"name": "description",
							"type": "string"
						},
						{
							"internalType": "uint256",
							"name": "target",
							"type": "uint256"
						},
						{
							"internalType": "uint256",
							"name": "amountCollected",
							"type": "uint256"
						},
						{
							"internalType": "string",
							"name": "image",
							"type": "string"
						},
						{
							"internalType": "bool",
							"name": "completed",
							"type": "bool"
						}
					],
					"stateMutability": "view",
					"type": "function"
				},
				{
					"inputs": [
						{
							"internalType": "address",
							"name": "_owner",
							"type": "address"
						},
						{
							"internalType": "string",
							"name": "_title",
							"type": "string"
						},
						{
							"internalType": "string",
							"name": "_description",
							"type": "string"
						},
						{
							"internalType": "uint256",
							"name": "_target",
							"type": "uint256"
						},
						{
							"internalType": "string",
							"name": "_image",
							"type": "string"
						}
					],
					"name": "createCampaign",
					"outputs": [
						{
							"internalType": "uint256",
							"name": "",
							"type": "uint256"
						}
					],
					"stateMutability": "nonpayable",
					"type": "function"
				},
				{
					"inputs": [
						{
							"internalType": "uint256",
							"name": "_id",
							"type": "uint256"
						}
					],
					"name": "deleteCampaign",
					"outputs": [],
					"stateMutability": "nonpayable",
					"type": "function"
				},
				{
					"inputs": [
						{
							"internalType": "uint256",
							"name": "_id",
							"type": "uint256"
						}
					],
					"name": "donateToCampaign",
					"outputs": [],
					"stateMutability": "payable",
					"type": "function"
				},
				{
					"inputs": [],
					"name": "getCampaigns",
					"outputs": [
						{
							"components": [
								{
									"internalType": "address",
									"name": "owner",
									"type": "address"
								},
								{
									"internalType": "string",
									"name": "title",
									"type": "string"
								},
								{
									"internalType": "string",
									"name": "description",
									"type": "string"
								},
								{
									"internalType": "uint256",
									"name": "target",
									"type": "uint256"
								},
								{
									"internalType": "uint256",
									"name": "amountCollected",
									"type": "uint256"
								},
								{
									"internalType": "string",
									"name": "image",
									"type": "string"
								},
								{
									"internalType": "bool",
									"name": "completed",
									"type": "bool"
								},
								{
									"internalType": "address[]",
									"name": "donators",
									"type": "address[]"
								},
								{
									"internalType": "uint256[]",
									"name": "donations",
									"type": "uint256[]"
								}
							],
							"internalType": "struct CrowdFunding.Campaign[]",
							"name": "",
							"type": "tuple[]"
						}
					],
					"stateMutability": "view",
					"type": "function"
				},
				{
					"inputs": [
						{
							"internalType": "uint256",
							"name": "_id",
							"type": "uint256"
						}
					],
					"name": "getDonators",
					"outputs": [
						{
							"internalType": "address[]",
							"name": "",
							"type": "address[]"
						},
						{
							"internalType": "uint256[]",
							"name": "",
							"type": "uint256[]"
						}
					],
					"stateMutability": "view",
					"type": "function"
				},
				{
					"inputs": [],
					"name": "numberOfCampaigns",
					"outputs": [
						{
							"internalType": "uint256",
							"name": "",
							"type": "uint256"
						}
					],
					"stateMutability": "view",
					"type": "function"
				},
				{
					"inputs": [
						{
							"internalType": "uint256",
							"name": "_id",
							"type": "uint256"
						},
						{
							"internalType": "string",
							"name": "_title",
							"type": "string"
						},
						{
							"internalType": "string",
							"name": "_description",
							"type": "string"
						},
						{
							"internalType": "uint256",
							"name": "_target",
							"type": "uint256"
						},
						{
							"internalType": "string",
							"name": "_image",
							"type": "string"
						}
					],
					"name": "updateCampaign",
					"outputs": [],
					"stateMutability": "nonpayable",
					"type": "function"
				}
			],
			"devdoc": {
				"kind": "dev",
				"methods": {},
				"version": 1
			},
			"evm": {
				"assembly": "    /* \"contracts/CrowdFunding.sol\":124:4869  contract CrowdFunding {... */\n  mstore(0x40, 0x80)\n    /* \"contracts/CrowdFunding.sol\":637:638  0 */\n  0x00\n    /* \"contracts/CrowdFunding.sol\":602:638  uint256 public numberOfCampaigns = 0 */\n  0x01\n  sstore\n    /* \"contracts/CrowdFunding.sol\":124:4869  contract CrowdFunding {... */\n  callvalue\n  dup1\n  iszero\n  tag_1\n  jumpi\n  0x00\n  dup1\n  revert\ntag_1:\n  pop\n  dataSize(sub_0)\n  dup1\n  dataOffset(sub_0)\n  0x00\n  codecopy\n  0x00\n  return\nstop\n\nsub_0: assembly {\n        /* \"contracts/CrowdFunding.sol\":124:4869  contract CrowdFunding {... */\n      mstore(0x40, 0x80)\n      jumpi(tag_1, lt(calldatasize, 0x04))\n      shr(0xe0, calldataload(0x00))\n      dup1\n      0x42a4fda8\n      gt\n      tag_10\n      jumpi\n      dup1\n      0x42a4fda8\n      eq\n      tag_6\n      jumpi\n      dup1\n      0x75970193\n      eq\n      tag_7\n      jumpi\n      dup1\n      0xa6b03633\n      eq\n      tag_8\n      jumpi\n      dup1\n      0xc5675b10\n      eq\n      tag_9\n      jumpi\n      jump(tag_1)\n    tag_10:\n      dup1\n      0x07ca140d\n      eq\n      tag_2\n      jumpi\n      dup1\n      0x0fa91fa9\n      eq\n      tag_3\n      jumpi\n      dup1\n      0x1227d335\n      eq\n      tag_4\n      jumpi\n      dup1\n      0x141961bc\n      eq\n      tag_5\n      jumpi\n    tag_1:\n      0x00\n      dup1\n      revert\n        /* \"contracts/CrowdFunding.sol\":602:638  uint256 public numberOfCampaigns = 0 */\n    tag_2:\n      callvalue\n      dup1\n      iszero\n      tag_11\n      jumpi\n      0x00\n      dup1\n      revert\n    tag_11:\n      pop\n      tag_12\n      tag_13\n      jump\t// in\n    tag_12:\n      mload(0x40)\n      tag_14\n      swap2\n      swap1\n      tag_15\n      jump\t// in\n    tag_14:\n      mload(0x40)\n      dup1\n      swap2\n      sub\n      swap1\n      return\n        /* \"contracts/CrowdFunding.sol\":3240:3448  function getDonators(uint256 _id) external view returns (address[] memory, uint256[] memory) {... */\n    tag_3:\n      callvalue\n      dup1\n      iszero\n      tag_16\n      jumpi\n      0x00\n      dup1\n      revert\n    tag_16:\n      pop\n      tag_17\n      0x04\n      dup1\n      calldatasize\n      sub\n      dup2\n      add\n      swap1\n      tag_18\n      swap2\n      swap1\n      tag_19\n      jump\t// in\n    tag_18:\n      tag_20\n      jump\t// in\n    tag_17:\n      mload(0x40)\n      tag_21\n      swap3\n      swap2\n      swap1\n      tag_22\n      jump\t// in\n    tag_21:\n      mload(0x40)\n      dup1\n      swap2\n      sub\n      swap1\n      return\n        /* \"contracts/CrowdFunding.sol\":833:1781  function createCampaign(... */\n    tag_4:\n      callvalue\n      dup1\n      iszero\n      tag_23\n      jumpi\n      0x00\n      dup1\n      revert\n    tag_23:\n      pop\n      tag_24\n      0x04\n      dup1\n      calldatasize\n      sub\n      dup2\n      add\n      swap1\n      tag_25\n      swap2\n      swap1\n      tag_26\n      jump\t// in\n    tag_25:\n      tag_27\n      jump\t// in\n    tag_24:\n      mload(0x40)\n      tag_28\n      swap2\n      swap1\n      tag_15\n      jump\t// in\n    tag_28:\n      mload(0x40)\n      dup1\n      swap2\n      sub\n      swap1\n      return\n        /* \"contracts/CrowdFunding.sol\":551:596  mapping(uint256 => Campaign) public campaigns */\n    tag_5:\n      callvalue\n      dup1\n      iszero\n      tag_29\n      jumpi\n      0x00\n      dup1\n      revert\n    tag_29:\n      pop\n      tag_30\n      0x04\n      dup1\n      calldatasize\n      sub\n      dup2\n      add\n      swap1\n      tag_31\n      swap2\n      swap1\n      tag_19\n      jump\t// in\n    tag_31:\n      tag_32\n      jump\t// in\n    tag_30:\n      mload(0x40)\n      tag_33\n      swap8\n      swap7\n      swap6\n      swap5\n      swap4\n      swap3\n      swap2\n      swap1\n      tag_34\n      jump\t// in\n    tag_33:\n      mload(0x40)\n      dup1\n      swap2\n      sub\n      swap1\n      return\n        /* \"contracts/CrowdFunding.sol\":1824:3158  function donateToCampaign(uint256 _id) external payable {... */\n    tag_6:\n      tag_35\n      0x04\n      dup1\n      calldatasize\n      sub\n      dup2\n      add\n      swap1\n      tag_36\n      swap2\n      swap1\n      tag_19\n      jump\t// in\n    tag_36:\n      tag_37\n      jump\t// in\n    tag_35:\n      stop\n        /* \"contracts/CrowdFunding.sol\":4558:4867  function deleteCampaign(uint256 _id) external {... */\n    tag_7:\n      callvalue\n      dup1\n      iszero\n      tag_38\n      jumpi\n      0x00\n      dup1\n      revert\n    tag_38:\n      pop\n      tag_39\n      0x04\n      dup1\n      calldatasize\n      sub\n      dup2\n      add\n      swap1\n      tag_40\n      swap2\n      swap1\n      tag_19\n      jump\t// in\n    tag_40:\n      tag_41\n      jump\t// in\n    tag_39:\n      stop\n        /* \"contracts/CrowdFunding.sol\":3479:3813  function getCampaigns() external view returns (Campaign[] memory) {... */\n    tag_8:\n      callvalue\n      dup1\n      iszero\n      tag_42\n      jumpi\n      0x00\n      dup1\n      revert\n    tag_42:\n      pop\n      tag_43\n      tag_44\n      jump\t// in\n    tag_43:\n      mload(0x40)\n      tag_45\n      swap2\n      swap1\n      tag_46\n      jump\t// in\n    tag_45:\n      mload(0x40)\n      dup1\n      swap2\n      sub\n      swap1\n      return\n        /* \"contracts/CrowdFunding.sol\":3882:4499  function updateCampaign(... */\n    tag_9:\n      callvalue\n      dup1\n      iszero\n      tag_47\n      jumpi\n      0x00\n      dup1\n      revert\n    tag_47:\n      pop\n      tag_48\n      0x04\n      dup1\n      calldatasize\n      sub\n      dup2\n      add\n      swap1\n      tag_49\n      swap2\n      swap1\n      tag_50\n      jump\t// in\n    tag_49:\n      tag_51\n      jump\t// in\n    tag_48:\n      stop\n        /* \"contracts/CrowdFunding.sol\":602:638  uint256 public numberOfCampaigns = 0 */\n    tag_13:\n      sload(0x01)\n      dup2\n      jump\t// out\n        /* \"contracts/CrowdFunding.sol\":3240:3448  function getDonators(uint256 _id) external view returns (address[] memory, uint256[] memory) {... */\n    tag_20:\n        /* \"contracts/CrowdFunding.sol\":3297:3313  address[] memory */\n      0x60\n        /* \"contracts/CrowdFunding.sol\":3315:3331  uint256[] memory */\n      dup1\n        /* \"contracts/CrowdFunding.sol\":3343:3368  Campaign storage campaign */\n      0x00\n        /* \"contracts/CrowdFunding.sol\":3371:3380  campaigns */\n      dup1\n        /* \"contracts/CrowdFunding.sol\":3371:3385  campaigns[_id] */\n      0x00\n        /* \"contracts/CrowdFunding.sol\":3381:3384  _id */\n      dup6\n        /* \"contracts/CrowdFunding.sol\":3371:3385  campaigns[_id] */\n      dup2\n      mstore\n      0x20\n      add\n      swap1\n      dup2\n      mstore\n      0x20\n      add\n      0x00\n      keccak256\n        /* \"contracts/CrowdFunding.sol\":3343:3385  Campaign storage campaign = campaigns[_id] */\n      swap1\n      pop\n        /* \"contracts/CrowdFunding.sol\":3403:3411  campaign */\n      dup1\n        /* \"contracts/CrowdFunding.sol\":3403:3420  campaign.donators */\n      0x07\n      add\n        /* \"contracts/CrowdFunding.sol\":3422:3430  campaign */\n      dup2\n        /* \"contracts/CrowdFunding.sol\":3422:3440  campaign.donations */\n      0x08\n      add\n        /* \"contracts/CrowdFunding.sol\":3395:3441  return (campaign.donators, campaign.donations) */\n      dup2\n      dup1\n      sload\n      dup1\n      0x20\n      mul\n      0x20\n      add\n      mload(0x40)\n      swap1\n      dup2\n      add\n      0x40\n      mstore\n      dup1\n      swap3\n      swap2\n      swap1\n      dup2\n      dup2\n      mstore\n      0x20\n      add\n      dup3\n      dup1\n      sload\n      dup1\n      iszero\n      tag_53\n      jumpi\n      0x20\n      mul\n      dup3\n      add\n      swap2\n      swap1\n      0x00\n      mstore\n      keccak256(0x00, 0x20)\n      swap1\n    tag_54:\n      dup2\n      0x00\n      swap1\n      sload\n      swap1\n      0x0100\n      exp\n      swap1\n      div\n      0xffffffffffffffffffffffffffffffffffffffff\n      and\n      0xffffffffffffffffffffffffffffffffffffffff\n      and\n      dup2\n      mstore\n      0x20\n      add\n      swap1\n      0x01\n      add\n      swap1\n      dup1\n      dup4\n      gt\n      tag_54\n      jumpi\n    tag_53:\n      pop\n      pop\n      pop\n      pop\n      pop\n      swap2\n      pop\n      dup1\n      dup1\n      sload\n      dup1\n      0x20\n      mul\n      0x20\n      add\n      mload(0x40)\n      swap1\n      dup2\n      add\n      0x40\n      mstore\n      dup1\n      swap3\n      swap2\n      swap1\n      dup2\n      dup2\n      mstore\n      0x20\n      add\n      dup3\n      dup1\n      sload\n      dup1\n      iszero\n      tag_55\n      jumpi\n      0x20\n      mul\n      dup3\n      add\n      swap2\n      swap1\n      0x00\n      mstore\n      keccak256(0x00, 0x20)\n      swap1\n    tag_56:\n      dup2\n      sload\n      dup2\n      mstore\n      0x20\n      add\n      swap1\n      0x01\n      add\n      swap1\n      dup1\n      dup4\n      gt\n      tag_56\n      jumpi\n    tag_55:\n      pop\n      pop\n      pop\n      pop\n      pop\n      swap1\n      pop\n      swap3\n      pop\n      swap3\n      pop\n      pop\n        /* \"contracts/CrowdFunding.sol\":3240:3448  function getDonators(uint256 _id) external view returns (address[] memory, uint256[] memory) {... */\n      swap2\n      pop\n      swap2\n      jump\t// out\n        /* \"contracts/CrowdFunding.sol\":833:1781  function createCampaign(... */\n    tag_27:\n        /* \"contracts/CrowdFunding.sol\":1032:1039  uint256 */\n      0x00\n        /* \"contracts/CrowdFunding.sol\":1069:1070  0 */\n      dup1\n        /* \"contracts/CrowdFunding.sol\":1059:1066  _target */\n      dup5\n        /* \"contracts/CrowdFunding.sol\":1059:1070  _target > 0 */\n      gt\n        /* \"contracts/CrowdFunding.sol\":1051:1104  require(_target > 0, \"Target must be greater than 0\") */\n      tag_58\n      jumpi\n      mload(0x40)\n      0x08c379a000000000000000000000000000000000000000000000000000000000\n      dup2\n      mstore\n      0x04\n      add\n      tag_59\n      swap1\n      tag_60\n      jump\t// in\n    tag_59:\n      mload(0x40)\n      dup1\n      swap2\n      sub\n      swap1\n      revert\n    tag_58:\n        /* \"contracts/CrowdFunding.sol\":1145:1146  0 */\n      0x00\n        /* \"contracts/CrowdFunding.sol\":1128:1134  _title */\n      dup9\n      dup9\n        /* \"contracts/CrowdFunding.sol\":1122:1142  bytes(_title).length */\n      swap1\n      pop\n        /* \"contracts/CrowdFunding.sol\":1122:1146  bytes(_title).length > 0 */\n      gt\n        /* \"contracts/CrowdFunding.sol\":1114:1172  require(bytes(_title).length > 0, \"Title cannot be empty\") */\n      tag_61\n      jumpi\n      mload(0x40)\n      0x08c379a000000000000000000000000000000000000000000000000000000000\n      dup2\n      mstore\n      0x04\n      add\n      tag_62\n      swap1\n      tag_63\n      jump\t// in\n    tag_62:\n      mload(0x40)\n      dup1\n      swap2\n      sub\n      swap1\n      revert\n    tag_61:\n        /* \"contracts/CrowdFunding.sol\":1219:1220  0 */\n      0x00\n        /* \"contracts/CrowdFunding.sol\":1196:1208  _description */\n      dup7\n      dup7\n        /* \"contracts/CrowdFunding.sol\":1190:1216  bytes(_description).length */\n      swap1\n      pop\n        /* \"contracts/CrowdFunding.sol\":1190:1220  bytes(_description).length > 0 */\n      gt\n        /* \"contracts/CrowdFunding.sol\":1182:1252  require(bytes(_description).length > 0, \"Description cannot be empty\") */\n      tag_64\n      jumpi\n      mload(0x40)\n      0x08c379a000000000000000000000000000000000000000000000000000000000\n      dup2\n      mstore\n      0x04\n      add\n      tag_65\n      swap1\n      tag_66\n      jump\t// in\n    tag_65:\n      mload(0x40)\n      dup1\n      swap2\n      sub\n      swap1\n      revert\n    tag_64:\n        /* \"contracts/CrowdFunding.sol\":1288:1289  0 */\n      0x00\n        /* \"contracts/CrowdFunding.sol\":1270:1290  _owner != address(0) */\n      0xffffffffffffffffffffffffffffffffffffffff\n      and\n        /* \"contracts/CrowdFunding.sol\":1270:1276  _owner */\n      dup10\n        /* \"contracts/CrowdFunding.sol\":1270:1290  _owner != address(0) */\n      0xffffffffffffffffffffffffffffffffffffffff\n      and\n      sub\n        /* \"contracts/CrowdFunding.sol\":1262:1316  require(_owner != address(0), \"Invalid owner address\") */\n      tag_67\n      jumpi\n      mload(0x40)\n      0x08c379a000000000000000000000000000000000000000000000000000000000\n      dup2\n      mstore\n      0x04\n      add\n      tag_68\n      swap1\n      tag_69\n      jump\t// in\n    tag_68:\n      mload(0x40)\n      dup1\n      swap2\n      sub\n      swap1\n      revert\n    tag_67:\n        /* \"contracts/CrowdFunding.sol\":1327:1352  Campaign storage campaign */\n      0x00\n        /* \"contracts/CrowdFunding.sol\":1355:1364  campaigns */\n      dup1\n        /* \"contracts/CrowdFunding.sol\":1355:1383  campaigns[numberOfCampaigns] */\n      0x00\n        /* \"contracts/CrowdFunding.sol\":1365:1382  numberOfCampaigns */\n      sload(0x01)\n        /* \"contracts/CrowdFunding.sol\":1355:1383  campaigns[numberOfCampaigns] */\n      dup2\n      mstore\n      0x20\n      add\n      swap1\n      dup2\n      mstore\n      0x20\n      add\n      0x00\n      keccak256\n        /* \"contracts/CrowdFunding.sol\":1327:1383  Campaign storage campaign = campaigns[numberOfCampaigns] */\n      swap1\n      pop\n        /* \"contracts/CrowdFunding.sol\":1410:1416  _owner */\n      dup10\n        /* \"contracts/CrowdFunding.sol\":1393:1401  campaign */\n      dup2\n        /* \"contracts/CrowdFunding.sol\":1393:1407  campaign.owner */\n      0x00\n      add\n      0x00\n        /* \"contracts/CrowdFunding.sol\":1393:1416  campaign.owner = _owner */\n      0x0100\n      exp\n      dup2\n      sload\n      dup2\n      0xffffffffffffffffffffffffffffffffffffffff\n      mul\n      not\n      and\n      swap1\n      dup4\n      0xffffffffffffffffffffffffffffffffffffffff\n      and\n      mul\n      or\n      swap1\n      sstore\n      pop\n        /* \"contracts/CrowdFunding.sol\":1443:1449  _title */\n      dup9\n      dup9\n        /* \"contracts/CrowdFunding.sol\":1426:1434  campaign */\n      dup3\n        /* \"contracts/CrowdFunding.sol\":1426:1440  campaign.title */\n      0x01\n      add\n        /* \"contracts/CrowdFunding.sol\":1426:1449  campaign.title = _title */\n      swap2\n      dup3\n      tag_70\n      swap3\n      swap2\n      swap1\n      tag_71\n      jump\t// in\n    tag_70:\n      pop\n        /* \"contracts/CrowdFunding.sol\":1482:1494  _description */\n      dup7\n      dup7\n        /* \"contracts/CrowdFunding.sol\":1459:1467  campaign */\n      dup3\n        /* \"contracts/CrowdFunding.sol\":1459:1479  campaign.description */\n      0x02\n      add\n        /* \"contracts/CrowdFunding.sol\":1459:1494  campaign.description = _description */\n      swap2\n      dup3\n      tag_72\n      swap3\n      swap2\n      swap1\n      tag_71\n      jump\t// in\n    tag_72:\n      pop\n        /* \"contracts/CrowdFunding.sol\":1522:1529  _target */\n      dup5\n        /* \"contracts/CrowdFunding.sol\":1504:1512  campaign */\n      dup2\n        /* \"contracts/CrowdFunding.sol\":1504:1519  campaign.target */\n      0x03\n      add\n        /* \"contracts/CrowdFunding.sol\":1504:1529  campaign.target = _target */\n      dup2\n      swap1\n      sstore\n      pop\n        /* \"contracts/CrowdFunding.sol\":1566:1567  0 */\n      0x00\n        /* \"contracts/CrowdFunding.sol\":1539:1547  campaign */\n      dup2\n        /* \"contracts/CrowdFunding.sol\":1539:1563  campaign.amountCollected */\n      0x04\n      add\n        /* \"contracts/CrowdFunding.sol\":1539:1567  campaign.amountCollected = 0 */\n      dup2\n      swap1\n      sstore\n      pop\n        /* \"contracts/CrowdFunding.sol\":1594:1600  _image */\n      dup4\n      dup4\n        /* \"contracts/CrowdFunding.sol\":1577:1585  campaign */\n      dup3\n        /* \"contracts/CrowdFunding.sol\":1577:1591  campaign.image */\n      0x05\n      add\n        /* \"contracts/CrowdFunding.sol\":1577:1600  campaign.image = _image */\n      swap2\n      dup3\n      tag_73\n      swap3\n      swap2\n      swap1\n      tag_71\n      jump\t// in\n    tag_73:\n      pop\n        /* \"contracts/CrowdFunding.sol\":1631:1636  false */\n      0x00\n        /* \"contracts/CrowdFunding.sol\":1610:1618  campaign */\n      dup2\n        /* \"contracts/CrowdFunding.sol\":1610:1628  campaign.completed */\n      0x06\n      add\n      0x00\n        /* \"contracts/CrowdFunding.sol\":1610:1636  campaign.completed = false */\n      0x0100\n      exp\n      dup2\n      sload\n      dup2\n      0xff\n      mul\n      not\n      and\n      swap1\n      dup4\n      iszero\n      iszero\n      mul\n      or\n      swap1\n      sstore\n      pop\n        /* \"contracts/CrowdFunding.sol\":1708:1732  numberOfCampaigns.add(1) */\n      tag_74\n        /* \"contracts/CrowdFunding.sol\":1730:1731  1 */\n      0x01\n        /* \"contracts/CrowdFunding.sol\":1708:1725  numberOfCampaigns */\n      dup1\n      sload\n        /* \"contracts/CrowdFunding.sol\":1708:1729  numberOfCampaigns.add */\n      tag_75\n      swap1\n        /* \"contracts/CrowdFunding.sol\":1708:1732  numberOfCampaigns.add(1) */\n      swap2\n      swap1\n      0xffffffff\n      and\n      jump\t// in\n    tag_74:\n        /* \"contracts/CrowdFunding.sol\":1688:1705  numberOfCampaigns */\n      0x01\n        /* \"contracts/CrowdFunding.sol\":1688:1732  numberOfCampaigns = numberOfCampaigns.add(1) */\n      dup2\n      swap1\n      sstore\n      pop\n        /* \"contracts/CrowdFunding.sol\":1750:1774  numberOfCampaigns.sub(1) */\n      tag_76\n        /* \"contracts/CrowdFunding.sol\":1772:1773  1 */\n      0x01\n        /* \"contracts/CrowdFunding.sol\":1750:1767  numberOfCampaigns */\n      dup1\n      sload\n        /* \"contracts/CrowdFunding.sol\":1750:1771  numberOfCampaigns.sub */\n      tag_77\n      swap1\n        /* \"contracts/CrowdFunding.sol\":1750:1774  numberOfCampaigns.sub(1) */\n      swap2\n      swap1\n      0xffffffff\n      and\n      jump\t// in\n    tag_76:\n        /* \"contracts/CrowdFunding.sol\":1743:1774  return numberOfCampaigns.sub(1) */\n      swap2\n      pop\n      pop\n        /* \"contracts/CrowdFunding.sol\":833:1781  function createCampaign(... */\n      swap9\n      swap8\n      pop\n      pop\n      pop\n      pop\n      pop\n      pop\n      pop\n      pop\n      jump\t// out\n        /* \"contracts/CrowdFunding.sol\":551:596  mapping(uint256 => Campaign) public campaigns */\n    tag_32:\n      mstore(0x20, 0x00)\n      dup1\n      0x00\n      mstore\n      keccak256(0x00, 0x40)\n      0x00\n      swap2\n      pop\n      swap1\n      pop\n      dup1\n      0x00\n      add\n      0x00\n      swap1\n      sload\n      swap1\n      0x0100\n      exp\n      swap1\n      div\n      0xffffffffffffffffffffffffffffffffffffffff\n      and\n      swap1\n      dup1\n      0x01\n      add\n      dup1\n      sload\n      tag_78\n      swap1\n      tag_79\n      jump\t// in\n    tag_78:\n      dup1\n      0x1f\n      add\n      0x20\n      dup1\n      swap2\n      div\n      mul\n      0x20\n      add\n      mload(0x40)\n      swap1\n      dup2\n      add\n      0x40\n      mstore\n      dup1\n      swap3\n      swap2\n      swap1\n      dup2\n      dup2\n      mstore\n      0x20\n      add\n      dup3\n      dup1\n      sload\n      tag_80\n      swap1\n      tag_79\n      jump\t// in\n    tag_80:\n      dup1\n      iszero\n      tag_81\n      jumpi\n      dup1\n      0x1f\n      lt\n      tag_82\n      jumpi\n      0x0100\n      dup1\n      dup4\n      sload\n      div\n      mul\n      dup4\n      mstore\n      swap2\n      0x20\n      add\n      swap2\n      jump(tag_81)\n    tag_82:\n      dup3\n      add\n      swap2\n      swap1\n      0x00\n      mstore\n      keccak256(0x00, 0x20)\n      swap1\n    tag_83:\n      dup2\n      sload\n      dup2\n      mstore\n      swap1\n      0x01\n      add\n      swap1\n      0x20\n      add\n      dup1\n      dup4\n      gt\n      tag_83\n      jumpi\n      dup3\n      swap1\n      sub\n      0x1f\n      and\n      dup3\n      add\n      swap2\n    tag_81:\n      pop\n      pop\n      pop\n      pop\n      pop\n      swap1\n      dup1\n      0x02\n      add\n      dup1\n      sload\n      tag_84\n      swap1\n      tag_79\n      jump\t// in\n    tag_84:\n      dup1\n      0x1f\n      add\n      0x20\n      dup1\n      swap2\n      div\n      mul\n      0x20\n      add\n      mload(0x40)\n      swap1\n      dup2\n      add\n      0x40\n      mstore\n      dup1\n      swap3\n      swap2\n      swap1\n      dup2\n      dup2\n      mstore\n      0x20\n      add\n      dup3\n      dup1\n      sload\n      tag_85\n      swap1\n      tag_79\n      jump\t// in\n    tag_85:\n      dup1\n      iszero\n      tag_86\n      jumpi\n      dup1\n      0x1f\n      lt\n      tag_87\n      jumpi\n      0x0100\n      dup1\n      dup4\n      sload\n      div\n      mul\n      dup4\n      mstore\n      swap2\n      0x20\n      add\n      swap2\n      jump(tag_86)\n    tag_87:\n      dup3\n      add\n      swap2\n      swap1\n      0x00\n      mstore\n      keccak256(0x00, 0x20)\n      swap1\n    tag_88:\n      dup2\n      sload\n      dup2\n      mstore\n      swap1\n      0x01\n      add\n      swap1\n      0x20\n      add\n      dup1\n      dup4\n      gt\n      tag_88\n      jumpi\n      dup3\n      swap1\n      sub\n      0x1f\n      and\n      dup3\n      add\n      swap2\n    tag_86:\n      pop\n      pop\n      pop\n      pop\n      pop\n      swap1\n      dup1\n      0x03\n      add\n      sload\n      swap1\n      dup1\n      0x04\n      add\n      sload\n      swap1\n      dup1\n      0x05\n      add\n      dup1\n      sload\n      tag_89\n      swap1\n      tag_79\n      jump\t// in\n    tag_89:\n      dup1\n      0x1f\n      add\n      0x20\n      dup1\n      swap2\n      div\n      mul\n      0x20\n      add\n      mload(0x40)\n      swap1\n      dup2\n      add\n      0x40\n      mstore\n      dup1\n      swap3\n      swap2\n      swap1\n      dup2\n      dup2\n      mstore\n      0x20\n      add\n      dup3\n      dup1\n      sload\n      tag_90\n      swap1\n      tag_79\n      jump\t// in\n    tag_90:\n      dup1\n      iszero\n      tag_91\n      jumpi\n      dup1\n      0x1f\n      lt\n      tag_92\n      jumpi\n      0x0100\n      dup1\n      dup4\n      sload\n      div\n      mul\n      dup4\n      mstore\n      swap2\n      0x20\n      add\n      swap2\n      jump(tag_91)\n    tag_92:\n      dup3\n      add\n      swap2\n      swap1\n      0x00\n      mstore\n      keccak256(0x00, 0x20)\n      swap1\n    tag_93:\n      dup2\n      sload\n      dup2\n      mstore\n      swap1\n      0x01\n      add\n      swap1\n      0x20\n      add\n      dup1\n      dup4\n      gt\n      tag_93\n      jumpi\n      dup3\n      swap1\n      sub\n      0x1f\n      and\n      dup3\n      add\n      swap2\n    tag_91:\n      pop\n      pop\n      pop\n      pop\n      pop\n      swap1\n      dup1\n      0x06\n      add\n      0x00\n      swap1\n      sload\n      swap1\n      0x0100\n      exp\n      swap1\n      div\n      0xff\n      and\n      swap1\n      pop\n      dup8\n      jump\t// out\n        /* \"contracts/CrowdFunding.sol\":1824:3158  function donateToCampaign(uint256 _id) external payable {... */\n    tag_37:\n        /* \"contracts/CrowdFunding.sol\":1910:1911  0 */\n      0x00\n        /* \"contracts/CrowdFunding.sol\":1898:1907  msg.value */\n      callvalue\n        /* \"contracts/CrowdFunding.sol\":1898:1911  msg.value > 0 */\n      gt\n        /* \"contracts/CrowdFunding.sol\":1890:1954  require(msg.value > 0, \"Donation amount must be greater than 0\") */\n      tag_95\n      jumpi\n      mload(0x40)\n      0x08c379a000000000000000000000000000000000000000000000000000000000\n      dup2\n      mstore\n      0x04\n      add\n      tag_96\n      swap1\n      tag_97\n      jump\t// in\n    tag_96:\n      mload(0x40)\n      dup1\n      swap2\n      sub\n      swap1\n      revert\n    tag_95:\n        /* \"contracts/CrowdFunding.sol\":1964:1989  Campaign storage campaign */\n      0x00\n        /* \"contracts/CrowdFunding.sol\":1992:2001  campaigns */\n      dup1\n        /* \"contracts/CrowdFunding.sol\":1992:2006  campaigns[_id] */\n      0x00\n        /* \"contracts/CrowdFunding.sol\":2002:2005  _id */\n      dup4\n        /* \"contracts/CrowdFunding.sol\":1992:2006  campaigns[_id] */\n      dup2\n      mstore\n      0x20\n      add\n      swap1\n      dup2\n      mstore\n      0x20\n      add\n      0x00\n      keccak256\n        /* \"contracts/CrowdFunding.sol\":1964:2006  Campaign storage campaign = campaigns[_id] */\n      swap1\n      pop\n        /* \"contracts/CrowdFunding.sol\":2050:2051  0 */\n      0x00\n        /* \"contracts/CrowdFunding.sol\":2024:2052  campaign.owner != address(0) */\n      0xffffffffffffffffffffffffffffffffffffffff\n      and\n        /* \"contracts/CrowdFunding.sol\":2024:2032  campaign */\n      dup2\n        /* \"contracts/CrowdFunding.sol\":2024:2038  campaign.owner */\n      0x00\n      add\n      0x00\n      swap1\n      sload\n      swap1\n      0x0100\n      exp\n      swap1\n      div\n      0xffffffffffffffffffffffffffffffffffffffff\n      and\n        /* \"contracts/CrowdFunding.sol\":2024:2052  campaign.owner != address(0) */\n      0xffffffffffffffffffffffffffffffffffffffff\n      and\n      sub\n        /* \"contracts/CrowdFunding.sol\":2016:2080  require(campaign.owner != address(0), \"Campaign does not exist\") */\n      tag_98\n      jumpi\n      mload(0x40)\n      0x08c379a000000000000000000000000000000000000000000000000000000000\n      dup2\n      mstore\n      0x04\n      add\n      tag_99\n      swap1\n      tag_100\n      jump\t// in\n    tag_99:\n      mload(0x40)\n      dup1\n      swap2\n      sub\n      swap1\n      revert\n    tag_98:\n        /* \"contracts/CrowdFunding.sol\":2099:2107  campaign */\n      dup1\n        /* \"contracts/CrowdFunding.sol\":2099:2117  campaign.completed */\n      0x06\n      add\n      0x00\n      swap1\n      sload\n      swap1\n      0x0100\n      exp\n      swap1\n      div\n      0xff\n      and\n        /* \"contracts/CrowdFunding.sol\":2098:2117  !campaign.completed */\n      iszero\n        /* \"contracts/CrowdFunding.sol\":2090:2148  require(!campaign.completed, \"Campaign already completed\") */\n      tag_101\n      jumpi\n      mload(0x40)\n      0x08c379a000000000000000000000000000000000000000000000000000000000\n      dup2\n      mstore\n      0x04\n      add\n      tag_102\n      swap1\n      tag_103\n      jump\t// in\n    tag_102:\n      mload(0x40)\n      dup1\n      swap2\n      sub\n      swap1\n      revert\n    tag_101:\n        /* \"contracts/CrowdFunding.sol\":2210:2240  uint256 initialAmountCollected */\n      0x00\n        /* \"contracts/CrowdFunding.sol\":2243:2251  campaign */\n      dup2\n        /* \"contracts/CrowdFunding.sol\":2243:2267  campaign.amountCollected */\n      0x04\n      add\n      sload\n        /* \"contracts/CrowdFunding.sol\":2210:2267  uint256 initialAmountCollected = campaign.amountCollected */\n      swap1\n      pop\n        /* \"contracts/CrowdFunding.sol\":2339:2347  campaign */\n      dup2\n        /* \"contracts/CrowdFunding.sol\":2339:2356  campaign.donators */\n      0x07\n      add\n        /* \"contracts/CrowdFunding.sol\":2362:2372  msg.sender */\n      caller\n        /* \"contracts/CrowdFunding.sol\":2339:2373  campaign.donators.push(msg.sender) */\n      swap1\n      dup1\n      0x01\n      dup2\n      sload\n      add\n      dup1\n      dup3\n      sstore\n      dup1\n      swap2\n      pop\n      pop\n      0x01\n      swap1\n      sub\n      swap1\n      0x00\n      mstore\n      keccak256(0x00, 0x20)\n      add\n      0x00\n      swap1\n      swap2\n      swap1\n      swap2\n      swap1\n      swap2\n      0x0100\n      exp\n      dup2\n      sload\n      dup2\n      0xffffffffffffffffffffffffffffffffffffffff\n      mul\n      not\n      and\n      swap1\n      dup4\n      0xffffffffffffffffffffffffffffffffffffffff\n      and\n      mul\n      or\n      swap1\n      sstore\n      pop\n        /* \"contracts/CrowdFunding.sol\":2383:2391  campaign */\n      dup2\n        /* \"contracts/CrowdFunding.sol\":2383:2401  campaign.donations */\n      0x08\n      add\n        /* \"contracts/CrowdFunding.sol\":2407:2416  msg.value */\n      callvalue\n        /* \"contracts/CrowdFunding.sol\":2383:2417  campaign.donations.push(msg.value) */\n      swap1\n      dup1\n      0x01\n      dup2\n      sload\n      add\n      dup1\n      dup3\n      sstore\n      dup1\n      swap2\n      pop\n      pop\n      0x01\n      swap1\n      sub\n      swap1\n      0x00\n      mstore\n      keccak256(0x00, 0x20)\n      add\n      0x00\n      swap1\n      swap2\n      swap1\n      swap2\n      swap1\n      swap2\n      pop\n      sstore\n        /* \"contracts/CrowdFunding.sol\":2492:2531  campaign.amountCollected.add(msg.value) */\n      tag_106\n        /* \"contracts/CrowdFunding.sol\":2521:2530  msg.value */\n      callvalue\n        /* \"contracts/CrowdFunding.sol\":2492:2500  campaign */\n      dup4\n        /* \"contracts/CrowdFunding.sol\":2492:2516  campaign.amountCollected */\n      0x04\n      add\n      sload\n        /* \"contracts/CrowdFunding.sol\":2492:2520  campaign.amountCollected.add */\n      tag_75\n      swap1\n        /* \"contracts/CrowdFunding.sol\":2492:2531  campaign.amountCollected.add(msg.value) */\n      swap2\n      swap1\n      0xffffffff\n      and\n      jump\t// in\n    tag_106:\n        /* \"contracts/CrowdFunding.sol\":2465:2473  campaign */\n      dup3\n        /* \"contracts/CrowdFunding.sol\":2465:2489  campaign.amountCollected */\n      0x04\n      add\n        /* \"contracts/CrowdFunding.sol\":2465:2531  campaign.amountCollected = campaign.amountCollected.add(msg.value) */\n      dup2\n      swap1\n      sstore\n      pop\n        /* \"contracts/CrowdFunding.sol\":2663:2671  campaign */\n      dup2\n        /* \"contracts/CrowdFunding.sol\":2663:2678  campaign.target */\n      0x03\n      add\n      sload\n        /* \"contracts/CrowdFunding.sol\":2635:2643  campaign */\n      dup3\n        /* \"contracts/CrowdFunding.sol\":2635:2659  campaign.amountCollected */\n      0x04\n      add\n      sload\n        /* \"contracts/CrowdFunding.sol\":2635:2678  campaign.amountCollected >= campaign.target */\n      lt\n        /* \"contracts/CrowdFunding.sol\":2631:3005  if (campaign.amountCollected >= campaign.target) {... */\n      tag_107\n      jumpi\n        /* \"contracts/CrowdFunding.sol\":2715:2719  true */\n      0x01\n        /* \"contracts/CrowdFunding.sol\":2694:2702  campaign */\n      dup3\n        /* \"contracts/CrowdFunding.sol\":2694:2712  campaign.completed */\n      0x06\n      add\n      0x00\n        /* \"contracts/CrowdFunding.sol\":2694:2719  campaign.completed = true */\n      0x0100\n      exp\n      dup2\n      sload\n      dup2\n      0xff\n      mul\n      not\n      and\n      swap1\n      dup4\n      iszero\n      iszero\n      mul\n      or\n      swap1\n      sstore\n      pop\n        /* \"contracts/CrowdFunding.sol\":2734:2743  bool sent */\n      0x00\n        /* \"contracts/CrowdFunding.sol\":2757:2765  campaign */\n      dup3\n        /* \"contracts/CrowdFunding.sol\":2757:2771  campaign.owner */\n      0x00\n      add\n      0x00\n      swap1\n      sload\n      swap1\n      0x0100\n      exp\n      swap1\n      div\n      0xffffffffffffffffffffffffffffffffffffffff\n      and\n        /* \"contracts/CrowdFunding.sol\":2749:2777  payable(campaign.owner).call */\n      0xffffffffffffffffffffffffffffffffffffffff\n      and\n        /* \"contracts/CrowdFunding.sol\":2785:2793  campaign */\n      dup4\n        /* \"contracts/CrowdFunding.sol\":2785:2809  campaign.amountCollected */\n      0x04\n      add\n      sload\n        /* \"contracts/CrowdFunding.sol\":2749:2814  payable(campaign.owner).call{value: campaign.amountCollected}(\"\") */\n      mload(0x40)\n      tag_108\n      swap1\n      tag_109\n      jump\t// in\n    tag_108:\n      0x00\n      mload(0x40)\n      dup1\n      dup4\n      sub\n      dup2\n      dup6\n      dup8\n      gas\n      call\n      swap3\n      pop\n      pop\n      pop\n      returndatasize\n      dup1\n      0x00\n      dup2\n      eq\n      tag_112\n      jumpi\n      mload(0x40)\n      swap2\n      pop\n      and(add(returndatasize, 0x3f), not(0x1f))\n      dup3\n      add\n      0x40\n      mstore\n      returndatasize\n      dup3\n      mstore\n      returndatasize\n      0x00\n      0x20\n      dup5\n      add\n      returndatacopy\n      jump(tag_111)\n    tag_112:\n      0x60\n      swap2\n      pop\n    tag_111:\n      pop\n        /* \"contracts/CrowdFunding.sol\":2733:2814  (bool sent, ) = payable(campaign.owner).call{value: campaign.amountCollected}(\"\") */\n      pop\n      swap1\n      pop\n        /* \"contracts/CrowdFunding.sol\":2836:2840  sent */\n      dup1\n        /* \"contracts/CrowdFunding.sol\":2828:2883  require(sent, \"Failed to send Ether to campaign owner\") */\n      tag_113\n      jumpi\n      mload(0x40)\n      0x08c379a000000000000000000000000000000000000000000000000000000000\n      dup2\n      mstore\n      0x04\n      add\n      tag_114\n      swap1\n      tag_115\n      jump\t// in\n    tag_114:\n      mload(0x40)\n      dup1\n      swap2\n      sub\n      swap1\n      revert\n    tag_113:\n        /* \"contracts/CrowdFunding.sol\":2949:2994  TargetAchieved(_id, campaign.amountCollected) */\n      0x9222ae681f845a771921ce4b3ad4e0edbad84581db89f9b964c68c7b72e3e26a\n        /* \"contracts/CrowdFunding.sol\":2964:2967  _id */\n      dup5\n        /* \"contracts/CrowdFunding.sol\":2969:2977  campaign */\n      dup5\n        /* \"contracts/CrowdFunding.sol\":2969:2993  campaign.amountCollected */\n      0x04\n      add\n      sload\n        /* \"contracts/CrowdFunding.sol\":2949:2994  TargetAchieved(_id, campaign.amountCollected) */\n      mload(0x40)\n      tag_116\n      swap3\n      swap2\n      swap1\n      tag_117\n      jump\t// in\n    tag_116:\n      mload(0x40)\n      dup1\n      swap2\n      sub\n      swap1\n      log1\n        /* \"contracts/CrowdFunding.sol\":2680:3005  {... */\n      pop\n        /* \"contracts/CrowdFunding.sol\":2631:3005  if (campaign.amountCollected >= campaign.target) {... */\n    tag_107:\n        /* \"contracts/CrowdFunding.sol\":3113:3150  initialAmountCollected.add(msg.value) */\n      tag_118\n        /* \"contracts/CrowdFunding.sol\":3140:3149  msg.value */\n      callvalue\n        /* \"contracts/CrowdFunding.sol\":3113:3135  initialAmountCollected */\n      dup3\n        /* \"contracts/CrowdFunding.sol\":3113:3139  initialAmountCollected.add */\n      tag_75\n      swap1\n        /* \"contracts/CrowdFunding.sol\":3113:3150  initialAmountCollected.add(msg.value) */\n      swap2\n      swap1\n      0xffffffff\n      and\n      jump\t// in\n    tag_118:\n        /* \"contracts/CrowdFunding.sol\":3085:3093  campaign */\n      dup3\n        /* \"contracts/CrowdFunding.sol\":3085:3109  campaign.amountCollected */\n      0x04\n      add\n      sload\n        /* \"contracts/CrowdFunding.sol\":3085:3150  campaign.amountCollected == initialAmountCollected.add(msg.value) */\n      eq\n        /* \"contracts/CrowdFunding.sol\":3078:3151  assert(campaign.amountCollected == initialAmountCollected.add(msg.value)) */\n      tag_119\n      jumpi\n      tag_120\n      tag_121\n      jump\t// in\n    tag_120:\n    tag_119:\n        /* \"contracts/CrowdFunding.sol\":1880:3158  {... */\n      pop\n      pop\n        /* \"contracts/CrowdFunding.sol\":1824:3158  function donateToCampaign(uint256 _id) external payable {... */\n      pop\n      jump\t// out\n        /* \"contracts/CrowdFunding.sol\":4558:4867  function deleteCampaign(uint256 _id) external {... */\n    tag_41:\n        /* \"contracts/CrowdFunding.sol\":4614:4639  Campaign storage campaign */\n      0x00\n        /* \"contracts/CrowdFunding.sol\":4642:4651  campaigns */\n      dup1\n        /* \"contracts/CrowdFunding.sol\":4642:4656  campaigns[_id] */\n      0x00\n        /* \"contracts/CrowdFunding.sol\":4652:4655  _id */\n      dup4\n        /* \"contracts/CrowdFunding.sol\":4642:4656  campaigns[_id] */\n      dup2\n      mstore\n      0x20\n      add\n      swap1\n      dup2\n      mstore\n      0x20\n      add\n      0x00\n      keccak256\n        /* \"contracts/CrowdFunding.sol\":4614:4656  Campaign storage campaign = campaigns[_id] */\n      swap1\n      pop\n        /* \"contracts/CrowdFunding.sol\":4688:4696  campaign */\n      dup1\n        /* \"contracts/CrowdFunding.sol\":4688:4702  campaign.owner */\n      0x00\n      add\n      0x00\n      swap1\n      sload\n      swap1\n      0x0100\n      exp\n      swap1\n      div\n      0xffffffffffffffffffffffffffffffffffffffff\n      and\n        /* \"contracts/CrowdFunding.sol\":4674:4702  msg.sender == campaign.owner */\n      0xffffffffffffffffffffffffffffffffffffffff\n      and\n        /* \"contracts/CrowdFunding.sol\":4674:4684  msg.sender */\n      caller\n        /* \"contracts/CrowdFunding.sol\":4674:4702  msg.sender == campaign.owner */\n      0xffffffffffffffffffffffffffffffffffffffff\n      and\n      eq\n        /* \"contracts/CrowdFunding.sol\":4666:4741  require(msg.sender == campaign.owner, \"Only the campaign owner can delete\") */\n      tag_123\n      jumpi\n      mload(0x40)\n      0x08c379a000000000000000000000000000000000000000000000000000000000\n      dup2\n      mstore\n      0x04\n      add\n      tag_124\n      swap1\n      tag_125\n      jump\t// in\n    tag_124:\n      mload(0x40)\n      dup1\n      swap2\n      sub\n      swap1\n      revert\n    tag_123:\n        /* \"contracts/CrowdFunding.sol\":4787:4788  0 */\n      0x00\n        /* \"contracts/CrowdFunding.sol\":4759:4767  campaign */\n      dup2\n        /* \"contracts/CrowdFunding.sol\":4759:4783  campaign.amountCollected */\n      0x04\n      add\n      sload\n        /* \"contracts/CrowdFunding.sol\":4759:4788  campaign.amountCollected == 0 */\n      eq\n        /* \"contracts/CrowdFunding.sol\":4751:4828  require(campaign.amountCollected == 0, \"Cannot delete a campaign with funds\") */\n      tag_126\n      jumpi\n      mload(0x40)\n      0x08c379a000000000000000000000000000000000000000000000000000000000\n      dup2\n      mstore\n      0x04\n      add\n      tag_127\n      swap1\n      tag_128\n      jump\t// in\n    tag_127:\n      mload(0x40)\n      dup1\n      swap2\n      sub\n      swap1\n      revert\n    tag_126:\n        /* \"contracts/CrowdFunding.sol\":4846:4855  campaigns */\n      0x00\n        /* \"contracts/CrowdFunding.sol\":4846:4860  campaigns[_id] */\n      dup1\n        /* \"contracts/CrowdFunding.sol\":4856:4859  _id */\n      dup4\n        /* \"contracts/CrowdFunding.sol\":4846:4860  campaigns[_id] */\n      dup2\n      mstore\n      0x20\n      add\n      swap1\n      dup2\n      mstore\n      0x20\n      add\n      0x00\n      keccak256\n      0x00\n        /* \"contracts/CrowdFunding.sol\":4839:4860  delete campaigns[_id] */\n      dup1\n      dup3\n      add\n      exp(0x0100, 0x00)\n      dup2\n      sload\n      swap1\n      0xffffffffffffffffffffffffffffffffffffffff\n      mul\n      not\n      and\n      swap1\n      sstore\n      0x01\n      dup3\n      add\n      0x00\n      tag_129\n      swap2\n      swap1\n      tag_130\n      jump\t// in\n    tag_129:\n      0x02\n      dup3\n      add\n      0x00\n      tag_131\n      swap2\n      swap1\n      tag_130\n      jump\t// in\n    tag_131:\n      0x03\n      dup3\n      add\n      0x00\n      swap1\n      sstore\n      0x04\n      dup3\n      add\n      0x00\n      swap1\n      sstore\n      0x05\n      dup3\n      add\n      0x00\n      tag_132\n      swap2\n      swap1\n      tag_130\n      jump\t// in\n    tag_132:\n      0x06\n      dup3\n      add\n      exp(0x0100, 0x00)\n      dup2\n      sload\n      swap1\n      0xff\n      mul\n      not\n      and\n      swap1\n      sstore\n      0x07\n      dup3\n      add\n      0x00\n      tag_133\n      swap2\n      swap1\n      tag_134\n      jump\t// in\n    tag_133:\n      0x08\n      dup3\n      add\n      0x00\n      tag_135\n      swap2\n      swap1\n      tag_136\n      jump\t// in\n    tag_135:\n      pop\n      pop\n        /* \"contracts/CrowdFunding.sol\":4604:4867  {... */\n      pop\n        /* \"contracts/CrowdFunding.sol\":4558:4867  function deleteCampaign(uint256 _id) external {... */\n      pop\n      jump\t// out\n        /* \"contracts/CrowdFunding.sol\":3479:3813  function getCampaigns() external view returns (Campaign[] memory) {... */\n    tag_44:\n        /* \"contracts/CrowdFunding.sol\":3526:3543  Campaign[] memory */\n      0x60\n        /* \"contracts/CrowdFunding.sol\":3555:3585  Campaign[] memory allCampaigns */\n      0x00\n        /* \"contracts/CrowdFunding.sol\":3603:3620  numberOfCampaigns */\n      sload(0x01)\n        /* \"contracts/CrowdFunding.sol\":3588:3621  new Campaign[](numberOfCampaigns) */\n      0xffffffffffffffff\n      dup2\n      gt\n      iszero\n      tag_138\n      jumpi\n      tag_139\n      tag_140\n      jump\t// in\n    tag_139:\n    tag_138:\n      mload(0x40)\n      swap1\n      dup1\n      dup3\n      mstore\n      dup1\n      0x20\n      mul\n      0x20\n      add\n      dup3\n      add\n      0x40\n      mstore\n      dup1\n      iszero\n      tag_141\n      jumpi\n      dup2\n      0x20\n      add\n    tag_142:\n      tag_143\n      tag_144\n      jump\t// in\n    tag_143:\n      dup2\n      mstore\n      0x20\n      add\n      swap1\n      0x01\n      swap1\n      sub\n      swap1\n      dup2\n      tag_142\n      jumpi\n      swap1\n      pop\n    tag_141:\n      pop\n        /* \"contracts/CrowdFunding.sol\":3555:3621  Campaign[] memory allCampaigns = new Campaign[](numberOfCampaigns) */\n      swap1\n      pop\n        /* \"contracts/CrowdFunding.sol\":3637:3646  uint256 i */\n      0x00\n        /* \"contracts/CrowdFunding.sol\":3632:3777  for (uint256 i = 0; i < numberOfCampaigns; i++) {... */\n    tag_145:\n        /* \"contracts/CrowdFunding.sol\":3656:3673  numberOfCampaigns */\n      sload(0x01)\n        /* \"contracts/CrowdFunding.sol\":3652:3653  i */\n      dup2\n        /* \"contracts/CrowdFunding.sol\":3652:3673  i < numberOfCampaigns */\n      lt\n        /* \"contracts/CrowdFunding.sol\":3632:3777  for (uint256 i = 0; i < numberOfCampaigns; i++) {... */\n      iszero\n      tag_146\n      jumpi\n        /* \"contracts/CrowdFunding.sol\":3694:3715  Campaign storage item */\n      0x00\n        /* \"contracts/CrowdFunding.sol\":3718:3727  campaigns */\n      dup1\n        /* \"contracts/CrowdFunding.sol\":3718:3730  campaigns[i] */\n      0x00\n        /* \"contracts/CrowdFunding.sol\":3728:3729  i */\n      dup4\n        /* \"contracts/CrowdFunding.sol\":3718:3730  campaigns[i] */\n      dup2\n      mstore\n      0x20\n      add\n      swap1\n      dup2\n      mstore\n      0x20\n      add\n      0x00\n      keccak256\n        /* \"contracts/CrowdFunding.sol\":3694:3730  Campaign storage item = campaigns[i] */\n      swap1\n      pop\n        /* \"contracts/CrowdFunding.sol\":3762:3766  item */\n      dup1\n        /* \"contracts/CrowdFunding.sol\":3744:3766  allCampaigns[i] = item */\n      mload(0x40)\n      dup1\n      0x0120\n      add\n      0x40\n      mstore\n      swap1\n      dup2\n      0x00\n      dup3\n      add\n      0x00\n      swap1\n      sload\n      swap1\n      0x0100\n      exp\n      swap1\n      div\n      0xffffffffffffffffffffffffffffffffffffffff\n      and\n      0xffffffffffffffffffffffffffffffffffffffff\n      and\n      0xffffffffffffffffffffffffffffffffffffffff\n      and\n      dup2\n      mstore\n      0x20\n      add\n      0x01\n      dup3\n      add\n      dup1\n      sload\n      tag_148\n      swap1\n      tag_79\n      jump\t// in\n    tag_148:\n      dup1\n      0x1f\n      add\n      0x20\n      dup1\n      swap2\n      div\n      mul\n      0x20\n      add\n      mload(0x40)\n      swap1\n      dup2\n      add\n      0x40\n      mstore\n      dup1\n      swap3\n      swap2\n      swap1\n      dup2\n      dup2\n      mstore\n      0x20\n      add\n      dup3\n      dup1\n      sload\n      tag_149\n      swap1\n      tag_79\n      jump\t// in\n    tag_149:\n      dup1\n      iszero\n      tag_150\n      jumpi\n      dup1\n      0x1f\n      lt\n      tag_151\n      jumpi\n      0x0100\n      dup1\n      dup4\n      sload\n      div\n      mul\n      dup4\n      mstore\n      swap2\n      0x20\n      add\n      swap2\n      jump(tag_150)\n    tag_151:\n      dup3\n      add\n      swap2\n      swap1\n      0x00\n      mstore\n      keccak256(0x00, 0x20)\n      swap1\n    tag_152:\n      dup2\n      sload\n      dup2\n      mstore\n      swap1\n      0x01\n      add\n      swap1\n      0x20\n      add\n      dup1\n      dup4\n      gt\n      tag_152\n      jumpi\n      dup3\n      swap1\n      sub\n      0x1f\n      and\n      dup3\n      add\n      swap2\n    tag_150:\n      pop\n      pop\n      pop\n      pop\n      pop\n      dup2\n      mstore\n      0x20\n      add\n      0x02\n      dup3\n      add\n      dup1\n      sload\n      tag_153\n      swap1\n      tag_79\n      jump\t// in\n    tag_153:\n      dup1\n      0x1f\n      add\n      0x20\n      dup1\n      swap2\n      div\n      mul\n      0x20\n      add\n      mload(0x40)\n      swap1\n      dup2\n      add\n      0x40\n      mstore\n      dup1\n      swap3\n      swap2\n      swap1\n      dup2\n      dup2\n      mstore\n      0x20\n      add\n      dup3\n      dup1\n      sload\n      tag_154\n      swap1\n      tag_79\n      jump\t// in\n    tag_154:\n      dup1\n      iszero\n      tag_155\n      jumpi\n      dup1\n      0x1f\n      lt\n      tag_156\n      jumpi\n      0x0100\n      dup1\n      dup4\n      sload\n      div\n      mul\n      dup4\n      mstore\n      swap2\n      0x20\n      add\n      swap2\n      jump(tag_155)\n    tag_156:\n      dup3\n      add\n      swap2\n      swap1\n      0x00\n      mstore\n      keccak256(0x00, 0x20)\n      swap1\n    tag_157:\n      dup2\n      sload\n      dup2\n      mstore\n      swap1\n      0x01\n      add\n      swap1\n      0x20\n      add\n      dup1\n      dup4\n      gt\n      tag_157\n      jumpi\n      dup3\n      swap1\n      sub\n      0x1f\n      and\n      dup3\n      add\n      swap2\n    tag_155:\n      pop\n      pop\n      pop\n      pop\n      pop\n      dup2\n      mstore\n      0x20\n      add\n      0x03\n      dup3\n      add\n      sload\n      dup2\n      mstore\n      0x20\n      add\n      0x04\n      dup3\n      add\n      sload\n      dup2\n      mstore\n      0x20\n      add\n      0x05\n      dup3\n      add\n      dup1\n      sload\n      tag_158\n      swap1\n      tag_79\n      jump\t// in\n    tag_158:\n      dup1\n      0x1f\n      add\n      0x20\n      dup1\n      swap2\n      div\n      mul\n      0x20\n      add\n      mload(0x40)\n      swap1\n      dup2\n      add\n      0x40\n      mstore\n      dup1\n      swap3\n      swap2\n      swap1\n      dup2\n      dup2\n      mstore\n      0x20\n      add\n      dup3\n      dup1\n      sload\n      tag_159\n      swap1\n      tag_79\n      jump\t// in\n    tag_159:\n      dup1\n      iszero\n      tag_160\n      jumpi\n      dup1\n      0x1f\n      lt\n      tag_161\n      jumpi\n      0x0100\n      dup1\n      dup4\n      sload\n      div\n      mul\n      dup4\n      mstore\n      swap2\n      0x20\n      add\n      swap2\n      jump(tag_160)\n    tag_161:\n      dup3\n      add\n      swap2\n      swap1\n      0x00\n      mstore\n      keccak256(0x00, 0x20)\n      swap1\n    tag_162:\n      dup2\n      sload\n      dup2\n      mstore\n      swap1\n      0x01\n      add\n      swap1\n      0x20\n      add\n      dup1\n      dup4\n      gt\n      tag_162\n      jumpi\n      dup3\n      swap1\n      sub\n      0x1f\n      and\n      dup3\n      add\n      swap2\n    tag_160:\n      pop\n      pop\n      pop\n      pop\n      pop\n      dup2\n      mstore\n      0x20\n      add\n      0x06\n      dup3\n      add\n      0x00\n      swap1\n      sload\n      swap1\n      0x0100\n      exp\n      swap1\n      div\n      0xff\n      and\n      iszero\n      iszero\n      iszero\n      iszero\n      dup2\n      mstore\n      0x20\n      add\n      0x07\n      dup3\n      add\n      dup1\n      sload\n      dup1\n      0x20\n      mul\n      0x20\n      add\n      mload(0x40)\n      swap1\n      dup2\n      add\n      0x40\n      mstore\n      dup1\n      swap3\n      swap2\n      swap1\n      dup2\n      dup2\n      mstore\n      0x20\n      add\n      dup3\n      dup1\n      sload\n      dup1\n      iszero\n      tag_163\n      jumpi\n      0x20\n      mul\n      dup3\n      add\n      swap2\n      swap1\n      0x00\n      mstore\n      keccak256(0x00, 0x20)\n      swap1\n    tag_164:\n      dup2\n      0x00\n      swap1\n      sload\n      swap1\n      0x0100\n      exp\n      swap1\n      div\n      0xffffffffffffffffffffffffffffffffffffffff\n      and\n      0xffffffffffffffffffffffffffffffffffffffff\n      and\n      dup2\n      mstore\n      0x20\n      add\n      swap1\n      0x01\n      add\n      swap1\n      dup1\n      dup4\n      gt\n      tag_164\n      jumpi\n    tag_163:\n      pop\n      pop\n      pop\n      pop\n      pop\n      dup2\n      mstore\n      0x20\n      add\n      0x08\n      dup3\n      add\n      dup1\n      sload\n      dup1\n      0x20\n      mul\n      0x20\n      add\n      mload(0x40)\n      swap1\n      dup2\n      add\n      0x40\n      mstore\n      dup1\n      swap3\n      swap2\n      swap1\n      dup2\n      dup2\n      mstore\n      0x20\n      add\n      dup3\n      dup1\n      sload\n      dup1\n      iszero\n      tag_165\n      jumpi\n      0x20\n      mul\n      dup3\n      add\n      swap2\n      swap1\n      0x00\n      mstore\n      keccak256(0x00, 0x20)\n      swap1\n    tag_166:\n      dup2\n      sload\n      dup2\n      mstore\n      0x20\n      add\n      swap1\n      0x01\n      add\n      swap1\n      dup1\n      dup4\n      gt\n      tag_166\n      jumpi\n    tag_165:\n      pop\n      pop\n      pop\n      pop\n      pop\n      dup2\n      mstore\n      pop\n      pop\n        /* \"contracts/CrowdFunding.sol\":3744:3756  allCampaigns */\n      dup4\n        /* \"contracts/CrowdFunding.sol\":3757:3758  i */\n      dup4\n        /* \"contracts/CrowdFunding.sol\":3744:3759  allCampaigns[i] */\n      dup2\n      mload\n      dup2\n      lt\n      tag_167\n      jumpi\n      tag_168\n      tag_169\n      jump\t// in\n    tag_168:\n    tag_167:\n      0x20\n      mul\n      0x20\n      add\n      add\n        /* \"contracts/CrowdFunding.sol\":3744:3766  allCampaigns[i] = item */\n      dup2\n      swap1\n      mstore\n      pop\n        /* \"contracts/CrowdFunding.sol\":3680:3777  {... */\n      pop\n        /* \"contracts/CrowdFunding.sol\":3675:3678  i++ */\n      dup1\n      dup1\n      0x01\n      add\n      swap2\n      pop\n      pop\n        /* \"contracts/CrowdFunding.sol\":3632:3777  for (uint256 i = 0; i < numberOfCampaigns; i++) {... */\n      jump(tag_145)\n    tag_146:\n      pop\n        /* \"contracts/CrowdFunding.sol\":3794:3806  allCampaigns */\n      dup1\n        /* \"contracts/CrowdFunding.sol\":3787:3806  return allCampaigns */\n      swap2\n      pop\n      pop\n        /* \"contracts/CrowdFunding.sol\":3479:3813  function getCampaigns() external view returns (Campaign[] memory) {... */\n      swap1\n      jump\t// out\n        /* \"contracts/CrowdFunding.sol\":3882:4499  function updateCampaign(... */\n    tag_51:\n        /* \"contracts/CrowdFunding.sol\":4079:4104  Campaign storage campaign */\n      0x00\n        /* \"contracts/CrowdFunding.sol\":4107:4116  campaigns */\n      dup1\n        /* \"contracts/CrowdFunding.sol\":4107:4121  campaigns[_id] */\n      0x00\n        /* \"contracts/CrowdFunding.sol\":4117:4120  _id */\n      dup11\n        /* \"contracts/CrowdFunding.sol\":4107:4121  campaigns[_id] */\n      dup2\n      mstore\n      0x20\n      add\n      swap1\n      dup2\n      mstore\n      0x20\n      add\n      0x00\n      keccak256\n        /* \"contracts/CrowdFunding.sol\":4079:4121  Campaign storage campaign = campaigns[_id] */\n      swap1\n      pop\n        /* \"contracts/CrowdFunding.sol\":4153:4161  campaign */\n      dup1\n        /* \"contracts/CrowdFunding.sol\":4153:4167  campaign.owner */\n      0x00\n      add\n      0x00\n      swap1\n      sload\n      swap1\n      0x0100\n      exp\n      swap1\n      div\n      0xffffffffffffffffffffffffffffffffffffffff\n      and\n        /* \"contracts/CrowdFunding.sol\":4139:4167  msg.sender == campaign.owner */\n      0xffffffffffffffffffffffffffffffffffffffff\n      and\n        /* \"contracts/CrowdFunding.sol\":4139:4149  msg.sender */\n      caller\n        /* \"contracts/CrowdFunding.sol\":4139:4167  msg.sender == campaign.owner */\n      0xffffffffffffffffffffffffffffffffffffffff\n      and\n      eq\n        /* \"contracts/CrowdFunding.sol\":4131:4206  require(msg.sender == campaign.owner, \"Only the campaign owner can update\") */\n      tag_171\n      jumpi\n      mload(0x40)\n      0x08c379a000000000000000000000000000000000000000000000000000000000\n      dup2\n      mstore\n      0x04\n      add\n      tag_172\n      swap1\n      tag_173\n      jump\t// in\n    tag_172:\n      mload(0x40)\n      dup1\n      swap2\n      sub\n      swap1\n      revert\n    tag_171:\n        /* \"contracts/CrowdFunding.sol\":4234:4235  0 */\n      0x00\n        /* \"contracts/CrowdFunding.sol\":4224:4231  _target */\n      dup5\n        /* \"contracts/CrowdFunding.sol\":4224:4235  _target > 0 */\n      gt\n        /* \"contracts/CrowdFunding.sol\":4216:4269  require(_target > 0, \"Target must be greater than 0\") */\n      tag_174\n      jumpi\n      mload(0x40)\n      0x08c379a000000000000000000000000000000000000000000000000000000000\n      dup2\n      mstore\n      0x04\n      add\n      tag_175\n      swap1\n      tag_60\n      jump\t// in\n    tag_175:\n      mload(0x40)\n      dup1\n      swap2\n      sub\n      swap1\n      revert\n    tag_174:\n        /* \"contracts/CrowdFunding.sol\":4288:4296  campaign */\n      dup1\n        /* \"contracts/CrowdFunding.sol\":4288:4306  campaign.completed */\n      0x06\n      add\n      0x00\n      swap1\n      sload\n      swap1\n      0x0100\n      exp\n      swap1\n      div\n      0xff\n      and\n        /* \"contracts/CrowdFunding.sol\":4287:4306  !campaign.completed */\n      iszero\n        /* \"contracts/CrowdFunding.sol\":4279:4345  require(!campaign.completed, \"Cannot update a completed campaign\") */\n      tag_176\n      jumpi\n      mload(0x40)\n      0x08c379a000000000000000000000000000000000000000000000000000000000\n      dup2\n      mstore\n      0x04\n      add\n      tag_177\n      swap1\n      tag_178\n      jump\t// in\n    tag_177:\n      mload(0x40)\n      dup1\n      swap2\n      sub\n      swap1\n      revert\n    tag_176:\n        /* \"contracts/CrowdFunding.sol\":4373:4379  _title */\n      dup8\n      dup8\n        /* \"contracts/CrowdFunding.sol\":4356:4364  campaign */\n      dup3\n        /* \"contracts/CrowdFunding.sol\":4356:4370  campaign.title */\n      0x01\n      add\n        /* \"contracts/CrowdFunding.sol\":4356:4379  campaign.title = _title */\n      swap2\n      dup3\n      tag_179\n      swap3\n      swap2\n      swap1\n      tag_71\n      jump\t// in\n    tag_179:\n      pop\n        /* \"contracts/CrowdFunding.sol\":4412:4424  _description */\n      dup6\n      dup6\n        /* \"contracts/CrowdFunding.sol\":4389:4397  campaign */\n      dup3\n        /* \"contracts/CrowdFunding.sol\":4389:4409  campaign.description */\n      0x02\n      add\n        /* \"contracts/CrowdFunding.sol\":4389:4424  campaign.description = _description */\n      swap2\n      dup3\n      tag_180\n      swap3\n      swap2\n      swap1\n      tag_71\n      jump\t// in\n    tag_180:\n      pop\n        /* \"contracts/CrowdFunding.sol\":4452:4459  _target */\n      dup4\n        /* \"contracts/CrowdFunding.sol\":4434:4442  campaign */\n      dup2\n        /* \"contracts/CrowdFunding.sol\":4434:4449  campaign.target */\n      0x03\n      add\n        /* \"contracts/CrowdFunding.sol\":4434:4459  campaign.target = _target */\n      dup2\n      swap1\n      sstore\n      pop\n        /* \"contracts/CrowdFunding.sol\":4486:4492  _image */\n      dup3\n      dup3\n        /* \"contracts/CrowdFunding.sol\":4469:4477  campaign */\n      dup3\n        /* \"contracts/CrowdFunding.sol\":4469:4483  campaign.image */\n      0x05\n      add\n        /* \"contracts/CrowdFunding.sol\":4469:4492  campaign.image = _image */\n      swap2\n      dup3\n      tag_181\n      swap3\n      swap2\n      swap1\n      tag_71\n      jump\t// in\n    tag_181:\n      pop\n        /* \"contracts/CrowdFunding.sol\":4069:4499  {... */\n      pop\n        /* \"contracts/CrowdFunding.sol\":3882:4499  function updateCampaign(... */\n      pop\n      pop\n      pop\n      pop\n      pop\n      pop\n      pop\n      pop\n      jump\t// out\n        /* \"@openzeppelin/contracts/utils/math/SafeMath.sol\":2755:2851  function add(uint256 a, uint256 b) internal pure returns (uint256) {... */\n    tag_75:\n        /* \"@openzeppelin/contracts/utils/math/SafeMath.sol\":2813:2820  uint256 */\n      0x00\n        /* \"@openzeppelin/contracts/utils/math/SafeMath.sol\":2843:2844  b */\n      dup2\n        /* \"@openzeppelin/contracts/utils/math/SafeMath.sol\":2839:2840  a */\n      dup4\n        /* \"@openzeppelin/contracts/utils/math/SafeMath.sol\":2839:2844  a + b */\n      tag_183\n      swap2\n      swap1\n      tag_184\n      jump\t// in\n    tag_183:\n        /* \"@openzeppelin/contracts/utils/math/SafeMath.sol\":2832:2844  return a + b */\n      swap1\n      pop\n        /* \"@openzeppelin/contracts/utils/math/SafeMath.sol\":2755:2851  function add(uint256 a, uint256 b) internal pure returns (uint256) {... */\n      swap3\n      swap2\n      pop\n      pop\n      jump\t// out\n        /* \"@openzeppelin/contracts/utils/math/SafeMath.sol\":3122:3218  function sub(uint256 a, uint256 b) internal pure returns (uint256) {... */\n    tag_77:\n        /* \"@openzeppelin/contracts/utils/math/SafeMath.sol\":3180:3187  uint256 */\n      0x00\n        /* \"@openzeppelin/contracts/utils/math/SafeMath.sol\":3210:3211  b */\n      dup2\n        /* \"@openzeppelin/contracts/utils/math/SafeMath.sol\":3206:3207  a */\n      dup4\n        /* \"@openzeppelin/contracts/utils/math/SafeMath.sol\":3206:3211  a - b */\n      tag_186\n      swap2\n      swap1\n      tag_187\n      jump\t// in\n    tag_186:\n        /* \"@openzeppelin/contracts/utils/math/SafeMath.sol\":3199:3211  return a - b */\n      swap1\n      pop\n        /* \"@openzeppelin/contracts/utils/math/SafeMath.sol\":3122:3218  function sub(uint256 a, uint256 b) internal pure returns (uint256) {... */\n      swap3\n      swap2\n      pop\n      pop\n      jump\t// out\n    tag_130:\n      pop\n      dup1\n      sload\n      tag_188\n      swap1\n      tag_79\n      jump\t// in\n    tag_188:\n      0x00\n      dup3\n      sstore\n      dup1\n      0x1f\n      lt\n      tag_190\n      jumpi\n      pop\n      jump(tag_189)\n    tag_190:\n      0x1f\n      add\n      0x20\n      swap1\n      div\n      swap1\n      0x00\n      mstore\n      keccak256(0x00, 0x20)\n      swap1\n      dup2\n      add\n      swap1\n      tag_191\n      swap2\n      swap1\n      tag_192\n      jump\t// in\n    tag_191:\n    tag_189:\n      pop\n      jump\t// out\n    tag_134:\n      pop\n      dup1\n      sload\n      0x00\n      dup3\n      sstore\n      swap1\n      0x00\n      mstore\n      keccak256(0x00, 0x20)\n      swap1\n      dup2\n      add\n      swap1\n      tag_194\n      swap2\n      swap1\n      tag_192\n      jump\t// in\n    tag_194:\n      pop\n      jump\t// out\n    tag_136:\n      pop\n      dup1\n      sload\n      0x00\n      dup3\n      sstore\n      swap1\n      0x00\n      mstore\n      keccak256(0x00, 0x20)\n      swap1\n      dup2\n      add\n      swap1\n      tag_196\n      swap2\n      swap1\n      tag_192\n      jump\t// in\n    tag_196:\n      pop\n      jump\t// out\n    tag_144:\n      mload(0x40)\n      dup1\n      0x0120\n      add\n      0x40\n      mstore\n      dup1\n      and(0xffffffffffffffffffffffffffffffffffffffff, 0x00)\n      dup2\n      mstore\n      0x20\n      add\n      0x60\n      dup2\n      mstore\n      0x20\n      add\n      0x60\n      dup2\n      mstore\n      0x20\n      add\n      0x00\n      dup2\n      mstore\n      0x20\n      add\n      0x00\n      dup2\n      mstore\n      0x20\n      add\n      0x60\n      dup2\n      mstore\n      0x20\n      add\n      iszero(iszero(0x00))\n      dup2\n      mstore\n      0x20\n      add\n      0x60\n      dup2\n      mstore\n      0x20\n      add\n      0x60\n      dup2\n      mstore\n      pop\n      swap1\n      jump\t// out\n    tag_192:\n    tag_197:\n      dup1\n      dup3\n      gt\n      iszero\n      tag_198\n      jumpi\n      0x00\n      dup2\n      0x00\n      swap1\n      sstore\n      pop\n      0x01\n      add\n      jump(tag_197)\n    tag_198:\n      pop\n      swap1\n      jump\t// out\n        /* \"#utility.yul\":7:84   */\n    tag_199:\n        /* \"#utility.yul\":44:51   */\n      0x00\n        /* \"#utility.yul\":73:78   */\n      dup2\n        /* \"#utility.yul\":62:78   */\n      swap1\n      pop\n        /* \"#utility.yul\":7:84   */\n      swap2\n      swap1\n      pop\n      jump\t// out\n        /* \"#utility.yul\":90:208   */\n    tag_200:\n        /* \"#utility.yul\":177:201   */\n      tag_298\n        /* \"#utility.yul\":195:200   */\n      dup2\n        /* \"#utility.yul\":177:201   */\n      tag_199\n      jump\t// in\n    tag_298:\n        /* \"#utility.yul\":172:175   */\n      dup3\n        /* \"#utility.yul\":165:202   */\n      mstore\n        /* \"#utility.yul\":90:208   */\n      pop\n      pop\n      jump\t// out\n        /* \"#utility.yul\":214:436   */\n    tag_15:\n        /* \"#utility.yul\":307:311   */\n      0x00\n        /* \"#utility.yul\":345:347   */\n      0x20\n        /* \"#utility.yul\":334:343   */\n      dup3\n        /* \"#utility.yul\":330:348   */\n      add\n        /* \"#utility.yul\":322:348   */\n      swap1\n      pop\n        /* \"#utility.yul\":358:429   */\n      tag_300\n        /* \"#utility.yul\":426:427   */\n      0x00\n        /* \"#utility.yul\":415:424   */\n      dup4\n        /* \"#utility.yul\":411:428   */\n      add\n        /* \"#utility.yul\":402:408   */\n      dup5\n        /* \"#utility.yul\":358:429   */\n      tag_200\n      jump\t// in\n    tag_300:\n        /* \"#utility.yul\":214:436   */\n      swap3\n      swap2\n      pop\n      pop\n      jump\t// out\n        /* \"#utility.yul\":523:640   */\n    tag_202:\n        /* \"#utility.yul\":632:633   */\n      0x00\n        /* \"#utility.yul\":629:630   */\n      dup1\n        /* \"#utility.yul\":622:634   */\n      revert\n        /* \"#utility.yul\":646:763   */\n    tag_203:\n        /* \"#utility.yul\":755:756   */\n      0x00\n        /* \"#utility.yul\":752:753   */\n      dup1\n        /* \"#utility.yul\":745:757   */\n      revert\n        /* \"#utility.yul\":769:891   */\n    tag_204:\n        /* \"#utility.yul\":842:866   */\n      tag_305\n        /* \"#utility.yul\":860:865   */\n      dup2\n        /* \"#utility.yul\":842:866   */\n      tag_199\n      jump\t// in\n    tag_305:\n        /* \"#utility.yul\":835:840   */\n      dup2\n        /* \"#utility.yul\":832:867   */\n      eq\n        /* \"#utility.yul\":822:885   */\n      tag_306\n      jumpi\n        /* \"#utility.yul\":881:882   */\n      0x00\n        /* \"#utility.yul\":878:879   */\n      dup1\n        /* \"#utility.yul\":871:883   */\n      revert\n        /* \"#utility.yul\":822:885   */\n    tag_306:\n        /* \"#utility.yul\":769:891   */\n      pop\n      jump\t// out\n        /* \"#utility.yul\":897:1036   */\n    tag_205:\n        /* \"#utility.yul\":943:948   */\n      0x00\n        /* \"#utility.yul\":981:987   */\n      dup2\n        /* \"#utility.yul\":968:988   */\n      calldataload\n        /* \"#utility.yul\":959:988   */\n      swap1\n      pop\n        /* \"#utility.yul\":997:1030   */\n      tag_308\n        /* \"#utility.yul\":1024:1029   */\n      dup2\n        /* \"#utility.yul\":997:1030   */\n      tag_204\n      jump\t// in\n    tag_308:\n        /* \"#utility.yul\":897:1036   */\n      swap3\n      swap2\n      pop\n      pop\n      jump\t// out\n        /* \"#utility.yul\":1042:1371   */\n    tag_19:\n        /* \"#utility.yul\":1101:1107   */\n      0x00\n        /* \"#utility.yul\":1150:1152   */\n      0x20\n        /* \"#utility.yul\":1138:1147   */\n      dup3\n        /* \"#utility.yul\":1129:1136   */\n      dup5\n        /* \"#utility.yul\":1125:1148   */\n      sub\n        /* \"#utility.yul\":1121:1153   */\n      slt\n        /* \"#utility.yul\":1118:1237   */\n      iszero\n      tag_310\n      jumpi\n        /* \"#utility.yul\":1156:1235   */\n      tag_311\n      tag_202\n      jump\t// in\n    tag_311:\n        /* \"#utility.yul\":1118:1237   */\n    tag_310:\n        /* \"#utility.yul\":1276:1277   */\n      0x00\n        /* \"#utility.yul\":1301:1354   */\n      tag_312\n        /* \"#utility.yul\":1346:1353   */\n      dup5\n        /* \"#utility.yul\":1337:1343   */\n      dup3\n        /* \"#utility.yul\":1326:1335   */\n      dup6\n        /* \"#utility.yul\":1322:1344   */\n      add\n        /* \"#utility.yul\":1301:1354   */\n      tag_205\n      jump\t// in\n    tag_312:\n        /* \"#utility.yul\":1291:1354   */\n      swap2\n      pop\n        /* \"#utility.yul\":1247:1364   */\n      pop\n        /* \"#utility.yul\":1042:1371   */\n      swap3\n      swap2\n      pop\n      pop\n      jump\t// out\n        /* \"#utility.yul\":1377:1491   */\n    tag_206:\n        /* \"#utility.yul\":1444:1450   */\n      0x00\n        /* \"#utility.yul\":1478:1483   */\n      dup2\n        /* \"#utility.yul\":1472:1484   */\n      mload\n        /* \"#utility.yul\":1462:1484   */\n      swap1\n      pop\n        /* \"#utility.yul\":1377:1491   */\n      swap2\n      swap1\n      pop\n      jump\t// out\n        /* \"#utility.yul\":1497:1681   */\n    tag_207:\n        /* \"#utility.yul\":1596:1607   */\n      0x00\n        /* \"#utility.yul\":1630:1636   */\n      dup3\n        /* \"#utility.yul\":1625:1628   */\n      dup3\n        /* \"#utility.yul\":1618:1637   */\n      mstore\n        /* \"#utility.yul\":1670:1674   */\n      0x20\n        /* \"#utility.yul\":1665:1668   */\n      dup3\n        /* \"#utility.yul\":1661:1675   */\n      add\n        /* \"#utility.yul\":1646:1675   */\n      swap1\n      pop\n        /* \"#utility.yul\":1497:1681   */\n      swap3\n      swap2\n      pop\n      pop\n      jump\t// out\n        /* \"#utility.yul\":1687:1819   */\n    tag_208:\n        /* \"#utility.yul\":1754:1758   */\n      0x00\n        /* \"#utility.yul\":1777:1780   */\n      dup2\n        /* \"#utility.yul\":1769:1780   */\n      swap1\n      pop\n        /* \"#utility.yul\":1807:1811   */\n      0x20\n        /* \"#utility.yul\":1802:1805   */\n      dup3\n        /* \"#utility.yul\":1798:1812   */\n      add\n        /* \"#utility.yul\":1790:1812   */\n      swap1\n      pop\n        /* \"#utility.yul\":1687:1819   */\n      swap2\n      swap1\n      pop\n      jump\t// out\n        /* \"#utility.yul\":1825:1951   */\n    tag_209:\n        /* \"#utility.yul\":1862:1869   */\n      0x00\n        /* \"#utility.yul\":1902:1944   */\n      0xffffffffffffffffffffffffffffffffffffffff\n        /* \"#utility.yul\":1895:1900   */\n      dup3\n        /* \"#utility.yul\":1891:1945   */\n      and\n        /* \"#utility.yul\":1880:1945   */\n      swap1\n      pop\n        /* \"#utility.yul\":1825:1951   */\n      swap2\n      swap1\n      pop\n      jump\t// out\n        /* \"#utility.yul\":1957:2053   */\n    tag_210:\n        /* \"#utility.yul\":1994:2001   */\n      0x00\n        /* \"#utility.yul\":2023:2047   */\n      tag_318\n        /* \"#utility.yul\":2041:2046   */\n      dup3\n        /* \"#utility.yul\":2023:2047   */\n      tag_209\n      jump\t// in\n    tag_318:\n        /* \"#utility.yul\":2012:2047   */\n      swap1\n      pop\n        /* \"#utility.yul\":1957:2053   */\n      swap2\n      swap1\n      pop\n      jump\t// out\n        /* \"#utility.yul\":2059:2167   */\n    tag_211:\n        /* \"#utility.yul\":2136:2160   */\n      tag_320\n        /* \"#utility.yul\":2154:2159   */\n      dup2\n        /* \"#utility.yul\":2136:2160   */\n      tag_210\n      jump\t// in\n    tag_320:\n        /* \"#utility.yul\":2131:2134   */\n      dup3\n        /* \"#utility.yul\":2124:2161   */\n      mstore\n        /* \"#utility.yul\":2059:2167   */\n      pop\n      pop\n      jump\t// out\n        /* \"#utility.yul\":2173:2352   */\n    tag_212:\n        /* \"#utility.yul\":2242:2252   */\n      0x00\n        /* \"#utility.yul\":2263:2309   */\n      tag_322\n        /* \"#utility.yul\":2305:2308   */\n      dup4\n        /* \"#utility.yul\":2297:2303   */\n      dup4\n        /* \"#utility.yul\":2263:2309   */\n      tag_211\n      jump\t// in\n    tag_322:\n        /* \"#utility.yul\":2341:2345   */\n      0x20\n        /* \"#utility.yul\":2336:2339   */\n      dup4\n        /* \"#utility.yul\":2332:2346   */\n      add\n        /* \"#utility.yul\":2318:2346   */\n      swap1\n      pop\n        /* \"#utility.yul\":2173:2352   */\n      swap3\n      swap2\n      pop\n      pop\n      jump\t// out\n        /* \"#utility.yul\":2358:2471   */\n    tag_213:\n        /* \"#utility.yul\":2428:2432   */\n      0x00\n        /* \"#utility.yul\":2460:2464   */\n      0x20\n        /* \"#utility.yul\":2455:2458   */\n      dup3\n        /* \"#utility.yul\":2451:2465   */\n      add\n        /* \"#utility.yul\":2443:2465   */\n      swap1\n      pop\n        /* \"#utility.yul\":2358:2471   */\n      swap2\n      swap1\n      pop\n      jump\t// out\n        /* \"#utility.yul\":2507:3239   */\n    tag_214:\n        /* \"#utility.yul\":2626:2629   */\n      0x00\n        /* \"#utility.yul\":2655:2709   */\n      tag_325\n        /* \"#utility.yul\":2703:2708   */\n      dup3\n        /* \"#utility.yul\":2655:2709   */\n      tag_206\n      jump\t// in\n    tag_325:\n        /* \"#utility.yul\":2725:2811   */\n      tag_326\n        /* \"#utility.yul\":2804:2810   */\n      dup2\n        /* \"#utility.yul\":2799:2802   */\n      dup6\n        /* \"#utility.yul\":2725:2811   */\n      tag_207\n      jump\t// in\n    tag_326:\n        /* \"#utility.yul\":2718:2811   */\n      swap4\n      pop\n        /* \"#utility.yul\":2835:2891   */\n      tag_327\n        /* \"#utility.yul\":2885:2890   */\n      dup4\n        /* \"#utility.yul\":2835:2891   */\n      tag_208\n      jump\t// in\n    tag_327:\n        /* \"#utility.yul\":2914:2921   */\n      dup1\n        /* \"#utility.yul\":2945:2946   */\n      0x00\n        /* \"#utility.yul\":2930:3214   */\n    tag_328:\n        /* \"#utility.yul\":2955:2961   */\n      dup4\n        /* \"#utility.yul\":2952:2953   */\n      dup2\n        /* \"#utility.yul\":2949:2962   */\n      lt\n        /* \"#utility.yul\":2930:3214   */\n      iszero\n      tag_330\n      jumpi\n        /* \"#utility.yul\":3031:3037   */\n      dup2\n        /* \"#utility.yul\":3025:3038   */\n      mload\n        /* \"#utility.yul\":3058:3121   */\n      tag_331\n        /* \"#utility.yul\":3117:3120   */\n      dup9\n        /* \"#utility.yul\":3102:3115   */\n      dup3\n        /* \"#utility.yul\":3058:3121   */\n      tag_212\n      jump\t// in\n    tag_331:\n        /* \"#utility.yul\":3051:3121   */\n      swap8\n      pop\n        /* \"#utility.yul\":3144:3204   */\n      tag_332\n        /* \"#utility.yul\":3197:3203   */\n      dup4\n        /* \"#utility.yul\":3144:3204   */\n      tag_213\n      jump\t// in\n    tag_332:\n        /* \"#utility.yul\":3134:3204   */\n      swap3\n      pop\n        /* \"#utility.yul\":2990:3214   */\n      pop\n        /* \"#utility.yul\":2977:2978   */\n      0x01\n        /* \"#utility.yul\":2974:2975   */\n      dup2\n        /* \"#utility.yul\":2970:2979   */\n      add\n        /* \"#utility.yul\":2965:2979   */\n      swap1\n      pop\n        /* \"#utility.yul\":2930:3214   */\n      jump(tag_328)\n    tag_330:\n        /* \"#utility.yul\":2934:2948   */\n      pop\n        /* \"#utility.yul\":3230:3233   */\n      dup6\n        /* \"#utility.yul\":3223:3233   */\n      swap4\n      pop\n        /* \"#utility.yul\":2631:3239   */\n      pop\n      pop\n      pop\n        /* \"#utility.yul\":2507:3239   */\n      swap3\n      swap2\n      pop\n      pop\n      jump\t// out\n        /* \"#utility.yul\":3245:3359   */\n    tag_215:\n        /* \"#utility.yul\":3312:3318   */\n      0x00\n        /* \"#utility.yul\":3346:3351   */\n      dup2\n        /* \"#utility.yul\":3340:3352   */\n      mload\n        /* \"#utility.yul\":3330:3352   */\n      swap1\n      pop\n        /* \"#utility.yul\":3245:3359   */\n      swap2\n      swap1\n      pop\n      jump\t// out\n        /* \"#utility.yul\":3365:3549   */\n    tag_216:\n        /* \"#utility.yul\":3464:3475   */\n      0x00\n        /* \"#utility.yul\":3498:3504   */\n      dup3\n        /* \"#utility.yul\":3493:3496   */\n      dup3\n        /* \"#utility.yul\":3486:3505   */\n      mstore\n        /* \"#utility.yul\":3538:3542   */\n      0x20\n        /* \"#utility.yul\":3533:3536   */\n      dup3\n        /* \"#utility.yul\":3529:3543   */\n      add\n        /* \"#utility.yul\":3514:3543   */\n      swap1\n      pop\n        /* \"#utility.yul\":3365:3549   */\n      swap3\n      swap2\n      pop\n      pop\n      jump\t// out\n        /* \"#utility.yul\":3555:3687   */\n    tag_217:\n        /* \"#utility.yul\":3622:3626   */\n      0x00\n        /* \"#utility.yul\":3645:3648   */\n      dup2\n        /* \"#utility.yul\":3637:3648   */\n      swap1\n      pop\n        /* \"#utility.yul\":3675:3679   */\n      0x20\n        /* \"#utility.yul\":3670:3673   */\n      dup3\n        /* \"#utility.yul\":3666:3680   */\n      add\n        /* \"#utility.yul\":3658:3680   */\n      swap1\n      pop\n        /* \"#utility.yul\":3555:3687   */\n      swap2\n      swap1\n      pop\n      jump\t// out\n        /* \"#utility.yul\":3693:3801   */\n    tag_218:\n        /* \"#utility.yul\":3770:3794   */\n      tag_337\n        /* \"#utility.yul\":3788:3793   */\n      dup2\n        /* \"#utility.yul\":3770:3794   */\n      tag_199\n      jump\t// in\n    tag_337:\n        /* \"#utility.yul\":3765:3768   */\n      dup3\n        /* \"#utility.yul\":3758:3795   */\n      mstore\n        /* \"#utility.yul\":3693:3801   */\n      pop\n      pop\n      jump\t// out\n        /* \"#utility.yul\":3807:3986   */\n    tag_219:\n        /* \"#utility.yul\":3876:3886   */\n      0x00\n        /* \"#utility.yul\":3897:3943   */\n      tag_339\n        /* \"#utility.yul\":3939:3942   */\n      dup4\n        /* \"#utility.yul\":3931:3937   */\n      dup4\n        /* \"#utility.yul\":3897:3943   */\n      tag_218\n      jump\t// in\n    tag_339:\n        /* \"#utility.yul\":3975:3979   */\n      0x20\n        /* \"#utility.yul\":3970:3973   */\n      dup4\n        /* \"#utility.yul\":3966:3980   */\n      add\n        /* \"#utility.yul\":3952:3980   */\n      swap1\n      pop\n        /* \"#utility.yul\":3807:3986   */\n      swap3\n      swap2\n      pop\n      pop\n      jump\t// out\n        /* \"#utility.yul\":3992:4105   */\n    tag_220:\n        /* \"#utility.yul\":4062:4066   */\n      0x00\n        /* \"#utility.yul\":4094:4098   */\n      0x20\n        /* \"#utility.yul\":4089:4092   */\n      dup3\n        /* \"#utility.yul\":4085:4099   */\n      add\n        /* \"#utility.yul\":4077:4099   */\n      swap1\n      pop\n        /* \"#utility.yul\":3992:4105   */\n      swap2\n      swap1\n      pop\n      jump\t// out\n        /* \"#utility.yul\":4141:4873   */\n    tag_221:\n        /* \"#utility.yul\":4260:4263   */\n      0x00\n        /* \"#utility.yul\":4289:4343   */\n      tag_342\n        /* \"#utility.yul\":4337:4342   */\n      dup3\n        /* \"#utility.yul\":4289:4343   */\n      tag_215\n      jump\t// in\n    tag_342:\n        /* \"#utility.yul\":4359:4445   */\n      tag_343\n        /* \"#utility.yul\":4438:4444   */\n      dup2\n        /* \"#utility.yul\":4433:4436   */\n      dup6\n        /* \"#utility.yul\":4359:4445   */\n      tag_216\n      jump\t// in\n    tag_343:\n        /* \"#utility.yul\":4352:4445   */\n      swap4\n      pop\n        /* \"#utility.yul\":4469:4525   */\n      tag_344\n        /* \"#utility.yul\":4519:4524   */\n      dup4\n        /* \"#utility.yul\":4469:4525   */\n      tag_217\n      jump\t// in\n    tag_344:\n        /* \"#utility.yul\":4548:4555   */\n      dup1\n        /* \"#utility.yul\":4579:4580   */\n      0x00\n        /* \"#utility.yul\":4564:4848   */\n    tag_345:\n        /* \"#utility.yul\":4589:4595   */\n      dup4\n        /* \"#utility.yul\":4586:4587   */\n      dup2\n        /* \"#utility.yul\":4583:4596   */\n      lt\n        /* \"#utility.yul\":4564:4848   */\n      iszero\n      tag_347\n      jumpi\n        /* \"#utility.yul\":4665:4671   */\n      dup2\n        /* \"#utility.yul\":4659:4672   */\n      mload\n        /* \"#utility.yul\":4692:4755   */\n      tag_348\n        /* \"#utility.yul\":4751:4754   */\n      dup9\n        /* \"#utility.yul\":4736:4749   */\n      dup3\n        /* \"#utility.yul\":4692:4755   */\n      tag_219\n      jump\t// in\n    tag_348:\n        /* \"#utility.yul\":4685:4755   */\n      swap8\n      pop\n        /* \"#utility.yul\":4778:4838   */\n      tag_349\n        /* \"#utility.yul\":4831:4837   */\n      dup4\n        /* \"#utility.yul\":4778:4838   */\n      tag_220\n      jump\t// in\n    tag_349:\n        /* \"#utility.yul\":4768:4838   */\n      swap3\n      pop\n        /* \"#utility.yul\":4624:4848   */\n      pop\n        /* \"#utility.yul\":4611:4612   */\n      0x01\n        /* \"#utility.yul\":4608:4609   */\n      dup2\n        /* \"#utility.yul\":4604:4613   */\n      add\n        /* \"#utility.yul\":4599:4613   */\n      swap1\n      pop\n        /* \"#utility.yul\":4564:4848   */\n      jump(tag_345)\n    tag_347:\n        /* \"#utility.yul\":4568:4582   */\n      pop\n        /* \"#utility.yul\":4864:4867   */\n      dup6\n        /* \"#utility.yul\":4857:4867   */\n      swap4\n      pop\n        /* \"#utility.yul\":4265:4873   */\n      pop\n      pop\n      pop\n        /* \"#utility.yul\":4141:4873   */\n      swap3\n      swap2\n      pop\n      pop\n      jump\t// out\n        /* \"#utility.yul\":4879:5513   */\n    tag_22:\n        /* \"#utility.yul\":5100:5104   */\n      0x00\n        /* \"#utility.yul\":5138:5140   */\n      0x40\n        /* \"#utility.yul\":5127:5136   */\n      dup3\n        /* \"#utility.yul\":5123:5141   */\n      add\n        /* \"#utility.yul\":5115:5141   */\n      swap1\n      pop\n        /* \"#utility.yul\":5187:5196   */\n      dup2\n        /* \"#utility.yul\":5181:5185   */\n      dup2\n        /* \"#utility.yul\":5177:5197   */\n      sub\n        /* \"#utility.yul\":5173:5174   */\n      0x00\n        /* \"#utility.yul\":5162:5171   */\n      dup4\n        /* \"#utility.yul\":5158:5175   */\n      add\n        /* \"#utility.yul\":5151:5198   */\n      mstore\n        /* \"#utility.yul\":5215:5323   */\n      tag_351\n        /* \"#utility.yul\":5318:5322   */\n      dup2\n        /* \"#utility.yul\":5309:5315   */\n      dup6\n        /* \"#utility.yul\":5215:5323   */\n      tag_214\n      jump\t// in\n    tag_351:\n        /* \"#utility.yul\":5207:5323   */\n      swap1\n      pop\n        /* \"#utility.yul\":5370:5379   */\n      dup2\n        /* \"#utility.yul\":5364:5368   */\n      dup2\n        /* \"#utility.yul\":5360:5380   */\n      sub\n        /* \"#utility.yul\":5355:5357   */\n      0x20\n        /* \"#utility.yul\":5344:5353   */\n      dup4\n        /* \"#utility.yul\":5340:5358   */\n      add\n        /* \"#utility.yul\":5333:5381   */\n      mstore\n        /* \"#utility.yul\":5398:5506   */\n      tag_352\n        /* \"#utility.yul\":5501:5505   */\n      dup2\n        /* \"#utility.yul\":5492:5498   */\n      dup5\n        /* \"#utility.yul\":5398:5506   */\n      tag_221\n      jump\t// in\n    tag_352:\n        /* \"#utility.yul\":5390:5506   */\n      swap1\n      pop\n        /* \"#utility.yul\":4879:5513   */\n      swap4\n      swap3\n      pop\n      pop\n      pop\n      jump\t// out\n        /* \"#utility.yul\":5519:5641   */\n    tag_222:\n        /* \"#utility.yul\":5592:5616   */\n      tag_354\n        /* \"#utility.yul\":5610:5615   */\n      dup2\n        /* \"#utility.yul\":5592:5616   */\n      tag_210\n      jump\t// in\n    tag_354:\n        /* \"#utility.yul\":5585:5590   */\n      dup2\n        /* \"#utility.yul\":5582:5617   */\n      eq\n        /* \"#utility.yul\":5572:5635   */\n      tag_355\n      jumpi\n        /* \"#utility.yul\":5631:5632   */\n      0x00\n        /* \"#utility.yul\":5628:5629   */\n      dup1\n        /* \"#utility.yul\":5621:5633   */\n      revert\n        /* \"#utility.yul\":5572:5635   */\n    tag_355:\n        /* \"#utility.yul\":5519:5641   */\n      pop\n      jump\t// out\n        /* \"#utility.yul\":5647:5786   */\n    tag_223:\n        /* \"#utility.yul\":5693:5698   */\n      0x00\n        /* \"#utility.yul\":5731:5737   */\n      dup2\n        /* \"#utility.yul\":5718:5738   */\n      calldataload\n        /* \"#utility.yul\":5709:5738   */\n      swap1\n      pop\n        /* \"#utility.yul\":5747:5780   */\n      tag_357\n        /* \"#utility.yul\":5774:5779   */\n      dup2\n        /* \"#utility.yul\":5747:5780   */\n      tag_222\n      jump\t// in\n    tag_357:\n        /* \"#utility.yul\":5647:5786   */\n      swap3\n      swap2\n      pop\n      pop\n      jump\t// out\n        /* \"#utility.yul\":5792:5909   */\n    tag_224:\n        /* \"#utility.yul\":5901:5902   */\n      0x00\n        /* \"#utility.yul\":5898:5899   */\n      dup1\n        /* \"#utility.yul\":5891:5903   */\n      revert\n        /* \"#utility.yul\":5915:6032   */\n    tag_225:\n        /* \"#utility.yul\":6024:6025   */\n      0x00\n        /* \"#utility.yul\":6021:6022   */\n      dup1\n        /* \"#utility.yul\":6014:6026   */\n      revert\n        /* \"#utility.yul\":6038:6155   */\n    tag_226:\n        /* \"#utility.yul\":6147:6148   */\n      0x00\n        /* \"#utility.yul\":6144:6145   */\n      dup1\n        /* \"#utility.yul\":6137:6149   */\n      revert\n        /* \"#utility.yul\":6175:6728   */\n    tag_227:\n        /* \"#utility.yul\":6233:6241   */\n      0x00\n        /* \"#utility.yul\":6243:6249   */\n      dup1\n        /* \"#utility.yul\":6293:6296   */\n      dup4\n        /* \"#utility.yul\":6286:6290   */\n      0x1f\n        /* \"#utility.yul\":6278:6284   */\n      dup5\n        /* \"#utility.yul\":6274:6291   */\n      add\n        /* \"#utility.yul\":6270:6297   */\n      slt\n        /* \"#utility.yul\":6260:6382   */\n      tag_362\n      jumpi\n        /* \"#utility.yul\":6301:6380   */\n      tag_363\n      tag_224\n      jump\t// in\n    tag_363:\n        /* \"#utility.yul\":6260:6382   */\n    tag_362:\n        /* \"#utility.yul\":6414:6420   */\n      dup3\n        /* \"#utility.yul\":6401:6421   */\n      calldataload\n        /* \"#utility.yul\":6391:6421   */\n      swap1\n      pop\n        /* \"#utility.yul\":6444:6462   */\n      0xffffffffffffffff\n        /* \"#utility.yul\":6436:6442   */\n      dup2\n        /* \"#utility.yul\":6433:6463   */\n      gt\n        /* \"#utility.yul\":6430:6547   */\n      iszero\n      tag_364\n      jumpi\n        /* \"#utility.yul\":6466:6545   */\n      tag_365\n      tag_225\n      jump\t// in\n    tag_365:\n        /* \"#utility.yul\":6430:6547   */\n    tag_364:\n        /* \"#utility.yul\":6580:6584   */\n      0x20\n        /* \"#utility.yul\":6572:6578   */\n      dup4\n        /* \"#utility.yul\":6568:6585   */\n      add\n        /* \"#utility.yul\":6556:6585   */\n      swap2\n      pop\n        /* \"#utility.yul\":6634:6637   */\n      dup4\n        /* \"#utility.yul\":6626:6630   */\n      0x01\n        /* \"#utility.yul\":6618:6624   */\n      dup3\n        /* \"#utility.yul\":6614:6631   */\n      mul\n        /* \"#utility.yul\":6604:6612   */\n      dup4\n        /* \"#utility.yul\":6600:6632   */\n      add\n        /* \"#utility.yul\":6597:6638   */\n      gt\n        /* \"#utility.yul\":6594:6722   */\n      iszero\n      tag_366\n      jumpi\n        /* \"#utility.yul\":6641:6720   */\n      tag_367\n      tag_226\n      jump\t// in\n    tag_367:\n        /* \"#utility.yul\":6594:6722   */\n    tag_366:\n        /* \"#utility.yul\":6175:6728   */\n      swap3\n      pop\n      swap3\n      swap1\n      pop\n      jump\t// out\n        /* \"#utility.yul\":6734:8245   */\n    tag_26:\n        /* \"#utility.yul\":6865:6871   */\n      0x00\n        /* \"#utility.yul\":6873:6879   */\n      dup1\n        /* \"#utility.yul\":6881:6887   */\n      0x00\n        /* \"#utility.yul\":6889:6895   */\n      dup1\n        /* \"#utility.yul\":6897:6903   */\n      0x00\n        /* \"#utility.yul\":6905:6911   */\n      dup1\n        /* \"#utility.yul\":6913:6919   */\n      0x00\n        /* \"#utility.yul\":6921:6927   */\n      dup1\n        /* \"#utility.yul\":6970:6973   */\n      0xa0\n        /* \"#utility.yul\":6958:6967   */\n      dup10\n        /* \"#utility.yul\":6949:6956   */\n      dup12\n        /* \"#utility.yul\":6945:6968   */\n      sub\n        /* \"#utility.yul\":6941:6974   */\n      slt\n        /* \"#utility.yul\":6938:7058   */\n      iszero\n      tag_369\n      jumpi\n        /* \"#utility.yul\":6977:7056   */\n      tag_370\n      tag_202\n      jump\t// in\n    tag_370:\n        /* \"#utility.yul\":6938:7058   */\n    tag_369:\n        /* \"#utility.yul\":7097:7098   */\n      0x00\n        /* \"#utility.yul\":7122:7175   */\n      tag_371\n        /* \"#utility.yul\":7167:7174   */\n      dup12\n        /* \"#utility.yul\":7158:7164   */\n      dup3\n        /* \"#utility.yul\":7147:7156   */\n      dup13\n        /* \"#utility.yul\":7143:7165   */\n      add\n        /* \"#utility.yul\":7122:7175   */\n      tag_223\n      jump\t// in\n    tag_371:\n        /* \"#utility.yul\":7112:7175   */\n      swap9\n      pop\n        /* \"#utility.yul\":7068:7185   */\n      pop\n        /* \"#utility.yul\":7252:7254   */\n      0x20\n        /* \"#utility.yul\":7241:7250   */\n      dup10\n        /* \"#utility.yul\":7237:7255   */\n      add\n        /* \"#utility.yul\":7224:7256   */\n      calldataload\n        /* \"#utility.yul\":7283:7301   */\n      0xffffffffffffffff\n        /* \"#utility.yul\":7275:7281   */\n      dup2\n        /* \"#utility.yul\":7272:7302   */\n      gt\n        /* \"#utility.yul\":7269:7386   */\n      iszero\n      tag_372\n      jumpi\n        /* \"#utility.yul\":7305:7384   */\n      tag_373\n      tag_203\n      jump\t// in\n    tag_373:\n        /* \"#utility.yul\":7269:7386   */\n    tag_372:\n        /* \"#utility.yul\":7418:7483   */\n      tag_374\n        /* \"#utility.yul\":7475:7482   */\n      dup12\n        /* \"#utility.yul\":7466:7472   */\n      dup3\n        /* \"#utility.yul\":7455:7464   */\n      dup13\n        /* \"#utility.yul\":7451:7473   */\n      add\n        /* \"#utility.yul\":7418:7483   */\n      tag_227\n      jump\t// in\n    tag_374:\n        /* \"#utility.yul\":7400:7483   */\n      swap8\n      pop\n      swap8\n      pop\n        /* \"#utility.yul\":7195:7493   */\n      pop\n        /* \"#utility.yul\":7560:7562   */\n      0x40\n        /* \"#utility.yul\":7549:7558   */\n      dup10\n        /* \"#utility.yul\":7545:7563   */\n      add\n        /* \"#utility.yul\":7532:7564   */\n      calldataload\n        /* \"#utility.yul\":7591:7609   */\n      0xffffffffffffffff\n        /* \"#utility.yul\":7583:7589   */\n      dup2\n        /* \"#utility.yul\":7580:7610   */\n      gt\n        /* \"#utility.yul\":7577:7694   */\n      iszero\n      tag_375\n      jumpi\n        /* \"#utility.yul\":7613:7692   */\n      tag_376\n      tag_203\n      jump\t// in\n    tag_376:\n        /* \"#utility.yul\":7577:7694   */\n    tag_375:\n        /* \"#utility.yul\":7726:7791   */\n      tag_377\n        /* \"#utility.yul\":7783:7790   */\n      dup12\n        /* \"#utility.yul\":7774:7780   */\n      dup3\n        /* \"#utility.yul\":7763:7772   */\n      dup13\n        /* \"#utility.yul\":7759:7781   */\n      add\n        /* \"#utility.yul\":7726:7791   */\n      tag_227\n      jump\t// in\n    tag_377:\n        /* \"#utility.yul\":7708:7791   */\n      swap6\n      pop\n      swap6\n      pop\n        /* \"#utility.yul\":7503:7801   */\n      pop\n        /* \"#utility.yul\":7840:7842   */\n      0x60\n        /* \"#utility.yul\":7866:7919   */\n      tag_378\n        /* \"#utility.yul\":7911:7918   */\n      dup12\n        /* \"#utility.yul\":7902:7908   */\n      dup3\n        /* \"#utility.yul\":7891:7900   */\n      dup13\n        /* \"#utility.yul\":7887:7909   */\n      add\n        /* \"#utility.yul\":7866:7919   */\n      tag_205\n      jump\t// in\n    tag_378:\n        /* \"#utility.yul\":7856:7919   */\n      swap4\n      pop\n        /* \"#utility.yul\":7811:7929   */\n      pop\n        /* \"#utility.yul\":7996:7999   */\n      0x80\n        /* \"#utility.yul\":7985:7994   */\n      dup10\n        /* \"#utility.yul\":7981:8000   */\n      add\n        /* \"#utility.yul\":7968:8001   */\n      calldataload\n        /* \"#utility.yul\":8028:8046   */\n      0xffffffffffffffff\n        /* \"#utility.yul\":8020:8026   */\n      dup2\n        /* \"#utility.yul\":8017:8047   */\n      gt\n        /* \"#utility.yul\":8014:8131   */\n      iszero\n      tag_379\n      jumpi\n        /* \"#utility.yul\":8050:8129   */\n      tag_380\n      tag_203\n      jump\t// in\n    tag_380:\n        /* \"#utility.yul\":8014:8131   */\n    tag_379:\n        /* \"#utility.yul\":8163:8228   */\n      tag_381\n        /* \"#utility.yul\":8220:8227   */\n      dup12\n        /* \"#utility.yul\":8211:8217   */\n      dup3\n        /* \"#utility.yul\":8200:8209   */\n      dup13\n        /* \"#utility.yul\":8196:8218   */\n      add\n        /* \"#utility.yul\":8163:8228   */\n      tag_227\n      jump\t// in\n    tag_381:\n        /* \"#utility.yul\":8145:8228   */\n      swap3\n      pop\n      swap3\n      pop\n        /* \"#utility.yul\":7939:8238   */\n      pop\n        /* \"#utility.yul\":6734:8245   */\n      swap3\n      swap6\n      swap9\n      pop\n      swap3\n      swap6\n      swap9\n      swap1\n      swap4\n      swap7\n      pop\n      jump\t// out\n        /* \"#utility.yul\":8251:8369   */\n    tag_228:\n        /* \"#utility.yul\":8338:8362   */\n      tag_383\n        /* \"#utility.yul\":8356:8361   */\n      dup2\n        /* \"#utility.yul\":8338:8362   */\n      tag_210\n      jump\t// in\n    tag_383:\n        /* \"#utility.yul\":8333:8336   */\n      dup3\n        /* \"#utility.yul\":8326:8363   */\n      mstore\n        /* \"#utility.yul\":8251:8369   */\n      pop\n      pop\n      jump\t// out\n        /* \"#utility.yul\":8375:8474   */\n    tag_229:\n        /* \"#utility.yul\":8427:8433   */\n      0x00\n        /* \"#utility.yul\":8461:8466   */\n      dup2\n        /* \"#utility.yul\":8455:8467   */\n      mload\n        /* \"#utility.yul\":8445:8467   */\n      swap1\n      pop\n        /* \"#utility.yul\":8375:8474   */\n      swap2\n      swap1\n      pop\n      jump\t// out\n        /* \"#utility.yul\":8480:8649   */\n    tag_230:\n        /* \"#utility.yul\":8564:8575   */\n      0x00\n        /* \"#utility.yul\":8598:8604   */\n      dup3\n        /* \"#utility.yul\":8593:8596   */\n      dup3\n        /* \"#utility.yul\":8586:8605   */\n      mstore\n        /* \"#utility.yul\":8638:8642   */\n      0x20\n        /* \"#utility.yul\":8633:8636   */\n      dup3\n        /* \"#utility.yul\":8629:8643   */\n      add\n        /* \"#utility.yul\":8614:8643   */\n      swap1\n      pop\n        /* \"#utility.yul\":8480:8649   */\n      swap3\n      swap2\n      pop\n      pop\n      jump\t// out\n        /* \"#utility.yul\":8655:8794   */\n    tag_231:\n        /* \"#utility.yul\":8744:8750   */\n      dup3\n        /* \"#utility.yul\":8739:8742   */\n      dup2\n        /* \"#utility.yul\":8734:8737   */\n      dup4\n        /* \"#utility.yul\":8728:8751   */\n      mcopy\n        /* \"#utility.yul\":8785:8786   */\n      0x00\n        /* \"#utility.yul\":8776:8782   */\n      dup4\n        /* \"#utility.yul\":8771:8774   */\n      dup4\n        /* \"#utility.yul\":8767:8783   */\n      add\n        /* \"#utility.yul\":8760:8787   */\n      mstore\n        /* \"#utility.yul\":8655:8794   */\n      pop\n      pop\n      pop\n      jump\t// out\n        /* \"#utility.yul\":8800:8902   */\n    tag_232:\n        /* \"#utility.yul\":8841:8847   */\n      0x00\n        /* \"#utility.yul\":8892:8894   */\n      0x1f\n        /* \"#utility.yul\":8888:8895   */\n      not\n        /* \"#utility.yul\":8883:8885   */\n      0x1f\n        /* \"#utility.yul\":8876:8881   */\n      dup4\n        /* \"#utility.yul\":8872:8886   */\n      add\n        /* \"#utility.yul\":8868:8896   */\n      and\n        /* \"#utility.yul\":8858:8896   */\n      swap1\n      pop\n        /* \"#utility.yul\":8800:8902   */\n      swap2\n      swap1\n      pop\n      jump\t// out\n        /* \"#utility.yul\":8908:9285   */\n    tag_233:\n        /* \"#utility.yul\":8996:8999   */\n      0x00\n        /* \"#utility.yul\":9024:9063   */\n      tag_389\n        /* \"#utility.yul\":9057:9062   */\n      dup3\n        /* \"#utility.yul\":9024:9063   */\n      tag_229\n      jump\t// in\n    tag_389:\n        /* \"#utility.yul\":9079:9150   */\n      tag_390\n        /* \"#utility.yul\":9143:9149   */\n      dup2\n        /* \"#utility.yul\":9138:9141   */\n      dup6\n        /* \"#utility.yul\":9079:9150   */\n      tag_230\n      jump\t// in\n    tag_390:\n        /* \"#utility.yul\":9072:9150   */\n      swap4\n      pop\n        /* \"#utility.yul\":9159:9224   */\n      tag_391\n        /* \"#utility.yul\":9217:9223   */\n      dup2\n        /* \"#utility.yul\":9212:9215   */\n      dup6\n        /* \"#utility.yul\":9205:9209   */\n      0x20\n        /* \"#utility.yul\":9198:9203   */\n      dup7\n        /* \"#utility.yul\":9194:9210   */\n      add\n        /* \"#utility.yul\":9159:9224   */\n      tag_231\n      jump\t// in\n    tag_391:\n        /* \"#utility.yul\":9249:9278   */\n      tag_392\n        /* \"#utility.yul\":9271:9277   */\n      dup2\n        /* \"#utility.yul\":9249:9278   */\n      tag_232\n      jump\t// in\n    tag_392:\n        /* \"#utility.yul\":9244:9247   */\n      dup5\n        /* \"#utility.yul\":9240:9279   */\n      add\n        /* \"#utility.yul\":9233:9279   */\n      swap2\n      pop\n        /* \"#utility.yul\":9000:9285   */\n      pop\n        /* \"#utility.yul\":8908:9285   */\n      swap3\n      swap2\n      pop\n      pop\n      jump\t// out\n        /* \"#utility.yul\":9291:9381   */\n    tag_234:\n        /* \"#utility.yul\":9325:9332   */\n      0x00\n        /* \"#utility.yul\":9368:9373   */\n      dup2\n        /* \"#utility.yul\":9361:9374   */\n      iszero\n        /* \"#utility.yul\":9354:9375   */\n      iszero\n        /* \"#utility.yul\":9343:9375   */\n      swap1\n      pop\n        /* \"#utility.yul\":9291:9381   */\n      swap2\n      swap1\n      pop\n      jump\t// out\n        /* \"#utility.yul\":9387:9496   */\n    tag_235:\n        /* \"#utility.yul\":9468:9489   */\n      tag_395\n        /* \"#utility.yul\":9483:9488   */\n      dup2\n        /* \"#utility.yul\":9468:9489   */\n      tag_234\n      jump\t// in\n    tag_395:\n        /* \"#utility.yul\":9463:9466   */\n      dup3\n        /* \"#utility.yul\":9456:9490   */\n      mstore\n        /* \"#utility.yul\":9387:9496   */\n      pop\n      pop\n      jump\t// out\n        /* \"#utility.yul\":9502:10649   */\n    tag_34:\n        /* \"#utility.yul\":9817:9821   */\n      0x00\n        /* \"#utility.yul\":9855:9858   */\n      0xe0\n        /* \"#utility.yul\":9844:9853   */\n      dup3\n        /* \"#utility.yul\":9840:9859   */\n      add\n        /* \"#utility.yul\":9832:9859   */\n      swap1\n      pop\n        /* \"#utility.yul\":9869:9940   */\n      tag_397\n        /* \"#utility.yul\":9937:9938   */\n      0x00\n        /* \"#utility.yul\":9926:9935   */\n      dup4\n        /* \"#utility.yul\":9922:9939   */\n      add\n        /* \"#utility.yul\":9913:9919   */\n      dup11\n        /* \"#utility.yul\":9869:9940   */\n      tag_228\n      jump\t// in\n    tag_397:\n        /* \"#utility.yul\":9987:9996   */\n      dup2\n        /* \"#utility.yul\":9981:9985   */\n      dup2\n        /* \"#utility.yul\":9977:9997   */\n      sub\n        /* \"#utility.yul\":9972:9974   */\n      0x20\n        /* \"#utility.yul\":9961:9970   */\n      dup4\n        /* \"#utility.yul\":9957:9975   */\n      add\n        /* \"#utility.yul\":9950:9998   */\n      mstore\n        /* \"#utility.yul\":10015:10093   */\n      tag_398\n        /* \"#utility.yul\":10088:10092   */\n      dup2\n        /* \"#utility.yul\":10079:10085   */\n      dup10\n        /* \"#utility.yul\":10015:10093   */\n      tag_233\n      jump\t// in\n    tag_398:\n        /* \"#utility.yul\":10007:10093   */\n      swap1\n      pop\n        /* \"#utility.yul\":10140:10149   */\n      dup2\n        /* \"#utility.yul\":10134:10138   */\n      dup2\n        /* \"#utility.yul\":10130:10150   */\n      sub\n        /* \"#utility.yul\":10125:10127   */\n      0x40\n        /* \"#utility.yul\":10114:10123   */\n      dup4\n        /* \"#utility.yul\":10110:10128   */\n      add\n        /* \"#utility.yul\":10103:10151   */\n      mstore\n        /* \"#utility.yul\":10168:10246   */\n      tag_399\n        /* \"#utility.yul\":10241:10245   */\n      dup2\n        /* \"#utility.yul\":10232:10238   */\n      dup9\n        /* \"#utility.yul\":10168:10246   */\n      tag_233\n      jump\t// in\n    tag_399:\n        /* \"#utility.yul\":10160:10246   */\n      swap1\n      pop\n        /* \"#utility.yul\":10256:10328   */\n      tag_400\n        /* \"#utility.yul\":10324:10326   */\n      0x60\n        /* \"#utility.yul\":10313:10322   */\n      dup4\n        /* \"#utility.yul\":10309:10327   */\n      add\n        /* \"#utility.yul\":10300:10306   */\n      dup8\n        /* \"#utility.yul\":10256:10328   */\n      tag_200\n      jump\t// in\n    tag_400:\n        /* \"#utility.yul\":10338:10411   */\n      tag_401\n        /* \"#utility.yul\":10406:10409   */\n      0x80\n        /* \"#utility.yul\":10395:10404   */\n      dup4\n        /* \"#utility.yul\":10391:10410   */\n      add\n        /* \"#utility.yul\":10382:10388   */\n      dup7\n        /* \"#utility.yul\":10338:10411   */\n      tag_200\n      jump\t// in\n    tag_401:\n        /* \"#utility.yul\":10459:10468   */\n      dup2\n        /* \"#utility.yul\":10453:10457   */\n      dup2\n        /* \"#utility.yul\":10449:10469   */\n      sub\n        /* \"#utility.yul\":10443:10446   */\n      0xa0\n        /* \"#utility.yul\":10432:10441   */\n      dup4\n        /* \"#utility.yul\":10428:10447   */\n      add\n        /* \"#utility.yul\":10421:10470   */\n      mstore\n        /* \"#utility.yul\":10487:10565   */\n      tag_402\n        /* \"#utility.yul\":10560:10564   */\n      dup2\n        /* \"#utility.yul\":10551:10557   */\n      dup6\n        /* \"#utility.yul\":10487:10565   */\n      tag_233\n      jump\t// in\n    tag_402:\n        /* \"#utility.yul\":10479:10565   */\n      swap1\n      pop\n        /* \"#utility.yul\":10575:10642   */\n      tag_403\n        /* \"#utility.yul\":10637:10640   */\n      0xc0\n        /* \"#utility.yul\":10626:10635   */\n      dup4\n        /* \"#utility.yul\":10622:10641   */\n      add\n        /* \"#utility.yul\":10613:10619   */\n      dup5\n        /* \"#utility.yul\":10575:10642   */\n      tag_235\n      jump\t// in\n    tag_403:\n        /* \"#utility.yul\":9502:10649   */\n      swap9\n      swap8\n      pop\n      pop\n      pop\n      pop\n      pop\n      pop\n      pop\n      pop\n      jump\t// out\n        /* \"#utility.yul\":10655:10794   */\n    tag_236:\n        /* \"#utility.yul\":10747:10753   */\n      0x00\n        /* \"#utility.yul\":10781:10786   */\n      dup2\n        /* \"#utility.yul\":10775:10787   */\n      mload\n        /* \"#utility.yul\":10765:10787   */\n      swap1\n      pop\n        /* \"#utility.yul\":10655:10794   */\n      swap2\n      swap1\n      pop\n      jump\t// out\n        /* \"#utility.yul\":10800:11009   */\n    tag_237:\n        /* \"#utility.yul\":10924:10935   */\n      0x00\n        /* \"#utility.yul\":10958:10964   */\n      dup3\n        /* \"#utility.yul\":10953:10956   */\n      dup3\n        /* \"#utility.yul\":10946:10965   */\n      mstore\n        /* \"#utility.yul\":10998:11002   */\n      0x20\n        /* \"#utility.yul\":10993:10996   */\n      dup3\n        /* \"#utility.yul\":10989:11003   */\n      add\n        /* \"#utility.yul\":10974:11003   */\n      swap1\n      pop\n        /* \"#utility.yul\":10800:11009   */\n      swap3\n      swap2\n      pop\n      pop\n      jump\t// out\n        /* \"#utility.yul\":11015:11172   */\n    tag_238:\n        /* \"#utility.yul\":11107:11111   */\n      0x00\n        /* \"#utility.yul\":11130:11133   */\n      dup2\n        /* \"#utility.yul\":11122:11133   */\n      swap1\n      pop\n        /* \"#utility.yul\":11160:11164   */\n      0x20\n        /* \"#utility.yul\":11155:11158   */\n      dup3\n        /* \"#utility.yul\":11151:11165   */\n      add\n        /* \"#utility.yul\":11143:11165   */\n      swap1\n      pop\n        /* \"#utility.yul\":11015:11172   */\n      swap2\n      swap1\n      pop\n      jump\t// out\n        /* \"#utility.yul\":11178:11337   */\n    tag_239:\n        /* \"#utility.yul\":11252:11263   */\n      0x00\n        /* \"#utility.yul\":11286:11292   */\n      dup3\n        /* \"#utility.yul\":11281:11284   */\n      dup3\n        /* \"#utility.yul\":11274:11293   */\n      mstore\n        /* \"#utility.yul\":11326:11330   */\n      0x20\n        /* \"#utility.yul\":11321:11324   */\n      dup3\n        /* \"#utility.yul\":11317:11331   */\n      add\n        /* \"#utility.yul\":11302:11331   */\n      swap1\n      pop\n        /* \"#utility.yul\":11178:11337   */\n      swap3\n      swap2\n      pop\n      pop\n      jump\t// out\n        /* \"#utility.yul\":11343:11700   */\n    tag_240:\n        /* \"#utility.yul\":11421:11424   */\n      0x00\n        /* \"#utility.yul\":11449:11488   */\n      tag_409\n        /* \"#utility.yul\":11482:11487   */\n      dup3\n        /* \"#utility.yul\":11449:11488   */\n      tag_229\n      jump\t// in\n    tag_409:\n        /* \"#utility.yul\":11504:11565   */\n      tag_410\n        /* \"#utility.yul\":11558:11564   */\n      dup2\n        /* \"#utility.yul\":11553:11556   */\n      dup6\n        /* \"#utility.yul\":11504:11565   */\n      tag_239\n      jump\t// in\n    tag_410:\n        /* \"#utility.yul\":11497:11565   */\n      swap4\n      pop\n        /* \"#utility.yul\":11574:11639   */\n      tag_411\n        /* \"#utility.yul\":11632:11638   */\n      dup2\n        /* \"#utility.yul\":11627:11630   */\n      dup6\n        /* \"#utility.yul\":11620:11624   */\n      0x20\n        /* \"#utility.yul\":11613:11618   */\n      dup7\n        /* \"#utility.yul\":11609:11625   */\n      add\n        /* \"#utility.yul\":11574:11639   */\n      tag_231\n      jump\t// in\n    tag_411:\n        /* \"#utility.yul\":11664:11693   */\n      tag_412\n        /* \"#utility.yul\":11686:11692   */\n      dup2\n        /* \"#utility.yul\":11664:11693   */\n      tag_232\n      jump\t// in\n    tag_412:\n        /* \"#utility.yul\":11659:11662   */\n      dup5\n        /* \"#utility.yul\":11655:11694   */\n      add\n        /* \"#utility.yul\":11648:11694   */\n      swap2\n      pop\n        /* \"#utility.yul\":11425:11700   */\n      pop\n        /* \"#utility.yul\":11343:11700   */\n      swap3\n      swap2\n      pop\n      pop\n      jump\t// out\n        /* \"#utility.yul\":11706:11805   */\n    tag_241:\n        /* \"#utility.yul\":11777:11798   */\n      tag_414\n        /* \"#utility.yul\":11792:11797   */\n      dup2\n        /* \"#utility.yul\":11777:11798   */\n      tag_234\n      jump\t// in\n    tag_414:\n        /* \"#utility.yul\":11772:11775   */\n      dup3\n        /* \"#utility.yul\":11765:11799   */\n      mstore\n        /* \"#utility.yul\":11706:11805   */\n      pop\n      pop\n      jump\t// out\n        /* \"#utility.yul\":11811:11985   */\n    tag_242:\n        /* \"#utility.yul\":11900:11911   */\n      0x00\n        /* \"#utility.yul\":11934:11940   */\n      dup3\n        /* \"#utility.yul\":11929:11932   */\n      dup3\n        /* \"#utility.yul\":11922:11941   */\n      mstore\n        /* \"#utility.yul\":11974:11978   */\n      0x20\n        /* \"#utility.yul\":11969:11972   */\n      dup3\n        /* \"#utility.yul\":11965:11979   */\n      add\n        /* \"#utility.yul\":11950:11979   */\n      swap1\n      pop\n        /* \"#utility.yul\":11811:11985   */\n      swap3\n      swap2\n      pop\n      pop\n      jump\t// out\n        /* \"#utility.yul\":12021:12733   */\n    tag_243:\n        /* \"#utility.yul\":12130:12133   */\n      0x00\n        /* \"#utility.yul\":12159:12213   */\n      tag_417\n        /* \"#utility.yul\":12207:12212   */\n      dup3\n        /* \"#utility.yul\":12159:12213   */\n      tag_206\n      jump\t// in\n    tag_417:\n        /* \"#utility.yul\":12229:12305   */\n      tag_418\n        /* \"#utility.yul\":12298:12304   */\n      dup2\n        /* \"#utility.yul\":12293:12296   */\n      dup6\n        /* \"#utility.yul\":12229:12305   */\n      tag_242\n      jump\t// in\n    tag_418:\n        /* \"#utility.yul\":12222:12305   */\n      swap4\n      pop\n        /* \"#utility.yul\":12329:12385   */\n      tag_419\n        /* \"#utility.yul\":12379:12384   */\n      dup4\n        /* \"#utility.yul\":12329:12385   */\n      tag_208\n      jump\t// in\n    tag_419:\n        /* \"#utility.yul\":12408:12415   */\n      dup1\n        /* \"#utility.yul\":12439:12440   */\n      0x00\n        /* \"#utility.yul\":12424:12708   */\n    tag_420:\n        /* \"#utility.yul\":12449:12455   */\n      dup4\n        /* \"#utility.yul\":12446:12447   */\n      dup2\n        /* \"#utility.yul\":12443:12456   */\n      lt\n        /* \"#utility.yul\":12424:12708   */\n      iszero\n      tag_422\n      jumpi\n        /* \"#utility.yul\":12525:12531   */\n      dup2\n        /* \"#utility.yul\":12519:12532   */\n      mload\n        /* \"#utility.yul\":12552:12615   */\n      tag_423\n        /* \"#utility.yul\":12611:12614   */\n      dup9\n        /* \"#utility.yul\":12596:12609   */\n      dup3\n        /* \"#utility.yul\":12552:12615   */\n      tag_212\n      jump\t// in\n    tag_423:\n        /* \"#utility.yul\":12545:12615   */\n      swap8\n      pop\n        /* \"#utility.yul\":12638:12698   */\n      tag_424\n        /* \"#utility.yul\":12691:12697   */\n      dup4\n        /* \"#utility.yul\":12638:12698   */\n      tag_213\n      jump\t// in\n    tag_424:\n        /* \"#utility.yul\":12628:12698   */\n      swap3\n      pop\n        /* \"#utility.yul\":12484:12708   */\n      pop\n        /* \"#utility.yul\":12471:12472   */\n      0x01\n        /* \"#utility.yul\":12468:12469   */\n      dup2\n        /* \"#utility.yul\":12464:12473   */\n      add\n        /* \"#utility.yul\":12459:12473   */\n      swap1\n      pop\n        /* \"#utility.yul\":12424:12708   */\n      jump(tag_420)\n    tag_422:\n        /* \"#utility.yul\":12428:12442   */\n      pop\n        /* \"#utility.yul\":12724:12727   */\n      dup6\n        /* \"#utility.yul\":12717:12727   */\n      swap4\n      pop\n        /* \"#utility.yul\":12135:12733   */\n      pop\n      pop\n      pop\n        /* \"#utility.yul\":12021:12733   */\n      swap3\n      swap2\n      pop\n      pop\n      jump\t// out\n        /* \"#utility.yul\":12739:12913   */\n    tag_244:\n        /* \"#utility.yul\":12828:12839   */\n      0x00\n        /* \"#utility.yul\":12862:12868   */\n      dup3\n        /* \"#utility.yul\":12857:12860   */\n      dup3\n        /* \"#utility.yul\":12850:12869   */\n      mstore\n        /* \"#utility.yul\":12902:12906   */\n      0x20\n        /* \"#utility.yul\":12897:12900   */\n      dup3\n        /* \"#utility.yul\":12893:12907   */\n      add\n        /* \"#utility.yul\":12878:12907   */\n      swap1\n      pop\n        /* \"#utility.yul\":12739:12913   */\n      swap3\n      swap2\n      pop\n      pop\n      jump\t// out\n        /* \"#utility.yul\":12949:13661   */\n    tag_245:\n        /* \"#utility.yul\":13058:13061   */\n      0x00\n        /* \"#utility.yul\":13087:13141   */\n      tag_427\n        /* \"#utility.yul\":13135:13140   */\n      dup3\n        /* \"#utility.yul\":13087:13141   */\n      tag_215\n      jump\t// in\n    tag_427:\n        /* \"#utility.yul\":13157:13233   */\n      tag_428\n        /* \"#utility.yul\":13226:13232   */\n      dup2\n        /* \"#utility.yul\":13221:13224   */\n      dup6\n        /* \"#utility.yul\":13157:13233   */\n      tag_244\n      jump\t// in\n    tag_428:\n        /* \"#utility.yul\":13150:13233   */\n      swap4\n      pop\n        /* \"#utility.yul\":13257:13313   */\n      tag_429\n        /* \"#utility.yul\":13307:13312   */\n      dup4\n        /* \"#utility.yul\":13257:13313   */\n      tag_217\n      jump\t// in\n    tag_429:\n        /* \"#utility.yul\":13336:13343   */\n      dup1\n        /* \"#utility.yul\":13367:13368   */\n      0x00\n        /* \"#utility.yul\":13352:13636   */\n    tag_430:\n        /* \"#utility.yul\":13377:13383   */\n      dup4\n        /* \"#utility.yul\":13374:13375   */\n      dup2\n        /* \"#utility.yul\":13371:13384   */\n      lt\n        /* \"#utility.yul\":13352:13636   */\n      iszero\n      tag_432\n      jumpi\n        /* \"#utility.yul\":13453:13459   */\n      dup2\n        /* \"#utility.yul\":13447:13460   */\n      mload\n        /* \"#utility.yul\":13480:13543   */\n      tag_433\n        /* \"#utility.yul\":13539:13542   */\n      dup9\n        /* \"#utility.yul\":13524:13537   */\n      dup3\n        /* \"#utility.yul\":13480:13543   */\n      tag_219\n      jump\t// in\n    tag_433:\n        /* \"#utility.yul\":13473:13543   */\n      swap8\n      pop\n        /* \"#utility.yul\":13566:13626   */\n      tag_434\n        /* \"#utility.yul\":13619:13625   */\n      dup4\n        /* \"#utility.yul\":13566:13626   */\n      tag_220\n      jump\t// in\n    tag_434:\n        /* \"#utility.yul\":13556:13626   */\n      swap3\n      pop\n        /* \"#utility.yul\":13412:13636   */\n      pop\n        /* \"#utility.yul\":13399:13400   */\n      0x01\n        /* \"#utility.yul\":13396:13397   */\n      dup2\n        /* \"#utility.yul\":13392:13401   */\n      add\n        /* \"#utility.yul\":13387:13401   */\n      swap1\n      pop\n        /* \"#utility.yul\":13352:13636   */\n      jump(tag_430)\n    tag_432:\n        /* \"#utility.yul\":13356:13370   */\n      pop\n        /* \"#utility.yul\":13652:13655   */\n      dup6\n        /* \"#utility.yul\":13645:13655   */\n      swap4\n      pop\n        /* \"#utility.yul\":13063:13661   */\n      pop\n      pop\n      pop\n        /* \"#utility.yul\":12949:13661   */\n      swap3\n      swap2\n      pop\n      pop\n      jump\t// out\n        /* \"#utility.yul\":13735:15930   */\n    tag_246:\n        /* \"#utility.yul\":13844:13847   */\n      0x00\n        /* \"#utility.yul\":13880:13886   */\n      0x0120\n        /* \"#utility.yul\":13875:13878   */\n      dup4\n        /* \"#utility.yul\":13871:13887   */\n      add\n        /* \"#utility.yul\":13970:13974   */\n      0x00\n        /* \"#utility.yul\":13963:13968   */\n      dup4\n        /* \"#utility.yul\":13959:13975   */\n      add\n        /* \"#utility.yul\":13953:13976   */\n      mload\n        /* \"#utility.yul\":13989:14052   */\n      tag_436\n        /* \"#utility.yul\":14046:14050   */\n      0x00\n        /* \"#utility.yul\":14041:14044   */\n      dup7\n        /* \"#utility.yul\":14037:14051   */\n      add\n        /* \"#utility.yul\":14023:14035   */\n      dup3\n        /* \"#utility.yul\":13989:14052   */\n      tag_211\n      jump\t// in\n    tag_436:\n        /* \"#utility.yul\":13897:14062   */\n      pop\n        /* \"#utility.yul\":14145:14149   */\n      0x20\n        /* \"#utility.yul\":14138:14143   */\n      dup4\n        /* \"#utility.yul\":14134:14150   */\n      add\n        /* \"#utility.yul\":14128:14151   */\n      mload\n        /* \"#utility.yul\":14198:14201   */\n      dup5\n        /* \"#utility.yul\":14192:14196   */\n      dup3\n        /* \"#utility.yul\":14188:14202   */\n      sub\n        /* \"#utility.yul\":14181:14185   */\n      0x20\n        /* \"#utility.yul\":14176:14179   */\n      dup7\n        /* \"#utility.yul\":14172:14186   */\n      add\n        /* \"#utility.yul\":14165:14203   */\n      mstore\n        /* \"#utility.yul\":14224:14297   */\n      tag_437\n        /* \"#utility.yul\":14292:14296   */\n      dup3\n        /* \"#utility.yul\":14278:14290   */\n      dup3\n        /* \"#utility.yul\":14224:14297   */\n      tag_240\n      jump\t// in\n    tag_437:\n        /* \"#utility.yul\":14216:14297   */\n      swap2\n      pop\n        /* \"#utility.yul\":14072:14308   */\n      pop\n        /* \"#utility.yul\":14397:14401   */\n      0x40\n        /* \"#utility.yul\":14390:14395   */\n      dup4\n        /* \"#utility.yul\":14386:14402   */\n      add\n        /* \"#utility.yul\":14380:14403   */\n      mload\n        /* \"#utility.yul\":14450:14453   */\n      dup5\n        /* \"#utility.yul\":14444:14448   */\n      dup3\n        /* \"#utility.yul\":14440:14454   */\n      sub\n        /* \"#utility.yul\":14433:14437   */\n      0x40\n        /* \"#utility.yul\":14428:14431   */\n      dup7\n        /* \"#utility.yul\":14424:14438   */\n      add\n        /* \"#utility.yul\":14417:14455   */\n      mstore\n        /* \"#utility.yul\":14476:14549   */\n      tag_438\n        /* \"#utility.yul\":14544:14548   */\n      dup3\n        /* \"#utility.yul\":14530:14542   */\n      dup3\n        /* \"#utility.yul\":14476:14549   */\n      tag_240\n      jump\t// in\n    tag_438:\n        /* \"#utility.yul\":14468:14549   */\n      swap2\n      pop\n        /* \"#utility.yul\":14318:14560   */\n      pop\n        /* \"#utility.yul\":14644:14648   */\n      0x60\n        /* \"#utility.yul\":14637:14642   */\n      dup4\n        /* \"#utility.yul\":14633:14649   */\n      add\n        /* \"#utility.yul\":14627:14650   */\n      mload\n        /* \"#utility.yul\":14663:14726   */\n      tag_439\n        /* \"#utility.yul\":14720:14724   */\n      0x60\n        /* \"#utility.yul\":14715:14718   */\n      dup7\n        /* \"#utility.yul\":14711:14725   */\n      add\n        /* \"#utility.yul\":14697:14709   */\n      dup3\n        /* \"#utility.yul\":14663:14726   */\n      tag_218\n      jump\t// in\n    tag_439:\n        /* \"#utility.yul\":14570:14736   */\n      pop\n        /* \"#utility.yul\":14829:14833   */\n      0x80\n        /* \"#utility.yul\":14822:14827   */\n      dup4\n        /* \"#utility.yul\":14818:14834   */\n      add\n        /* \"#utility.yul\":14812:14835   */\n      mload\n        /* \"#utility.yul\":14848:14911   */\n      tag_440\n        /* \"#utility.yul\":14905:14909   */\n      0x80\n        /* \"#utility.yul\":14900:14903   */\n      dup7\n        /* \"#utility.yul\":14896:14910   */\n      add\n        /* \"#utility.yul\":14882:14894   */\n      dup3\n        /* \"#utility.yul\":14848:14911   */\n      tag_218\n      jump\t// in\n    tag_440:\n        /* \"#utility.yul\":14746:14921   */\n      pop\n        /* \"#utility.yul\":15004:15008   */\n      0xa0\n        /* \"#utility.yul\":14997:15002   */\n      dup4\n        /* \"#utility.yul\":14993:15009   */\n      add\n        /* \"#utility.yul\":14987:15010   */\n      mload\n        /* \"#utility.yul\":15057:15060   */\n      dup5\n        /* \"#utility.yul\":15051:15055   */\n      dup3\n        /* \"#utility.yul\":15047:15061   */\n      sub\n        /* \"#utility.yul\":15040:15044   */\n      0xa0\n        /* \"#utility.yul\":15035:15038   */\n      dup7\n        /* \"#utility.yul\":15031:15045   */\n      add\n        /* \"#utility.yul\":15024:15062   */\n      mstore\n        /* \"#utility.yul\":15083:15156   */\n      tag_441\n        /* \"#utility.yul\":15151:15155   */\n      dup3\n        /* \"#utility.yul\":15137:15149   */\n      dup3\n        /* \"#utility.yul\":15083:15156   */\n      tag_240\n      jump\t// in\n    tag_441:\n        /* \"#utility.yul\":15075:15156   */\n      swap2\n      pop\n        /* \"#utility.yul\":14931:15167   */\n      pop\n        /* \"#utility.yul\":15254:15258   */\n      0xc0\n        /* \"#utility.yul\":15247:15252   */\n      dup4\n        /* \"#utility.yul\":15243:15259   */\n      add\n        /* \"#utility.yul\":15237:15260   */\n      mload\n        /* \"#utility.yul\":15273:15330   */\n      tag_442\n        /* \"#utility.yul\":15324:15328   */\n      0xc0\n        /* \"#utility.yul\":15319:15322   */\n      dup7\n        /* \"#utility.yul\":15315:15329   */\n      add\n        /* \"#utility.yul\":15301:15313   */\n      dup3\n        /* \"#utility.yul\":15273:15330   */\n      tag_241\n      jump\t// in\n    tag_442:\n        /* \"#utility.yul\":15177:15340   */\n      pop\n        /* \"#utility.yul\":15426:15430   */\n      0xe0\n        /* \"#utility.yul\":15419:15424   */\n      dup4\n        /* \"#utility.yul\":15415:15431   */\n      add\n        /* \"#utility.yul\":15409:15432   */\n      mload\n        /* \"#utility.yul\":15479:15482   */\n      dup5\n        /* \"#utility.yul\":15473:15477   */\n      dup3\n        /* \"#utility.yul\":15469:15483   */\n      sub\n        /* \"#utility.yul\":15462:15466   */\n      0xe0\n        /* \"#utility.yul\":15457:15460   */\n      dup7\n        /* \"#utility.yul\":15453:15467   */\n      add\n        /* \"#utility.yul\":15446:15484   */\n      mstore\n        /* \"#utility.yul\":15505:15608   */\n      tag_443\n        /* \"#utility.yul\":15603:15607   */\n      dup3\n        /* \"#utility.yul\":15589:15601   */\n      dup3\n        /* \"#utility.yul\":15505:15608   */\n      tag_243\n      jump\t// in\n    tag_443:\n        /* \"#utility.yul\":15497:15608   */\n      swap2\n      pop\n        /* \"#utility.yul\":15350:15619   */\n      pop\n        /* \"#utility.yul\":15706:15712   */\n      0x0100\n        /* \"#utility.yul\":15699:15704   */\n      dup4\n        /* \"#utility.yul\":15695:15713   */\n      add\n        /* \"#utility.yul\":15689:15714   */\n      mload\n        /* \"#utility.yul\":15763:15766   */\n      dup5\n        /* \"#utility.yul\":15757:15761   */\n      dup3\n        /* \"#utility.yul\":15753:15767   */\n      sub\n        /* \"#utility.yul\":15744:15750   */\n      0x0100\n        /* \"#utility.yul\":15739:15742   */\n      dup7\n        /* \"#utility.yul\":15735:15751   */\n      add\n        /* \"#utility.yul\":15728:15768   */\n      mstore\n        /* \"#utility.yul\":15789:15892   */\n      tag_444\n        /* \"#utility.yul\":15887:15891   */\n      dup3\n        /* \"#utility.yul\":15873:15885   */\n      dup3\n        /* \"#utility.yul\":15789:15892   */\n      tag_245\n      jump\t// in\n    tag_444:\n        /* \"#utility.yul\":15781:15892   */\n      swap2\n      pop\n        /* \"#utility.yul\":15629:15903   */\n      pop\n        /* \"#utility.yul\":15920:15924   */\n      dup1\n        /* \"#utility.yul\":15913:15924   */\n      swap2\n      pop\n        /* \"#utility.yul\":13849:15930   */\n      pop\n        /* \"#utility.yul\":13735:15930   */\n      swap3\n      swap2\n      pop\n      pop\n      jump\t// out\n        /* \"#utility.yul\":15936:16192   */\n    tag_247:\n        /* \"#utility.yul\":16055:16065   */\n      0x00\n        /* \"#utility.yul\":16090:16186   */\n      tag_446\n        /* \"#utility.yul\":16182:16185   */\n      dup4\n        /* \"#utility.yul\":16174:16180   */\n      dup4\n        /* \"#utility.yul\":16090:16186   */\n      tag_246\n      jump\t// in\n    tag_446:\n        /* \"#utility.yul\":16076:16186   */\n      swap1\n      pop\n        /* \"#utility.yul\":15936:16192   */\n      swap3\n      swap2\n      pop\n      pop\n      jump\t// out\n        /* \"#utility.yul\":16198:16336   */\n    tag_248:\n        /* \"#utility.yul\":16293:16297   */\n      0x00\n        /* \"#utility.yul\":16325:16329   */\n      0x20\n        /* \"#utility.yul\":16320:16323   */\n      dup3\n        /* \"#utility.yul\":16316:16330   */\n      add\n        /* \"#utility.yul\":16308:16330   */\n      swap1\n      pop\n        /* \"#utility.yul\":16198:16336   */\n      swap2\n      swap1\n      pop\n      jump\t// out\n        /* \"#utility.yul\":16414:17525   */\n    tag_249:\n        /* \"#utility.yul\":16583:16586   */\n      0x00\n        /* \"#utility.yul\":16612:16691   */\n      tag_449\n        /* \"#utility.yul\":16685:16690   */\n      dup3\n        /* \"#utility.yul\":16612:16691   */\n      tag_236\n      jump\t// in\n    tag_449:\n        /* \"#utility.yul\":16707:16818   */\n      tag_450\n        /* \"#utility.yul\":16811:16817   */\n      dup2\n        /* \"#utility.yul\":16806:16809   */\n      dup6\n        /* \"#utility.yul\":16707:16818   */\n      tag_237\n      jump\t// in\n    tag_450:\n        /* \"#utility.yul\":16700:16818   */\n      swap4\n      pop\n        /* \"#utility.yul\":16844:16847   */\n      dup4\n        /* \"#utility.yul\":16889:16893   */\n      0x20\n        /* \"#utility.yul\":16881:16887   */\n      dup3\n        /* \"#utility.yul\":16877:16894   */\n      mul\n        /* \"#utility.yul\":16872:16875   */\n      dup6\n        /* \"#utility.yul\":16868:16895   */\n      add\n        /* \"#utility.yul\":16919:17000   */\n      tag_451\n        /* \"#utility.yul\":16994:16999   */\n      dup6\n        /* \"#utility.yul\":16919:17000   */\n      tag_238\n      jump\t// in\n    tag_451:\n        /* \"#utility.yul\":17023:17030   */\n      dup1\n        /* \"#utility.yul\":17054:17055   */\n      0x00\n        /* \"#utility.yul\":17039:17480   */\n    tag_452:\n        /* \"#utility.yul\":17064:17070   */\n      dup6\n        /* \"#utility.yul\":17061:17062   */\n      dup2\n        /* \"#utility.yul\":17058:17071   */\n      lt\n        /* \"#utility.yul\":17039:17480   */\n      iszero\n      tag_454\n      jumpi\n        /* \"#utility.yul\":17135:17144   */\n      dup5\n        /* \"#utility.yul\":17129:17133   */\n      dup5\n        /* \"#utility.yul\":17125:17145   */\n      sub\n        /* \"#utility.yul\":17120:17123   */\n      dup10\n        /* \"#utility.yul\":17113:17146   */\n      mstore\n        /* \"#utility.yul\":17186:17192   */\n      dup2\n        /* \"#utility.yul\":17180:17193   */\n      mload\n        /* \"#utility.yul\":17214:17328   */\n      tag_455\n        /* \"#utility.yul\":17323:17327   */\n      dup6\n        /* \"#utility.yul\":17308:17321   */\n      dup3\n        /* \"#utility.yul\":17214:17328   */\n      tag_247\n      jump\t// in\n    tag_455:\n        /* \"#utility.yul\":17206:17328   */\n      swap5\n      pop\n        /* \"#utility.yul\":17351:17436   */\n      tag_456\n        /* \"#utility.yul\":17429:17435   */\n      dup4\n        /* \"#utility.yul\":17351:17436   */\n      tag_248\n      jump\t// in\n    tag_456:\n        /* \"#utility.yul\":17341:17436   */\n      swap3\n      pop\n        /* \"#utility.yul\":17465:17469   */\n      0x20\n        /* \"#utility.yul\":17460:17463   */\n      dup11\n        /* \"#utility.yul\":17456:17470   */\n      add\n        /* \"#utility.yul\":17449:17470   */\n      swap10\n      pop\n        /* \"#utility.yul\":17099:17480   */\n      pop\n        /* \"#utility.yul\":17086:17087   */\n      0x01\n        /* \"#utility.yul\":17083:17084   */\n      dup2\n        /* \"#utility.yul\":17079:17088   */\n      add\n        /* \"#utility.yul\":17074:17088   */\n      swap1\n      pop\n        /* \"#utility.yul\":17039:17480   */\n      jump(tag_452)\n    tag_454:\n        /* \"#utility.yul\":17043:17057   */\n      pop\n        /* \"#utility.yul\":17496:17500   */\n      dup3\n        /* \"#utility.yul\":17489:17500   */\n      swap8\n      pop\n        /* \"#utility.yul\":17516:17519   */\n      dup8\n        /* \"#utility.yul\":17509:17519   */\n      swap6\n      pop\n        /* \"#utility.yul\":16588:17525   */\n      pop\n      pop\n      pop\n      pop\n      pop\n        /* \"#utility.yul\":16414:17525   */\n      swap3\n      swap2\n      pop\n      pop\n      jump\t// out\n        /* \"#utility.yul\":17531:18004   */\n    tag_46:\n        /* \"#utility.yul\":17724:17728   */\n      0x00\n        /* \"#utility.yul\":17762:17764   */\n      0x20\n        /* \"#utility.yul\":17751:17760   */\n      dup3\n        /* \"#utility.yul\":17747:17765   */\n      add\n        /* \"#utility.yul\":17739:17765   */\n      swap1\n      pop\n        /* \"#utility.yul\":17811:17820   */\n      dup2\n        /* \"#utility.yul\":17805:17809   */\n      dup2\n        /* \"#utility.yul\":17801:17821   */\n      sub\n        /* \"#utility.yul\":17797:17798   */\n      0x00\n        /* \"#utility.yul\":17786:17795   */\n      dup4\n        /* \"#utility.yul\":17782:17799   */\n      add\n        /* \"#utility.yul\":17775:17822   */\n      mstore\n        /* \"#utility.yul\":17839:17997   */\n      tag_458\n        /* \"#utility.yul\":17992:17996   */\n      dup2\n        /* \"#utility.yul\":17983:17989   */\n      dup5\n        /* \"#utility.yul\":17839:17997   */\n      tag_249\n      jump\t// in\n    tag_458:\n        /* \"#utility.yul\":17831:17997   */\n      swap1\n      pop\n        /* \"#utility.yul\":17531:18004   */\n      swap3\n      swap2\n      pop\n      pop\n      jump\t// out\n        /* \"#utility.yul\":18010:19521   */\n    tag_50:\n        /* \"#utility.yul\":18141:18147   */\n      0x00\n        /* \"#utility.yul\":18149:18155   */\n      dup1\n        /* \"#utility.yul\":18157:18163   */\n      0x00\n        /* \"#utility.yul\":18165:18171   */\n      dup1\n        /* \"#utility.yul\":18173:18179   */\n      0x00\n        /* \"#utility.yul\":18181:18187   */\n      dup1\n        /* \"#utility.yul\":18189:18195   */\n      0x00\n        /* \"#utility.yul\":18197:18203   */\n      dup1\n        /* \"#utility.yul\":18246:18249   */\n      0xa0\n        /* \"#utility.yul\":18234:18243   */\n      dup10\n        /* \"#utility.yul\":18225:18232   */\n      dup12\n        /* \"#utility.yul\":18221:18244   */\n      sub\n        /* \"#utility.yul\":18217:18250   */\n      slt\n        /* \"#utility.yul\":18214:18334   */\n      iszero\n      tag_460\n      jumpi\n        /* \"#utility.yul\":18253:18332   */\n      tag_461\n      tag_202\n      jump\t// in\n    tag_461:\n        /* \"#utility.yul\":18214:18334   */\n    tag_460:\n        /* \"#utility.yul\":18373:18374   */\n      0x00\n        /* \"#utility.yul\":18398:18451   */\n      tag_462\n        /* \"#utility.yul\":18443:18450   */\n      dup12\n        /* \"#utility.yul\":18434:18440   */\n      dup3\n        /* \"#utility.yul\":18423:18432   */\n      dup13\n        /* \"#utility.yul\":18419:18441   */\n      add\n        /* \"#utility.yul\":18398:18451   */\n      tag_205\n      jump\t// in\n    tag_462:\n        /* \"#utility.yul\":18388:18451   */\n      swap9\n      pop\n        /* \"#utility.yul\":18344:18461   */\n      pop\n        /* \"#utility.yul\":18528:18530   */\n      0x20\n        /* \"#utility.yul\":18517:18526   */\n      dup10\n        /* \"#utility.yul\":18513:18531   */\n      add\n        /* \"#utility.yul\":18500:18532   */\n      calldataload\n        /* \"#utility.yul\":18559:18577   */\n      0xffffffffffffffff\n        /* \"#utility.yul\":18551:18557   */\n      dup2\n        /* \"#utility.yul\":18548:18578   */\n      gt\n        /* \"#utility.yul\":18545:18662   */\n      iszero\n      tag_463\n      jumpi\n        /* \"#utility.yul\":18581:18660   */\n      tag_464\n      tag_203\n      jump\t// in\n    tag_464:\n        /* \"#utility.yul\":18545:18662   */\n    tag_463:\n        /* \"#utility.yul\":18694:18759   */\n      tag_465\n        /* \"#utility.yul\":18751:18758   */\n      dup12\n        /* \"#utility.yul\":18742:18748   */\n      dup3\n        /* \"#utility.yul\":18731:18740   */\n      dup13\n        /* \"#utility.yul\":18727:18749   */\n      add\n        /* \"#utility.yul\":18694:18759   */\n      tag_227\n      jump\t// in\n    tag_465:\n        /* \"#utility.yul\":18676:18759   */\n      swap8\n      pop\n      swap8\n      pop\n        /* \"#utility.yul\":18471:18769   */\n      pop\n        /* \"#utility.yul\":18836:18838   */\n      0x40\n        /* \"#utility.yul\":18825:18834   */\n      dup10\n        /* \"#utility.yul\":18821:18839   */\n      add\n        /* \"#utility.yul\":18808:18840   */\n      calldataload\n        /* \"#utility.yul\":18867:18885   */\n      0xffffffffffffffff\n        /* \"#utility.yul\":18859:18865   */\n      dup2\n        /* \"#utility.yul\":18856:18886   */\n      gt\n        /* \"#utility.yul\":18853:18970   */\n      iszero\n      tag_466\n      jumpi\n        /* \"#utility.yul\":18889:18968   */\n      tag_467\n      tag_203\n      jump\t// in\n    tag_467:\n        /* \"#utility.yul\":18853:18970   */\n    tag_466:\n        /* \"#utility.yul\":19002:19067   */\n      tag_468\n        /* \"#utility.yul\":19059:19066   */\n      dup12\n        /* \"#utility.yul\":19050:19056   */\n      dup3\n        /* \"#utility.yul\":19039:19048   */\n      dup13\n        /* \"#utility.yul\":19035:19057   */\n      add\n        /* \"#utility.yul\":19002:19067   */\n      tag_227\n      jump\t// in\n    tag_468:\n        /* \"#utility.yul\":18984:19067   */\n      swap6\n      pop\n      swap6\n      pop\n        /* \"#utility.yul\":18779:19077   */\n      pop\n        /* \"#utility.yul\":19116:19118   */\n      0x60\n        /* \"#utility.yul\":19142:19195   */\n      tag_469\n        /* \"#utility.yul\":19187:19194   */\n      dup12\n        /* \"#utility.yul\":19178:19184   */\n      dup3\n        /* \"#utility.yul\":19167:19176   */\n      dup13\n        /* \"#utility.yul\":19163:19185   */\n      add\n        /* \"#utility.yul\":19142:19195   */\n      tag_205\n      jump\t// in\n    tag_469:\n        /* \"#utility.yul\":19132:19195   */\n      swap4\n      pop\n        /* \"#utility.yul\":19087:19205   */\n      pop\n        /* \"#utility.yul\":19272:19275   */\n      0x80\n        /* \"#utility.yul\":19261:19270   */\n      dup10\n        /* \"#utility.yul\":19257:19276   */\n      add\n        /* \"#utility.yul\":19244:19277   */\n      calldataload\n        /* \"#utility.yul\":19304:19322   */\n      0xffffffffffffffff\n        /* \"#utility.yul\":19296:19302   */\n      dup2\n        /* \"#utility.yul\":19293:19323   */\n      gt\n        /* \"#utility.yul\":19290:19407   */\n      iszero\n      tag_470\n      jumpi\n        /* \"#utility.yul\":19326:19405   */\n      tag_471\n      tag_203\n      jump\t// in\n    tag_471:\n        /* \"#utility.yul\":19290:19407   */\n    tag_470:\n        /* \"#utility.yul\":19439:19504   */\n      tag_472\n        /* \"#utility.yul\":19496:19503   */\n      dup12\n        /* \"#utility.yul\":19487:19493   */\n      dup3\n        /* \"#utility.yul\":19476:19485   */\n      dup13\n        /* \"#utility.yul\":19472:19494   */\n      add\n        /* \"#utility.yul\":19439:19504   */\n      tag_227\n      jump\t// in\n    tag_472:\n        /* \"#utility.yul\":19421:19504   */\n      swap3\n      pop\n      swap3\n      pop\n        /* \"#utility.yul\":19215:19514   */\n      pop\n        /* \"#utility.yul\":18010:19521   */\n      swap3\n      swap6\n      swap9\n      pop\n      swap3\n      swap6\n      swap9\n      swap1\n      swap4\n      swap7\n      pop\n      jump\t// out\n        /* \"#utility.yul\":19527:19706   */\n    tag_250:\n        /* \"#utility.yul\":19667:19698   */\n      0x546172676574206d7573742062652067726561746572207468616e2030000000\n        /* \"#utility.yul\":19663:19664   */\n      0x00\n        /* \"#utility.yul\":19655:19661   */\n      dup3\n        /* \"#utility.yul\":19651:19665   */\n      add\n        /* \"#utility.yul\":19644:19699   */\n      mstore\n        /* \"#utility.yul\":19527:19706   */\n      pop\n      jump\t// out\n        /* \"#utility.yul\":19712:20078   */\n    tag_251:\n        /* \"#utility.yul\":19854:19857   */\n      0x00\n        /* \"#utility.yul\":19875:19942   */\n      tag_475\n        /* \"#utility.yul\":19939:19941   */\n      0x1d\n        /* \"#utility.yul\":19934:19937   */\n      dup4\n        /* \"#utility.yul\":19875:19942   */\n      tag_230\n      jump\t// in\n    tag_475:\n        /* \"#utility.yul\":19868:19942   */\n      swap2\n      pop\n        /* \"#utility.yul\":19951:20044   */\n      tag_476\n        /* \"#utility.yul\":20040:20043   */\n      dup3\n        /* \"#utility.yul\":19951:20044   */\n      tag_250\n      jump\t// in\n    tag_476:\n        /* \"#utility.yul\":20069:20071   */\n      0x20\n        /* \"#utility.yul\":20064:20067   */\n      dup3\n        /* \"#utility.yul\":20060:20072   */\n      add\n        /* \"#utility.yul\":20053:20072   */\n      swap1\n      pop\n        /* \"#utility.yul\":19712:20078   */\n      swap2\n      swap1\n      pop\n      jump\t// out\n        /* \"#utility.yul\":20084:20503   */\n    tag_60:\n        /* \"#utility.yul\":20250:20254   */\n      0x00\n        /* \"#utility.yul\":20288:20290   */\n      0x20\n        /* \"#utility.yul\":20277:20286   */\n      dup3\n        /* \"#utility.yul\":20273:20291   */\n      add\n        /* \"#utility.yul\":20265:20291   */\n      swap1\n      pop\n        /* \"#utility.yul\":20337:20346   */\n      dup2\n        /* \"#utility.yul\":20331:20335   */\n      dup2\n        /* \"#utility.yul\":20327:20347   */\n      sub\n        /* \"#utility.yul\":20323:20324   */\n      0x00\n        /* \"#utility.yul\":20312:20321   */\n      dup4\n        /* \"#utility.yul\":20308:20325   */\n      add\n        /* \"#utility.yul\":20301:20348   */\n      mstore\n        /* \"#utility.yul\":20365:20496   */\n      tag_478\n        /* \"#utility.yul\":20491:20495   */\n      dup2\n        /* \"#utility.yul\":20365:20496   */\n      tag_251\n      jump\t// in\n    tag_478:\n        /* \"#utility.yul\":20357:20496   */\n      swap1\n      pop\n        /* \"#utility.yul\":20084:20503   */\n      swap2\n      swap1\n      pop\n      jump\t// out\n        /* \"#utility.yul\":20509:20680   */\n    tag_252:\n        /* \"#utility.yul\":20649:20672   */\n      0x5469746c652063616e6e6f7420626520656d7074790000000000000000000000\n        /* \"#utility.yul\":20645:20646   */\n      0x00\n        /* \"#utility.yul\":20637:20643   */\n      dup3\n        /* \"#utility.yul\":20633:20647   */\n      add\n        /* \"#utility.yul\":20626:20673   */\n      mstore\n        /* \"#utility.yul\":20509:20680   */\n      pop\n      jump\t// out\n        /* \"#utility.yul\":20686:21052   */\n    tag_253:\n        /* \"#utility.yul\":20828:20831   */\n      0x00\n        /* \"#utility.yul\":20849:20916   */\n      tag_481\n        /* \"#utility.yul\":20913:20915   */\n      0x15\n        /* \"#utility.yul\":20908:20911   */\n      dup4\n        /* \"#utility.yul\":20849:20916   */\n      tag_230\n      jump\t// in\n    tag_481:\n        /* \"#utility.yul\":20842:20916   */\n      swap2\n      pop\n        /* \"#utility.yul\":20925:21018   */\n      tag_482\n        /* \"#utility.yul\":21014:21017   */\n      dup3\n        /* \"#utility.yul\":20925:21018   */\n      tag_252\n      jump\t// in\n    tag_482:\n        /* \"#utility.yul\":21043:21045   */\n      0x20\n        /* \"#utility.yul\":21038:21041   */\n      dup3\n        /* \"#utility.yul\":21034:21046   */\n      add\n        /* \"#utility.yul\":21027:21046   */\n      swap1\n      pop\n        /* \"#utility.yul\":20686:21052   */\n      swap2\n      swap1\n      pop\n      jump\t// out\n        /* \"#utility.yul\":21058:21477   */\n    tag_63:\n        /* \"#utility.yul\":21224:21228   */\n      0x00\n        /* \"#utility.yul\":21262:21264   */\n      0x20\n        /* \"#utility.yul\":21251:21260   */\n      dup3\n        /* \"#utility.yul\":21247:21265   */\n      add\n        /* \"#utility.yul\":21239:21265   */\n      swap1\n      pop\n        /* \"#utility.yul\":21311:21320   */\n      dup2\n        /* \"#utility.yul\":21305:21309   */\n      dup2\n        /* \"#utility.yul\":21301:21321   */\n      sub\n        /* \"#utility.yul\":21297:21298   */\n      0x00\n        /* \"#utility.yul\":21286:21295   */\n      dup4\n        /* \"#utility.yul\":21282:21299   */\n      add\n        /* \"#utility.yul\":21275:21322   */\n      mstore\n        /* \"#utility.yul\":21339:21470   */\n      tag_484\n        /* \"#utility.yul\":21465:21469   */\n      dup2\n        /* \"#utility.yul\":21339:21470   */\n      tag_253\n      jump\t// in\n    tag_484:\n        /* \"#utility.yul\":21331:21470   */\n      swap1\n      pop\n        /* \"#utility.yul\":21058:21477   */\n      swap2\n      swap1\n      pop\n      jump\t// out\n        /* \"#utility.yul\":21483:21660   */\n    tag_254:\n        /* \"#utility.yul\":21623:21652   */\n      0x4465736372697074696f6e2063616e6e6f7420626520656d7074790000000000\n        /* \"#utility.yul\":21619:21620   */\n      0x00\n        /* \"#utility.yul\":21611:21617   */\n      dup3\n        /* \"#utility.yul\":21607:21621   */\n      add\n        /* \"#utility.yul\":21600:21653   */\n      mstore\n        /* \"#utility.yul\":21483:21660   */\n      pop\n      jump\t// out\n        /* \"#utility.yul\":21666:22032   */\n    tag_255:\n        /* \"#utility.yul\":21808:21811   */\n      0x00\n        /* \"#utility.yul\":21829:21896   */\n      tag_487\n        /* \"#utility.yul\":21893:21895   */\n      0x1b\n        /* \"#utility.yul\":21888:21891   */\n      dup4\n        /* \"#utility.yul\":21829:21896   */\n      tag_230\n      jump\t// in\n    tag_487:\n        /* \"#utility.yul\":21822:21896   */\n      swap2\n      pop\n        /* \"#utility.yul\":21905:21998   */\n      tag_488\n        /* \"#utility.yul\":21994:21997   */\n      dup3\n        /* \"#utility.yul\":21905:21998   */\n      tag_254\n      jump\t// in\n    tag_488:\n        /* \"#utility.yul\":22023:22025   */\n      0x20\n        /* \"#utility.yul\":22018:22021   */\n      dup3\n        /* \"#utility.yul\":22014:22026   */\n      add\n        /* \"#utility.yul\":22007:22026   */\n      swap1\n      pop\n        /* \"#utility.yul\":21666:22032   */\n      swap2\n      swap1\n      pop\n      jump\t// out\n        /* \"#utility.yul\":22038:22457   */\n    tag_66:\n        /* \"#utility.yul\":22204:22208   */\n      0x00\n        /* \"#utility.yul\":22242:22244   */\n      0x20\n        /* \"#utility.yul\":22231:22240   */\n      dup3\n        /* \"#utility.yul\":22227:22245   */\n      add\n        /* \"#utility.yul\":22219:22245   */\n      swap1\n      pop\n        /* \"#utility.yul\":22291:22300   */\n      dup2\n        /* \"#utility.yul\":22285:22289   */\n      dup2\n        /* \"#utility.yul\":22281:22301   */\n      sub\n        /* \"#utility.yul\":22277:22278   */\n      0x00\n        /* \"#utility.yul\":22266:22275   */\n      dup4\n        /* \"#utility.yul\":22262:22279   */\n      add\n        /* \"#utility.yul\":22255:22302   */\n      mstore\n        /* \"#utility.yul\":22319:22450   */\n      tag_490\n        /* \"#utility.yul\":22445:22449   */\n      dup2\n        /* \"#utility.yul\":22319:22450   */\n      tag_255\n      jump\t// in\n    tag_490:\n        /* \"#utility.yul\":22311:22450   */\n      swap1\n      pop\n        /* \"#utility.yul\":22038:22457   */\n      swap2\n      swap1\n      pop\n      jump\t// out\n        /* \"#utility.yul\":22463:22634   */\n    tag_256:\n        /* \"#utility.yul\":22603:22626   */\n      0x496e76616c6964206f776e657220616464726573730000000000000000000000\n        /* \"#utility.yul\":22599:22600   */\n      0x00\n        /* \"#utility.yul\":22591:22597   */\n      dup3\n        /* \"#utility.yul\":22587:22601   */\n      add\n        /* \"#utility.yul\":22580:22627   */\n      mstore\n        /* \"#utility.yul\":22463:22634   */\n      pop\n      jump\t// out\n        /* \"#utility.yul\":22640:23006   */\n    tag_257:\n        /* \"#utility.yul\":22782:22785   */\n      0x00\n        /* \"#utility.yul\":22803:22870   */\n      tag_493\n        /* \"#utility.yul\":22867:22869   */\n      0x15\n        /* \"#utility.yul\":22862:22865   */\n      dup4\n        /* \"#utility.yul\":22803:22870   */\n      tag_230\n      jump\t// in\n    tag_493:\n        /* \"#utility.yul\":22796:22870   */\n      swap2\n      pop\n        /* \"#utility.yul\":22879:22972   */\n      tag_494\n        /* \"#utility.yul\":22968:22971   */\n      dup3\n        /* \"#utility.yul\":22879:22972   */\n      tag_256\n      jump\t// in\n    tag_494:\n        /* \"#utility.yul\":22997:22999   */\n      0x20\n        /* \"#utility.yul\":22992:22995   */\n      dup3\n        /* \"#utility.yul\":22988:23000   */\n      add\n        /* \"#utility.yul\":22981:23000   */\n      swap1\n      pop\n        /* \"#utility.yul\":22640:23006   */\n      swap2\n      swap1\n      pop\n      jump\t// out\n        /* \"#utility.yul\":23012:23431   */\n    tag_69:\n        /* \"#utility.yul\":23178:23182   */\n      0x00\n        /* \"#utility.yul\":23216:23218   */\n      0x20\n        /* \"#utility.yul\":23205:23214   */\n      dup3\n        /* \"#utility.yul\":23201:23219   */\n      add\n        /* \"#utility.yul\":23193:23219   */\n      swap1\n      pop\n        /* \"#utility.yul\":23265:23274   */\n      dup2\n        /* \"#utility.yul\":23259:23263   */\n      dup2\n        /* \"#utility.yul\":23255:23275   */\n      sub\n        /* \"#utility.yul\":23251:23252   */\n      0x00\n        /* \"#utility.yul\":23240:23249   */\n      dup4\n        /* \"#utility.yul\":23236:23253   */\n      add\n        /* \"#utility.yul\":23229:23276   */\n      mstore\n        /* \"#utility.yul\":23293:23424   */\n      tag_496\n        /* \"#utility.yul\":23419:23423   */\n      dup2\n        /* \"#utility.yul\":23293:23424   */\n      tag_257\n      jump\t// in\n    tag_496:\n        /* \"#utility.yul\":23285:23424   */\n      swap1\n      pop\n        /* \"#utility.yul\":23012:23431   */\n      swap2\n      swap1\n      pop\n      jump\t// out\n        /* \"#utility.yul\":23437:23534   */\n    tag_258:\n        /* \"#utility.yul\":23496:23502   */\n      0x00\n        /* \"#utility.yul\":23524:23527   */\n      dup3\n        /* \"#utility.yul\":23514:23527   */\n      swap1\n      pop\n        /* \"#utility.yul\":23437:23534   */\n      swap3\n      swap2\n      pop\n      pop\n      jump\t// out\n        /* \"#utility.yul\":23540:23720   */\n    tag_140:\n        /* \"#utility.yul\":23588:23665   */\n      0x4e487b7100000000000000000000000000000000000000000000000000000000\n        /* \"#utility.yul\":23585:23586   */\n      0x00\n        /* \"#utility.yul\":23578:23666   */\n      mstore\n        /* \"#utility.yul\":23685:23689   */\n      0x41\n        /* \"#utility.yul\":23682:23683   */\n      0x04\n        /* \"#utility.yul\":23675:23690   */\n      mstore\n        /* \"#utility.yul\":23709:23713   */\n      0x24\n        /* \"#utility.yul\":23706:23707   */\n      0x00\n        /* \"#utility.yul\":23699:23714   */\n      revert\n        /* \"#utility.yul\":23726:23906   */\n    tag_259:\n        /* \"#utility.yul\":23774:23851   */\n      0x4e487b7100000000000000000000000000000000000000000000000000000000\n        /* \"#utility.yul\":23771:23772   */\n      0x00\n        /* \"#utility.yul\":23764:23852   */\n      mstore\n        /* \"#utility.yul\":23871:23875   */\n      0x22\n        /* \"#utility.yul\":23868:23869   */\n      0x04\n        /* \"#utility.yul\":23861:23876   */\n      mstore\n        /* \"#utility.yul\":23895:23899   */\n      0x24\n        /* \"#utility.yul\":23892:23893   */\n      0x00\n        /* \"#utility.yul\":23885:23900   */\n      revert\n        /* \"#utility.yul\":23912:24232   */\n    tag_79:\n        /* \"#utility.yul\":23956:23962   */\n      0x00\n        /* \"#utility.yul\":23993:23994   */\n      0x02\n        /* \"#utility.yul\":23987:23991   */\n      dup3\n        /* \"#utility.yul\":23983:23995   */\n      div\n        /* \"#utility.yul\":23973:23995   */\n      swap1\n      pop\n        /* \"#utility.yul\":24040:24041   */\n      0x01\n        /* \"#utility.yul\":24034:24038   */\n      dup3\n        /* \"#utility.yul\":24030:24042   */\n      and\n        /* \"#utility.yul\":24061:24079   */\n      dup1\n        /* \"#utility.yul\":24051:24132   */\n      tag_501\n      jumpi\n        /* \"#utility.yul\":24117:24121   */\n      0x7f\n        /* \"#utility.yul\":24109:24115   */\n      dup3\n        /* \"#utility.yul\":24105:24122   */\n      and\n        /* \"#utility.yul\":24095:24122   */\n      swap2\n      pop\n        /* \"#utility.yul\":24051:24132   */\n    tag_501:\n        /* \"#utility.yul\":24179:24181   */\n      0x20\n        /* \"#utility.yul\":24171:24177   */\n      dup3\n        /* \"#utility.yul\":24168:24182   */\n      lt\n        /* \"#utility.yul\":24148:24166   */\n      dup2\n        /* \"#utility.yul\":24145:24183   */\n      sub\n        /* \"#utility.yul\":24142:24226   */\n      tag_502\n      jumpi\n        /* \"#utility.yul\":24198:24216   */\n      tag_503\n      tag_259\n      jump\t// in\n    tag_503:\n        /* \"#utility.yul\":24142:24226   */\n    tag_502:\n        /* \"#utility.yul\":23963:24232   */\n      pop\n        /* \"#utility.yul\":23912:24232   */\n      swap2\n      swap1\n      pop\n      jump\t// out\n        /* \"#utility.yul\":24238:24379   */\n    tag_260:\n        /* \"#utility.yul\":24287:24291   */\n      0x00\n        /* \"#utility.yul\":24310:24313   */\n      dup2\n        /* \"#utility.yul\":24302:24313   */\n      swap1\n      pop\n        /* \"#utility.yul\":24333:24336   */\n      dup2\n        /* \"#utility.yul\":24330:24331   */\n      0x00\n        /* \"#utility.yul\":24323:24337   */\n      mstore\n        /* \"#utility.yul\":24367:24371   */\n      0x20\n        /* \"#utility.yul\":24364:24365   */\n      0x00\n        /* \"#utility.yul\":24354:24372   */\n      keccak256\n        /* \"#utility.yul\":24346:24372   */\n      swap1\n      pop\n        /* \"#utility.yul\":24238:24379   */\n      swap2\n      swap1\n      pop\n      jump\t// out\n        /* \"#utility.yul\":24385:24478   */\n    tag_261:\n        /* \"#utility.yul\":24422:24428   */\n      0x00\n        /* \"#utility.yul\":24469:24471   */\n      0x20\n        /* \"#utility.yul\":24464:24466   */\n      0x1f\n        /* \"#utility.yul\":24457:24462   */\n      dup4\n        /* \"#utility.yul\":24453:24467   */\n      add\n        /* \"#utility.yul\":24449:24472   */\n      div\n        /* \"#utility.yul\":24439:24472   */\n      swap1\n      pop\n        /* \"#utility.yul\":24385:24478   */\n      swap2\n      swap1\n      pop\n      jump\t// out\n        /* \"#utility.yul\":24484:24591   */\n    tag_262:\n        /* \"#utility.yul\":24528:24536   */\n      0x00\n        /* \"#utility.yul\":24578:24583   */\n      dup3\n        /* \"#utility.yul\":24572:24576   */\n      dup3\n        /* \"#utility.yul\":24568:24584   */\n      shl\n        /* \"#utility.yul\":24547:24584   */\n      swap1\n      pop\n        /* \"#utility.yul\":24484:24591   */\n      swap3\n      swap2\n      pop\n      pop\n      jump\t// out\n        /* \"#utility.yul\":24597:24990   */\n    tag_263:\n        /* \"#utility.yul\":24666:24672   */\n      0x00\n        /* \"#utility.yul\":24716:24717   */\n      0x08\n        /* \"#utility.yul\":24704:24714   */\n      dup4\n        /* \"#utility.yul\":24700:24718   */\n      mul\n        /* \"#utility.yul\":24739:24836   */\n      tag_508\n        /* \"#utility.yul\":24769:24835   */\n      0xffffffffffffffffffffffffffffffffffffffffffffffffffffffffffffffff\n        /* \"#utility.yul\":24758:24767   */\n      dup3\n        /* \"#utility.yul\":24739:24836   */\n      tag_262\n      jump\t// in\n    tag_508:\n        /* \"#utility.yul\":24857:24896   */\n      tag_509\n        /* \"#utility.yul\":24887:24895   */\n      dup7\n        /* \"#utility.yul\":24876:24885   */\n      dup4\n        /* \"#utility.yul\":24857:24896   */\n      tag_262\n      jump\t// in\n    tag_509:\n        /* \"#utility.yul\":24845:24896   */\n      swap6\n      pop\n        /* \"#utility.yul\":24929:24933   */\n      dup1\n        /* \"#utility.yul\":24925:24934   */\n      not\n        /* \"#utility.yul\":24918:24923   */\n      dup5\n        /* \"#utility.yul\":24914:24935   */\n      and\n        /* \"#utility.yul\":24905:24935   */\n      swap4\n      pop\n        /* \"#utility.yul\":24978:24982   */\n      dup1\n        /* \"#utility.yul\":24968:24976   */\n      dup7\n        /* \"#utility.yul\":24964:24983   */\n      and\n        /* \"#utility.yul\":24957:24962   */\n      dup5\n        /* \"#utility.yul\":24954:24984   */\n      or\n        /* \"#utility.yul\":24944:24984   */\n      swap3\n      pop\n        /* \"#utility.yul\":24673:24990   */\n      pop\n      pop\n        /* \"#utility.yul\":24597:24990   */\n      swap4\n      swap3\n      pop\n      pop\n      pop\n      jump\t// out\n        /* \"#utility.yul\":24996:25056   */\n    tag_264:\n        /* \"#utility.yul\":25024:25027   */\n      0x00\n        /* \"#utility.yul\":25045:25050   */\n      dup2\n        /* \"#utility.yul\":25038:25050   */\n      swap1\n      pop\n        /* \"#utility.yul\":24996:25056   */\n      swap2\n      swap1\n      pop\n      jump\t// out\n        /* \"#utility.yul\":25062:25204   */\n    tag_265:\n        /* \"#utility.yul\":25112:25121   */\n      0x00\n        /* \"#utility.yul\":25145:25198   */\n      tag_512\n        /* \"#utility.yul\":25163:25197   */\n      tag_513\n        /* \"#utility.yul\":25172:25196   */\n      tag_514\n        /* \"#utility.yul\":25190:25195   */\n      dup5\n        /* \"#utility.yul\":25172:25196   */\n      tag_199\n      jump\t// in\n    tag_514:\n        /* \"#utility.yul\":25163:25197   */\n      tag_264\n      jump\t// in\n    tag_513:\n        /* \"#utility.yul\":25145:25198   */\n      tag_199\n      jump\t// in\n    tag_512:\n        /* \"#utility.yul\":25132:25198   */\n      swap1\n      pop\n        /* \"#utility.yul\":25062:25204   */\n      swap2\n      swap1\n      pop\n      jump\t// out\n        /* \"#utility.yul\":25210:25285   */\n    tag_266:\n        /* \"#utility.yul\":25253:25256   */\n      0x00\n        /* \"#utility.yul\":25274:25279   */\n      dup2\n        /* \"#utility.yul\":25267:25279   */\n      swap1\n      pop\n        /* \"#utility.yul\":25210:25285   */\n      swap2\n      swap1\n      pop\n      jump\t// out\n        /* \"#utility.yul\":25291:25560   */\n    tag_267:\n        /* \"#utility.yul\":25401:25440   */\n      tag_517\n        /* \"#utility.yul\":25432:25439   */\n      dup4\n        /* \"#utility.yul\":25401:25440   */\n      tag_265\n      jump\t// in\n    tag_517:\n        /* \"#utility.yul\":25462:25553   */\n      tag_518\n        /* \"#utility.yul\":25511:25552   */\n      tag_519\n        /* \"#utility.yul\":25535:25551   */\n      dup3\n        /* \"#utility.yul\":25511:25552   */\n      tag_266\n      jump\t// in\n    tag_519:\n        /* \"#utility.yul\":25503:25509   */\n      dup5\n        /* \"#utility.yul\":25496:25500   */\n      dup5\n        /* \"#utility.yul\":25490:25501   */\n      sload\n        /* \"#utility.yul\":25462:25553   */\n      tag_263\n      jump\t// in\n    tag_518:\n        /* \"#utility.yul\":25456:25460   */\n      dup3\n        /* \"#utility.yul\":25449:25554   */\n      sstore\n        /* \"#utility.yul\":25367:25560   */\n      pop\n        /* \"#utility.yul\":25291:25560   */\n      pop\n      pop\n      pop\n      jump\t// out\n        /* \"#utility.yul\":25566:25639   */\n    tag_268:\n        /* \"#utility.yul\":25611:25614   */\n      0x00\n        /* \"#utility.yul\":25566:25639   */\n      swap1\n      jump\t// out\n        /* \"#utility.yul\":25645:25834   */\n    tag_269:\n        /* \"#utility.yul\":25722:25754   */\n      tag_522\n      tag_268\n      jump\t// in\n    tag_522:\n        /* \"#utility.yul\":25763:25828   */\n      tag_523\n        /* \"#utility.yul\":25821:25827   */\n      dup2\n        /* \"#utility.yul\":25813:25819   */\n      dup5\n        /* \"#utility.yul\":25807:25811   */\n      dup5\n        /* \"#utility.yul\":25763:25828   */\n      tag_267\n      jump\t// in\n    tag_523:\n        /* \"#utility.yul\":25698:25834   */\n      pop\n        /* \"#utility.yul\":25645:25834   */\n      pop\n      pop\n      jump\t// out\n        /* \"#utility.yul\":25840:26026   */\n    tag_270:\n        /* \"#utility.yul\":25900:26020   */\n    tag_525:\n        /* \"#utility.yul\":25917:25920   */\n      dup2\n        /* \"#utility.yul\":25910:25915   */\n      dup2\n        /* \"#utility.yul\":25907:25921   */\n      lt\n        /* \"#utility.yul\":25900:26020   */\n      iszero\n      tag_527\n      jumpi\n        /* \"#utility.yul\":25971:26010   */\n      tag_528\n        /* \"#utility.yul\":26008:26009   */\n      0x00\n        /* \"#utility.yul\":26001:26006   */\n      dup3\n        /* \"#utility.yul\":25971:26010   */\n      tag_269\n      jump\t// in\n    tag_528:\n        /* \"#utility.yul\":25944:25945   */\n      0x01\n        /* \"#utility.yul\":25937:25942   */\n      dup2\n        /* \"#utility.yul\":25933:25946   */\n      add\n        /* \"#utility.yul\":25924:25946   */\n      swap1\n      pop\n        /* \"#utility.yul\":25900:26020   */\n      jump(tag_525)\n    tag_527:\n        /* \"#utility.yul\":25840:26026   */\n      pop\n      pop\n      jump\t// out\n        /* \"#utility.yul\":26032:26575   */\n    tag_271:\n        /* \"#utility.yul\":26133:26135   */\n      0x1f\n        /* \"#utility.yul\":26128:26131   */\n      dup3\n        /* \"#utility.yul\":26125:26136   */\n      gt\n        /* \"#utility.yul\":26122:26568   */\n      iszero\n      tag_530\n      jumpi\n        /* \"#utility.yul\":26167:26205   */\n      tag_531\n        /* \"#utility.yul\":26199:26204   */\n      dup2\n        /* \"#utility.yul\":26167:26205   */\n      tag_260\n      jump\t// in\n    tag_531:\n        /* \"#utility.yul\":26251:26280   */\n      tag_532\n        /* \"#utility.yul\":26269:26279   */\n      dup5\n        /* \"#utility.yul\":26251:26280   */\n      tag_261\n      jump\t// in\n    tag_532:\n        /* \"#utility.yul\":26241:26249   */\n      dup2\n        /* \"#utility.yul\":26237:26281   */\n      add\n        /* \"#utility.yul\":26434:26436   */\n      0x20\n        /* \"#utility.yul\":26422:26432   */\n      dup6\n        /* \"#utility.yul\":26419:26437   */\n      lt\n        /* \"#utility.yul\":26416:26465   */\n      iszero\n      tag_533\n      jumpi\n        /* \"#utility.yul\":26455:26463   */\n      dup2\n        /* \"#utility.yul\":26440:26463   */\n      swap1\n      pop\n        /* \"#utility.yul\":26416:26465   */\n    tag_533:\n        /* \"#utility.yul\":26478:26558   */\n      tag_534\n        /* \"#utility.yul\":26534:26556   */\n      tag_535\n        /* \"#utility.yul\":26552:26555   */\n      dup6\n        /* \"#utility.yul\":26534:26556   */\n      tag_261\n      jump\t// in\n    tag_535:\n        /* \"#utility.yul\":26524:26532   */\n      dup4\n        /* \"#utility.yul\":26520:26557   */\n      add\n        /* \"#utility.yul\":26507:26518   */\n      dup3\n        /* \"#utility.yul\":26478:26558   */\n      tag_270\n      jump\t// in\n    tag_534:\n        /* \"#utility.yul\":26137:26568   */\n      pop\n      pop\n        /* \"#utility.yul\":26122:26568   */\n    tag_530:\n        /* \"#utility.yul\":26032:26575   */\n      pop\n      pop\n      pop\n      jump\t// out\n        /* \"#utility.yul\":26581:26698   */\n    tag_272:\n        /* \"#utility.yul\":26635:26643   */\n      0x00\n        /* \"#utility.yul\":26685:26690   */\n      dup3\n        /* \"#utility.yul\":26679:26683   */\n      dup3\n        /* \"#utility.yul\":26675:26691   */\n      shr\n        /* \"#utility.yul\":26654:26691   */\n      swap1\n      pop\n        /* \"#utility.yul\":26581:26698   */\n      swap3\n      swap2\n      pop\n      pop\n      jump\t// out\n        /* \"#utility.yul\":26704:26873   */\n    tag_273:\n        /* \"#utility.yul\":26748:26754   */\n      0x00\n        /* \"#utility.yul\":26781:26832   */\n      tag_538\n        /* \"#utility.yul\":26829:26830   */\n      0x00\n        /* \"#utility.yul\":26825:26831   */\n      not\n        /* \"#utility.yul\":26817:26822   */\n      dup5\n        /* \"#utility.yul\":26814:26815   */\n      0x08\n        /* \"#utility.yul\":26810:26823   */\n      mul\n        /* \"#utility.yul\":26781:26832   */\n      tag_272\n      jump\t// in\n    tag_538:\n        /* \"#utility.yul\":26777:26833   */\n      not\n        /* \"#utility.yul\":26862:26866   */\n      dup1\n        /* \"#utility.yul\":26856:26860   */\n      dup4\n        /* \"#utility.yul\":26852:26867   */\n      and\n        /* \"#utility.yul\":26842:26867   */\n      swap2\n      pop\n        /* \"#utility.yul\":26755:26873   */\n      pop\n        /* \"#utility.yul\":26704:26873   */\n      swap3\n      swap2\n      pop\n      pop\n      jump\t// out\n        /* \"#utility.yul\":26878:27173   */\n    tag_274:\n        /* \"#utility.yul\":26954:26958   */\n      0x00\n        /* \"#utility.yul\":27100:27129   */\n      tag_540\n        /* \"#utility.yul\":27125:27128   */\n      dup4\n        /* \"#utility.yul\":27119:27123   */\n      dup4\n        /* \"#utility.yul\":27100:27129   */\n      tag_273\n      jump\t// in\n    tag_540:\n        /* \"#utility.yul\":27092:27129   */\n      swap2\n      pop\n        /* \"#utility.yul\":27162:27165   */\n      dup3\n        /* \"#utility.yul\":27159:27160   */\n      0x02\n        /* \"#utility.yul\":27155:27166   */\n      mul\n        /* \"#utility.yul\":27149:27153   */\n      dup3\n        /* \"#utility.yul\":27146:27167   */\n      or\n        /* \"#utility.yul\":27138:27167   */\n      swap1\n      pop\n        /* \"#utility.yul\":26878:27173   */\n      swap3\n      swap2\n      pop\n      pop\n      jump\t// out\n        /* \"#utility.yul\":27178:28581   */\n    tag_71:\n        /* \"#utility.yul\":27302:27346   */\n      tag_542\n        /* \"#utility.yul\":27342:27345   */\n      dup4\n        /* \"#utility.yul\":27337:27340   */\n      dup4\n        /* \"#utility.yul\":27302:27346   */\n      tag_258\n      jump\t// in\n    tag_542:\n        /* \"#utility.yul\":27411:27429   */\n      0xffffffffffffffff\n        /* \"#utility.yul\":27403:27409   */\n      dup2\n        /* \"#utility.yul\":27400:27430   */\n      gt\n        /* \"#utility.yul\":27397:27453   */\n      iszero\n      tag_543\n      jumpi\n        /* \"#utility.yul\":27433:27451   */\n      tag_544\n      tag_140\n      jump\t// in\n    tag_544:\n        /* \"#utility.yul\":27397:27453   */\n    tag_543:\n        /* \"#utility.yul\":27477:27515   */\n      tag_545\n        /* \"#utility.yul\":27509:27513   */\n      dup3\n        /* \"#utility.yul\":27503:27514   */\n      sload\n        /* \"#utility.yul\":27477:27515   */\n      tag_79\n      jump\t// in\n    tag_545:\n        /* \"#utility.yul\":27562:27629   */\n      tag_546\n        /* \"#utility.yul\":27622:27628   */\n      dup3\n        /* \"#utility.yul\":27614:27620   */\n      dup3\n        /* \"#utility.yul\":27608:27612   */\n      dup6\n        /* \"#utility.yul\":27562:27629   */\n      tag_271\n      jump\t// in\n    tag_546:\n        /* \"#utility.yul\":27656:27657   */\n      0x00\n        /* \"#utility.yul\":27685:27687   */\n      0x1f\n        /* \"#utility.yul\":27677:27683   */\n      dup4\n        /* \"#utility.yul\":27674:27688   */\n      gt\n        /* \"#utility.yul\":27702:27703   */\n      0x01\n        /* \"#utility.yul\":27697:28329   */\n      dup2\n      eq\n      tag_548\n      jumpi\n        /* \"#utility.yul\":28373:28374   */\n      0x00\n        /* \"#utility.yul\":28390:28396   */\n      dup5\n        /* \"#utility.yul\":28387:28471   */\n      iszero\n      tag_549\n      jumpi\n        /* \"#utility.yul\":28446:28455   */\n      dup3\n        /* \"#utility.yul\":28441:28444   */\n      dup8\n        /* \"#utility.yul\":28437:28456   */\n      add\n        /* \"#utility.yul\":28424:28457   */\n      calldataload\n        /* \"#utility.yul\":28415:28457   */\n      swap1\n      pop\n        /* \"#utility.yul\":28387:28471   */\n    tag_549:\n        /* \"#utility.yul\":28497:28564   */\n      tag_550\n        /* \"#utility.yul\":28557:28563   */\n      dup6\n        /* \"#utility.yul\":28550:28555   */\n      dup3\n        /* \"#utility.yul\":28497:28564   */\n      tag_274\n      jump\t// in\n    tag_550:\n        /* \"#utility.yul\":28491:28495   */\n      dup7\n        /* \"#utility.yul\":28484:28565   */\n      sstore\n        /* \"#utility.yul\":28346:28575   */\n      pop\n        /* \"#utility.yul\":27667:28575   */\n      jump(tag_547)\n        /* \"#utility.yul\":27697:28329   */\n    tag_548:\n        /* \"#utility.yul\":27749:27753   */\n      0x1f\n        /* \"#utility.yul\":27745:27754   */\n      not\n        /* \"#utility.yul\":27737:27743   */\n      dup5\n        /* \"#utility.yul\":27733:27755   */\n      and\n        /* \"#utility.yul\":27783:27820   */\n      tag_551\n        /* \"#utility.yul\":27815:27819   */\n      dup7\n        /* \"#utility.yul\":27783:27820   */\n      tag_260\n      jump\t// in\n    tag_551:\n        /* \"#utility.yul\":27842:27843   */\n      0x00\n        /* \"#utility.yul\":27856:28071   */\n    tag_552:\n        /* \"#utility.yul\":27870:27877   */\n      dup3\n        /* \"#utility.yul\":27867:27868   */\n      dup2\n        /* \"#utility.yul\":27864:27878   */\n      lt\n        /* \"#utility.yul\":27856:28071   */\n      iszero\n      tag_554\n      jumpi\n        /* \"#utility.yul\":27956:27965   */\n      dup5\n        /* \"#utility.yul\":27951:27954   */\n      dup10\n        /* \"#utility.yul\":27947:27966   */\n      add\n        /* \"#utility.yul\":27934:27967   */\n      calldataload\n        /* \"#utility.yul\":27926:27932   */\n      dup3\n        /* \"#utility.yul\":27919:27968   */\n      sstore\n        /* \"#utility.yul\":28007:28008   */\n      0x01\n        /* \"#utility.yul\":27999:28005   */\n      dup3\n        /* \"#utility.yul\":27995:28009   */\n      add\n        /* \"#utility.yul\":27985:28009   */\n      swap2\n      pop\n        /* \"#utility.yul\":28054:28056   */\n      0x20\n        /* \"#utility.yul\":28043:28052   */\n      dup6\n        /* \"#utility.yul\":28039:28057   */\n      add\n        /* \"#utility.yul\":28026:28057   */\n      swap5\n      pop\n        /* \"#utility.yul\":27893:27897   */\n      0x20\n        /* \"#utility.yul\":27890:27891   */\n      dup2\n        /* \"#utility.yul\":27886:27898   */\n      add\n        /* \"#utility.yul\":27881:27898   */\n      swap1\n      pop\n        /* \"#utility.yul\":27856:28071   */\n      jump(tag_552)\n    tag_554:\n        /* \"#utility.yul\":28099:28105   */\n      dup7\n        /* \"#utility.yul\":28090:28097   */\n      dup4\n        /* \"#utility.yul\":28087:28106   */\n      lt\n        /* \"#utility.yul\":28084:28270   */\n      iszero\n      tag_555\n      jumpi\n        /* \"#utility.yul\":28164:28173   */\n      dup5\n        /* \"#utility.yul\":28159:28162   */\n      dup10\n        /* \"#utility.yul\":28155:28174   */\n      add\n        /* \"#utility.yul\":28142:28175   */\n      calldataload\n        /* \"#utility.yul\":28207:28255   */\n      tag_556\n        /* \"#utility.yul\":28249:28253   */\n      0x1f\n        /* \"#utility.yul\":28241:28247   */\n      dup10\n        /* \"#utility.yul\":28237:28254   */\n      and\n        /* \"#utility.yul\":28226:28235   */\n      dup3\n        /* \"#utility.yul\":28207:28255   */\n      tag_273\n      jump\t// in\n    tag_556:\n        /* \"#utility.yul\":28199:28205   */\n      dup4\n        /* \"#utility.yul\":28192:28256   */\n      sstore\n        /* \"#utility.yul\":28107:28270   */\n      pop\n        /* \"#utility.yul\":28084:28270   */\n    tag_555:\n        /* \"#utility.yul\":28316:28317   */\n      0x01\n        /* \"#utility.yul\":28312:28313   */\n      0x02\n        /* \"#utility.yul\":28304:28310   */\n      dup9\n        /* \"#utility.yul\":28300:28314   */\n      mul\n        /* \"#utility.yul\":28296:28318   */\n      add\n        /* \"#utility.yul\":28290:28294   */\n      dup9\n        /* \"#utility.yul\":28283:28319   */\n      sstore\n        /* \"#utility.yul\":27704:28329   */\n      pop\n      pop\n      pop\n        /* \"#utility.yul\":27667:28575   */\n    tag_547:\n      pop\n        /* \"#utility.yul\":27277:28581   */\n      pop\n      pop\n      pop\n        /* \"#utility.yul\":27178:28581   */\n      pop\n      pop\n      pop\n      jump\t// out\n        /* \"#utility.yul\":28587:28812   */\n    tag_275:\n        /* \"#utility.yul\":28727:28761   */\n      0x446f6e6174696f6e20616d6f756e74206d757374206265206772656174657220\n        /* \"#utility.yul\":28723:28724   */\n      0x00\n        /* \"#utility.yul\":28715:28721   */\n      dup3\n        /* \"#utility.yul\":28711:28725   */\n      add\n        /* \"#utility.yul\":28704:28762   */\n      mstore\n        /* \"#utility.yul\":28796:28804   */\n      0x7468616e20300000000000000000000000000000000000000000000000000000\n        /* \"#utility.yul\":28791:28793   */\n      0x20\n        /* \"#utility.yul\":28783:28789   */\n      dup3\n        /* \"#utility.yul\":28779:28794   */\n      add\n        /* \"#utility.yul\":28772:28805   */\n      mstore\n        /* \"#utility.yul\":28587:28812   */\n      pop\n      jump\t// out\n        /* \"#utility.yul\":28818:29184   */\n    tag_276:\n        /* \"#utility.yul\":28960:28963   */\n      0x00\n        /* \"#utility.yul\":28981:29048   */\n      tag_559\n        /* \"#utility.yul\":29045:29047   */\n      0x26\n        /* \"#utility.yul\":29040:29043   */\n      dup4\n        /* \"#utility.yul\":28981:29048   */\n      tag_230\n      jump\t// in\n    tag_559:\n        /* \"#utility.yul\":28974:29048   */\n      swap2\n      pop\n        /* \"#utility.yul\":29057:29150   */\n      tag_560\n        /* \"#utility.yul\":29146:29149   */\n      dup3\n        /* \"#utility.yul\":29057:29150   */\n      tag_275\n      jump\t// in\n    tag_560:\n        /* \"#utility.yul\":29175:29177   */\n      0x40\n        /* \"#utility.yul\":29170:29173   */\n      dup3\n        /* \"#utility.yul\":29166:29178   */\n      add\n        /* \"#utility.yul\":29159:29178   */\n      swap1\n      pop\n        /* \"#utility.yul\":28818:29184   */\n      swap2\n      swap1\n      pop\n      jump\t// out\n        /* \"#utility.yul\":29190:29609   */\n    tag_97:\n        /* \"#utility.yul\":29356:29360   */\n      0x00\n        /* \"#utility.yul\":29394:29396   */\n      0x20\n        /* \"#utility.yul\":29383:29392   */\n      dup3\n        /* \"#utility.yul\":29379:29397   */\n      add\n        /* \"#utility.yul\":29371:29397   */\n      swap1\n      pop\n        /* \"#utility.yul\":29443:29452   */\n      dup2\n        /* \"#utility.yul\":29437:29441   */\n      dup2\n        /* \"#utility.yul\":29433:29453   */\n      sub\n        /* \"#utility.yul\":29429:29430   */\n      0x00\n        /* \"#utility.yul\":29418:29427   */\n      dup4\n        /* \"#utility.yul\":29414:29431   */\n      add\n        /* \"#utility.yul\":29407:29454   */\n      mstore\n        /* \"#utility.yul\":29471:29602   */\n      tag_562\n        /* \"#utility.yul\":29597:29601   */\n      dup2\n        /* \"#utility.yul\":29471:29602   */\n      tag_276\n      jump\t// in\n    tag_562:\n        /* \"#utility.yul\":29463:29602   */\n      swap1\n      pop\n        /* \"#utility.yul\":29190:29609   */\n      swap2\n      swap1\n      pop\n      jump\t// out\n        /* \"#utility.yul\":29615:29788   */\n    tag_277:\n        /* \"#utility.yul\":29755:29780   */\n      0x43616d706169676e20646f6573206e6f74206578697374000000000000000000\n        /* \"#utility.yul\":29751:29752   */\n      0x00\n        /* \"#utility.yul\":29743:29749   */\n      dup3\n        /* \"#utility.yul\":29739:29753   */\n      add\n        /* \"#utility.yul\":29732:29781   */\n      mstore\n        /* \"#utility.yul\":29615:29788   */\n      pop\n      jump\t// out\n        /* \"#utility.yul\":29794:30160   */\n    tag_278:\n        /* \"#utility.yul\":29936:29939   */\n      0x00\n        /* \"#utility.yul\":29957:30024   */\n      tag_565\n        /* \"#utility.yul\":30021:30023   */\n      0x17\n        /* \"#utility.yul\":30016:30019   */\n      dup4\n        /* \"#utility.yul\":29957:30024   */\n      tag_230\n      jump\t// in\n    tag_565:\n        /* \"#utility.yul\":29950:30024   */\n      swap2\n      pop\n        /* \"#utility.yul\":30033:30126   */\n      tag_566\n        /* \"#utility.yul\":30122:30125   */\n      dup3\n        /* \"#utility.yul\":30033:30126   */\n      tag_277\n      jump\t// in\n    tag_566:\n        /* \"#utility.yul\":30151:30153   */\n      0x20\n        /* \"#utility.yul\":30146:30149   */\n      dup3\n        /* \"#utility.yul\":30142:30154   */\n      add\n        /* \"#utility.yul\":30135:30154   */\n      swap1\n      pop\n        /* \"#utility.yul\":29794:30160   */\n      swap2\n      swap1\n      pop\n      jump\t// out\n        /* \"#utility.yul\":30166:30585   */\n    tag_100:\n        /* \"#utility.yul\":30332:30336   */\n      0x00\n        /* \"#utility.yul\":30370:30372   */\n      0x20\n        /* \"#utility.yul\":30359:30368   */\n      dup3\n        /* \"#utility.yul\":30355:30373   */\n      add\n        /* \"#utility.yul\":30347:30373   */\n      swap1\n      pop\n        /* \"#utility.yul\":30419:30428   */\n      dup2\n        /* \"#utility.yul\":30413:30417   */\n      dup2\n        /* \"#utility.yul\":30409:30429   */\n      sub\n        /* \"#utility.yul\":30405:30406   */\n      0x00\n        /* \"#utility.yul\":30394:30403   */\n      dup4\n        /* \"#utility.yul\":30390:30407   */\n      add\n        /* \"#utility.yul\":30383:30430   */\n      mstore\n        /* \"#utility.yul\":30447:30578   */\n      tag_568\n        /* \"#utility.yul\":30573:30577   */\n      dup2\n        /* \"#utility.yul\":30447:30578   */\n      tag_278\n      jump\t// in\n    tag_568:\n        /* \"#utility.yul\":30439:30578   */\n      swap1\n      pop\n        /* \"#utility.yul\":30166:30585   */\n      swap2\n      swap1\n      pop\n      jump\t// out\n        /* \"#utility.yul\":30591:30767   */\n    tag_279:\n        /* \"#utility.yul\":30731:30759   */\n      0x43616d706169676e20616c726561647920636f6d706c65746564000000000000\n        /* \"#utility.yul\":30727:30728   */\n      0x00\n        /* \"#utility.yul\":30719:30725   */\n      dup3\n        /* \"#utility.yul\":30715:30729   */\n      add\n        /* \"#utility.yul\":30708:30760   */\n      mstore\n        /* \"#utility.yul\":30591:30767   */\n      pop\n      jump\t// out\n        /* \"#utility.yul\":30773:31139   */\n    tag_280:\n        /* \"#utility.yul\":30915:30918   */\n      0x00\n        /* \"#utility.yul\":30936:31003   */\n      tag_571\n        /* \"#utility.yul\":31000:31002   */\n      0x1a\n        /* \"#utility.yul\":30995:30998   */\n      dup4\n        /* \"#utility.yul\":30936:31003   */\n      tag_230\n      jump\t// in\n    tag_571:\n        /* \"#utility.yul\":30929:31003   */\n      swap2\n      pop\n        /* \"#utility.yul\":31012:31105   */\n      tag_572\n        /* \"#utility.yul\":31101:31104   */\n      dup3\n        /* \"#utility.yul\":31012:31105   */\n      tag_279\n      jump\t// in\n    tag_572:\n        /* \"#utility.yul\":31130:31132   */\n      0x20\n        /* \"#utility.yul\":31125:31128   */\n      dup3\n        /* \"#utility.yul\":31121:31133   */\n      add\n        /* \"#utility.yul\":31114:31133   */\n      swap1\n      pop\n        /* \"#utility.yul\":30773:31139   */\n      swap2\n      swap1\n      pop\n      jump\t// out\n        /* \"#utility.yul\":31145:31564   */\n    tag_103:\n        /* \"#utility.yul\":31311:31315   */\n      0x00\n        /* \"#utility.yul\":31349:31351   */\n      0x20\n        /* \"#utility.yul\":31338:31347   */\n      dup3\n        /* \"#utility.yul\":31334:31352   */\n      add\n        /* \"#utility.yul\":31326:31352   */\n      swap1\n      pop\n        /* \"#utility.yul\":31398:31407   */\n      dup2\n        /* \"#utility.yul\":31392:31396   */\n      dup2\n        /* \"#utility.yul\":31388:31408   */\n      sub\n        /* \"#utility.yul\":31384:31385   */\n      0x00\n        /* \"#utility.yul\":31373:31382   */\n      dup4\n        /* \"#utility.yul\":31369:31386   */\n      add\n        /* \"#utility.yul\":31362:31409   */\n      mstore\n        /* \"#utility.yul\":31426:31557   */\n      tag_574\n        /* \"#utility.yul\":31552:31556   */\n      dup2\n        /* \"#utility.yul\":31426:31557   */\n      tag_280\n      jump\t// in\n    tag_574:\n        /* \"#utility.yul\":31418:31557   */\n      swap1\n      pop\n        /* \"#utility.yul\":31145:31564   */\n      swap2\n      swap1\n      pop\n      jump\t// out\n        /* \"#utility.yul\":31570:31717   */\n    tag_281:\n        /* \"#utility.yul\":31671:31682   */\n      0x00\n        /* \"#utility.yul\":31708:31711   */\n      dup2\n        /* \"#utility.yul\":31693:31711   */\n      swap1\n      pop\n        /* \"#utility.yul\":31570:31717   */\n      swap3\n      swap2\n      pop\n      pop\n      jump\t// out\n        /* \"#utility.yul\":31723:31837   */\n    tag_282:\n      pop\n      jump\t// out\n        /* \"#utility.yul\":31843:32241   */\n    tag_283:\n        /* \"#utility.yul\":32002:32005   */\n      0x00\n        /* \"#utility.yul\":32023:32106   */\n      tag_578\n        /* \"#utility.yul\":32104:32105   */\n      0x00\n        /* \"#utility.yul\":32099:32102   */\n      dup4\n        /* \"#utility.yul\":32023:32106   */\n      tag_281\n      jump\t// in\n    tag_578:\n        /* \"#utility.yul\":32016:32106   */\n      swap2\n      pop\n        /* \"#utility.yul\":32115:32208   */\n      tag_579\n        /* \"#utility.yul\":32204:32207   */\n      dup3\n        /* \"#utility.yul\":32115:32208   */\n      tag_282\n      jump\t// in\n    tag_579:\n        /* \"#utility.yul\":32233:32234   */\n      0x00\n        /* \"#utility.yul\":32228:32231   */\n      dup3\n        /* \"#utility.yul\":32224:32235   */\n      add\n        /* \"#utility.yul\":32217:32235   */\n      swap1\n      pop\n        /* \"#utility.yul\":31843:32241   */\n      swap2\n      swap1\n      pop\n      jump\t// out\n        /* \"#utility.yul\":32247:32626   */\n    tag_109:\n        /* \"#utility.yul\":32431:32434   */\n      0x00\n        /* \"#utility.yul\":32453:32600   */\n      tag_581\n        /* \"#utility.yul\":32596:32599   */\n      dup3\n        /* \"#utility.yul\":32453:32600   */\n      tag_283\n      jump\t// in\n    tag_581:\n        /* \"#utility.yul\":32446:32600   */\n      swap2\n      pop\n        /* \"#utility.yul\":32617:32620   */\n      dup2\n        /* \"#utility.yul\":32610:32620   */\n      swap1\n      pop\n        /* \"#utility.yul\":32247:32626   */\n      swap2\n      swap1\n      pop\n      jump\t// out\n        /* \"#utility.yul\":32632:32857   */\n    tag_284:\n        /* \"#utility.yul\":32772:32806   */\n      0x4661696c656420746f2073656e6420457468657220746f2063616d706169676e\n        /* \"#utility.yul\":32768:32769   */\n      0x00\n        /* \"#utility.yul\":32760:32766   */\n      dup3\n        /* \"#utility.yul\":32756:32770   */\n      add\n        /* \"#utility.yul\":32749:32807   */\n      mstore\n        /* \"#utility.yul\":32841:32849   */\n      0x206f776e65720000000000000000000000000000000000000000000000000000\n        /* \"#utility.yul\":32836:32838   */\n      0x20\n        /* \"#utility.yul\":32828:32834   */\n      dup3\n        /* \"#utility.yul\":32824:32839   */\n      add\n        /* \"#utility.yul\":32817:32850   */\n      mstore\n        /* \"#utility.yul\":32632:32857   */\n      pop\n      jump\t// out\n        /* \"#utility.yul\":32863:33229   */\n    tag_285:\n        /* \"#utility.yul\":33005:33008   */\n      0x00\n        /* \"#utility.yul\":33026:33093   */\n      tag_584\n        /* \"#utility.yul\":33090:33092   */\n      0x26\n        /* \"#utility.yul\":33085:33088   */\n      dup4\n        /* \"#utility.yul\":33026:33093   */\n      tag_230\n      jump\t// in\n    tag_584:\n        /* \"#utility.yul\":33019:33093   */\n      swap2\n      pop\n        /* \"#utility.yul\":33102:33195   */\n      tag_585\n        /* \"#utility.yul\":33191:33194   */\n      dup3\n        /* \"#utility.yul\":33102:33195   */\n      tag_284\n      jump\t// in\n    tag_585:\n        /* \"#utility.yul\":33220:33222   */\n      0x40\n        /* \"#utility.yul\":33215:33218   */\n      dup3\n        /* \"#utility.yul\":33211:33223   */\n      add\n        /* \"#utility.yul\":33204:33223   */\n      swap1\n      pop\n        /* \"#utility.yul\":32863:33229   */\n      swap2\n      swap1\n      pop\n      jump\t// out\n        /* \"#utility.yul\":33235:33654   */\n    tag_115:\n        /* \"#utility.yul\":33401:33405   */\n      0x00\n        /* \"#utility.yul\":33439:33441   */\n      0x20\n        /* \"#utility.yul\":33428:33437   */\n      dup3\n        /* \"#utility.yul\":33424:33442   */\n      add\n        /* \"#utility.yul\":33416:33442   */\n      swap1\n      pop\n        /* \"#utility.yul\":33488:33497   */\n      dup2\n        /* \"#utility.yul\":33482:33486   */\n      dup2\n        /* \"#utility.yul\":33478:33498   */\n      sub\n        /* \"#utility.yul\":33474:33475   */\n      0x00\n        /* \"#utility.yul\":33463:33472   */\n      dup4\n        /* \"#utility.yul\":33459:33476   */\n      add\n        /* \"#utility.yul\":33452:33499   */\n      mstore\n        /* \"#utility.yul\":33516:33647   */\n      tag_587\n        /* \"#utility.yul\":33642:33646   */\n      dup2\n        /* \"#utility.yul\":33516:33647   */\n      tag_285\n      jump\t// in\n    tag_587:\n        /* \"#utility.yul\":33508:33647   */\n      swap1\n      pop\n        /* \"#utility.yul\":33235:33654   */\n      swap2\n      swap1\n      pop\n      jump\t// out\n        /* \"#utility.yul\":33660:33992   */\n    tag_117:\n        /* \"#utility.yul\":33781:33785   */\n      0x00\n        /* \"#utility.yul\":33819:33821   */\n      0x40\n        /* \"#utility.yul\":33808:33817   */\n      dup3\n        /* \"#utility.yul\":33804:33822   */\n      add\n        /* \"#utility.yul\":33796:33822   */\n      swap1\n      pop\n        /* \"#utility.yul\":33832:33903   */\n      tag_589\n        /* \"#utility.yul\":33900:33901   */\n      0x00\n        /* \"#utility.yul\":33889:33898   */\n      dup4\n        /* \"#utility.yul\":33885:33902   */\n      add\n        /* \"#utility.yul\":33876:33882   */\n      dup6\n        /* \"#utility.yul\":33832:33903   */\n      tag_200\n      jump\t// in\n    tag_589:\n        /* \"#utility.yul\":33913:33985   */\n      tag_590\n        /* \"#utility.yul\":33981:33983   */\n      0x20\n        /* \"#utility.yul\":33970:33979   */\n      dup4\n        /* \"#utility.yul\":33966:33984   */\n      add\n        /* \"#utility.yul\":33957:33963   */\n      dup5\n        /* \"#utility.yul\":33913:33985   */\n      tag_200\n      jump\t// in\n    tag_590:\n        /* \"#utility.yul\":33660:33992   */\n      swap4\n      swap3\n      pop\n      pop\n      pop\n      jump\t// out\n        /* \"#utility.yul\":33998:34178   */\n    tag_121:\n        /* \"#utility.yul\":34046:34123   */\n      0x4e487b7100000000000000000000000000000000000000000000000000000000\n        /* \"#utility.yul\":34043:34044   */\n      0x00\n        /* \"#utility.yul\":34036:34124   */\n      mstore\n        /* \"#utility.yul\":34143:34147   */\n      0x01\n        /* \"#utility.yul\":34140:34141   */\n      0x04\n        /* \"#utility.yul\":34133:34148   */\n      mstore\n        /* \"#utility.yul\":34167:34171   */\n      0x24\n        /* \"#utility.yul\":34164:34165   */\n      0x00\n        /* \"#utility.yul\":34157:34172   */\n      revert\n        /* \"#utility.yul\":34184:34405   */\n    tag_286:\n        /* \"#utility.yul\":34324:34358   */\n      0x4f6e6c79207468652063616d706169676e206f776e65722063616e2064656c65\n        /* \"#utility.yul\":34320:34321   */\n      0x00\n        /* \"#utility.yul\":34312:34318   */\n      dup3\n        /* \"#utility.yul\":34308:34322   */\n      add\n        /* \"#utility.yul\":34301:34359   */\n      mstore\n        /* \"#utility.yul\":34393:34397   */\n      0x7465000000000000000000000000000000000000000000000000000000000000\n        /* \"#utility.yul\":34388:34390   */\n      0x20\n        /* \"#utility.yul\":34380:34386   */\n      dup3\n        /* \"#utility.yul\":34376:34391   */\n      add\n        /* \"#utility.yul\":34369:34398   */\n      mstore\n        /* \"#utility.yul\":34184:34405   */\n      pop\n      jump\t// out\n        /* \"#utility.yul\":34411:34777   */\n    tag_287:\n        /* \"#utility.yul\":34553:34556   */\n      0x00\n        /* \"#utility.yul\":34574:34641   */\n      tag_594\n        /* \"#utility.yul\":34638:34640   */\n      0x22\n        /* \"#utility.yul\":34633:34636   */\n      dup4\n        /* \"#utility.yul\":34574:34641   */\n      tag_230\n      jump\t// in\n    tag_594:\n        /* \"#utility.yul\":34567:34641   */\n      swap2\n      pop\n        /* \"#utility.yul\":34650:34743   */\n      tag_595\n        /* \"#utility.yul\":34739:34742   */\n      dup3\n        /* \"#utility.yul\":34650:34743   */\n      tag_286\n      jump\t// in\n    tag_595:\n        /* \"#utility.yul\":34768:34770   */\n      0x40\n        /* \"#utility.yul\":34763:34766   */\n      dup3\n        /* \"#utility.yul\":34759:34771   */\n      add\n        /* \"#utility.yul\":34752:34771   */\n      swap1\n      pop\n        /* \"#utility.yul\":34411:34777   */\n      swap2\n      swap1\n      pop\n      jump\t// out\n        /* \"#utility.yul\":34783:35202   */\n    tag_125:\n        /* \"#utility.yul\":34949:34953   */\n      0x00\n        /* \"#utility.yul\":34987:34989   */\n      0x20\n        /* \"#utility.yul\":34976:34985   */\n      dup3\n        /* \"#utility.yul\":34972:34990   */\n      add\n        /* \"#utility.yul\":34964:34990   */\n      swap1\n      pop\n        /* \"#utility.yul\":35036:35045   */\n      dup2\n        /* \"#utility.yul\":35030:35034   */\n      dup2\n        /* \"#utility.yul\":35026:35046   */\n      sub\n        /* \"#utility.yul\":35022:35023   */\n      0x00\n        /* \"#utility.yul\":35011:35020   */\n      dup4\n        /* \"#utility.yul\":35007:35024   */\n      add\n        /* \"#utility.yul\":35000:35047   */\n      mstore\n        /* \"#utility.yul\":35064:35195   */\n      tag_597\n        /* \"#utility.yul\":35190:35194   */\n      dup2\n        /* \"#utility.yul\":35064:35195   */\n      tag_287\n      jump\t// in\n    tag_597:\n        /* \"#utility.yul\":35056:35195   */\n      swap1\n      pop\n        /* \"#utility.yul\":34783:35202   */\n      swap2\n      swap1\n      pop\n      jump\t// out\n        /* \"#utility.yul\":35208:35430   */\n    tag_288:\n        /* \"#utility.yul\":35348:35382   */\n      0x43616e6e6f742064656c65746520612063616d706169676e2077697468206675\n        /* \"#utility.yul\":35344:35345   */\n      0x00\n        /* \"#utility.yul\":35336:35342   */\n      dup3\n        /* \"#utility.yul\":35332:35346   */\n      add\n        /* \"#utility.yul\":35325:35383   */\n      mstore\n        /* \"#utility.yul\":35417:35422   */\n      0x6e64730000000000000000000000000000000000000000000000000000000000\n        /* \"#utility.yul\":35412:35414   */\n      0x20\n        /* \"#utility.yul\":35404:35410   */\n      dup3\n        /* \"#utility.yul\":35400:35415   */\n      add\n        /* \"#utility.yul\":35393:35423   */\n      mstore\n        /* \"#utility.yul\":35208:35430   */\n      pop\n      jump\t// out\n        /* \"#utility.yul\":35436:35802   */\n    tag_289:\n        /* \"#utility.yul\":35578:35581   */\n      0x00\n        /* \"#utility.yul\":35599:35666   */\n      tag_600\n        /* \"#utility.yul\":35663:35665   */\n      0x23\n        /* \"#utility.yul\":35658:35661   */\n      dup4\n        /* \"#utility.yul\":35599:35666   */\n      tag_230\n      jump\t// in\n    tag_600:\n        /* \"#utility.yul\":35592:35666   */\n      swap2\n      pop\n        /* \"#utility.yul\":35675:35768   */\n      tag_601\n        /* \"#utility.yul\":35764:35767   */\n      dup3\n        /* \"#utility.yul\":35675:35768   */\n      tag_288\n      jump\t// in\n    tag_601:\n        /* \"#utility.yul\":35793:35795   */\n      0x40\n        /* \"#utility.yul\":35788:35791   */\n      dup3\n        /* \"#utility.yul\":35784:35796   */\n      add\n        /* \"#utility.yul\":35777:35796   */\n      swap1\n      pop\n        /* \"#utility.yul\":35436:35802   */\n      swap2\n      swap1\n      pop\n      jump\t// out\n        /* \"#utility.yul\":35808:36227   */\n    tag_128:\n        /* \"#utility.yul\":35974:35978   */\n      0x00\n        /* \"#utility.yul\":36012:36014   */\n      0x20\n        /* \"#utility.yul\":36001:36010   */\n      dup3\n        /* \"#utility.yul\":35997:36015   */\n      add\n        /* \"#utility.yul\":35989:36015   */\n      swap1\n      pop\n        /* \"#utility.yul\":36061:36070   */\n      dup2\n        /* \"#utility.yul\":36055:36059   */\n      dup2\n        /* \"#utility.yul\":36051:36071   */\n      sub\n        /* \"#utility.yul\":36047:36048   */\n      0x00\n        /* \"#utility.yul\":36036:36045   */\n      dup4\n        /* \"#utility.yul\":36032:36049   */\n      add\n        /* \"#utility.yul\":36025:36072   */\n      mstore\n        /* \"#utility.yul\":36089:36220   */\n      tag_603\n        /* \"#utility.yul\":36215:36219   */\n      dup2\n        /* \"#utility.yul\":36089:36220   */\n      tag_289\n      jump\t// in\n    tag_603:\n        /* \"#utility.yul\":36081:36220   */\n      swap1\n      pop\n        /* \"#utility.yul\":35808:36227   */\n      swap2\n      swap1\n      pop\n      jump\t// out\n        /* \"#utility.yul\":36233:36413   */\n    tag_169:\n        /* \"#utility.yul\":36281:36358   */\n      0x4e487b7100000000000000000000000000000000000000000000000000000000\n        /* \"#utility.yul\":36278:36279   */\n      0x00\n        /* \"#utility.yul\":36271:36359   */\n      mstore\n        /* \"#utility.yul\":36378:36382   */\n      0x32\n        /* \"#utility.yul\":36375:36376   */\n      0x04\n        /* \"#utility.yul\":36368:36383   */\n      mstore\n        /* \"#utility.yul\":36402:36406   */\n      0x24\n        /* \"#utility.yul\":36399:36400   */\n      0x00\n        /* \"#utility.yul\":36392:36407   */\n      revert\n        /* \"#utility.yul\":36419:36640   */\n    tag_290:\n        /* \"#utility.yul\":36559:36593   */\n      0x4f6e6c79207468652063616d706169676e206f776e65722063616e2075706461\n        /* \"#utility.yul\":36555:36556   */\n      0x00\n        /* \"#utility.yul\":36547:36553   */\n      dup3\n        /* \"#utility.yul\":36543:36557   */\n      add\n        /* \"#utility.yul\":36536:36594   */\n      mstore\n        /* \"#utility.yul\":36628:36632   */\n      0x7465000000000000000000000000000000000000000000000000000000000000\n        /* \"#utility.yul\":36623:36625   */\n      0x20\n        /* \"#utility.yul\":36615:36621   */\n      dup3\n        /* \"#utility.yul\":36611:36626   */\n      add\n        /* \"#utility.yul\":36604:36633   */\n      mstore\n        /* \"#utility.yul\":36419:36640   */\n      pop\n      jump\t// out\n        /* \"#utility.yul\":36646:37012   */\n    tag_291:\n        /* \"#utility.yul\":36788:36791   */\n      0x00\n        /* \"#utility.yul\":36809:36876   */\n      tag_607\n        /* \"#utility.yul\":36873:36875   */\n      0x22\n        /* \"#utility.yul\":36868:36871   */\n      dup4\n        /* \"#utility.yul\":36809:36876   */\n      tag_230\n      jump\t// in\n    tag_607:\n        /* \"#utility.yul\":36802:36876   */\n      swap2\n      pop\n        /* \"#utility.yul\":36885:36978   */\n      tag_608\n        /* \"#utility.yul\":36974:36977   */\n      dup3\n        /* \"#utility.yul\":36885:36978   */\n      tag_290\n      jump\t// in\n    tag_608:\n        /* \"#utility.yul\":37003:37005   */\n      0x40\n        /* \"#utility.yul\":36998:37001   */\n      dup3\n        /* \"#utility.yul\":36994:37006   */\n      add\n        /* \"#utility.yul\":36987:37006   */\n      swap1\n      pop\n        /* \"#utility.yul\":36646:37012   */\n      swap2\n      swap1\n      pop\n      jump\t// out\n        /* \"#utility.yul\":37018:37437   */\n    tag_173:\n        /* \"#utility.yul\":37184:37188   */\n      0x00\n        /* \"#utility.yul\":37222:37224   */\n      0x20\n        /* \"#utility.yul\":37211:37220   */\n      dup3\n        /* \"#utility.yul\":37207:37225   */\n      add\n        /* \"#utility.yul\":37199:37225   */\n      swap1\n      pop\n        /* \"#utility.yul\":37271:37280   */\n      dup2\n        /* \"#utility.yul\":37265:37269   */\n      dup2\n        /* \"#utility.yul\":37261:37281   */\n      sub\n        /* \"#utility.yul\":37257:37258   */\n      0x00\n        /* \"#utility.yul\":37246:37255   */\n      dup4\n        /* \"#utility.yul\":37242:37259   */\n      add\n        /* \"#utility.yul\":37235:37282   */\n      mstore\n        /* \"#utility.yul\":37299:37430   */\n      tag_610\n        /* \"#utility.yul\":37425:37429   */\n      dup2\n        /* \"#utility.yul\":37299:37430   */\n      tag_291\n      jump\t// in\n    tag_610:\n        /* \"#utility.yul\":37291:37430   */\n      swap1\n      pop\n        /* \"#utility.yul\":37018:37437   */\n      swap2\n      swap1\n      pop\n      jump\t// out\n        /* \"#utility.yul\":37443:37664   */\n    tag_292:\n        /* \"#utility.yul\":37583:37617   */\n      0x43616e6e6f7420757064617465206120636f6d706c657465642063616d706169\n        /* \"#utility.yul\":37579:37580   */\n      0x00\n        /* \"#utility.yul\":37571:37577   */\n      dup3\n        /* \"#utility.yul\":37567:37581   */\n      add\n        /* \"#utility.yul\":37560:37618   */\n      mstore\n        /* \"#utility.yul\":37652:37656   */\n      0x676e000000000000000000000000000000000000000000000000000000000000\n        /* \"#utility.yul\":37647:37649   */\n      0x20\n        /* \"#utility.yul\":37639:37645   */\n      dup3\n        /* \"#utility.yul\":37635:37650   */\n      add\n        /* \"#utility.yul\":37628:37657   */\n      mstore\n        /* \"#utility.yul\":37443:37664   */\n      pop\n      jump\t// out\n        /* \"#utility.yul\":37670:38036   */\n    tag_293:\n        /* \"#utility.yul\":37812:37815   */\n      0x00\n        /* \"#utility.yul\":37833:37900   */\n      tag_613\n        /* \"#utility.yul\":37897:37899   */\n      0x22\n        /* \"#utility.yul\":37892:37895   */\n      dup4\n        /* \"#utility.yul\":37833:37900   */\n      tag_230\n      jump\t// in\n    tag_613:\n        /* \"#utility.yul\":37826:37900   */\n      swap2\n      pop\n        /* \"#utility.yul\":37909:38002   */\n      tag_614\n        /* \"#utility.yul\":37998:38001   */\n      dup3\n        /* \"#utility.yul\":37909:38002   */\n      tag_292\n      jump\t// in\n    tag_614:\n        /* \"#utility.yul\":38027:38029   */\n      0x40\n        /* \"#utility.yul\":38022:38025   */\n      dup3\n        /* \"#utility.yul\":38018:38030   */\n      add\n        /* \"#utility.yul\":38011:38030   */\n      swap1\n      pop\n        /* \"#utility.yul\":37670:38036   */\n      swap2\n      swap1\n      pop\n      jump\t// out\n        /* \"#utility.yul\":38042:38461   */\n    tag_178:\n        /* \"#utility.yul\":38208:38212   */\n      0x00\n        /* \"#utility.yul\":38246:38248   */\n      0x20\n        /* \"#utility.yul\":38235:38244   */\n      dup3\n        /* \"#utility.yul\":38231:38249   */\n      add\n        /* \"#utility.yul\":38223:38249   */\n      swap1\n      pop\n        /* \"#utility.yul\":38295:38304   */\n      dup2\n        /* \"#utility.yul\":38289:38293   */\n      dup2\n        /* \"#utility.yul\":38285:38305   */\n      sub\n        /* \"#utility.yul\":38281:38282   */\n      0x00\n        /* \"#utility.yul\":38270:38279   */\n      dup4\n        /* \"#utility.yul\":38266:38283   */\n      add\n        /* \"#utility.yul\":38259:38306   */\n      mstore\n        /* \"#utility.yul\":38323:38454   */\n      tag_616\n        /* \"#utility.yul\":38449:38453   */\n      dup2\n        /* \"#utility.yul\":38323:38454   */\n      tag_293\n      jump\t// in\n    tag_616:\n        /* \"#utility.yul\":38315:38454   */\n      swap1\n      pop\n        /* \"#utility.yul\":38042:38461   */\n      swap2\n      swap1\n      pop\n      jump\t// out\n        /* \"#utility.yul\":38467:38647   */\n    tag_294:\n        /* \"#utility.yul\":38515:38592   */\n      0x4e487b7100000000000000000000000000000000000000000000000000000000\n        /* \"#utility.yul\":38512:38513   */\n      0x00\n        /* \"#utility.yul\":38505:38593   */\n      mstore\n        /* \"#utility.yul\":38612:38616   */\n      0x11\n        /* \"#utility.yul\":38609:38610   */\n      0x04\n        /* \"#utility.yul\":38602:38617   */\n      mstore\n        /* \"#utility.yul\":38636:38640   */\n      0x24\n        /* \"#utility.yul\":38633:38634   */\n      0x00\n        /* \"#utility.yul\":38626:38641   */\n      revert\n        /* \"#utility.yul\":38653:38844   */\n    tag_184:\n        /* \"#utility.yul\":38693:38696   */\n      0x00\n        /* \"#utility.yul\":38712:38732   */\n      tag_619\n        /* \"#utility.yul\":38730:38731   */\n      dup3\n        /* \"#utility.yul\":38712:38732   */\n      tag_199\n      jump\t// in\n    tag_619:\n        /* \"#utility.yul\":38707:38732   */\n      swap2\n      pop\n        /* \"#utility.yul\":38746:38766   */\n      tag_620\n        /* \"#utility.yul\":38764:38765   */\n      dup4\n        /* \"#utility.yul\":38746:38766   */\n      tag_199\n      jump\t// in\n    tag_620:\n        /* \"#utility.yul\":38741:38766   */\n      swap3\n      pop\n        /* \"#utility.yul\":38789:38790   */\n      dup3\n        /* \"#utility.yul\":38786:38787   */\n      dup3\n        /* \"#utility.yul\":38782:38791   */\n      add\n        /* \"#utility.yul\":38775:38791   */\n      swap1\n      pop\n        /* \"#utility.yul\":38810:38813   */\n      dup1\n        /* \"#utility.yul\":38807:38808   */\n      dup3\n        /* \"#utility.yul\":38804:38814   */\n      gt\n        /* \"#utility.yul\":38801:38837   */\n      iszero\n      tag_621\n      jumpi\n        /* \"#utility.yul\":38817:38835   */\n      tag_622\n      tag_294\n      jump\t// in\n    tag_622:\n        /* \"#utility.yul\":38801:38837   */\n    tag_621:\n        /* \"#utility.yul\":38653:38844   */\n      swap3\n      swap2\n      pop\n      pop\n      jump\t// out\n        /* \"#utility.yul\":38850:39044   */\n    tag_187:\n        /* \"#utility.yul\":38890:38894   */\n      0x00\n        /* \"#utility.yul\":38910:38930   */\n      tag_624\n        /* \"#utility.yul\":38928:38929   */\n      dup3\n        /* \"#utility.yul\":38910:38930   */\n      tag_199\n      jump\t// in\n    tag_624:\n        /* \"#utility.yul\":38905:38930   */\n      swap2\n      pop\n        /* \"#utility.yul\":38944:38964   */\n      tag_625\n        /* \"#utility.yul\":38962:38963   */\n      dup4\n        /* \"#utility.yul\":38944:38964   */\n      tag_199\n      jump\t// in\n    tag_625:\n        /* \"#utility.yul\":38939:38964   */\n      swap3\n      pop\n        /* \"#utility.yul\":38988:38989   */\n      dup3\n        /* \"#utility.yul\":38985:38986   */\n      dup3\n        /* \"#utility.yul\":38981:38990   */\n      sub\n        /* \"#utility.yul\":38973:38990   */\n      swap1\n      pop\n        /* \"#utility.yul\":39012:39013   */\n      dup2\n        /* \"#utility.yul\":39006:39010   */\n      dup2\n        /* \"#utility.yul\":39003:39014   */\n      gt\n        /* \"#utility.yul\":39000:39037   */\n      iszero\n      tag_626\n      jumpi\n        /* \"#utility.yul\":39017:39035   */\n      tag_627\n      tag_294\n      jump\t// in\n    tag_627:\n        /* \"#utility.yul\":39000:39037   */\n    tag_626:\n        /* \"#utility.yul\":38850:39044   */\n      swap3\n      swap2\n      pop\n      pop\n      jump\t// out\n\n    auxdata: 0xa2646970667358221220ce60715aef2b8856315c830171da63f8f752669e52eacc08ac567b4d6d28bddb64736f6c634300081a0033\n}\n",
				"bytecode": {
					"linkReferences": {},
					"object": "60806040525f6001553480156012575f80fd5b50612566806100205f395ff3fe60806040526004361061007a575f3560e01c806342a4fda81161004d57806342a4fda814610163578063759701931461017f578063a6b03633146101a7578063c5675b10146101d15761007a565b806307ca140d1461007e5780630fa91fa9146100a85780631227d335146100e5578063141961bc14610121575b5f80fd5b348015610089575f80fd5b506100926101f9565b60405161009f9190611294565b60405180910390f35b3480156100b3575f80fd5b506100ce60048036038101906100c991906112df565b6101ff565b6040516100dc9291906114a8565b60405180910390f35b3480156100f0575f80fd5b5061010b60048036038101906101069190611568565b6102fc565b6040516101189190611294565b60405180910390f35b34801561012c575f80fd5b50610147600480360381019061014291906112df565b610535565b60405161015a97969594939291906116d8565b60405180910390f35b61017d600480360381019061017891906112df565b61072f565b005b34801561018a575f80fd5b506101a560048036038101906101a091906112df565b610a79565b005b3480156101b2575f80fd5b506101bb610c0a565b6040516101c89190611a22565b60405180910390f35b3480156101dc575f80fd5b506101f760048036038101906101f29190611a42565b610fd8565b005b60015481565b6060805f805f8581526020019081526020015f20905080600701816008018180548060200260200160405190810160405280929190818152602001828054801561029b57602002820191905f5260205f20905b815f9054906101000a900473ffffffffffffffffffffffffffffffffffffffff1673ffffffffffffffffffffffffffffffffffffffff1681526020019060010190808311610252575b50505050509150808054806020026020016040519081016040528092919081815260200182805480156102eb57602002820191905f5260205f20905b8154815260200190600101908083116102d7575b505050505090509250925050915091565b5f80841161033f576040517f08c379a000000000000000000000000000000000000000000000000000000000815260040161033690611b63565b60405180910390fd5b5f8888905011610384576040517f08c379a000000000000000000000000000000000000000000000000000000000815260040161037b90611bcb565b60405180910390fd5b5f86869050116103c9576040517f08c379a00000000000000000000000000000000000000000000000000000000081526004016103c090611c33565b60405180910390fd5b5f73ffffffffffffffffffffffffffffffffffffffff168973ffffffffffffffffffffffffffffffffffffffff1603610437576040517f08c379a000000000000000000000000000000000000000000000000000000000815260040161042e90611c9b565b60405180910390fd5b5f805f60015481526020019081526020015f20905089815f015f6101000a81548173ffffffffffffffffffffffffffffffffffffffff021916908373ffffffffffffffffffffffffffffffffffffffff16021790555088888260010191826104a0929190611eea565b5086868260020191826104b4929190611eea565b508481600301819055505f816004018190555083838260050191826104da929190611eea565b505f816006015f6101000a81548160ff02191690831515021790555061050b6001805461115e90919063ffffffff16565b6001819055506105266001805461117390919063ffffffff16565b91505098975050505050505050565b5f602052805f5260405f205f91509050805f015f9054906101000a900473ffffffffffffffffffffffffffffffffffffffff169080600101805461057890611d1d565b80601f01602080910402602001604051908101604052809291908181526020018280546105a490611d1d565b80156105ef5780601f106105c6576101008083540402835291602001916105ef565b820191905f5260205f20905b8154815290600101906020018083116105d257829003601f168201915b50505050509080600201805461060490611d1d565b80601f016020809104026020016040519081016040528092919081815260200182805461063090611d1d565b801561067b5780601f106106525761010080835404028352916020019161067b565b820191905f5260205f20905b81548152906001019060200180831161065e57829003601f168201915b50505050509080600301549080600401549080600501805461069c90611d1d565b80601f01602080910402602001604051908101604052809291908181526020018280546106c890611d1d565b80156107135780601f106106ea57610100808354040283529160200191610713565b820191905f5260205f20905b8154815290600101906020018083116106f657829003601f168201915b505050505090806006015f9054906101000a900460ff16905087565b5f3411610771576040517f08c379a000000000000000000000000000000000000000000000000000000000815260040161076890612027565b60405180910390fd5b5f805f8381526020019081526020015f2090505f73ffffffffffffffffffffffffffffffffffffffff16815f015f9054906101000a900473ffffffffffffffffffffffffffffffffffffffff1673ffffffffffffffffffffffffffffffffffffffff1603610814576040517f08c379a000000000000000000000000000000000000000000000000000000000815260040161080b9061208f565b60405180910390fd5b806006015f9054906101000a900460ff1615610865576040517f08c379a000000000000000000000000000000000000000000000000000000000815260040161085c906120f7565b60405180910390fd5b5f816004015490508160070133908060018154018082558091505060019003905f5260205f20015f9091909190916101000a81548173ffffffffffffffffffffffffffffffffffffffff021916908373ffffffffffffffffffffffffffffffffffffffff1602179055508160080134908060018154018082558091505060019003905f5260205f20015f909190919091505561090e34836004015461115e90919063ffffffff16565b82600401819055508160030154826004015410610a4e576001826006015f6101000a81548160ff0219169083151502179055505f825f015f9054906101000a900473ffffffffffffffffffffffffffffffffffffffff1673ffffffffffffffffffffffffffffffffffffffff16836004015460405161098c90612142565b5f6040518083038185875af1925050503d805f81146109c6576040519150601f19603f3d011682016040523d82523d5f602084013e6109cb565b606091505b5050905080610a0f576040517f08c379a0000000000000000000000000000000000000000000000000000000008152600401610a06906121c6565b60405180910390fd5b7f9222ae681f845a771921ce4b3ad4e0edbad84581db89f9b964c68c7b72e3e26a848460040154604051610a449291906121e4565b60405180910390a1505b610a61348261115e90919063ffffffff16565b826004015414610a7457610a7361220b565b5b505050565b5f805f8381526020019081526020015f209050805f015f9054906101000a900473ffffffffffffffffffffffffffffffffffffffff1673ffffffffffffffffffffffffffffffffffffffff163373ffffffffffffffffffffffffffffffffffffffff1614610b1c576040517f08c379a0000000000000000000000000000000000000000000000000000000008152600401610b13906122a8565b60405180910390fd5b5f816004015414610b62576040517f08c379a0000000000000000000000000000000000000000000000000000000008152600401610b5990612336565b60405180910390fd5b5f808381526020019081526020015f205f8082015f6101000a81549073ffffffffffffffffffffffffffffffffffffffff0219169055600182015f610ba79190611188565b600282015f610bb69190611188565b600382015f9055600482015f9055600582015f610bd39190611188565b600682015f6101000a81549060ff0219169055600782015f610bf591906111c5565b600882015f610c0491906111e3565b50505050565b60605f60015467ffffffffffffffff811115610c2957610c28611cc3565b5b604051908082528060200260200182016040528015610c6257816020015b610c4f611201565b815260200190600190039081610c475790505b5090505f5b600154811015610fd0575f805f8381526020019081526020015f20905080604051806101200160405290815f82015f9054906101000a900473ffffffffffffffffffffffffffffffffffffffff1673ffffffffffffffffffffffffffffffffffffffff1673ffffffffffffffffffffffffffffffffffffffff168152602001600182018054610cf590611d1d565b80601f0160208091040260200160405190810160405280929190818152602001828054610d2190611d1d565b8015610d6c5780601f10610d4357610100808354040283529160200191610d6c565b820191905f5260205f20905b815481529060010190602001808311610d4f57829003601f168201915b50505050508152602001600282018054610d8590611d1d565b80601f0160208091040260200160405190810160405280929190818152602001828054610db190611d1d565b8015610dfc5780601f10610dd357610100808354040283529160200191610dfc565b820191905f5260205f20905b815481529060010190602001808311610ddf57829003601f168201915b505050505081526020016003820154815260200160048201548152602001600582018054610e2990611d1d565b80601f0160208091040260200160405190810160405280929190818152602001828054610e5590611d1d565b8015610ea05780601f10610e7757610100808354040283529160200191610ea0565b820191905f5260205f20905b815481529060010190602001808311610e8357829003601f168201915b50505050508152602001600682015f9054906101000a900460ff1615151515815260200160078201805480602002602001604051908101604052809291908181526020018280548015610f4557602002820191905f5260205f20905b815f9054906101000a900473ffffffffffffffffffffffffffffffffffffffff1673ffffffffffffffffffffffffffffffffffffffff1681526020019060010190808311610efc575b5050505050815260200160088201805480602002602001604051908101604052809291908181526020018280548015610f9b57602002820191905f5260205f20905b815481526020019060010190808311610f87575b505050505081525050838381518110610fb757610fb6612354565b5b6020026020010181905250508080600101915050610c67565b508091505090565b5f805f8a81526020019081526020015f209050805f015f9054906101000a900473ffffffffffffffffffffffffffffffffffffffff1673ffffffffffffffffffffffffffffffffffffffff163373ffffffffffffffffffffffffffffffffffffffff161461107b576040517f08c379a0000000000000000000000000000000000000000000000000000000008152600401611072906123f1565b60405180910390fd5b5f84116110bd576040517f08c379a00000000000000000000000000000000000000000000000000000000081526004016110b490611b63565b60405180910390fd5b806006015f9054906101000a900460ff161561110e576040517f08c379a00000000000000000000000000000000000000000000000000000000081526004016111059061247f565b60405180910390fd5b8787826001019182611121929190611eea565b508585826002019182611135929190611eea565b508381600301819055508282826005019182611152929190611eea565b50505050505050505050565b5f818361116b91906124ca565b905092915050565b5f818361118091906124fd565b905092915050565b50805461119490611d1d565b5f825580601f106111a557506111c2565b601f0160209004905f5260205f20908101906111c19190611261565b5b50565b5080545f8255905f5260205f20908101906111e09190611261565b50565b5080545f8255905f5260205f20908101906111fe9190611261565b50565b6040518061012001604052805f73ffffffffffffffffffffffffffffffffffffffff16815260200160608152602001606081526020015f81526020015f8152602001606081526020015f1515815260200160608152602001606081525090565b5b80821115611278575f815f905550600101611262565b5090565b5f819050919050565b61128e8161127c565b82525050565b5f6020820190506112a75f830184611285565b92915050565b5f80fd5b5f80fd5b6112be8161127c565b81146112c8575f80fd5b50565b5f813590506112d9816112b5565b92915050565b5f602082840312156112f4576112f36112ad565b5b5f611301848285016112cb565b91505092915050565b5f81519050919050565b5f82825260208201905092915050565b5f819050602082019050919050565b5f73ffffffffffffffffffffffffffffffffffffffff82169050919050565b5f61135c82611333565b9050919050565b61136c81611352565b82525050565b5f61137d8383611363565b60208301905092915050565b5f602082019050919050565b5f61139f8261130a565b6113a98185611314565b93506113b483611324565b805f5b838110156113e45781516113cb8882611372565b97506113d683611389565b9250506001810190506113b7565b5085935050505092915050565b5f81519050919050565b5f82825260208201905092915050565b5f819050602082019050919050565b6114238161127c565b82525050565b5f611434838361141a565b60208301905092915050565b5f602082019050919050565b5f611456826113f1565b61146081856113fb565b935061146b8361140b565b805f5b8381101561149b5781516114828882611429565b975061148d83611440565b92505060018101905061146e565b5085935050505092915050565b5f6040820190508181035f8301526114c08185611395565b905081810360208301526114d4818461144c565b90509392505050565b6114e681611352565b81146114f0575f80fd5b50565b5f81359050611501816114dd565b92915050565b5f80fd5b5f80fd5b5f80fd5b5f8083601f84011261152857611527611507565b5b8235905067ffffffffffffffff8111156115455761154461150b565b5b6020830191508360018202830111156115615761156061150f565b5b9250929050565b5f805f805f805f8060a0898b031215611584576115836112ad565b5b5f6115918b828c016114f3565b985050602089013567ffffffffffffffff8111156115b2576115b16112b1565b5b6115be8b828c01611513565b9750975050604089013567ffffffffffffffff8111156115e1576115e06112b1565b5b6115ed8b828c01611513565b955095505060606116008b828c016112cb565b935050608089013567ffffffffffffffff811115611621576116206112b1565b5b61162d8b828c01611513565b92509250509295985092959890939650565b61164881611352565b82525050565b5f81519050919050565b5f82825260208201905092915050565b8281835e5f83830152505050565b5f601f19601f8301169050919050565b5f6116908261164e565b61169a8185611658565b93506116aa818560208601611668565b6116b381611676565b840191505092915050565b5f8115159050919050565b6116d2816116be565b82525050565b5f60e0820190506116eb5f83018a61163f565b81810360208301526116fd8189611686565b905081810360408301526117118188611686565b90506117206060830187611285565b61172d6080830186611285565b81810360a083015261173f8185611686565b905061174e60c08301846116c9565b98975050505050505050565b5f81519050919050565b5f82825260208201905092915050565b5f819050602082019050919050565b5f82825260208201905092915050565b5f61179d8261164e565b6117a78185611783565b93506117b7818560208601611668565b6117c081611676565b840191505092915050565b6117d4816116be565b82525050565b5f82825260208201905092915050565b5f6117f48261130a565b6117fe81856117da565b935061180983611324565b805f5b838110156118395781516118208882611372565b975061182b83611389565b92505060018101905061180c565b5085935050505092915050565b5f82825260208201905092915050565b5f611860826113f1565b61186a8185611846565b93506118758361140b565b805f5b838110156118a557815161188c8882611429565b975061189783611440565b925050600181019050611878565b5085935050505092915050565b5f61012083015f8301516118c85f860182611363565b50602083015184820360208601526118e08282611793565b915050604083015184820360408601526118fa8282611793565b915050606083015161190f606086018261141a565b506080830151611922608086018261141a565b5060a083015184820360a086015261193a8282611793565b91505060c083015161194f60c08601826117cb565b5060e083015184820360e086015261196782826117ea565b9150506101008301518482036101008601526119838282611856565b9150508091505092915050565b5f61199b83836118b2565b905092915050565b5f602082019050919050565b5f6119b98261175a565b6119c38185611764565b9350836020820285016119d585611774565b805f5b85811015611a1057848403895281516119f18582611990565b94506119fc836119a3565b925060208a019950506001810190506119d8565b50829750879550505050505092915050565b5f6020820190508181035f830152611a3a81846119af565b905092915050565b5f805f805f805f8060a0898b031215611a5e57611a5d6112ad565b5b5f611a6b8b828c016112cb565b985050602089013567ffffffffffffffff811115611a8c57611a8b6112b1565b5b611a988b828c01611513565b9750975050604089013567ffffffffffffffff811115611abb57611aba6112b1565b5b611ac78b828c01611513565b95509550506060611ada8b828c016112cb565b935050608089013567ffffffffffffffff811115611afb57611afa6112b1565b5b611b078b828c01611513565b92509250509295985092959890939650565b7f546172676574206d7573742062652067726561746572207468616e20300000005f82015250565b5f611b4d601d83611658565b9150611b5882611b19565b602082019050919050565b5f6020820190508181035f830152611b7a81611b41565b9050919050565b7f5469746c652063616e6e6f7420626520656d70747900000000000000000000005f82015250565b5f611bb5601583611658565b9150611bc082611b81565b602082019050919050565b5f6020820190508181035f830152611be281611ba9565b9050919050565b7f4465736372697074696f6e2063616e6e6f7420626520656d70747900000000005f82015250565b5f611c1d601b83611658565b9150611c2882611be9565b602082019050919050565b5f6020820190508181035f830152611c4a81611c11565b9050919050565b7f496e76616c6964206f776e6572206164647265737300000000000000000000005f82015250565b5f611c85601583611658565b9150611c9082611c51565b602082019050919050565b5f6020820190508181035f830152611cb281611c79565b9050919050565b5f82905092915050565b7f4e487b71000000000000000000000000000000000000000000000000000000005f52604160045260245ffd5b7f4e487b71000000000000000000000000000000000000000000000000000000005f52602260045260245ffd5b5f6002820490506001821680611d3457607f821691505b602082108103611d4757611d46611cf0565b5b50919050565b5f819050815f5260205f209050919050565b5f6020601f8301049050919050565b5f82821b905092915050565b5f60088302611da97fffffffffffffffffffffffffffffffffffffffffffffffffffffffffffffffff82611d6e565b611db38683611d6e565b95508019841693508086168417925050509392505050565b5f819050919050565b5f611dee611de9611de48461127c565b611dcb565b61127c565b9050919050565b5f819050919050565b611e0783611dd4565b611e1b611e1382611df5565b848454611d7a565b825550505050565b5f90565b611e2f611e23565b611e3a818484611dfe565b505050565b5b81811015611e5d57611e525f82611e27565b600181019050611e40565b5050565b601f821115611ea257611e7381611d4d565b611e7c84611d5f565b81016020851015611e8b578190505b611e9f611e9785611d5f565b830182611e3f565b50505b505050565b5f82821c905092915050565b5f611ec25f1984600802611ea7565b1980831691505092915050565b5f611eda8383611eb3565b9150826002028217905092915050565b611ef48383611cb9565b67ffffffffffffffff811115611f0d57611f0c611cc3565b5b611f178254611d1d565b611f22828285611e61565b5f601f831160018114611f4f575f8415611f3d578287013590505b611f478582611ecf565b865550611fae565b601f198416611f5d86611d4d565b5f5b82811015611f8457848901358255600182019150602085019450602081019050611f5f565b86831015611fa15784890135611f9d601f891682611eb3565b8355505b6001600288020188555050505b50505050505050565b7f446f6e6174696f6e20616d6f756e74206d7573742062652067726561746572205f8201527f7468616e20300000000000000000000000000000000000000000000000000000602082015250565b5f612011602683611658565b915061201c82611fb7565b604082019050919050565b5f6020820190508181035f83015261203e81612005565b9050919050565b7f43616d706169676e20646f6573206e6f742065786973740000000000000000005f82015250565b5f612079601783611658565b915061208482612045565b602082019050919050565b5f6020820190508181035f8301526120a68161206d565b9050919050565b7f43616d706169676e20616c726561647920636f6d706c657465640000000000005f82015250565b5f6120e1601a83611658565b91506120ec826120ad565b602082019050919050565b5f6020820190508181035f83015261210e816120d5565b9050919050565b5f81905092915050565b50565b5f61212d5f83612115565b91506121388261211f565b5f82019050919050565b5f61214c82612122565b9150819050919050565b7f4661696c656420746f2073656e6420457468657220746f2063616d706169676e5f8201527f206f776e65720000000000000000000000000000000000000000000000000000602082015250565b5f6121b0602683611658565b91506121bb82612156565b604082019050919050565b5f6020820190508181035f8301526121dd816121a4565b9050919050565b5f6040820190506121f75f830185611285565b6122046020830184611285565b9392505050565b7f4e487b71000000000000000000000000000000000000000000000000000000005f52600160045260245ffd5b7f4f6e6c79207468652063616d706169676e206f776e65722063616e2064656c655f8201527f7465000000000000000000000000000000000000000000000000000000000000602082015250565b5f612292602283611658565b915061229d82612238565b604082019050919050565b5f6020820190508181035f8301526122bf81612286565b9050919050565b7f43616e6e6f742064656c65746520612063616d706169676e20776974682066755f8201527f6e64730000000000000000000000000000000000000000000000000000000000602082015250565b5f612320602383611658565b915061232b826122c6565b604082019050919050565b5f6020820190508181035f83015261234d81612314565b9050919050565b7f4e487b71000000000000000000000000000000000000000000000000000000005f52603260045260245ffd5b7f4f6e6c79207468652063616d706169676e206f776e65722063616e20757064615f8201527f7465000000000000000000000000000000000000000000000000000000000000602082015250565b5f6123db602283611658565b91506123e682612381565b604082019050919050565b5f6020820190508181035f830152612408816123cf565b9050919050565b7f43616e6e6f7420757064617465206120636f6d706c657465642063616d7061695f8201527f676e000000000000000000000000000000000000000000000000000000000000602082015250565b5f612469602283611658565b91506124748261240f565b604082019050919050565b5f6020820190508181035f8301526124968161245d565b9050919050565b7f4e487b71000000000000000000000000000000000000000000000000000000005f52601160045260245ffd5b5f6124d48261127c565b91506124df8361127c565b92508282019050808211156124f7576124f661249d565b5b92915050565b5f6125078261127c565b91506125128361127c565b925082820390508181111561252a5761252961249d565b5b9291505056fea2646970667358221220ce60715aef2b8856315c830171da63f8f752669e52eacc08ac567b4d6d28bddb64736f6c634300081a0033",
					"opcodes": "PUSH1 0x80 PUSH1 0x40 MSTORE PUSH0 PUSH1 0x1 SSTORE CALLVALUE DUP1 ISZERO PUSH1 0x12 JUMPI PUSH0 DUP1 REVERT JUMPDEST POP PUSH2 0x2566 DUP1 PUSH2 0x20 PUSH0 CODECOPY PUSH0 RETURN INVALID PUSH1 0x80 PUSH1 0x40 MSTORE PUSH1 0x4 CALLDATASIZE LT PUSH2 0x7A JUMPI PUSH0 CALLDATALOAD PUSH1 0xE0 SHR DUP1 PUSH4 0x42A4FDA8 GT PUSH2 0x4D JUMPI DUP1 PUSH4 0x42A4FDA8 EQ PUSH2 0x163 JUMPI DUP1 PUSH4 0x75970193 EQ PUSH2 0x17F JUMPI DUP1 PUSH4 0xA6B03633 EQ PUSH2 0x1A7 JUMPI DUP1 PUSH4 0xC5675B10 EQ PUSH2 0x1D1 JUMPI PUSH2 0x7A JUMP JUMPDEST DUP1 PUSH4 0x7CA140D EQ PUSH2 0x7E JUMPI DUP1 PUSH4 0xFA91FA9 EQ PUSH2 0xA8 JUMPI DUP1 PUSH4 0x1227D335 EQ PUSH2 0xE5 JUMPI DUP1 PUSH4 0x141961BC EQ PUSH2 0x121 JUMPI JUMPDEST PUSH0 DUP1 REVERT JUMPDEST CALLVALUE DUP1 ISZERO PUSH2 0x89 JUMPI PUSH0 DUP1 REVERT JUMPDEST POP PUSH2 0x92 PUSH2 0x1F9 JUMP JUMPDEST PUSH1 0x40 MLOAD PUSH2 0x9F SWAP2 SWAP1 PUSH2 0x1294 JUMP JUMPDEST PUSH1 0x40 MLOAD DUP1 SWAP2 SUB SWAP1 RETURN JUMPDEST CALLVALUE DUP1 ISZERO PUSH2 0xB3 JUMPI PUSH0 DUP1 REVERT JUMPDEST POP PUSH2 0xCE PUSH1 0x4 DUP1 CALLDATASIZE SUB DUP2 ADD SWAP1 PUSH2 0xC9 SWAP2 SWAP1 PUSH2 0x12DF JUMP JUMPDEST PUSH2 0x1FF JUMP JUMPDEST PUSH1 0x40 MLOAD PUSH2 0xDC SWAP3 SWAP2 SWAP1 PUSH2 0x14A8 JUMP JUMPDEST PUSH1 0x40 MLOAD DUP1 SWAP2 SUB SWAP1 RETURN JUMPDEST CALLVALUE DUP1 ISZERO PUSH2 0xF0 JUMPI PUSH0 DUP1 REVERT JUMPDEST POP PUSH2 0x10B PUSH1 0x4 DUP1 CALLDATASIZE SUB DUP2 ADD SWAP1 PUSH2 0x106 SWAP2 SWAP1 PUSH2 0x1568 JUMP JUMPDEST PUSH2 0x2FC JUMP JUMPDEST PUSH1 0x40 MLOAD PUSH2 0x118 SWAP2 SWAP1 PUSH2 0x1294 JUMP JUMPDEST PUSH1 0x40 MLOAD DUP1 SWAP2 SUB SWAP1 RETURN JUMPDEST CALLVALUE DUP1 ISZERO PUSH2 0x12C JUMPI PUSH0 DUP1 REVERT JUMPDEST POP PUSH2 0x147 PUSH1 0x4 DUP1 CALLDATASIZE SUB DUP2 ADD SWAP1 PUSH2 0x142 SWAP2 SWAP1 PUSH2 0x12DF JUMP JUMPDEST PUSH2 0x535 JUMP JUMPDEST PUSH1 0x40 MLOAD PUSH2 0x15A SWAP8 SWAP7 SWAP6 SWAP5 SWAP4 SWAP3 SWAP2 SWAP1 PUSH2 0x16D8 JUMP JUMPDEST PUSH1 0x40 MLOAD DUP1 SWAP2 SUB SWAP1 RETURN JUMPDEST PUSH2 0x17D PUSH1 0x4 DUP1 CALLDATASIZE SUB DUP2 ADD SWAP1 PUSH2 0x178 SWAP2 SWAP1 PUSH2 0x12DF JUMP JUMPDEST PUSH2 0x72F JUMP JUMPDEST STOP JUMPDEST CALLVALUE DUP1 ISZERO PUSH2 0x18A JUMPI PUSH0 DUP1 REVERT JUMPDEST POP PUSH2 0x1A5 PUSH1 0x4 DUP1 CALLDATASIZE SUB DUP2 ADD SWAP1 PUSH2 0x1A0 SWAP2 SWAP1 PUSH2 0x12DF JUMP JUMPDEST PUSH2 0xA79 JUMP JUMPDEST STOP JUMPDEST CALLVALUE DUP1 ISZERO PUSH2 0x1B2 JUMPI PUSH0 DUP1 REVERT JUMPDEST POP PUSH2 0x1BB PUSH2 0xC0A JUMP JUMPDEST PUSH1 0x40 MLOAD PUSH2 0x1C8 SWAP2 SWAP1 PUSH2 0x1A22 JUMP JUMPDEST PUSH1 0x40 MLOAD DUP1 SWAP2 SUB SWAP1 RETURN JUMPDEST CALLVALUE DUP1 ISZERO PUSH2 0x1DC JUMPI PUSH0 DUP1 REVERT JUMPDEST POP PUSH2 0x1F7 PUSH1 0x4 DUP1 CALLDATASIZE SUB DUP2 ADD SWAP1 PUSH2 0x1F2 SWAP2 SWAP1 PUSH2 0x1A42 JUMP JUMPDEST PUSH2 0xFD8 JUMP JUMPDEST STOP JUMPDEST PUSH1 0x1 SLOAD DUP2 JUMP JUMPDEST PUSH1 0x60 DUP1 PUSH0 DUP1 PUSH0 DUP6 DUP2 MSTORE PUSH1 0x20 ADD SWAP1 DUP2 MSTORE PUSH1 0x20 ADD PUSH0 KECCAK256 SWAP1 POP DUP1 PUSH1 0x7 ADD DUP2 PUSH1 0x8 ADD DUP2 DUP1 SLOAD DUP1 PUSH1 0x20 MUL PUSH1 0x20 ADD PUSH1 0x40 MLOAD SWAP1 DUP2 ADD PUSH1 0x40 MSTORE DUP1 SWAP3 SWAP2 SWAP1 DUP2 DUP2 MSTORE PUSH1 0x20 ADD DUP3 DUP1 SLOAD DUP1 ISZERO PUSH2 0x29B JUMPI PUSH1 0x20 MUL DUP3 ADD SWAP2 SWAP1 PUSH0 MSTORE PUSH1 0x20 PUSH0 KECCAK256 SWAP1 JUMPDEST DUP2 PUSH0 SWAP1 SLOAD SWAP1 PUSH2 0x100 EXP SWAP1 DIV PUSH20 0xFFFFFFFFFFFFFFFFFFFFFFFFFFFFFFFFFFFFFFFF AND PUSH20 0xFFFFFFFFFFFFFFFFFFFFFFFFFFFFFFFFFFFFFFFF AND DUP2 MSTORE PUSH1 0x20 ADD SWAP1 PUSH1 0x1 ADD SWAP1 DUP1 DUP4 GT PUSH2 0x252 JUMPI JUMPDEST POP POP POP POP POP SWAP2 POP DUP1 DUP1 SLOAD DUP1 PUSH1 0x20 MUL PUSH1 0x20 ADD PUSH1 0x40 MLOAD SWAP1 DUP2 ADD PUSH1 0x40 MSTORE DUP1 SWAP3 SWAP2 SWAP1 DUP2 DUP2 MSTORE PUSH1 0x20 ADD DUP3 DUP1 SLOAD DUP1 ISZERO PUSH2 0x2EB JUMPI PUSH1 0x20 MUL DUP3 ADD SWAP2 SWAP1 PUSH0 MSTORE PUSH1 0x20 PUSH0 KECCAK256 SWAP1 JUMPDEST DUP2 SLOAD DUP2 MSTORE PUSH1 0x20 ADD SWAP1 PUSH1 0x1 ADD SWAP1 DUP1 DUP4 GT PUSH2 0x2D7 JUMPI JUMPDEST POP POP POP POP POP SWAP1 POP SWAP3 POP SWAP3 POP POP SWAP2 POP SWAP2 JUMP JUMPDEST PUSH0 DUP1 DUP5 GT PUSH2 0x33F JUMPI PUSH1 0x40 MLOAD PUSH32 0x8C379A000000000000000000000000000000000000000000000000000000000 DUP2 MSTORE PUSH1 0x4 ADD PUSH2 0x336 SWAP1 PUSH2 0x1B63 JUMP JUMPDEST PUSH1 0x40 MLOAD DUP1 SWAP2 SUB SWAP1 REVERT JUMPDEST PUSH0 DUP9 DUP9 SWAP1 POP GT PUSH2 0x384 JUMPI PUSH1 0x40 MLOAD PUSH32 0x8C379A000000000000000000000000000000000000000000000000000000000 DUP2 MSTORE PUSH1 0x4 ADD PUSH2 0x37B SWAP1 PUSH2 0x1BCB JUMP JUMPDEST PUSH1 0x40 MLOAD DUP1 SWAP2 SUB SWAP1 REVERT JUMPDEST PUSH0 DUP7 DUP7 SWAP1 POP GT PUSH2 0x3C9 JUMPI PUSH1 0x40 MLOAD PUSH32 0x8C379A000000000000000000000000000000000000000000000000000000000 DUP2 MSTORE PUSH1 0x4 ADD PUSH2 0x3C0 SWAP1 PUSH2 0x1C33 JUMP JUMPDEST PUSH1 0x40 MLOAD DUP1 SWAP2 SUB SWAP1 REVERT JUMPDEST PUSH0 PUSH20 0xFFFFFFFFFFFFFFFFFFFFFFFFFFFFFFFFFFFFFFFF AND DUP10 PUSH20 0xFFFFFFFFFFFFFFFFFFFFFFFFFFFFFFFFFFFFFFFF AND SUB PUSH2 0x437 JUMPI PUSH1 0x40 MLOAD PUSH32 0x8C379A000000000000000000000000000000000000000000000000000000000 DUP2 MSTORE PUSH1 0x4 ADD PUSH2 0x42E SWAP1 PUSH2 0x1C9B JUMP JUMPDEST PUSH1 0x40 MLOAD DUP1 SWAP2 SUB SWAP1 REVERT JUMPDEST PUSH0 DUP1 PUSH0 PUSH1 0x1 SLOAD DUP2 MSTORE PUSH1 0x20 ADD SWAP1 DUP2 MSTORE PUSH1 0x20 ADD PUSH0 KECCAK256 SWAP1 POP DUP10 DUP2 PUSH0 ADD PUSH0 PUSH2 0x100 EXP DUP2 SLOAD DUP2 PUSH20 0xFFFFFFFFFFFFFFFFFFFFFFFFFFFFFFFFFFFFFFFF MUL NOT AND SWAP1 DUP4 PUSH20 0xFFFFFFFFFFFFFFFFFFFFFFFFFFFFFFFFFFFFFFFF AND MUL OR SWAP1 SSTORE POP DUP9 DUP9 DUP3 PUSH1 0x1 ADD SWAP2 DUP3 PUSH2 0x4A0 SWAP3 SWAP2 SWAP1 PUSH2 0x1EEA JUMP JUMPDEST POP DUP7 DUP7 DUP3 PUSH1 0x2 ADD SWAP2 DUP3 PUSH2 0x4B4 SWAP3 SWAP2 SWAP1 PUSH2 0x1EEA JUMP JUMPDEST POP DUP5 DUP2 PUSH1 0x3 ADD DUP2 SWAP1 SSTORE POP PUSH0 DUP2 PUSH1 0x4 ADD DUP2 SWAP1 SSTORE POP DUP4 DUP4 DUP3 PUSH1 0x5 ADD SWAP2 DUP3 PUSH2 0x4DA SWAP3 SWAP2 SWAP1 PUSH2 0x1EEA JUMP JUMPDEST POP PUSH0 DUP2 PUSH1 0x6 ADD PUSH0 PUSH2 0x100 EXP DUP2 SLOAD DUP2 PUSH1 0xFF MUL NOT AND SWAP1 DUP4 ISZERO ISZERO MUL OR SWAP1 SSTORE POP PUSH2 0x50B PUSH1 0x1 DUP1 SLOAD PUSH2 0x115E SWAP1 SWAP2 SWAP1 PUSH4 0xFFFFFFFF AND JUMP JUMPDEST PUSH1 0x1 DUP2 SWAP1 SSTORE POP PUSH2 0x526 PUSH1 0x1 DUP1 SLOAD PUSH2 0x1173 SWAP1 SWAP2 SWAP1 PUSH4 0xFFFFFFFF AND JUMP JUMPDEST SWAP2 POP POP SWAP9 SWAP8 POP POP POP POP POP POP POP POP JUMP JUMPDEST PUSH0 PUSH1 0x20 MSTORE DUP1 PUSH0 MSTORE PUSH1 0x40 PUSH0 KECCAK256 PUSH0 SWAP2 POP SWAP1 POP DUP1 PUSH0 ADD PUSH0 SWAP1 SLOAD SWAP1 PUSH2 0x100 EXP SWAP1 DIV PUSH20 0xFFFFFFFFFFFFFFFFFFFFFFFFFFFFFFFFFFFFFFFF AND SWAP1 DUP1 PUSH1 0x1 ADD DUP1 SLOAD PUSH2 0x578 SWAP1 PUSH2 0x1D1D JUMP JUMPDEST DUP1 PUSH1 0x1F ADD PUSH1 0x20 DUP1 SWAP2 DIV MUL PUSH1 0x20 ADD PUSH1 0x40 MLOAD SWAP1 DUP2 ADD PUSH1 0x40 MSTORE DUP1 SWAP3 SWAP2 SWAP1 DUP2 DUP2 MSTORE PUSH1 0x20 ADD DUP3 DUP1 SLOAD PUSH2 0x5A4 SWAP1 PUSH2 0x1D1D JUMP JUMPDEST DUP1 ISZERO PUSH2 0x5EF JUMPI DUP1 PUSH1 0x1F LT PUSH2 0x5C6 JUMPI PUSH2 0x100 DUP1 DUP4 SLOAD DIV MUL DUP4 MSTORE SWAP2 PUSH1 0x20 ADD SWAP2 PUSH2 0x5EF JUMP JUMPDEST DUP3 ADD SWAP2 SWAP1 PUSH0 MSTORE PUSH1 0x20 PUSH0 KECCAK256 SWAP1 JUMPDEST DUP2 SLOAD DUP2 MSTORE SWAP1 PUSH1 0x1 ADD SWAP1 PUSH1 0x20 ADD DUP1 DUP4 GT PUSH2 0x5D2 JUMPI DUP3 SWAP1 SUB PUSH1 0x1F AND DUP3 ADD SWAP2 JUMPDEST POP POP POP POP POP SWAP1 DUP1 PUSH1 0x2 ADD DUP1 SLOAD PUSH2 0x604 SWAP1 PUSH2 0x1D1D JUMP JUMPDEST DUP1 PUSH1 0x1F ADD PUSH1 0x20 DUP1 SWAP2 DIV MUL PUSH1 0x20 ADD PUSH1 0x40 MLOAD SWAP1 DUP2 ADD PUSH1 0x40 MSTORE DUP1 SWAP3 SWAP2 SWAP1 DUP2 DUP2 MSTORE PUSH1 0x20 ADD DUP3 DUP1 SLOAD PUSH2 0x630 SWAP1 PUSH2 0x1D1D JUMP JUMPDEST DUP1 ISZERO PUSH2 0x67B JUMPI DUP1 PUSH1 0x1F LT PUSH2 0x652 JUMPI PUSH2 0x100 DUP1 DUP4 SLOAD DIV MUL DUP4 MSTORE SWAP2 PUSH1 0x20 ADD SWAP2 PUSH2 0x67B JUMP JUMPDEST DUP3 ADD SWAP2 SWAP1 PUSH0 MSTORE PUSH1 0x20 PUSH0 KECCAK256 SWAP1 JUMPDEST DUP2 SLOAD DUP2 MSTORE SWAP1 PUSH1 0x1 ADD SWAP1 PUSH1 0x20 ADD DUP1 DUP4 GT PUSH2 0x65E JUMPI DUP3 SWAP1 SUB PUSH1 0x1F AND DUP3 ADD SWAP2 JUMPDEST POP POP POP POP POP SWAP1 DUP1 PUSH1 0x3 ADD SLOAD SWAP1 DUP1 PUSH1 0x4 ADD SLOAD SWAP1 DUP1 PUSH1 0x5 ADD DUP1 SLOAD PUSH2 0x69C SWAP1 PUSH2 0x1D1D JUMP JUMPDEST DUP1 PUSH1 0x1F ADD PUSH1 0x20 DUP1 SWAP2 DIV MUL PUSH1 0x20 ADD PUSH1 0x40 MLOAD SWAP1 DUP2 ADD PUSH1 0x40 MSTORE DUP1 SWAP3 SWAP2 SWAP1 DUP2 DUP2 MSTORE PUSH1 0x20 ADD DUP3 DUP1 SLOAD PUSH2 0x6C8 SWAP1 PUSH2 0x1D1D JUMP JUMPDEST DUP1 ISZERO PUSH2 0x713 JUMPI DUP1 PUSH1 0x1F LT PUSH2 0x6EA JUMPI PUSH2 0x100 DUP1 DUP4 SLOAD DIV MUL DUP4 MSTORE SWAP2 PUSH1 0x20 ADD SWAP2 PUSH2 0x713 JUMP JUMPDEST DUP3 ADD SWAP2 SWAP1 PUSH0 MSTORE PUSH1 0x20 PUSH0 KECCAK256 SWAP1 JUMPDEST DUP2 SLOAD DUP2 MSTORE SWAP1 PUSH1 0x1 ADD SWAP1 PUSH1 0x20 ADD DUP1 DUP4 GT PUSH2 0x6F6 JUMPI DUP3 SWAP1 SUB PUSH1 0x1F AND DUP3 ADD SWAP2 JUMPDEST POP POP POP POP POP SWAP1 DUP1 PUSH1 0x6 ADD PUSH0 SWAP1 SLOAD SWAP1 PUSH2 0x100 EXP SWAP1 DIV PUSH1 0xFF AND SWAP1 POP DUP8 JUMP JUMPDEST PUSH0 CALLVALUE GT PUSH2 0x771 JUMPI PUSH1 0x40 MLOAD PUSH32 0x8C379A000000000000000000000000000000000000000000000000000000000 DUP2 MSTORE PUSH1 0x4 ADD PUSH2 0x768 SWAP1 PUSH2 0x2027 JUMP JUMPDEST PUSH1 0x40 MLOAD DUP1 SWAP2 SUB SWAP1 REVERT JUMPDEST PUSH0 DUP1 PUSH0 DUP4 DUP2 MSTORE PUSH1 0x20 ADD SWAP1 DUP2 MSTORE PUSH1 0x20 ADD PUSH0 KECCAK256 SWAP1 POP PUSH0 PUSH20 0xFFFFFFFFFFFFFFFFFFFFFFFFFFFFFFFFFFFFFFFF AND DUP2 PUSH0 ADD PUSH0 SWAP1 SLOAD SWAP1 PUSH2 0x100 EXP SWAP1 DIV PUSH20 0xFFFFFFFFFFFFFFFFFFFFFFFFFFFFFFFFFFFFFFFF AND PUSH20 0xFFFFFFFFFFFFFFFFFFFFFFFFFFFFFFFFFFFFFFFF AND SUB PUSH2 0x814 JUMPI PUSH1 0x40 MLOAD PUSH32 0x8C379A000000000000000000000000000000000000000000000000000000000 DUP2 MSTORE PUSH1 0x4 ADD PUSH2 0x80B SWAP1 PUSH2 0x208F JUMP JUMPDEST PUSH1 0x40 MLOAD DUP1 SWAP2 SUB SWAP1 REVERT JUMPDEST DUP1 PUSH1 0x6 ADD PUSH0 SWAP1 SLOAD SWAP1 PUSH2 0x100 EXP SWAP1 DIV PUSH1 0xFF AND ISZERO PUSH2 0x865 JUMPI PUSH1 0x40 MLOAD PUSH32 0x8C379A000000000000000000000000000000000000000000000000000000000 DUP2 MSTORE PUSH1 0x4 ADD PUSH2 0x85C SWAP1 PUSH2 0x20F7 JUMP JUMPDEST PUSH1 0x40 MLOAD DUP1 SWAP2 SUB SWAP1 REVERT JUMPDEST PUSH0 DUP2 PUSH1 0x4 ADD SLOAD SWAP1 POP DUP2 PUSH1 0x7 ADD CALLER SWAP1 DUP1 PUSH1 0x1 DUP2 SLOAD ADD DUP1 DUP3 SSTORE DUP1 SWAP2 POP POP PUSH1 0x1 SWAP1 SUB SWAP1 PUSH0 MSTORE PUSH1 0x20 PUSH0 KECCAK256 ADD PUSH0 SWAP1 SWAP2 SWAP1 SWAP2 SWAP1 SWAP2 PUSH2 0x100 EXP DUP2 SLOAD DUP2 PUSH20 0xFFFFFFFFFFFFFFFFFFFFFFFFFFFFFFFFFFFFFFFF MUL NOT AND SWAP1 DUP4 PUSH20 0xFFFFFFFFFFFFFFFFFFFFFFFFFFFFFFFFFFFFFFFF AND MUL OR SWAP1 SSTORE POP DUP2 PUSH1 0x8 ADD CALLVALUE SWAP1 DUP1 PUSH1 0x1 DUP2 SLOAD ADD DUP1 DUP3 SSTORE DUP1 SWAP2 POP POP PUSH1 0x1 SWAP1 SUB SWAP1 PUSH0 MSTORE PUSH1 0x20 PUSH0 KECCAK256 ADD PUSH0 SWAP1 SWAP2 SWAP1 SWAP2 SWAP1 SWAP2 POP SSTORE PUSH2 0x90E CALLVALUE DUP4 PUSH1 0x4 ADD SLOAD PUSH2 0x115E SWAP1 SWAP2 SWAP1 PUSH4 0xFFFFFFFF AND JUMP JUMPDEST DUP3 PUSH1 0x4 ADD DUP2 SWAP1 SSTORE POP DUP2 PUSH1 0x3 ADD SLOAD DUP3 PUSH1 0x4 ADD SLOAD LT PUSH2 0xA4E JUMPI PUSH1 0x1 DUP3 PUSH1 0x6 ADD PUSH0 PUSH2 0x100 EXP DUP2 SLOAD DUP2 PUSH1 0xFF MUL NOT AND SWAP1 DUP4 ISZERO ISZERO MUL OR SWAP1 SSTORE POP PUSH0 DUP3 PUSH0 ADD PUSH0 SWAP1 SLOAD SWAP1 PUSH2 0x100 EXP SWAP1 DIV PUSH20 0xFFFFFFFFFFFFFFFFFFFFFFFFFFFFFFFFFFFFFFFF AND PUSH20 0xFFFFFFFFFFFFFFFFFFFFFFFFFFFFFFFFFFFFFFFF AND DUP4 PUSH1 0x4 ADD SLOAD PUSH1 0x40 MLOAD PUSH2 0x98C SWAP1 PUSH2 0x2142 JUMP JUMPDEST PUSH0 PUSH1 0x40 MLOAD DUP1 DUP4 SUB DUP2 DUP6 DUP8 GAS CALL SWAP3 POP POP POP RETURNDATASIZE DUP1 PUSH0 DUP2 EQ PUSH2 0x9C6 JUMPI PUSH1 0x40 MLOAD SWAP2 POP PUSH1 0x1F NOT PUSH1 0x3F RETURNDATASIZE ADD AND DUP3 ADD PUSH1 0x40 MSTORE RETURNDATASIZE DUP3 MSTORE RETURNDATASIZE PUSH0 PUSH1 0x20 DUP5 ADD RETURNDATACOPY PUSH2 0x9CB JUMP JUMPDEST PUSH1 0x60 SWAP2 POP JUMPDEST POP POP SWAP1 POP DUP1 PUSH2 0xA0F JUMPI PUSH1 0x40 MLOAD PUSH32 0x8C379A000000000000000000000000000000000000000000000000000000000 DUP2 MSTORE PUSH1 0x4 ADD PUSH2 0xA06 SWAP1 PUSH2 0x21C6 JUMP JUMPDEST PUSH1 0x40 MLOAD DUP1 SWAP2 SUB SWAP1 REVERT JUMPDEST PUSH32 0x9222AE681F845A771921CE4B3AD4E0EDBAD84581DB89F9B964C68C7B72E3E26A DUP5 DUP5 PUSH1 0x4 ADD SLOAD PUSH1 0x40 MLOAD PUSH2 0xA44 SWAP3 SWAP2 SWAP1 PUSH2 0x21E4 JUMP JUMPDEST PUSH1 0x40 MLOAD DUP1 SWAP2 SUB SWAP1 LOG1 POP JUMPDEST PUSH2 0xA61 CALLVALUE DUP3 PUSH2 0x115E SWAP1 SWAP2 SWAP1 PUSH4 0xFFFFFFFF AND JUMP JUMPDEST DUP3 PUSH1 0x4 ADD SLOAD EQ PUSH2 0xA74 JUMPI PUSH2 0xA73 PUSH2 0x220B JUMP JUMPDEST JUMPDEST POP POP POP JUMP JUMPDEST PUSH0 DUP1 PUSH0 DUP4 DUP2 MSTORE PUSH1 0x20 ADD SWAP1 DUP2 MSTORE PUSH1 0x20 ADD PUSH0 KECCAK256 SWAP1 POP DUP1 PUSH0 ADD PUSH0 SWAP1 SLOAD SWAP1 PUSH2 0x100 EXP SWAP1 DIV PUSH20 0xFFFFFFFFFFFFFFFFFFFFFFFFFFFFFFFFFFFFFFFF AND PUSH20 0xFFFFFFFFFFFFFFFFFFFFFFFFFFFFFFFFFFFFFFFF AND CALLER PUSH20 0xFFFFFFFFFFFFFFFFFFFFFFFFFFFFFFFFFFFFFFFF AND EQ PUSH2 0xB1C JUMPI PUSH1 0x40 MLOAD PUSH32 0x8C379A000000000000000000000000000000000000000000000000000000000 DUP2 MSTORE PUSH1 0x4 ADD PUSH2 0xB13 SWAP1 PUSH2 0x22A8 JUMP JUMPDEST PUSH1 0x40 MLOAD DUP1 SWAP2 SUB SWAP1 REVERT JUMPDEST PUSH0 DUP2 PUSH1 0x4 ADD SLOAD EQ PUSH2 0xB62 JUMPI PUSH1 0x40 MLOAD PUSH32 0x8C379A000000000000000000000000000000000000000000000000000000000 DUP2 MSTORE PUSH1 0x4 ADD PUSH2 0xB59 SWAP1 PUSH2 0x2336 JUMP JUMPDEST PUSH1 0x40 MLOAD DUP1 SWAP2 SUB SWAP1 REVERT JUMPDEST PUSH0 DUP1 DUP4 DUP2 MSTORE PUSH1 0x20 ADD SWAP1 DUP2 MSTORE PUSH1 0x20 ADD PUSH0 KECCAK256 PUSH0 DUP1 DUP3 ADD PUSH0 PUSH2 0x100 EXP DUP2 SLOAD SWAP1 PUSH20 0xFFFFFFFFFFFFFFFFFFFFFFFFFFFFFFFFFFFFFFFF MUL NOT AND SWAP1 SSTORE PUSH1 0x1 DUP3 ADD PUSH0 PUSH2 0xBA7 SWAP2 SWAP1 PUSH2 0x1188 JUMP JUMPDEST PUSH1 0x2 DUP3 ADD PUSH0 PUSH2 0xBB6 SWAP2 SWAP1 PUSH2 0x1188 JUMP JUMPDEST PUSH1 0x3 DUP3 ADD PUSH0 SWAP1 SSTORE PUSH1 0x4 DUP3 ADD PUSH0 SWAP1 SSTORE PUSH1 0x5 DUP3 ADD PUSH0 PUSH2 0xBD3 SWAP2 SWAP1 PUSH2 0x1188 JUMP JUMPDEST PUSH1 0x6 DUP3 ADD PUSH0 PUSH2 0x100 EXP DUP2 SLOAD SWAP1 PUSH1 0xFF MUL NOT AND SWAP1 SSTORE PUSH1 0x7 DUP3 ADD PUSH0 PUSH2 0xBF5 SWAP2 SWAP1 PUSH2 0x11C5 JUMP JUMPDEST PUSH1 0x8 DUP3 ADD PUSH0 PUSH2 0xC04 SWAP2 SWAP1 PUSH2 0x11E3 JUMP JUMPDEST POP POP POP POP JUMP JUMPDEST PUSH1 0x60 PUSH0 PUSH1 0x1 SLOAD PUSH8 0xFFFFFFFFFFFFFFFF DUP2 GT ISZERO PUSH2 0xC29 JUMPI PUSH2 0xC28 PUSH2 0x1CC3 JUMP JUMPDEST JUMPDEST PUSH1 0x40 MLOAD SWAP1 DUP1 DUP3 MSTORE DUP1 PUSH1 0x20 MUL PUSH1 0x20 ADD DUP3 ADD PUSH1 0x40 MSTORE DUP1 ISZERO PUSH2 0xC62 JUMPI DUP2 PUSH1 0x20 ADD JUMPDEST PUSH2 0xC4F PUSH2 0x1201 JUMP JUMPDEST DUP2 MSTORE PUSH1 0x20 ADD SWAP1 PUSH1 0x1 SWAP1 SUB SWAP1 DUP2 PUSH2 0xC47 JUMPI SWAP1 POP JUMPDEST POP SWAP1 POP PUSH0 JUMPDEST PUSH1 0x1 SLOAD DUP2 LT ISZERO PUSH2 0xFD0 JUMPI PUSH0 DUP1 PUSH0 DUP4 DUP2 MSTORE PUSH1 0x20 ADD SWAP1 DUP2 MSTORE PUSH1 0x20 ADD PUSH0 KECCAK256 SWAP1 POP DUP1 PUSH1 0x40 MLOAD DUP1 PUSH2 0x120 ADD PUSH1 0x40 MSTORE SWAP1 DUP2 PUSH0 DUP3 ADD PUSH0 SWAP1 SLOAD SWAP1 PUSH2 0x100 EXP SWAP1 DIV PUSH20 0xFFFFFFFFFFFFFFFFFFFFFFFFFFFFFFFFFFFFFFFF AND PUSH20 0xFFFFFFFFFFFFFFFFFFFFFFFFFFFFFFFFFFFFFFFF AND PUSH20 0xFFFFFFFFFFFFFFFFFFFFFFFFFFFFFFFFFFFFFFFF AND DUP2 MSTORE PUSH1 0x20 ADD PUSH1 0x1 DUP3 ADD DUP1 SLOAD PUSH2 0xCF5 SWAP1 PUSH2 0x1D1D JUMP JUMPDEST DUP1 PUSH1 0x1F ADD PUSH1 0x20 DUP1 SWAP2 DIV MUL PUSH1 0x20 ADD PUSH1 0x40 MLOAD SWAP1 DUP2 ADD PUSH1 0x40 MSTORE DUP1 SWAP3 SWAP2 SWAP1 DUP2 DUP2 MSTORE PUSH1 0x20 ADD DUP3 DUP1 SLOAD PUSH2 0xD21 SWAP1 PUSH2 0x1D1D JUMP JUMPDEST DUP1 ISZERO PUSH2 0xD6C JUMPI DUP1 PUSH1 0x1F LT PUSH2 0xD43 JUMPI PUSH2 0x100 DUP1 DUP4 SLOAD DIV MUL DUP4 MSTORE SWAP2 PUSH1 0x20 ADD SWAP2 PUSH2 0xD6C JUMP JUMPDEST DUP3 ADD SWAP2 SWAP1 PUSH0 MSTORE PUSH1 0x20 PUSH0 KECCAK256 SWAP1 JUMPDEST DUP2 SLOAD DUP2 MSTORE SWAP1 PUSH1 0x1 ADD SWAP1 PUSH1 0x20 ADD DUP1 DUP4 GT PUSH2 0xD4F JUMPI DUP3 SWAP1 SUB PUSH1 0x1F AND DUP3 ADD SWAP2 JUMPDEST POP POP POP POP POP DUP2 MSTORE PUSH1 0x20 ADD PUSH1 0x2 DUP3 ADD DUP1 SLOAD PUSH2 0xD85 SWAP1 PUSH2 0x1D1D JUMP JUMPDEST DUP1 PUSH1 0x1F ADD PUSH1 0x20 DUP1 SWAP2 DIV MUL PUSH1 0x20 ADD PUSH1 0x40 MLOAD SWAP1 DUP2 ADD PUSH1 0x40 MSTORE DUP1 SWAP3 SWAP2 SWAP1 DUP2 DUP2 MSTORE PUSH1 0x20 ADD DUP3 DUP1 SLOAD PUSH2 0xDB1 SWAP1 PUSH2 0x1D1D JUMP JUMPDEST DUP1 ISZERO PUSH2 0xDFC JUMPI DUP1 PUSH1 0x1F LT PUSH2 0xDD3 JUMPI PUSH2 0x100 DUP1 DUP4 SLOAD DIV MUL DUP4 MSTORE SWAP2 PUSH1 0x20 ADD SWAP2 PUSH2 0xDFC JUMP JUMPDEST DUP3 ADD SWAP2 SWAP1 PUSH0 MSTORE PUSH1 0x20 PUSH0 KECCAK256 SWAP1 JUMPDEST DUP2 SLOAD DUP2 MSTORE SWAP1 PUSH1 0x1 ADD SWAP1 PUSH1 0x20 ADD DUP1 DUP4 GT PUSH2 0xDDF JUMPI DUP3 SWAP1 SUB PUSH1 0x1F AND DUP3 ADD SWAP2 JUMPDEST POP POP POP POP POP DUP2 MSTORE PUSH1 0x20 ADD PUSH1 0x3 DUP3 ADD SLOAD DUP2 MSTORE PUSH1 0x20 ADD PUSH1 0x4 DUP3 ADD SLOAD DUP2 MSTORE PUSH1 0x20 ADD PUSH1 0x5 DUP3 ADD DUP1 SLOAD PUSH2 0xE29 SWAP1 PUSH2 0x1D1D JUMP JUMPDEST DUP1 PUSH1 0x1F ADD PUSH1 0x20 DUP1 SWAP2 DIV MUL PUSH1 0x20 ADD PUSH1 0x40 MLOAD SWAP1 DUP2 ADD PUSH1 0x40 MSTORE DUP1 SWAP3 SWAP2 SWAP1 DUP2 DUP2 MSTORE PUSH1 0x20 ADD DUP3 DUP1 SLOAD PUSH2 0xE55 SWAP1 PUSH2 0x1D1D JUMP JUMPDEST DUP1 ISZERO PUSH2 0xEA0 JUMPI DUP1 PUSH1 0x1F LT PUSH2 0xE77 JUMPI PUSH2 0x100 DUP1 DUP4 SLOAD DIV MUL DUP4 MSTORE SWAP2 PUSH1 0x20 ADD SWAP2 PUSH2 0xEA0 JUMP JUMPDEST DUP3 ADD SWAP2 SWAP1 PUSH0 MSTORE PUSH1 0x20 PUSH0 KECCAK256 SWAP1 JUMPDEST DUP2 SLOAD DUP2 MSTORE SWAP1 PUSH1 0x1 ADD SWAP1 PUSH1 0x20 ADD DUP1 DUP4 GT PUSH2 0xE83 JUMPI DUP3 SWAP1 SUB PUSH1 0x1F AND DUP3 ADD SWAP2 JUMPDEST POP POP POP POP POP DUP2 MSTORE PUSH1 0x20 ADD PUSH1 0x6 DUP3 ADD PUSH0 SWAP1 SLOAD SWAP1 PUSH2 0x100 EXP SWAP1 DIV PUSH1 0xFF AND ISZERO ISZERO ISZERO ISZERO DUP2 MSTORE PUSH1 0x20 ADD PUSH1 0x7 DUP3 ADD DUP1 SLOAD DUP1 PUSH1 0x20 MUL PUSH1 0x20 ADD PUSH1 0x40 MLOAD SWAP1 DUP2 ADD PUSH1 0x40 MSTORE DUP1 SWAP3 SWAP2 SWAP1 DUP2 DUP2 MSTORE PUSH1 0x20 ADD DUP3 DUP1 SLOAD DUP1 ISZERO PUSH2 0xF45 JUMPI PUSH1 0x20 MUL DUP3 ADD SWAP2 SWAP1 PUSH0 MSTORE PUSH1 0x20 PUSH0 KECCAK256 SWAP1 JUMPDEST DUP2 PUSH0 SWAP1 SLOAD SWAP1 PUSH2 0x100 EXP SWAP1 DIV PUSH20 0xFFFFFFFFFFFFFFFFFFFFFFFFFFFFFFFFFFFFFFFF AND PUSH20 0xFFFFFFFFFFFFFFFFFFFFFFFFFFFFFFFFFFFFFFFF AND DUP2 MSTORE PUSH1 0x20 ADD SWAP1 PUSH1 0x1 ADD SWAP1 DUP1 DUP4 GT PUSH2 0xEFC JUMPI JUMPDEST POP POP POP POP POP DUP2 MSTORE PUSH1 0x20 ADD PUSH1 0x8 DUP3 ADD DUP1 SLOAD DUP1 PUSH1 0x20 MUL PUSH1 0x20 ADD PUSH1 0x40 MLOAD SWAP1 DUP2 ADD PUSH1 0x40 MSTORE DUP1 SWAP3 SWAP2 SWAP1 DUP2 DUP2 MSTORE PUSH1 0x20 ADD DUP3 DUP1 SLOAD DUP1 ISZERO PUSH2 0xF9B JUMPI PUSH1 0x20 MUL DUP3 ADD SWAP2 SWAP1 PUSH0 MSTORE PUSH1 0x20 PUSH0 KECCAK256 SWAP1 JUMPDEST DUP2 SLOAD DUP2 MSTORE PUSH1 0x20 ADD SWAP1 PUSH1 0x1 ADD SWAP1 DUP1 DUP4 GT PUSH2 0xF87 JUMPI JUMPDEST POP POP POP POP POP DUP2 MSTORE POP POP DUP4 DUP4 DUP2 MLOAD DUP2 LT PUSH2 0xFB7 JUMPI PUSH2 0xFB6 PUSH2 0x2354 JUMP JUMPDEST JUMPDEST PUSH1 0x20 MUL PUSH1 0x20 ADD ADD DUP2 SWAP1 MSTORE POP POP DUP1 DUP1 PUSH1 0x1 ADD SWAP2 POP POP PUSH2 0xC67 JUMP JUMPDEST POP DUP1 SWAP2 POP POP SWAP1 JUMP JUMPDEST PUSH0 DUP1 PUSH0 DUP11 DUP2 MSTORE PUSH1 0x20 ADD SWAP1 DUP2 MSTORE PUSH1 0x20 ADD PUSH0 KECCAK256 SWAP1 POP DUP1 PUSH0 ADD PUSH0 SWAP1 SLOAD SWAP1 PUSH2 0x100 EXP SWAP1 DIV PUSH20 0xFFFFFFFFFFFFFFFFFFFFFFFFFFFFFFFFFFFFFFFF AND PUSH20 0xFFFFFFFFFFFFFFFFFFFFFFFFFFFFFFFFFFFFFFFF AND CALLER PUSH20 0xFFFFFFFFFFFFFFFFFFFFFFFFFFFFFFFFFFFFFFFF AND EQ PUSH2 0x107B JUMPI PUSH1 0x40 MLOAD PUSH32 0x8C379A000000000000000000000000000000000000000000000000000000000 DUP2 MSTORE PUSH1 0x4 ADD PUSH2 0x1072 SWAP1 PUSH2 0x23F1 JUMP JUMPDEST PUSH1 0x40 MLOAD DUP1 SWAP2 SUB SWAP1 REVERT JUMPDEST PUSH0 DUP5 GT PUSH2 0x10BD JUMPI PUSH1 0x40 MLOAD PUSH32 0x8C379A000000000000000000000000000000000000000000000000000000000 DUP2 MSTORE PUSH1 0x4 ADD PUSH2 0x10B4 SWAP1 PUSH2 0x1B63 JUMP JUMPDEST PUSH1 0x40 MLOAD DUP1 SWAP2 SUB SWAP1 REVERT JUMPDEST DUP1 PUSH1 0x6 ADD PUSH0 SWAP1 SLOAD SWAP1 PUSH2 0x100 EXP SWAP1 DIV PUSH1 0xFF AND ISZERO PUSH2 0x110E JUMPI PUSH1 0x40 MLOAD PUSH32 0x8C379A000000000000000000000000000000000000000000000000000000000 DUP2 MSTORE PUSH1 0x4 ADD PUSH2 0x1105 SWAP1 PUSH2 0x247F JUMP JUMPDEST PUSH1 0x40 MLOAD DUP1 SWAP2 SUB SWAP1 REVERT JUMPDEST DUP8 DUP8 DUP3 PUSH1 0x1 ADD SWAP2 DUP3 PUSH2 0x1121 SWAP3 SWAP2 SWAP1 PUSH2 0x1EEA JUMP JUMPDEST POP DUP6 DUP6 DUP3 PUSH1 0x2 ADD SWAP2 DUP3 PUSH2 0x1135 SWAP3 SWAP2 SWAP1 PUSH2 0x1EEA JUMP JUMPDEST POP DUP4 DUP2 PUSH1 0x3 ADD DUP2 SWAP1 SSTORE POP DUP3 DUP3 DUP3 PUSH1 0x5 ADD SWAP2 DUP3 PUSH2 0x1152 SWAP3 SWAP2 SWAP1 PUSH2 0x1EEA JUMP JUMPDEST POP POP POP POP POP POP POP POP POP POP JUMP JUMPDEST PUSH0 DUP2 DUP4 PUSH2 0x116B SWAP2 SWAP1 PUSH2 0x24CA JUMP JUMPDEST SWAP1 POP SWAP3 SWAP2 POP POP JUMP JUMPDEST PUSH0 DUP2 DUP4 PUSH2 0x1180 SWAP2 SWAP1 PUSH2 0x24FD JUMP JUMPDEST SWAP1 POP SWAP3 SWAP2 POP POP JUMP JUMPDEST POP DUP1 SLOAD PUSH2 0x1194 SWAP1 PUSH2 0x1D1D JUMP JUMPDEST PUSH0 DUP3 SSTORE DUP1 PUSH1 0x1F LT PUSH2 0x11A5 JUMPI POP PUSH2 0x11C2 JUMP JUMPDEST PUSH1 0x1F ADD PUSH1 0x20 SWAP1 DIV SWAP1 PUSH0 MSTORE PUSH1 0x20 PUSH0 KECCAK256 SWAP1 DUP2 ADD SWAP1 PUSH2 0x11C1 SWAP2 SWAP1 PUSH2 0x1261 JUMP JUMPDEST JUMPDEST POP JUMP JUMPDEST POP DUP1 SLOAD PUSH0 DUP3 SSTORE SWAP1 PUSH0 MSTORE PUSH1 0x20 PUSH0 KECCAK256 SWAP1 DUP2 ADD SWAP1 PUSH2 0x11E0 SWAP2 SWAP1 PUSH2 0x1261 JUMP JUMPDEST POP JUMP JUMPDEST POP DUP1 SLOAD PUSH0 DUP3 SSTORE SWAP1 PUSH0 MSTORE PUSH1 0x20 PUSH0 KECCAK256 SWAP1 DUP2 ADD SWAP1 PUSH2 0x11FE SWAP2 SWAP1 PUSH2 0x1261 JUMP JUMPDEST POP JUMP JUMPDEST PUSH1 0x40 MLOAD DUP1 PUSH2 0x120 ADD PUSH1 0x40 MSTORE DUP1 PUSH0 PUSH20 0xFFFFFFFFFFFFFFFFFFFFFFFFFFFFFFFFFFFFFFFF AND DUP2 MSTORE PUSH1 0x20 ADD PUSH1 0x60 DUP2 MSTORE PUSH1 0x20 ADD PUSH1 0x60 DUP2 MSTORE PUSH1 0x20 ADD PUSH0 DUP2 MSTORE PUSH1 0x20 ADD PUSH0 DUP2 MSTORE PUSH1 0x20 ADD PUSH1 0x60 DUP2 MSTORE PUSH1 0x20 ADD PUSH0 ISZERO ISZERO DUP2 MSTORE PUSH1 0x20 ADD PUSH1 0x60 DUP2 MSTORE PUSH1 0x20 ADD PUSH1 0x60 DUP2 MSTORE POP SWAP1 JUMP JUMPDEST JUMPDEST DUP1 DUP3 GT ISZERO PUSH2 0x1278 JUMPI PUSH0 DUP2 PUSH0 SWAP1 SSTORE POP PUSH1 0x1 ADD PUSH2 0x1262 JUMP JUMPDEST POP SWAP1 JUMP JUMPDEST PUSH0 DUP2 SWAP1 POP SWAP2 SWAP1 POP JUMP JUMPDEST PUSH2 0x128E DUP2 PUSH2 0x127C JUMP JUMPDEST DUP3 MSTORE POP POP JUMP JUMPDEST PUSH0 PUSH1 0x20 DUP3 ADD SWAP1 POP PUSH2 0x12A7 PUSH0 DUP4 ADD DUP5 PUSH2 0x1285 JUMP JUMPDEST SWAP3 SWAP2 POP POP JUMP JUMPDEST PUSH0 DUP1 REVERT JUMPDEST PUSH0 DUP1 REVERT JUMPDEST PUSH2 0x12BE DUP2 PUSH2 0x127C JUMP JUMPDEST DUP2 EQ PUSH2 0x12C8 JUMPI PUSH0 DUP1 REVERT JUMPDEST POP JUMP JUMPDEST PUSH0 DUP2 CALLDATALOAD SWAP1 POP PUSH2 0x12D9 DUP2 PUSH2 0x12B5 JUMP JUMPDEST SWAP3 SWAP2 POP POP JUMP JUMPDEST PUSH0 PUSH1 0x20 DUP3 DUP5 SUB SLT ISZERO PUSH2 0x12F4 JUMPI PUSH2 0x12F3 PUSH2 0x12AD JUMP JUMPDEST JUMPDEST PUSH0 PUSH2 0x1301 DUP5 DUP3 DUP6 ADD PUSH2 0x12CB JUMP JUMPDEST SWAP2 POP POP SWAP3 SWAP2 POP POP JUMP JUMPDEST PUSH0 DUP2 MLOAD SWAP1 POP SWAP2 SWAP1 POP JUMP JUMPDEST PUSH0 DUP3 DUP3 MSTORE PUSH1 0x20 DUP3 ADD SWAP1 POP SWAP3 SWAP2 POP POP JUMP JUMPDEST PUSH0 DUP2 SWAP1 POP PUSH1 0x20 DUP3 ADD SWAP1 POP SWAP2 SWAP1 POP JUMP JUMPDEST PUSH0 PUSH20 0xFFFFFFFFFFFFFFFFFFFFFFFFFFFFFFFFFFFFFFFF DUP3 AND SWAP1 POP SWAP2 SWAP1 POP JUMP JUMPDEST PUSH0 PUSH2 0x135C DUP3 PUSH2 0x1333 JUMP JUMPDEST SWAP1 POP SWAP2 SWAP1 POP JUMP JUMPDEST PUSH2 0x136C DUP2 PUSH2 0x1352 JUMP JUMPDEST DUP3 MSTORE POP POP JUMP JUMPDEST PUSH0 PUSH2 0x137D DUP4 DUP4 PUSH2 0x1363 JUMP JUMPDEST PUSH1 0x20 DUP4 ADD SWAP1 POP SWAP3 SWAP2 POP POP JUMP JUMPDEST PUSH0 PUSH1 0x20 DUP3 ADD SWAP1 POP SWAP2 SWAP1 POP JUMP JUMPDEST PUSH0 PUSH2 0x139F DUP3 PUSH2 0x130A JUMP JUMPDEST PUSH2 0x13A9 DUP2 DUP6 PUSH2 0x1314 JUMP JUMPDEST SWAP4 POP PUSH2 0x13B4 DUP4 PUSH2 0x1324 JUMP JUMPDEST DUP1 PUSH0 JUMPDEST DUP4 DUP2 LT ISZERO PUSH2 0x13E4 JUMPI DUP2 MLOAD PUSH2 0x13CB DUP9 DUP3 PUSH2 0x1372 JUMP JUMPDEST SWAP8 POP PUSH2 0x13D6 DUP4 PUSH2 0x1389 JUMP JUMPDEST SWAP3 POP POP PUSH1 0x1 DUP2 ADD SWAP1 POP PUSH2 0x13B7 JUMP JUMPDEST POP DUP6 SWAP4 POP POP POP POP SWAP3 SWAP2 POP POP JUMP JUMPDEST PUSH0 DUP2 MLOAD SWAP1 POP SWAP2 SWAP1 POP JUMP JUMPDEST PUSH0 DUP3 DUP3 MSTORE PUSH1 0x20 DUP3 ADD SWAP1 POP SWAP3 SWAP2 POP POP JUMP JUMPDEST PUSH0 DUP2 SWAP1 POP PUSH1 0x20 DUP3 ADD SWAP1 POP SWAP2 SWAP1 POP JUMP JUMPDEST PUSH2 0x1423 DUP2 PUSH2 0x127C JUMP JUMPDEST DUP3 MSTORE POP POP JUMP JUMPDEST PUSH0 PUSH2 0x1434 DUP4 DUP4 PUSH2 0x141A JUMP JUMPDEST PUSH1 0x20 DUP4 ADD SWAP1 POP SWAP3 SWAP2 POP POP JUMP JUMPDEST PUSH0 PUSH1 0x20 DUP3 ADD SWAP1 POP SWAP2 SWAP1 POP JUMP JUMPDEST PUSH0 PUSH2 0x1456 DUP3 PUSH2 0x13F1 JUMP JUMPDEST PUSH2 0x1460 DUP2 DUP6 PUSH2 0x13FB JUMP JUMPDEST SWAP4 POP PUSH2 0x146B DUP4 PUSH2 0x140B JUMP JUMPDEST DUP1 PUSH0 JUMPDEST DUP4 DUP2 LT ISZERO PUSH2 0x149B JUMPI DUP2 MLOAD PUSH2 0x1482 DUP9 DUP3 PUSH2 0x1429 JUMP JUMPDEST SWAP8 POP PUSH2 0x148D DUP4 PUSH2 0x1440 JUMP JUMPDEST SWAP3 POP POP PUSH1 0x1 DUP2 ADD SWAP1 POP PUSH2 0x146E JUMP JUMPDEST POP DUP6 SWAP4 POP POP POP POP SWAP3 SWAP2 POP POP JUMP JUMPDEST PUSH0 PUSH1 0x40 DUP3 ADD SWAP1 POP DUP2 DUP2 SUB PUSH0 DUP4 ADD MSTORE PUSH2 0x14C0 DUP2 DUP6 PUSH2 0x1395 JUMP JUMPDEST SWAP1 POP DUP2 DUP2 SUB PUSH1 0x20 DUP4 ADD MSTORE PUSH2 0x14D4 DUP2 DUP5 PUSH2 0x144C JUMP JUMPDEST SWAP1 POP SWAP4 SWAP3 POP POP POP JUMP JUMPDEST PUSH2 0x14E6 DUP2 PUSH2 0x1352 JUMP JUMPDEST DUP2 EQ PUSH2 0x14F0 JUMPI PUSH0 DUP1 REVERT JUMPDEST POP JUMP JUMPDEST PUSH0 DUP2 CALLDATALOAD SWAP1 POP PUSH2 0x1501 DUP2 PUSH2 0x14DD JUMP JUMPDEST SWAP3 SWAP2 POP POP JUMP JUMPDEST PUSH0 DUP1 REVERT JUMPDEST PUSH0 DUP1 REVERT JUMPDEST PUSH0 DUP1 REVERT JUMPDEST PUSH0 DUP1 DUP4 PUSH1 0x1F DUP5 ADD SLT PUSH2 0x1528 JUMPI PUSH2 0x1527 PUSH2 0x1507 JUMP JUMPDEST JUMPDEST DUP3 CALLDATALOAD SWAP1 POP PUSH8 0xFFFFFFFFFFFFFFFF DUP2 GT ISZERO PUSH2 0x1545 JUMPI PUSH2 0x1544 PUSH2 0x150B JUMP JUMPDEST JUMPDEST PUSH1 0x20 DUP4 ADD SWAP2 POP DUP4 PUSH1 0x1 DUP3 MUL DUP4 ADD GT ISZERO PUSH2 0x1561 JUMPI PUSH2 0x1560 PUSH2 0x150F JUMP JUMPDEST JUMPDEST SWAP3 POP SWAP3 SWAP1 POP JUMP JUMPDEST PUSH0 DUP1 PUSH0 DUP1 PUSH0 DUP1 PUSH0 DUP1 PUSH1 0xA0 DUP10 DUP12 SUB SLT ISZERO PUSH2 0x1584 JUMPI PUSH2 0x1583 PUSH2 0x12AD JUMP JUMPDEST JUMPDEST PUSH0 PUSH2 0x1591 DUP12 DUP3 DUP13 ADD PUSH2 0x14F3 JUMP JUMPDEST SWAP9 POP POP PUSH1 0x20 DUP10 ADD CALLDATALOAD PUSH8 0xFFFFFFFFFFFFFFFF DUP2 GT ISZERO PUSH2 0x15B2 JUMPI PUSH2 0x15B1 PUSH2 0x12B1 JUMP JUMPDEST JUMPDEST PUSH2 0x15BE DUP12 DUP3 DUP13 ADD PUSH2 0x1513 JUMP JUMPDEST SWAP8 POP SWAP8 POP POP PUSH1 0x40 DUP10 ADD CALLDATALOAD PUSH8 0xFFFFFFFFFFFFFFFF DUP2 GT ISZERO PUSH2 0x15E1 JUMPI PUSH2 0x15E0 PUSH2 0x12B1 JUMP JUMPDEST JUMPDEST PUSH2 0x15ED DUP12 DUP3 DUP13 ADD PUSH2 0x1513 JUMP JUMPDEST SWAP6 POP SWAP6 POP POP PUSH1 0x60 PUSH2 0x1600 DUP12 DUP3 DUP13 ADD PUSH2 0x12CB JUMP JUMPDEST SWAP4 POP POP PUSH1 0x80 DUP10 ADD CALLDATALOAD PUSH8 0xFFFFFFFFFFFFFFFF DUP2 GT ISZERO PUSH2 0x1621 JUMPI PUSH2 0x1620 PUSH2 0x12B1 JUMP JUMPDEST JUMPDEST PUSH2 0x162D DUP12 DUP3 DUP13 ADD PUSH2 0x1513 JUMP JUMPDEST SWAP3 POP SWAP3 POP POP SWAP3 SWAP6 SWAP9 POP SWAP3 SWAP6 SWAP9 SWAP1 SWAP4 SWAP7 POP JUMP JUMPDEST PUSH2 0x1648 DUP2 PUSH2 0x1352 JUMP JUMPDEST DUP3 MSTORE POP POP JUMP JUMPDEST PUSH0 DUP2 MLOAD SWAP1 POP SWAP2 SWAP1 POP JUMP JUMPDEST PUSH0 DUP3 DUP3 MSTORE PUSH1 0x20 DUP3 ADD SWAP1 POP SWAP3 SWAP2 POP POP JUMP JUMPDEST DUP3 DUP2 DUP4 MCOPY PUSH0 DUP4 DUP4 ADD MSTORE POP POP POP JUMP JUMPDEST PUSH0 PUSH1 0x1F NOT PUSH1 0x1F DUP4 ADD AND SWAP1 POP SWAP2 SWAP1 POP JUMP JUMPDEST PUSH0 PUSH2 0x1690 DUP3 PUSH2 0x164E JUMP JUMPDEST PUSH2 0x169A DUP2 DUP6 PUSH2 0x1658 JUMP JUMPDEST SWAP4 POP PUSH2 0x16AA DUP2 DUP6 PUSH1 0x20 DUP7 ADD PUSH2 0x1668 JUMP JUMPDEST PUSH2 0x16B3 DUP2 PUSH2 0x1676 JUMP JUMPDEST DUP5 ADD SWAP2 POP POP SWAP3 SWAP2 POP POP JUMP JUMPDEST PUSH0 DUP2 ISZERO ISZERO SWAP1 POP SWAP2 SWAP1 POP JUMP JUMPDEST PUSH2 0x16D2 DUP2 PUSH2 0x16BE JUMP JUMPDEST DUP3 MSTORE POP POP JUMP JUMPDEST PUSH0 PUSH1 0xE0 DUP3 ADD SWAP1 POP PUSH2 0x16EB PUSH0 DUP4 ADD DUP11 PUSH2 0x163F JUMP JUMPDEST DUP2 DUP2 SUB PUSH1 0x20 DUP4 ADD MSTORE PUSH2 0x16FD DUP2 DUP10 PUSH2 0x1686 JUMP JUMPDEST SWAP1 POP DUP2 DUP2 SUB PUSH1 0x40 DUP4 ADD MSTORE PUSH2 0x1711 DUP2 DUP9 PUSH2 0x1686 JUMP JUMPDEST SWAP1 POP PUSH2 0x1720 PUSH1 0x60 DUP4 ADD DUP8 PUSH2 0x1285 JUMP JUMPDEST PUSH2 0x172D PUSH1 0x80 DUP4 ADD DUP7 PUSH2 0x1285 JUMP JUMPDEST DUP2 DUP2 SUB PUSH1 0xA0 DUP4 ADD MSTORE PUSH2 0x173F DUP2 DUP6 PUSH2 0x1686 JUMP JUMPDEST SWAP1 POP PUSH2 0x174E PUSH1 0xC0 DUP4 ADD DUP5 PUSH2 0x16C9 JUMP JUMPDEST SWAP9 SWAP8 POP POP POP POP POP POP POP POP JUMP JUMPDEST PUSH0 DUP2 MLOAD SWAP1 POP SWAP2 SWAP1 POP JUMP JUMPDEST PUSH0 DUP3 DUP3 MSTORE PUSH1 0x20 DUP3 ADD SWAP1 POP SWAP3 SWAP2 POP POP JUMP JUMPDEST PUSH0 DUP2 SWAP1 POP PUSH1 0x20 DUP3 ADD SWAP1 POP SWAP2 SWAP1 POP JUMP JUMPDEST PUSH0 DUP3 DUP3 MSTORE PUSH1 0x20 DUP3 ADD SWAP1 POP SWAP3 SWAP2 POP POP JUMP JUMPDEST PUSH0 PUSH2 0x179D DUP3 PUSH2 0x164E JUMP JUMPDEST PUSH2 0x17A7 DUP2 DUP6 PUSH2 0x1783 JUMP JUMPDEST SWAP4 POP PUSH2 0x17B7 DUP2 DUP6 PUSH1 0x20 DUP7 ADD PUSH2 0x1668 JUMP JUMPDEST PUSH2 0x17C0 DUP2 PUSH2 0x1676 JUMP JUMPDEST DUP5 ADD SWAP2 POP POP SWAP3 SWAP2 POP POP JUMP JUMPDEST PUSH2 0x17D4 DUP2 PUSH2 0x16BE JUMP JUMPDEST DUP3 MSTORE POP POP JUMP JUMPDEST PUSH0 DUP3 DUP3 MSTORE PUSH1 0x20 DUP3 ADD SWAP1 POP SWAP3 SWAP2 POP POP JUMP JUMPDEST PUSH0 PUSH2 0x17F4 DUP3 PUSH2 0x130A JUMP JUMPDEST PUSH2 0x17FE DUP2 DUP6 PUSH2 0x17DA JUMP JUMPDEST SWAP4 POP PUSH2 0x1809 DUP4 PUSH2 0x1324 JUMP JUMPDEST DUP1 PUSH0 JUMPDEST DUP4 DUP2 LT ISZERO PUSH2 0x1839 JUMPI DUP2 MLOAD PUSH2 0x1820 DUP9 DUP3 PUSH2 0x1372 JUMP JUMPDEST SWAP8 POP PUSH2 0x182B DUP4 PUSH2 0x1389 JUMP JUMPDEST SWAP3 POP POP PUSH1 0x1 DUP2 ADD SWAP1 POP PUSH2 0x180C JUMP JUMPDEST POP DUP6 SWAP4 POP POP POP POP SWAP3 SWAP2 POP POP JUMP JUMPDEST PUSH0 DUP3 DUP3 MSTORE PUSH1 0x20 DUP3 ADD SWAP1 POP SWAP3 SWAP2 POP POP JUMP JUMPDEST PUSH0 PUSH2 0x1860 DUP3 PUSH2 0x13F1 JUMP JUMPDEST PUSH2 0x186A DUP2 DUP6 PUSH2 0x1846 JUMP JUMPDEST SWAP4 POP PUSH2 0x1875 DUP4 PUSH2 0x140B JUMP JUMPDEST DUP1 PUSH0 JUMPDEST DUP4 DUP2 LT ISZERO PUSH2 0x18A5 JUMPI DUP2 MLOAD PUSH2 0x188C DUP9 DUP3 PUSH2 0x1429 JUMP JUMPDEST SWAP8 POP PUSH2 0x1897 DUP4 PUSH2 0x1440 JUMP JUMPDEST SWAP3 POP POP PUSH1 0x1 DUP2 ADD SWAP1 POP PUSH2 0x1878 JUMP JUMPDEST POP DUP6 SWAP4 POP POP POP POP SWAP3 SWAP2 POP POP JUMP JUMPDEST PUSH0 PUSH2 0x120 DUP4 ADD PUSH0 DUP4 ADD MLOAD PUSH2 0x18C8 PUSH0 DUP7 ADD DUP3 PUSH2 0x1363 JUMP JUMPDEST POP PUSH1 0x20 DUP4 ADD MLOAD DUP5 DUP3 SUB PUSH1 0x20 DUP7 ADD MSTORE PUSH2 0x18E0 DUP3 DUP3 PUSH2 0x1793 JUMP JUMPDEST SWAP2 POP POP PUSH1 0x40 DUP4 ADD MLOAD DUP5 DUP3 SUB PUSH1 0x40 DUP7 ADD MSTORE PUSH2 0x18FA DUP3 DUP3 PUSH2 0x1793 JUMP JUMPDEST SWAP2 POP POP PUSH1 0x60 DUP4 ADD MLOAD PUSH2 0x190F PUSH1 0x60 DUP7 ADD DUP3 PUSH2 0x141A JUMP JUMPDEST POP PUSH1 0x80 DUP4 ADD MLOAD PUSH2 0x1922 PUSH1 0x80 DUP7 ADD DUP3 PUSH2 0x141A JUMP JUMPDEST POP PUSH1 0xA0 DUP4 ADD MLOAD DUP5 DUP3 SUB PUSH1 0xA0 DUP7 ADD MSTORE PUSH2 0x193A DUP3 DUP3 PUSH2 0x1793 JUMP JUMPDEST SWAP2 POP POP PUSH1 0xC0 DUP4 ADD MLOAD PUSH2 0x194F PUSH1 0xC0 DUP7 ADD DUP3 PUSH2 0x17CB JUMP JUMPDEST POP PUSH1 0xE0 DUP4 ADD MLOAD DUP5 DUP3 SUB PUSH1 0xE0 DUP7 ADD MSTORE PUSH2 0x1967 DUP3 DUP3 PUSH2 0x17EA JUMP JUMPDEST SWAP2 POP POP PUSH2 0x100 DUP4 ADD MLOAD DUP5 DUP3 SUB PUSH2 0x100 DUP7 ADD MSTORE PUSH2 0x1983 DUP3 DUP3 PUSH2 0x1856 JUMP JUMPDEST SWAP2 POP POP DUP1 SWAP2 POP POP SWAP3 SWAP2 POP POP JUMP JUMPDEST PUSH0 PUSH2 0x199B DUP4 DUP4 PUSH2 0x18B2 JUMP JUMPDEST SWAP1 POP SWAP3 SWAP2 POP POP JUMP JUMPDEST PUSH0 PUSH1 0x20 DUP3 ADD SWAP1 POP SWAP2 SWAP1 POP JUMP JUMPDEST PUSH0 PUSH2 0x19B9 DUP3 PUSH2 0x175A JUMP JUMPDEST PUSH2 0x19C3 DUP2 DUP6 PUSH2 0x1764 JUMP JUMPDEST SWAP4 POP DUP4 PUSH1 0x20 DUP3 MUL DUP6 ADD PUSH2 0x19D5 DUP6 PUSH2 0x1774 JUMP JUMPDEST DUP1 PUSH0 JUMPDEST DUP6 DUP2 LT ISZERO PUSH2 0x1A10 JUMPI DUP5 DUP5 SUB DUP10 MSTORE DUP2 MLOAD PUSH2 0x19F1 DUP6 DUP3 PUSH2 0x1990 JUMP JUMPDEST SWAP5 POP PUSH2 0x19FC DUP4 PUSH2 0x19A3 JUMP JUMPDEST SWAP3 POP PUSH1 0x20 DUP11 ADD SWAP10 POP POP PUSH1 0x1 DUP2 ADD SWAP1 POP PUSH2 0x19D8 JUMP JUMPDEST POP DUP3 SWAP8 POP DUP8 SWAP6 POP POP POP POP POP POP SWAP3 SWAP2 POP POP JUMP JUMPDEST PUSH0 PUSH1 0x20 DUP3 ADD SWAP1 POP DUP2 DUP2 SUB PUSH0 DUP4 ADD MSTORE PUSH2 0x1A3A DUP2 DUP5 PUSH2 0x19AF JUMP JUMPDEST SWAP1 POP SWAP3 SWAP2 POP POP JUMP JUMPDEST PUSH0 DUP1 PUSH0 DUP1 PUSH0 DUP1 PUSH0 DUP1 PUSH1 0xA0 DUP10 DUP12 SUB SLT ISZERO PUSH2 0x1A5E JUMPI PUSH2 0x1A5D PUSH2 0x12AD JUMP JUMPDEST JUMPDEST PUSH0 PUSH2 0x1A6B DUP12 DUP3 DUP13 ADD PUSH2 0x12CB JUMP JUMPDEST SWAP9 POP POP PUSH1 0x20 DUP10 ADD CALLDATALOAD PUSH8 0xFFFFFFFFFFFFFFFF DUP2 GT ISZERO PUSH2 0x1A8C JUMPI PUSH2 0x1A8B PUSH2 0x12B1 JUMP JUMPDEST JUMPDEST PUSH2 0x1A98 DUP12 DUP3 DUP13 ADD PUSH2 0x1513 JUMP JUMPDEST SWAP8 POP SWAP8 POP POP PUSH1 0x40 DUP10 ADD CALLDATALOAD PUSH8 0xFFFFFFFFFFFFFFFF DUP2 GT ISZERO PUSH2 0x1ABB JUMPI PUSH2 0x1ABA PUSH2 0x12B1 JUMP JUMPDEST JUMPDEST PUSH2 0x1AC7 DUP12 DUP3 DUP13 ADD PUSH2 0x1513 JUMP JUMPDEST SWAP6 POP SWAP6 POP POP PUSH1 0x60 PUSH2 0x1ADA DUP12 DUP3 DUP13 ADD PUSH2 0x12CB JUMP JUMPDEST SWAP4 POP POP PUSH1 0x80 DUP10 ADD CALLDATALOAD PUSH8 0xFFFFFFFFFFFFFFFF DUP2 GT ISZERO PUSH2 0x1AFB JUMPI PUSH2 0x1AFA PUSH2 0x12B1 JUMP JUMPDEST JUMPDEST PUSH2 0x1B07 DUP12 DUP3 DUP13 ADD PUSH2 0x1513 JUMP JUMPDEST SWAP3 POP SWAP3 POP POP SWAP3 SWAP6 SWAP9 POP SWAP3 SWAP6 SWAP9 SWAP1 SWAP4 SWAP7 POP JUMP JUMPDEST PUSH32 0x546172676574206D7573742062652067726561746572207468616E2030000000 PUSH0 DUP3 ADD MSTORE POP JUMP JUMPDEST PUSH0 PUSH2 0x1B4D PUSH1 0x1D DUP4 PUSH2 0x1658 JUMP JUMPDEST SWAP2 POP PUSH2 0x1B58 DUP3 PUSH2 0x1B19 JUMP JUMPDEST PUSH1 0x20 DUP3 ADD SWAP1 POP SWAP2 SWAP1 POP JUMP JUMPDEST PUSH0 PUSH1 0x20 DUP3 ADD SWAP1 POP DUP2 DUP2 SUB PUSH0 DUP4 ADD MSTORE PUSH2 0x1B7A DUP2 PUSH2 0x1B41 JUMP JUMPDEST SWAP1 POP SWAP2 SWAP1 POP JUMP JUMPDEST PUSH32 0x5469746C652063616E6E6F7420626520656D7074790000000000000000000000 PUSH0 DUP3 ADD MSTORE POP JUMP JUMPDEST PUSH0 PUSH2 0x1BB5 PUSH1 0x15 DUP4 PUSH2 0x1658 JUMP JUMPDEST SWAP2 POP PUSH2 0x1BC0 DUP3 PUSH2 0x1B81 JUMP JUMPDEST PUSH1 0x20 DUP3 ADD SWAP1 POP SWAP2 SWAP1 POP JUMP JUMPDEST PUSH0 PUSH1 0x20 DUP3 ADD SWAP1 POP DUP2 DUP2 SUB PUSH0 DUP4 ADD MSTORE PUSH2 0x1BE2 DUP2 PUSH2 0x1BA9 JUMP JUMPDEST SWAP1 POP SWAP2 SWAP1 POP JUMP JUMPDEST PUSH32 0x4465736372697074696F6E2063616E6E6F7420626520656D7074790000000000 PUSH0 DUP3 ADD MSTORE POP JUMP JUMPDEST PUSH0 PUSH2 0x1C1D PUSH1 0x1B DUP4 PUSH2 0x1658 JUMP JUMPDEST SWAP2 POP PUSH2 0x1C28 DUP3 PUSH2 0x1BE9 JUMP JUMPDEST PUSH1 0x20 DUP3 ADD SWAP1 POP SWAP2 SWAP1 POP JUMP JUMPDEST PUSH0 PUSH1 0x20 DUP3 ADD SWAP1 POP DUP2 DUP2 SUB PUSH0 DUP4 ADD MSTORE PUSH2 0x1C4A DUP2 PUSH2 0x1C11 JUMP JUMPDEST SWAP1 POP SWAP2 SWAP1 POP JUMP JUMPDEST PUSH32 0x496E76616C6964206F776E657220616464726573730000000000000000000000 PUSH0 DUP3 ADD MSTORE POP JUMP JUMPDEST PUSH0 PUSH2 0x1C85 PUSH1 0x15 DUP4 PUSH2 0x1658 JUMP JUMPDEST SWAP2 POP PUSH2 0x1C90 DUP3 PUSH2 0x1C51 JUMP JUMPDEST PUSH1 0x20 DUP3 ADD SWAP1 POP SWAP2 SWAP1 POP JUMP JUMPDEST PUSH0 PUSH1 0x20 DUP3 ADD SWAP1 POP DUP2 DUP2 SUB PUSH0 DUP4 ADD MSTORE PUSH2 0x1CB2 DUP2 PUSH2 0x1C79 JUMP JUMPDEST SWAP1 POP SWAP2 SWAP1 POP JUMP JUMPDEST PUSH0 DUP3 SWAP1 POP SWAP3 SWAP2 POP POP JUMP JUMPDEST PUSH32 0x4E487B7100000000000000000000000000000000000000000000000000000000 PUSH0 MSTORE PUSH1 0x41 PUSH1 0x4 MSTORE PUSH1 0x24 PUSH0 REVERT JUMPDEST PUSH32 0x4E487B7100000000000000000000000000000000000000000000000000000000 PUSH0 MSTORE PUSH1 0x22 PUSH1 0x4 MSTORE PUSH1 0x24 PUSH0 REVERT JUMPDEST PUSH0 PUSH1 0x2 DUP3 DIV SWAP1 POP PUSH1 0x1 DUP3 AND DUP1 PUSH2 0x1D34 JUMPI PUSH1 0x7F DUP3 AND SWAP2 POP JUMPDEST PUSH1 0x20 DUP3 LT DUP2 SUB PUSH2 0x1D47 JUMPI PUSH2 0x1D46 PUSH2 0x1CF0 JUMP JUMPDEST JUMPDEST POP SWAP2 SWAP1 POP JUMP JUMPDEST PUSH0 DUP2 SWAP1 POP DUP2 PUSH0 MSTORE PUSH1 0x20 PUSH0 KECCAK256 SWAP1 POP SWAP2 SWAP1 POP JUMP JUMPDEST PUSH0 PUSH1 0x20 PUSH1 0x1F DUP4 ADD DIV SWAP1 POP SWAP2 SWAP1 POP JUMP JUMPDEST PUSH0 DUP3 DUP3 SHL SWAP1 POP SWAP3 SWAP2 POP POP JUMP JUMPDEST PUSH0 PUSH1 0x8 DUP4 MUL PUSH2 0x1DA9 PUSH32 0xFFFFFFFFFFFFFFFFFFFFFFFFFFFFFFFFFFFFFFFFFFFFFFFFFFFFFFFFFFFFFFFF DUP3 PUSH2 0x1D6E JUMP JUMPDEST PUSH2 0x1DB3 DUP7 DUP4 PUSH2 0x1D6E JUMP JUMPDEST SWAP6 POP DUP1 NOT DUP5 AND SWAP4 POP DUP1 DUP7 AND DUP5 OR SWAP3 POP POP POP SWAP4 SWAP3 POP POP POP JUMP JUMPDEST PUSH0 DUP2 SWAP1 POP SWAP2 SWAP1 POP JUMP JUMPDEST PUSH0 PUSH2 0x1DEE PUSH2 0x1DE9 PUSH2 0x1DE4 DUP5 PUSH2 0x127C JUMP JUMPDEST PUSH2 0x1DCB JUMP JUMPDEST PUSH2 0x127C JUMP JUMPDEST SWAP1 POP SWAP2 SWAP1 POP JUMP JUMPDEST PUSH0 DUP2 SWAP1 POP SWAP2 SWAP1 POP JUMP JUMPDEST PUSH2 0x1E07 DUP4 PUSH2 0x1DD4 JUMP JUMPDEST PUSH2 0x1E1B PUSH2 0x1E13 DUP3 PUSH2 0x1DF5 JUMP JUMPDEST DUP5 DUP5 SLOAD PUSH2 0x1D7A JUMP JUMPDEST DUP3 SSTORE POP POP POP POP JUMP JUMPDEST PUSH0 SWAP1 JUMP JUMPDEST PUSH2 0x1E2F PUSH2 0x1E23 JUMP JUMPDEST PUSH2 0x1E3A DUP2 DUP5 DUP5 PUSH2 0x1DFE JUMP JUMPDEST POP POP POP JUMP JUMPDEST JUMPDEST DUP2 DUP2 LT ISZERO PUSH2 0x1E5D JUMPI PUSH2 0x1E52 PUSH0 DUP3 PUSH2 0x1E27 JUMP JUMPDEST PUSH1 0x1 DUP2 ADD SWAP1 POP PUSH2 0x1E40 JUMP JUMPDEST POP POP JUMP JUMPDEST PUSH1 0x1F DUP3 GT ISZERO PUSH2 0x1EA2 JUMPI PUSH2 0x1E73 DUP2 PUSH2 0x1D4D JUMP JUMPDEST PUSH2 0x1E7C DUP5 PUSH2 0x1D5F JUMP JUMPDEST DUP2 ADD PUSH1 0x20 DUP6 LT ISZERO PUSH2 0x1E8B JUMPI DUP2 SWAP1 POP JUMPDEST PUSH2 0x1E9F PUSH2 0x1E97 DUP6 PUSH2 0x1D5F JUMP JUMPDEST DUP4 ADD DUP3 PUSH2 0x1E3F JUMP JUMPDEST POP POP JUMPDEST POP POP POP JUMP JUMPDEST PUSH0 DUP3 DUP3 SHR SWAP1 POP SWAP3 SWAP2 POP POP JUMP JUMPDEST PUSH0 PUSH2 0x1EC2 PUSH0 NOT DUP5 PUSH1 0x8 MUL PUSH2 0x1EA7 JUMP JUMPDEST NOT DUP1 DUP4 AND SWAP2 POP POP SWAP3 SWAP2 POP POP JUMP JUMPDEST PUSH0 PUSH2 0x1EDA DUP4 DUP4 PUSH2 0x1EB3 JUMP JUMPDEST SWAP2 POP DUP3 PUSH1 0x2 MUL DUP3 OR SWAP1 POP SWAP3 SWAP2 POP POP JUMP JUMPDEST PUSH2 0x1EF4 DUP4 DUP4 PUSH2 0x1CB9 JUMP JUMPDEST PUSH8 0xFFFFFFFFFFFFFFFF DUP2 GT ISZERO PUSH2 0x1F0D JUMPI PUSH2 0x1F0C PUSH2 0x1CC3 JUMP JUMPDEST JUMPDEST PUSH2 0x1F17 DUP3 SLOAD PUSH2 0x1D1D JUMP JUMPDEST PUSH2 0x1F22 DUP3 DUP3 DUP6 PUSH2 0x1E61 JUMP JUMPDEST PUSH0 PUSH1 0x1F DUP4 GT PUSH1 0x1 DUP2 EQ PUSH2 0x1F4F JUMPI PUSH0 DUP5 ISZERO PUSH2 0x1F3D JUMPI DUP3 DUP8 ADD CALLDATALOAD SWAP1 POP JUMPDEST PUSH2 0x1F47 DUP6 DUP3 PUSH2 0x1ECF JUMP JUMPDEST DUP7 SSTORE POP PUSH2 0x1FAE JUMP JUMPDEST PUSH1 0x1F NOT DUP5 AND PUSH2 0x1F5D DUP7 PUSH2 0x1D4D JUMP JUMPDEST PUSH0 JUMPDEST DUP3 DUP2 LT ISZERO PUSH2 0x1F84 JUMPI DUP5 DUP10 ADD CALLDATALOAD DUP3 SSTORE PUSH1 0x1 DUP3 ADD SWAP2 POP PUSH1 0x20 DUP6 ADD SWAP5 POP PUSH1 0x20 DUP2 ADD SWAP1 POP PUSH2 0x1F5F JUMP JUMPDEST DUP7 DUP4 LT ISZERO PUSH2 0x1FA1 JUMPI DUP5 DUP10 ADD CALLDATALOAD PUSH2 0x1F9D PUSH1 0x1F DUP10 AND DUP3 PUSH2 0x1EB3 JUMP JUMPDEST DUP4 SSTORE POP JUMPDEST PUSH1 0x1 PUSH1 0x2 DUP9 MUL ADD DUP9 SSTORE POP POP POP JUMPDEST POP POP POP POP POP POP POP JUMP JUMPDEST PUSH32 0x446F6E6174696F6E20616D6F756E74206D757374206265206772656174657220 PUSH0 DUP3 ADD MSTORE PUSH32 0x7468616E20300000000000000000000000000000000000000000000000000000 PUSH1 0x20 DUP3 ADD MSTORE POP JUMP JUMPDEST PUSH0 PUSH2 0x2011 PUSH1 0x26 DUP4 PUSH2 0x1658 JUMP JUMPDEST SWAP2 POP PUSH2 0x201C DUP3 PUSH2 0x1FB7 JUMP JUMPDEST PUSH1 0x40 DUP3 ADD SWAP1 POP SWAP2 SWAP1 POP JUMP JUMPDEST PUSH0 PUSH1 0x20 DUP3 ADD SWAP1 POP DUP2 DUP2 SUB PUSH0 DUP4 ADD MSTORE PUSH2 0x203E DUP2 PUSH2 0x2005 JUMP JUMPDEST SWAP1 POP SWAP2 SWAP1 POP JUMP JUMPDEST PUSH32 0x43616D706169676E20646F6573206E6F74206578697374000000000000000000 PUSH0 DUP3 ADD MSTORE POP JUMP JUMPDEST PUSH0 PUSH2 0x2079 PUSH1 0x17 DUP4 PUSH2 0x1658 JUMP JUMPDEST SWAP2 POP PUSH2 0x2084 DUP3 PUSH2 0x2045 JUMP JUMPDEST PUSH1 0x20 DUP3 ADD SWAP1 POP SWAP2 SWAP1 POP JUMP JUMPDEST PUSH0 PUSH1 0x20 DUP3 ADD SWAP1 POP DUP2 DUP2 SUB PUSH0 DUP4 ADD MSTORE PUSH2 0x20A6 DUP2 PUSH2 0x206D JUMP JUMPDEST SWAP1 POP SWAP2 SWAP1 POP JUMP JUMPDEST PUSH32 0x43616D706169676E20616C726561647920636F6D706C65746564000000000000 PUSH0 DUP3 ADD MSTORE POP JUMP JUMPDEST PUSH0 PUSH2 0x20E1 PUSH1 0x1A DUP4 PUSH2 0x1658 JUMP JUMPDEST SWAP2 POP PUSH2 0x20EC DUP3 PUSH2 0x20AD JUMP JUMPDEST PUSH1 0x20 DUP3 ADD SWAP1 POP SWAP2 SWAP1 POP JUMP JUMPDEST PUSH0 PUSH1 0x20 DUP3 ADD SWAP1 POP DUP2 DUP2 SUB PUSH0 DUP4 ADD MSTORE PUSH2 0x210E DUP2 PUSH2 0x20D5 JUMP JUMPDEST SWAP1 POP SWAP2 SWAP1 POP JUMP JUMPDEST PUSH0 DUP2 SWAP1 POP SWAP3 SWAP2 POP POP JUMP JUMPDEST POP JUMP JUMPDEST PUSH0 PUSH2 0x212D PUSH0 DUP4 PUSH2 0x2115 JUMP JUMPDEST SWAP2 POP PUSH2 0x2138 DUP3 PUSH2 0x211F JUMP JUMPDEST PUSH0 DUP3 ADD SWAP1 POP SWAP2 SWAP1 POP JUMP JUMPDEST PUSH0 PUSH2 0x214C DUP3 PUSH2 0x2122 JUMP JUMPDEST SWAP2 POP DUP2 SWAP1 POP SWAP2 SWAP1 POP JUMP JUMPDEST PUSH32 0x4661696C656420746F2073656E6420457468657220746F2063616D706169676E PUSH0 DUP3 ADD MSTORE PUSH32 0x206F776E65720000000000000000000000000000000000000000000000000000 PUSH1 0x20 DUP3 ADD MSTORE POP JUMP JUMPDEST PUSH0 PUSH2 0x21B0 PUSH1 0x26 DUP4 PUSH2 0x1658 JUMP JUMPDEST SWAP2 POP PUSH2 0x21BB DUP3 PUSH2 0x2156 JUMP JUMPDEST PUSH1 0x40 DUP3 ADD SWAP1 POP SWAP2 SWAP1 POP JUMP JUMPDEST PUSH0 PUSH1 0x20 DUP3 ADD SWAP1 POP DUP2 DUP2 SUB PUSH0 DUP4 ADD MSTORE PUSH2 0x21DD DUP2 PUSH2 0x21A4 JUMP JUMPDEST SWAP1 POP SWAP2 SWAP1 POP JUMP JUMPDEST PUSH0 PUSH1 0x40 DUP3 ADD SWAP1 POP PUSH2 0x21F7 PUSH0 DUP4 ADD DUP6 PUSH2 0x1285 JUMP JUMPDEST PUSH2 0x2204 PUSH1 0x20 DUP4 ADD DUP5 PUSH2 0x1285 JUMP JUMPDEST SWAP4 SWAP3 POP POP POP JUMP JUMPDEST PUSH32 0x4E487B7100000000000000000000000000000000000000000000000000000000 PUSH0 MSTORE PUSH1 0x1 PUSH1 0x4 MSTORE PUSH1 0x24 PUSH0 REVERT JUMPDEST PUSH32 0x4F6E6C79207468652063616D706169676E206F776E65722063616E2064656C65 PUSH0 DUP3 ADD MSTORE PUSH32 0x7465000000000000000000000000000000000000000000000000000000000000 PUSH1 0x20 DUP3 ADD MSTORE POP JUMP JUMPDEST PUSH0 PUSH2 0x2292 PUSH1 0x22 DUP4 PUSH2 0x1658 JUMP JUMPDEST SWAP2 POP PUSH2 0x229D DUP3 PUSH2 0x2238 JUMP JUMPDEST PUSH1 0x40 DUP3 ADD SWAP1 POP SWAP2 SWAP1 POP JUMP JUMPDEST PUSH0 PUSH1 0x20 DUP3 ADD SWAP1 POP DUP2 DUP2 SUB PUSH0 DUP4 ADD MSTORE PUSH2 0x22BF DUP2 PUSH2 0x2286 JUMP JUMPDEST SWAP1 POP SWAP2 SWAP1 POP JUMP JUMPDEST PUSH32 0x43616E6E6F742064656C65746520612063616D706169676E2077697468206675 PUSH0 DUP3 ADD MSTORE PUSH32 0x6E64730000000000000000000000000000000000000000000000000000000000 PUSH1 0x20 DUP3 ADD MSTORE POP JUMP JUMPDEST PUSH0 PUSH2 0x2320 PUSH1 0x23 DUP4 PUSH2 0x1658 JUMP JUMPDEST SWAP2 POP PUSH2 0x232B DUP3 PUSH2 0x22C6 JUMP JUMPDEST PUSH1 0x40 DUP3 ADD SWAP1 POP SWAP2 SWAP1 POP JUMP JUMPDEST PUSH0 PUSH1 0x20 DUP3 ADD SWAP1 POP DUP2 DUP2 SUB PUSH0 DUP4 ADD MSTORE PUSH2 0x234D DUP2 PUSH2 0x2314 JUMP JUMPDEST SWAP1 POP SWAP2 SWAP1 POP JUMP JUMPDEST PUSH32 0x4E487B7100000000000000000000000000000000000000000000000000000000 PUSH0 MSTORE PUSH1 0x32 PUSH1 0x4 MSTORE PUSH1 0x24 PUSH0 REVERT JUMPDEST PUSH32 0x4F6E6C79207468652063616D706169676E206F776E65722063616E2075706461 PUSH0 DUP3 ADD MSTORE PUSH32 0x7465000000000000000000000000000000000000000000000000000000000000 PUSH1 0x20 DUP3 ADD MSTORE POP JUMP JUMPDEST PUSH0 PUSH2 0x23DB PUSH1 0x22 DUP4 PUSH2 0x1658 JUMP JUMPDEST SWAP2 POP PUSH2 0x23E6 DUP3 PUSH2 0x2381 JUMP JUMPDEST PUSH1 0x40 DUP3 ADD SWAP1 POP SWAP2 SWAP1 POP JUMP JUMPDEST PUSH0 PUSH1 0x20 DUP3 ADD SWAP1 POP DUP2 DUP2 SUB PUSH0 DUP4 ADD MSTORE PUSH2 0x2408 DUP2 PUSH2 0x23CF JUMP JUMPDEST SWAP1 POP SWAP2 SWAP1 POP JUMP JUMPDEST PUSH32 0x43616E6E6F7420757064617465206120636F6D706C657465642063616D706169 PUSH0 DUP3 ADD MSTORE PUSH32 0x676E000000000000000000000000000000000000000000000000000000000000 PUSH1 0x20 DUP3 ADD MSTORE POP JUMP JUMPDEST PUSH0 PUSH2 0x2469 PUSH1 0x22 DUP4 PUSH2 0x1658 JUMP JUMPDEST SWAP2 POP PUSH2 0x2474 DUP3 PUSH2 0x240F JUMP JUMPDEST PUSH1 0x40 DUP3 ADD SWAP1 POP SWAP2 SWAP1 POP JUMP JUMPDEST PUSH0 PUSH1 0x20 DUP3 ADD SWAP1 POP DUP2 DUP2 SUB PUSH0 DUP4 ADD MSTORE PUSH2 0x2496 DUP2 PUSH2 0x245D JUMP JUMPDEST SWAP1 POP SWAP2 SWAP1 POP JUMP JUMPDEST PUSH32 0x4E487B7100000000000000000000000000000000000000000000000000000000 PUSH0 MSTORE PUSH1 0x11 PUSH1 0x4 MSTORE PUSH1 0x24 PUSH0 REVERT JUMPDEST PUSH0 PUSH2 0x24D4 DUP3 PUSH2 0x127C JUMP JUMPDEST SWAP2 POP PUSH2 0x24DF DUP4 PUSH2 0x127C JUMP JUMPDEST SWAP3 POP DUP3 DUP3 ADD SWAP1 POP DUP1 DUP3 GT ISZERO PUSH2 0x24F7 JUMPI PUSH2 0x24F6 PUSH2 0x249D JUMP JUMPDEST JUMPDEST SWAP3 SWAP2 POP POP JUMP JUMPDEST PUSH0 PUSH2 0x2507 DUP3 PUSH2 0x127C JUMP JUMPDEST SWAP2 POP PUSH2 0x2512 DUP4 PUSH2 0x127C JUMP JUMPDEST SWAP3 POP DUP3 DUP3 SUB SWAP1 POP DUP2 DUP2 GT ISZERO PUSH2 0x252A JUMPI PUSH2 0x2529 PUSH2 0x249D JUMP JUMPDEST JUMPDEST SWAP3 SWAP2 POP POP JUMP INVALID LOG2 PUSH5 0x6970667358 0x22 SLT KECCAK256 0xCE PUSH1 0x71 GAS 0xEF 0x2B DUP9 JUMP BALANCE TLOAD DUP4 ADD PUSH18 0xDA63F8F752669E52EACC08AC567B4D6D28BD 0xDB PUSH5 0x736F6C6343 STOP ADDMOD BYTE STOP CALLER "
				},
				"gasEstimates": {
					"creation": {
						"codeDepositCost": "1914800",
						"executionCost": "7029",
						"totalCost": "1921829"
					},
					"external": {
						"campaigns(uint256)": "infinite",
						"createCampaign(address,string,string,uint256,string)": "infinite",
						"deleteCampaign(uint256)": "infinite",
						"donateToCampaign(uint256)": "infinite",
						"getCampaigns()": "infinite",
						"getDonators(uint256)": "infinite",
						"numberOfCampaigns()": "2426",
						"updateCampaign(uint256,string,string,uint256,string)": "infinite"
					}
				},
				"methodIdentifiers": {
					"campaigns(uint256)": "141961bc",
					"createCampaign(address,string,string,uint256,string)": "1227d335",
					"deleteCampaign(uint256)": "75970193",
					"donateToCampaign(uint256)": "42a4fda8",
					"getCampaigns()": "a6b03633",
					"getDonators(uint256)": "0fa91fa9",
					"numberOfCampaigns()": "07ca140d",
					"updateCampaign(uint256,string,string,uint256,string)": "c5675b10"
				}
			},
			"storageLayout": {
				"storage": [
					{
						"astId": 343,
						"contract": "contracts/CrowdFunding.sol:CrowdFunding",
						"label": "campaigns",
						"offset": 0,
						"slot": "0",
						"type": "t_mapping(t_uint256,t_struct(Campaign)338_storage)"
					},
					{
						"astId": 346,
						"contract": "contracts/CrowdFunding.sol:CrowdFunding",
						"label": "numberOfCampaigns",
						"offset": 0,
						"slot": "1",
						"type": "t_uint256"
					}
				],
				"types": {
					"t_address": {
						"encoding": "inplace",
						"label": "address",
						"numberOfBytes": "20"
					},
					"t_array(t_address)dyn_storage": {
						"base": "t_address",
						"encoding": "dynamic_array",
						"label": "address[]",
						"numberOfBytes": "32"
					},
					"t_array(t_uint256)dyn_storage": {
						"base": "t_uint256",
						"encoding": "dynamic_array",
						"label": "uint256[]",
						"numberOfBytes": "32"
					},
					"t_bool": {
						"encoding": "inplace",
						"label": "bool",
						"numberOfBytes": "1"
					},
					"t_mapping(t_uint256,t_struct(Campaign)338_storage)": {
						"encoding": "mapping",
						"key": "t_uint256",
						"label": "mapping(uint256 => struct CrowdFunding.Campaign)",
						"numberOfBytes": "32",
						"value": "t_struct(Campaign)338_storage"
					},
					"t_string_storage": {
						"encoding": "bytes",
						"label": "string",
						"numberOfBytes": "32"
					},
					"t_struct(Campaign)338_storage": {
						"encoding": "inplace",
						"label": "struct CrowdFunding.Campaign",
						"members": [
							{
								"astId": 319,
								"contract": "contracts/CrowdFunding.sol:CrowdFunding",
								"label": "owner",
								"offset": 0,
								"slot": "0",
								"type": "t_address"
							},
							{
								"astId": 321,
								"contract": "contracts/CrowdFunding.sol:CrowdFunding",
								"label": "title",
								"offset": 0,
								"slot": "1",
								"type": "t_string_storage"
							},
							{
								"astId": 323,
								"contract": "contracts/CrowdFunding.sol:CrowdFunding",
								"label": "description",
								"offset": 0,
								"slot": "2",
								"type": "t_string_storage"
							},
							{
								"astId": 325,
								"contract": "contracts/CrowdFunding.sol:CrowdFunding",
								"label": "target",
								"offset": 0,
								"slot": "3",
								"type": "t_uint256"
							},
							{
								"astId": 327,
								"contract": "contracts/CrowdFunding.sol:CrowdFunding",
								"label": "amountCollected",
								"offset": 0,
								"slot": "4",
								"type": "t_uint256"
							},
							{
								"astId": 329,
								"contract": "contracts/CrowdFunding.sol:CrowdFunding",
								"label": "image",
								"offset": 0,
								"slot": "5",
								"type": "t_string_storage"
							},
							{
								"astId": 331,
								"contract": "contracts/CrowdFunding.sol:CrowdFunding",
								"label": "completed",
								"offset": 0,
								"slot": "6",
								"type": "t_bool"
							},
							{
								"astId": 334,
								"contract": "contracts/CrowdFunding.sol:CrowdFunding",
								"label": "donators",
								"offset": 0,
								"slot": "7",
								"type": "t_array(t_address)dyn_storage"
							},
							{
								"astId": 337,
								"contract": "contracts/CrowdFunding.sol:CrowdFunding",
								"label": "donations",
								"offset": 0,
								"slot": "8",
								"type": "t_array(t_uint256)dyn_storage"
							}
						],
						"numberOfBytes": "288"
					},
					"t_uint256": {
						"encoding": "inplace",
						"label": "uint256",
						"numberOfBytes": "32"
					}
				}
			},
			"userdoc": {
				"kind": "user",
				"methods": {},
				"version": 1
			}
		}
	}
}