{
	"contracts/CrowdFunding.sol": {
		"CrowdFunding": {
			"abi": [
				{
					"inputs": [
						{
							"internalType": "uint256",
							"name": "",
							"type": "uint256"
						}
					],
					"name": "campaigns",
					"outputs": [
						{
							"internalType": "address",
							"name": "owner",
							"type": "address"
						},
						{
							"internalType": "string",
							"name": "title",
							"type": "string"
						},
						{
							"internalType": "string",
							"name": "description",
							"type": "string"
						},
						{
							"internalType": "uint256",
							"name": "target",
							"type": "uint256"
						},
						{
							"internalType": "uint256",
							"name": "amountCollected",
							"type": "uint256"
						},
						{
							"internalType": "string",
							"name": "image",
							"type": "string"
						},
						{
							"internalType": "bool",
							"name": "completed",
							"type": "bool"
						}
					],
					"stateMutability": "view",
					"type": "function"
				},
				{
					"inputs": [
						{
							"internalType": "address",
							"name": "_owner",
							"type": "address"
						},
						{
							"internalType": "string",
							"name": "_title",
							"type": "string"
						},
						{
							"internalType": "string",
							"name": "_description",
							"type": "string"
						},
						{
							"internalType": "uint256",
							"name": "_target",
							"type": "uint256"
						},
						{
							"internalType": "string",
							"name": "_image",
							"type": "string"
						}
					],
					"name": "createCampaign",
					"outputs": [
						{
							"internalType": "uint256",
							"name": "",
							"type": "uint256"
						}
					],
					"stateMutability": "nonpayable",
					"type": "function"
				},
				{
					"inputs": [
						{
							"internalType": "uint256",
							"name": "_id",
							"type": "uint256"
						}
					],
					"name": "deleteCampaign",
					"outputs": [],
					"stateMutability": "nonpayable",
					"type": "function"
				},
				{
					"inputs": [
						{
							"internalType": "uint256",
							"name": "_id",
							"type": "uint256"
						}
					],
					"name": "donateToCampaign",
					"outputs": [],
					"stateMutability": "payable",
					"type": "function"
				},
				{
					"inputs": [],
					"name": "getCampaigns",
					"outputs": [
						{
							"components": [
								{
									"internalType": "address",
									"name": "owner",
									"type": "address"
								},
								{
									"internalType": "string",
									"name": "title",
									"type": "string"
								},
								{
									"internalType": "string",
									"name": "description",
									"type": "string"
								},
								{
									"internalType": "uint256",
									"name": "target",
									"type": "uint256"
								},
								{
									"internalType": "uint256",
									"name": "amountCollected",
									"type": "uint256"
								},
								{
									"internalType": "string",
									"name": "image",
									"type": "string"
								},
								{
									"internalType": "bool",
									"name": "completed",
									"type": "bool"
								},
								{
									"internalType": "address[]",
									"name": "donators",
									"type": "address[]"
								},
								{
									"internalType": "uint256[]",
									"name": "donations",
									"type": "uint256[]"
								}
							],
							"internalType": "struct CrowdFunding.Campaign[]",
							"name": "",
							"type": "tuple[]"
						}
					],
					"stateMutability": "view",
					"type": "function"
				},
				{
					"inputs": [
						{
							"internalType": "uint256",
							"name": "_id",
							"type": "uint256"
						}
					],
					"name": "getDonators",
					"outputs": [
						{
							"internalType": "address[]",
							"name": "",
							"type": "address[]"
						},
						{
							"internalType": "uint256[]",
							"name": "",
							"type": "uint256[]"
						}
					],
					"stateMutability": "view",
					"type": "function"
				},
				{
					"inputs": [],
					"name": "numberOfCampaigns",
					"outputs": [
						{
							"internalType": "uint256",
							"name": "",
							"type": "uint256"
						}
					],
					"stateMutability": "view",
					"type": "function"
				},
				{
					"inputs": [
						{
							"internalType": "uint256",
							"name": "_id",
							"type": "uint256"
						},
						{
							"internalType": "string",
							"name": "_title",
							"type": "string"
						},
						{
							"internalType": "string",
							"name": "_description",
							"type": "string"
						},
						{
							"internalType": "uint256",
							"name": "_target",
							"type": "uint256"
						},
						{
							"internalType": "string",
							"name": "_image",
							"type": "string"
						}
					],
					"name": "updateCampaign",
					"outputs": [],
					"stateMutability": "nonpayable",
					"type": "function"
				}
			],
			"devdoc": {
				"kind": "dev",
				"methods": {},
				"version": 1
			},
			"evm": {
				"assembly": "    /* \"contracts/CrowdFunding.sol\":124:4747  contract CrowdFunding {... */\n  mstore(0x40, 0x80)\n    /* \"contracts/CrowdFunding.sol\":637:638  0 */\n  0x00\n    /* \"contracts/CrowdFunding.sol\":602:638  uint256 public numberOfCampaigns = 0 */\n  0x01\n  sstore\n    /* \"contracts/CrowdFunding.sol\":124:4747  contract CrowdFunding {... */\n  callvalue\n  dup1\n  iszero\n  tag_1\n  jumpi\n  0x00\n  dup1\n  revert\ntag_1:\n  pop\n  dataSize(sub_0)\n  dup1\n  dataOffset(sub_0)\n  0x00\n  codecopy\n  0x00\n  return\nstop\n\nsub_0: assembly {\n        /* \"contracts/CrowdFunding.sol\":124:4747  contract CrowdFunding {... */\n      mstore(0x40, 0x80)\n      jumpi(tag_1, lt(calldatasize, 0x04))\n      shr(0xe0, calldataload(0x00))\n      dup1\n      0x42a4fda8\n      gt\n      tag_10\n      jumpi\n      dup1\n      0x42a4fda8\n      eq\n      tag_6\n      jumpi\n      dup1\n      0x75970193\n      eq\n      tag_7\n      jumpi\n      dup1\n      0xa6b03633\n      eq\n      tag_8\n      jumpi\n      dup1\n      0xc5675b10\n      eq\n      tag_9\n      jumpi\n      jump(tag_1)\n    tag_10:\n      dup1\n      0x07ca140d\n      eq\n      tag_2\n      jumpi\n      dup1\n      0x0fa91fa9\n      eq\n      tag_3\n      jumpi\n      dup1\n      0x1227d335\n      eq\n      tag_4\n      jumpi\n      dup1\n      0x141961bc\n      eq\n      tag_5\n      jumpi\n    tag_1:\n      0x00\n      dup1\n      revert\n        /* \"contracts/CrowdFunding.sol\":602:638  uint256 public numberOfCampaigns = 0 */\n    tag_2:\n      callvalue\n      dup1\n      iszero\n      tag_11\n      jumpi\n      0x00\n      dup1\n      revert\n    tag_11:\n      pop\n      tag_12\n      tag_13\n      jump\t// in\n    tag_12:\n      mload(0x40)\n      tag_14\n      swap2\n      swap1\n      tag_15\n      jump\t// in\n    tag_14:\n      mload(0x40)\n      dup1\n      swap2\n      sub\n      swap1\n      return\n        /* \"contracts/CrowdFunding.sol\":3118:3326  function getDonators(uint256 _id) external view returns (address[] memory, uint256[] memory) {... */\n    tag_3:\n      callvalue\n      dup1\n      iszero\n      tag_16\n      jumpi\n      0x00\n      dup1\n      revert\n    tag_16:\n      pop\n      tag_17\n      0x04\n      dup1\n      calldatasize\n      sub\n      dup2\n      add\n      swap1\n      tag_18\n      swap2\n      swap1\n      tag_19\n      jump\t// in\n    tag_18:\n      tag_20\n      jump\t// in\n    tag_17:\n      mload(0x40)\n      tag_21\n      swap3\n      swap2\n      swap1\n      tag_22\n      jump\t// in\n    tag_21:\n      mload(0x40)\n      dup1\n      swap2\n      sub\n      swap1\n      return\n        /* \"contracts/CrowdFunding.sol\":713:1661  function createCampaign(... */\n    tag_4:\n      callvalue\n      dup1\n      iszero\n      tag_23\n      jumpi\n      0x00\n      dup1\n      revert\n    tag_23:\n      pop\n      tag_24\n      0x04\n      dup1\n      calldatasize\n      sub\n      dup2\n      add\n      swap1\n      tag_25\n      swap2\n      swap1\n      tag_26\n      jump\t// in\n    tag_25:\n      tag_27\n      jump\t// in\n    tag_24:\n      mload(0x40)\n      tag_28\n      swap2\n      swap1\n      tag_15\n      jump\t// in\n    tag_28:\n      mload(0x40)\n      dup1\n      swap2\n      sub\n      swap1\n      return\n        /* \"contracts/CrowdFunding.sol\":551:596  mapping(uint256 => Campaign) public campaigns */\n    tag_5:\n      callvalue\n      dup1\n      iszero\n      tag_29\n      jumpi\n      0x00\n      dup1\n      revert\n    tag_29:\n      pop\n      tag_30\n      0x04\n      dup1\n      calldatasize\n      sub\n      dup2\n      add\n      swap1\n      tag_31\n      swap2\n      swap1\n      tag_19\n      jump\t// in\n    tag_31:\n      tag_32\n      jump\t// in\n    tag_30:\n      mload(0x40)\n      tag_33\n      swap8\n      swap7\n      swap6\n      swap5\n      swap4\n      swap3\n      swap2\n      swap1\n      tag_34\n      jump\t// in\n    tag_33:\n      mload(0x40)\n      dup1\n      swap2\n      sub\n      swap1\n      return\n        /* \"contracts/CrowdFunding.sol\":1745:3036  function donateToCampaign(uint256 _id) external payable {... */\n    tag_6:\n      tag_35\n      0x04\n      dup1\n      calldatasize\n      sub\n      dup2\n      add\n      swap1\n      tag_36\n      swap2\n      swap1\n      tag_19\n      jump\t// in\n    tag_36:\n      tag_37\n      jump\t// in\n    tag_35:\n      stop\n        /* \"contracts/CrowdFunding.sol\":4436:4745  function deleteCampaign(uint256 _id) external {... */\n    tag_7:\n      callvalue\n      dup1\n      iszero\n      tag_38\n      jumpi\n      0x00\n      dup1\n      revert\n    tag_38:\n      pop\n      tag_39\n      0x04\n      dup1\n      calldatasize\n      sub\n      dup2\n      add\n      swap1\n      tag_40\n      swap2\n      swap1\n      tag_19\n      jump\t// in\n    tag_40:\n      tag_41\n      jump\t// in\n    tag_39:\n      stop\n        /* \"contracts/CrowdFunding.sol\":3357:3691  function getCampaigns() external view returns (Campaign[] memory) {... */\n    tag_8:\n      callvalue\n      dup1\n      iszero\n      tag_42\n      jumpi\n      0x00\n      dup1\n      revert\n    tag_42:\n      pop\n      tag_43\n      tag_44\n      jump\t// in\n    tag_43:\n      mload(0x40)\n      tag_45\n      swap2\n      swap1\n      tag_46\n      jump\t// in\n    tag_45:\n      mload(0x40)\n      dup1\n      swap2\n      sub\n      swap1\n      return\n        /* \"contracts/CrowdFunding.sol\":3760:4377  function updateCampaign(... */\n    tag_9:\n      callvalue\n      dup1\n      iszero\n      tag_47\n      jumpi\n      0x00\n      dup1\n      revert\n    tag_47:\n      pop\n      tag_48\n      0x04\n      dup1\n      calldatasize\n      sub\n      dup2\n      add\n      swap1\n      tag_49\n      swap2\n      swap1\n      tag_50\n      jump\t// in\n    tag_49:\n      tag_51\n      jump\t// in\n    tag_48:\n      stop\n        /* \"contracts/CrowdFunding.sol\":602:638  uint256 public numberOfCampaigns = 0 */\n    tag_13:\n      sload(0x01)\n      dup2\n      jump\t// out\n        /* \"contracts/CrowdFunding.sol\":3118:3326  function getDonators(uint256 _id) external view returns (address[] memory, uint256[] memory) {... */\n    tag_20:\n        /* \"contracts/CrowdFunding.sol\":3175:3191  address[] memory */\n      0x60\n        /* \"contracts/CrowdFunding.sol\":3193:3209  uint256[] memory */\n      dup1\n        /* \"contracts/CrowdFunding.sol\":3221:3246  Campaign storage campaign */\n      0x00\n        /* \"contracts/CrowdFunding.sol\":3249:3258  campaigns */\n      dup1\n        /* \"contracts/CrowdFunding.sol\":3249:3263  campaigns[_id] */\n      0x00\n        /* \"contracts/CrowdFunding.sol\":3259:3262  _id */\n      dup6\n        /* \"contracts/CrowdFunding.sol\":3249:3263  campaigns[_id] */\n      dup2\n      mstore\n      0x20\n      add\n      swap1\n      dup2\n      mstore\n      0x20\n      add\n      0x00\n      keccak256\n        /* \"contracts/CrowdFunding.sol\":3221:3263  Campaign storage campaign = campaigns[_id] */\n      swap1\n      pop\n        /* \"contracts/CrowdFunding.sol\":3281:3289  campaign */\n      dup1\n        /* \"contracts/CrowdFunding.sol\":3281:3298  campaign.donators */\n      0x07\n      add\n        /* \"contracts/CrowdFunding.sol\":3300:3308  campaign */\n      dup2\n        /* \"contracts/CrowdFunding.sol\":3300:3318  campaign.donations */\n      0x08\n      add\n        /* \"contracts/CrowdFunding.sol\":3273:3319  return (campaign.donators, campaign.donations) */\n      dup2\n      dup1\n      sload\n      dup1\n      0x20\n      mul\n      0x20\n      add\n      mload(0x40)\n      swap1\n      dup2\n      add\n      0x40\n      mstore\n      dup1\n      swap3\n      swap2\n      swap1\n      dup2\n      dup2\n      mstore\n      0x20\n      add\n      dup3\n      dup1\n      sload\n      dup1\n      iszero\n      tag_53\n      jumpi\n      0x20\n      mul\n      dup3\n      add\n      swap2\n      swap1\n      0x00\n      mstore\n      keccak256(0x00, 0x20)\n      swap1\n    tag_54:\n      dup2\n      0x00\n      swap1\n      sload\n      swap1\n      0x0100\n      exp\n      swap1\n      div\n      0xffffffffffffffffffffffffffffffffffffffff\n      and\n      0xffffffffffffffffffffffffffffffffffffffff\n      and\n      dup2\n      mstore\n      0x20\n      add\n      swap1\n      0x01\n      add\n      swap1\n      dup1\n      dup4\n      gt\n      tag_54\n      jumpi\n    tag_53:\n      pop\n      pop\n      pop\n      pop\n      pop\n      swap2\n      pop\n      dup1\n      dup1\n      sload\n      dup1\n      0x20\n      mul\n      0x20\n      add\n      mload(0x40)\n      swap1\n      dup2\n      add\n      0x40\n      mstore\n      dup1\n      swap3\n      swap2\n      swap1\n      dup2\n      dup2\n      mstore\n      0x20\n      add\n      dup3\n      dup1\n      sload\n      dup1\n      iszero\n      tag_55\n      jumpi\n      0x20\n      mul\n      dup3\n      add\n      swap2\n      swap1\n      0x00\n      mstore\n      keccak256(0x00, 0x20)\n      swap1\n    tag_56:\n      dup2\n      sload\n      dup2\n      mstore\n      0x20\n      add\n      swap1\n      0x01\n      add\n      swap1\n      dup1\n      dup4\n      gt\n      tag_56\n      jumpi\n    tag_55:\n      pop\n      pop\n      pop\n      pop\n      pop\n      swap1\n      pop\n      swap3\n      pop\n      swap3\n      pop\n      pop\n        /* \"contracts/CrowdFunding.sol\":3118:3326  function getDonators(uint256 _id) external view returns (address[] memory, uint256[] memory) {... */\n      swap2\n      pop\n      swap2\n      jump\t// out\n        /* \"contracts/CrowdFunding.sol\":713:1661  function createCampaign(... */\n    tag_27:\n        /* \"contracts/CrowdFunding.sol\":912:919  uint256 */\n      0x00\n        /* \"contracts/CrowdFunding.sol\":949:950  0 */\n      dup1\n        /* \"contracts/CrowdFunding.sol\":939:946  _target */\n      dup5\n        /* \"contracts/CrowdFunding.sol\":939:950  _target > 0 */\n      gt\n        /* \"contracts/CrowdFunding.sol\":931:984  require(_target > 0, \"Target must be greater than 0\") */\n      tag_58\n      jumpi\n      mload(0x40)\n      0x08c379a000000000000000000000000000000000000000000000000000000000\n      dup2\n      mstore\n      0x04\n      add\n      tag_59\n      swap1\n      tag_60\n      jump\t// in\n    tag_59:\n      mload(0x40)\n      dup1\n      swap2\n      sub\n      swap1\n      revert\n    tag_58:\n        /* \"contracts/CrowdFunding.sol\":1025:1026  0 */\n      0x00\n        /* \"contracts/CrowdFunding.sol\":1008:1014  _title */\n      dup9\n      dup9\n        /* \"contracts/CrowdFunding.sol\":1002:1022  bytes(_title).length */\n      swap1\n      pop\n        /* \"contracts/CrowdFunding.sol\":1002:1026  bytes(_title).length > 0 */\n      gt\n        /* \"contracts/CrowdFunding.sol\":994:1052  require(bytes(_title).length > 0, \"Title cannot be empty\") */\n      tag_61\n      jumpi\n      mload(0x40)\n      0x08c379a000000000000000000000000000000000000000000000000000000000\n      dup2\n      mstore\n      0x04\n      add\n      tag_62\n      swap1\n      tag_63\n      jump\t// in\n    tag_62:\n      mload(0x40)\n      dup1\n      swap2\n      sub\n      swap1\n      revert\n    tag_61:\n        /* \"contracts/CrowdFunding.sol\":1099:1100  0 */\n      0x00\n        /* \"contracts/CrowdFunding.sol\":1076:1088  _description */\n      dup7\n      dup7\n        /* \"contracts/CrowdFunding.sol\":1070:1096  bytes(_description).length */\n      swap1\n      pop\n        /* \"contracts/CrowdFunding.sol\":1070:1100  bytes(_description).length > 0 */\n      gt\n        /* \"contracts/CrowdFunding.sol\":1062:1132  require(bytes(_description).length > 0, \"Description cannot be empty\") */\n      tag_64\n      jumpi\n      mload(0x40)\n      0x08c379a000000000000000000000000000000000000000000000000000000000\n      dup2\n      mstore\n      0x04\n      add\n      tag_65\n      swap1\n      tag_66\n      jump\t// in\n    tag_65:\n      mload(0x40)\n      dup1\n      swap2\n      sub\n      swap1\n      revert\n    tag_64:\n        /* \"contracts/CrowdFunding.sol\":1168:1169  0 */\n      0x00\n        /* \"contracts/CrowdFunding.sol\":1150:1170  _owner != address(0) */\n      0xffffffffffffffffffffffffffffffffffffffff\n      and\n        /* \"contracts/CrowdFunding.sol\":1150:1156  _owner */\n      dup10\n        /* \"contracts/CrowdFunding.sol\":1150:1170  _owner != address(0) */\n      0xffffffffffffffffffffffffffffffffffffffff\n      and\n      sub\n        /* \"contracts/CrowdFunding.sol\":1142:1196  require(_owner != address(0), \"Invalid owner address\") */\n      tag_67\n      jumpi\n      mload(0x40)\n      0x08c379a000000000000000000000000000000000000000000000000000000000\n      dup2\n      mstore\n      0x04\n      add\n      tag_68\n      swap1\n      tag_69\n      jump\t// in\n    tag_68:\n      mload(0x40)\n      dup1\n      swap2\n      sub\n      swap1\n      revert\n    tag_67:\n        /* \"contracts/CrowdFunding.sol\":1207:1232  Campaign storage campaign */\n      0x00\n        /* \"contracts/CrowdFunding.sol\":1235:1244  campaigns */\n      dup1\n        /* \"contracts/CrowdFunding.sol\":1235:1263  campaigns[numberOfCampaigns] */\n      0x00\n        /* \"contracts/CrowdFunding.sol\":1245:1262  numberOfCampaigns */\n      sload(0x01)\n        /* \"contracts/CrowdFunding.sol\":1235:1263  campaigns[numberOfCampaigns] */\n      dup2\n      mstore\n      0x20\n      add\n      swap1\n      dup2\n      mstore\n      0x20\n      add\n      0x00\n      keccak256\n        /* \"contracts/CrowdFunding.sol\":1207:1263  Campaign storage campaign = campaigns[numberOfCampaigns] */\n      swap1\n      pop\n        /* \"contracts/CrowdFunding.sol\":1290:1296  _owner */\n      dup10\n        /* \"contracts/CrowdFunding.sol\":1273:1281  campaign */\n      dup2\n        /* \"contracts/CrowdFunding.sol\":1273:1287  campaign.owner */\n      0x00\n      add\n      0x00\n        /* \"contracts/CrowdFunding.sol\":1273:1296  campaign.owner = _owner */\n      0x0100\n      exp\n      dup2\n      sload\n      dup2\n      0xffffffffffffffffffffffffffffffffffffffff\n      mul\n      not\n      and\n      swap1\n      dup4\n      0xffffffffffffffffffffffffffffffffffffffff\n      and\n      mul\n      or\n      swap1\n      sstore\n      pop\n        /* \"contracts/CrowdFunding.sol\":1323:1329  _title */\n      dup9\n      dup9\n        /* \"contracts/CrowdFunding.sol\":1306:1314  campaign */\n      dup3\n        /* \"contracts/CrowdFunding.sol\":1306:1320  campaign.title */\n      0x01\n      add\n        /* \"contracts/CrowdFunding.sol\":1306:1329  campaign.title = _title */\n      swap2\n      dup3\n      tag_70\n      swap3\n      swap2\n      swap1\n      tag_71\n      jump\t// in\n    tag_70:\n      pop\n        /* \"contracts/CrowdFunding.sol\":1362:1374  _description */\n      dup7\n      dup7\n        /* \"contracts/CrowdFunding.sol\":1339:1347  campaign */\n      dup3\n        /* \"contracts/CrowdFunding.sol\":1339:1359  campaign.description */\n      0x02\n      add\n        /* \"contracts/CrowdFunding.sol\":1339:1374  campaign.description = _description */\n      swap2\n      dup3\n      tag_72\n      swap3\n      swap2\n      swap1\n      tag_71\n      jump\t// in\n    tag_72:\n      pop\n        /* \"contracts/CrowdFunding.sol\":1402:1409  _target */\n      dup5\n        /* \"contracts/CrowdFunding.sol\":1384:1392  campaign */\n      dup2\n        /* \"contracts/CrowdFunding.sol\":1384:1399  campaign.target */\n      0x03\n      add\n        /* \"contracts/CrowdFunding.sol\":1384:1409  campaign.target = _target */\n      dup2\n      swap1\n      sstore\n      pop\n        /* \"contracts/CrowdFunding.sol\":1446:1447  0 */\n      0x00\n        /* \"contracts/CrowdFunding.sol\":1419:1427  campaign */\n      dup2\n        /* \"contracts/CrowdFunding.sol\":1419:1443  campaign.amountCollected */\n      0x04\n      add\n        /* \"contracts/CrowdFunding.sol\":1419:1447  campaign.amountCollected = 0 */\n      dup2\n      swap1\n      sstore\n      pop\n        /* \"contracts/CrowdFunding.sol\":1474:1480  _image */\n      dup4\n      dup4\n        /* \"contracts/CrowdFunding.sol\":1457:1465  campaign */\n      dup3\n        /* \"contracts/CrowdFunding.sol\":1457:1471  campaign.image */\n      0x05\n      add\n        /* \"contracts/CrowdFunding.sol\":1457:1480  campaign.image = _image */\n      swap2\n      dup3\n      tag_73\n      swap3\n      swap2\n      swap1\n      tag_71\n      jump\t// in\n    tag_73:\n      pop\n        /* \"contracts/CrowdFunding.sol\":1511:1516  false */\n      0x00\n        /* \"contracts/CrowdFunding.sol\":1490:1498  campaign */\n      dup2\n        /* \"contracts/CrowdFunding.sol\":1490:1508  campaign.completed */\n      0x06\n      add\n      0x00\n        /* \"contracts/CrowdFunding.sol\":1490:1516  campaign.completed = false */\n      0x0100\n      exp\n      dup2\n      sload\n      dup2\n      0xff\n      mul\n      not\n      and\n      swap1\n      dup4\n      iszero\n      iszero\n      mul\n      or\n      swap1\n      sstore\n      pop\n        /* \"contracts/CrowdFunding.sol\":1588:1612  numberOfCampaigns.add(1) */\n      tag_74\n        /* \"contracts/CrowdFunding.sol\":1610:1611  1 */\n      0x01\n        /* \"contracts/CrowdFunding.sol\":1588:1605  numberOfCampaigns */\n      dup1\n      sload\n        /* \"contracts/CrowdFunding.sol\":1588:1609  numberOfCampaigns.add */\n      tag_75\n      swap1\n        /* \"contracts/CrowdFunding.sol\":1588:1612  numberOfCampaigns.add(1) */\n      swap2\n      swap1\n      0xffffffff\n      and\n      jump\t// in\n    tag_74:\n        /* \"contracts/CrowdFunding.sol\":1568:1585  numberOfCampaigns */\n      0x01\n        /* \"contracts/CrowdFunding.sol\":1568:1612  numberOfCampaigns = numberOfCampaigns.add(1) */\n      dup2\n      swap1\n      sstore\n      pop\n        /* \"contracts/CrowdFunding.sol\":1630:1654  numberOfCampaigns.sub(1) */\n      tag_76\n        /* \"contracts/CrowdFunding.sol\":1652:1653  1 */\n      0x01\n        /* \"contracts/CrowdFunding.sol\":1630:1647  numberOfCampaigns */\n      dup1\n      sload\n        /* \"contracts/CrowdFunding.sol\":1630:1651  numberOfCampaigns.sub */\n      tag_77\n      swap1\n        /* \"contracts/CrowdFunding.sol\":1630:1654  numberOfCampaigns.sub(1) */\n      swap2\n      swap1\n      0xffffffff\n      and\n      jump\t// in\n    tag_76:\n        /* \"contracts/CrowdFunding.sol\":1623:1654  return numberOfCampaigns.sub(1) */\n      swap2\n      pop\n      pop\n        /* \"contracts/CrowdFunding.sol\":713:1661  function createCampaign(... */\n      swap9\n      swap8\n      pop\n      pop\n      pop\n      pop\n      pop\n      pop\n      pop\n      pop\n      jump\t// out\n        /* \"contracts/CrowdFunding.sol\":551:596  mapping(uint256 => Campaign) public campaigns */\n    tag_32:\n      mstore(0x20, 0x00)\n      dup1\n      0x00\n      mstore\n      keccak256(0x00, 0x40)\n      0x00\n      swap2\n      pop\n      swap1\n      pop\n      dup1\n      0x00\n      add\n      0x00\n      swap1\n      sload\n      swap1\n      0x0100\n      exp\n      swap1\n      div\n      0xffffffffffffffffffffffffffffffffffffffff\n      and\n      swap1\n      dup1\n      0x01\n      add\n      dup1\n      sload\n      tag_78\n      swap1\n      tag_79\n      jump\t// in\n    tag_78:\n      dup1\n      0x1f\n      add\n      0x20\n      dup1\n      swap2\n      div\n      mul\n      0x20\n      add\n      mload(0x40)\n      swap1\n      dup2\n      add\n      0x40\n      mstore\n      dup1\n      swap3\n      swap2\n      swap1\n      dup2\n      dup2\n      mstore\n      0x20\n      add\n      dup3\n      dup1\n      sload\n      tag_80\n      swap1\n      tag_79\n      jump\t// in\n    tag_80:\n      dup1\n      iszero\n      tag_81\n      jumpi\n      dup1\n      0x1f\n      lt\n      tag_82\n      jumpi\n      0x0100\n      dup1\n      dup4\n      sload\n      div\n      mul\n      dup4\n      mstore\n      swap2\n      0x20\n      add\n      swap2\n      jump(tag_81)\n    tag_82:\n      dup3\n      add\n      swap2\n      swap1\n      0x00\n      mstore\n      keccak256(0x00, 0x20)\n      swap1\n    tag_83:\n      dup2\n      sload\n      dup2\n      mstore\n      swap1\n      0x01\n      add\n      swap1\n      0x20\n      add\n      dup1\n      dup4\n      gt\n      tag_83\n      jumpi\n      dup3\n      swap1\n      sub\n      0x1f\n      and\n      dup3\n      add\n      swap2\n    tag_81:\n      pop\n      pop\n      pop\n      pop\n      pop\n      swap1\n      dup1\n      0x02\n      add\n      dup1\n      sload\n      tag_84\n      swap1\n      tag_79\n      jump\t// in\n    tag_84:\n      dup1\n      0x1f\n      add\n      0x20\n      dup1\n      swap2\n      div\n      mul\n      0x20\n      add\n      mload(0x40)\n      swap1\n      dup2\n      add\n      0x40\n      mstore\n      dup1\n      swap3\n      swap2\n      swap1\n      dup2\n      dup2\n      mstore\n      0x20\n      add\n      dup3\n      dup1\n      sload\n      tag_85\n      swap1\n      tag_79\n      jump\t// in\n    tag_85:\n      dup1\n      iszero\n      tag_86\n      jumpi\n      dup1\n      0x1f\n      lt\n      tag_87\n      jumpi\n      0x0100\n      dup1\n      dup4\n      sload\n      div\n      mul\n      dup4\n      mstore\n      swap2\n      0x20\n      add\n      swap2\n      jump(tag_86)\n    tag_87:\n      dup3\n      add\n      swap2\n      swap1\n      0x00\n      mstore\n      keccak256(0x00, 0x20)\n      swap1\n    tag_88:\n      dup2\n      sload\n      dup2\n      mstore\n      swap1\n      0x01\n      add\n      swap1\n      0x20\n      add\n      dup1\n      dup4\n      gt\n      tag_88\n      jumpi\n      dup3\n      swap1\n      sub\n      0x1f\n      and\n      dup3\n      add\n      swap2\n    tag_86:\n      pop\n      pop\n      pop\n      pop\n      pop\n      swap1\n      dup1\n      0x03\n      add\n      sload\n      swap1\n      dup1\n      0x04\n      add\n      sload\n      swap1\n      dup1\n      0x05\n      add\n      dup1\n      sload\n      tag_89\n      swap1\n      tag_79\n      jump\t// in\n    tag_89:\n      dup1\n      0x1f\n      add\n      0x20\n      dup1\n      swap2\n      div\n      mul\n      0x20\n      add\n      mload(0x40)\n      swap1\n      dup2\n      add\n      0x40\n      mstore\n      dup1\n      swap3\n      swap2\n      swap1\n      dup2\n      dup2\n      mstore\n      0x20\n      add\n      dup3\n      dup1\n      sload\n      tag_90\n      swap1\n      tag_79\n      jump\t// in\n    tag_90:\n      dup1\n      iszero\n      tag_91\n      jumpi\n      dup1\n      0x1f\n      lt\n      tag_92\n      jumpi\n      0x0100\n      dup1\n      dup4\n      sload\n      div\n      mul\n      dup4\n      mstore\n      swap2\n      0x20\n      add\n      swap2\n      jump(tag_91)\n    tag_92:\n      dup3\n      add\n      swap2\n      swap1\n      0x00\n      mstore\n      keccak256(0x00, 0x20)\n      swap1\n    tag_93:\n      dup2\n      sload\n      dup2\n      mstore\n      swap1\n      0x01\n      add\n      swap1\n      0x20\n      add\n      dup1\n      dup4\n      gt\n      tag_93\n      jumpi\n      dup3\n      swap1\n      sub\n      0x1f\n      and\n      dup3\n      add\n      swap2\n    tag_91:\n      pop\n      pop\n      pop\n      pop\n      pop\n      swap1\n      dup1\n      0x06\n      add\n      0x00\n      swap1\n      sload\n      swap1\n      0x0100\n      exp\n      swap1\n      div\n      0xff\n      and\n      swap1\n      pop\n      dup8\n      jump\t// out\n        /* \"contracts/CrowdFunding.sol\":1745:3036  function donateToCampaign(uint256 _id) external payable {... */\n    tag_37:\n        /* \"contracts/CrowdFunding.sol\":1831:1832  0 */\n      0x00\n        /* \"contracts/CrowdFunding.sol\":1819:1828  msg.value */\n      callvalue\n        /* \"contracts/CrowdFunding.sol\":1819:1832  msg.value > 0 */\n      gt\n        /* \"contracts/CrowdFunding.sol\":1811:1875  require(msg.value > 0, \"Donation amount must be greater than 0\") */\n      tag_95\n      jumpi\n      mload(0x40)\n      0x08c379a000000000000000000000000000000000000000000000000000000000\n      dup2\n      mstore\n      0x04\n      add\n      tag_96\n      swap1\n      tag_97\n      jump\t// in\n    tag_96:\n      mload(0x40)\n      dup1\n      swap2\n      sub\n      swap1\n      revert\n    tag_95:\n        /* \"contracts/CrowdFunding.sol\":1885:1910  Campaign storage campaign */\n      0x00\n        /* \"contracts/CrowdFunding.sol\":1913:1922  campaigns */\n      dup1\n        /* \"contracts/CrowdFunding.sol\":1913:1927  campaigns[_id] */\n      0x00\n        /* \"contracts/CrowdFunding.sol\":1923:1926  _id */\n      dup4\n        /* \"contracts/CrowdFunding.sol\":1913:1927  campaigns[_id] */\n      dup2\n      mstore\n      0x20\n      add\n      swap1\n      dup2\n      mstore\n      0x20\n      add\n      0x00\n      keccak256\n        /* \"contracts/CrowdFunding.sol\":1885:1927  Campaign storage campaign = campaigns[_id] */\n      swap1\n      pop\n        /* \"contracts/CrowdFunding.sol\":1971:1972  0 */\n      0x00\n        /* \"contracts/CrowdFunding.sol\":1945:1973  campaign.owner != address(0) */\n      0xffffffffffffffffffffffffffffffffffffffff\n      and\n        /* \"contracts/CrowdFunding.sol\":1945:1953  campaign */\n      dup2\n        /* \"contracts/CrowdFunding.sol\":1945:1959  campaign.owner */\n      0x00\n      add\n      0x00\n      swap1\n      sload\n      swap1\n      0x0100\n      exp\n      swap1\n      div\n      0xffffffffffffffffffffffffffffffffffffffff\n      and\n        /* \"contracts/CrowdFunding.sol\":1945:1973  campaign.owner != address(0) */\n      0xffffffffffffffffffffffffffffffffffffffff\n      and\n      sub\n        /* \"contracts/CrowdFunding.sol\":1937:2001  require(campaign.owner != address(0), \"Campaign does not exist\") */\n      tag_98\n      jumpi\n      mload(0x40)\n      0x08c379a000000000000000000000000000000000000000000000000000000000\n      dup2\n      mstore\n      0x04\n      add\n      tag_99\n      swap1\n      tag_100\n      jump\t// in\n    tag_99:\n      mload(0x40)\n      dup1\n      swap2\n      sub\n      swap1\n      revert\n    tag_98:\n        /* \"contracts/CrowdFunding.sol\":2020:2028  campaign */\n      dup1\n        /* \"contracts/CrowdFunding.sol\":2020:2038  campaign.completed */\n      0x06\n      add\n      0x00\n      swap1\n      sload\n      swap1\n      0x0100\n      exp\n      swap1\n      div\n      0xff\n      and\n        /* \"contracts/CrowdFunding.sol\":2019:2038  !campaign.completed */\n      iszero\n        /* \"contracts/CrowdFunding.sol\":2011:2069  require(!campaign.completed, \"Campaign already completed\") */\n      tag_101\n      jumpi\n      mload(0x40)\n      0x08c379a000000000000000000000000000000000000000000000000000000000\n      dup2\n      mstore\n      0x04\n      add\n      tag_102\n      swap1\n      tag_103\n      jump\t// in\n    tag_102:\n      mload(0x40)\n      dup1\n      swap2\n      sub\n      swap1\n      revert\n    tag_101:\n        /* \"contracts/CrowdFunding.sol\":2178:2208  uint256 initialAmountCollected */\n      0x00\n        /* \"contracts/CrowdFunding.sol\":2211:2219  campaign */\n      dup2\n        /* \"contracts/CrowdFunding.sol\":2211:2235  campaign.amountCollected */\n      0x04\n      add\n      sload\n        /* \"contracts/CrowdFunding.sol\":2178:2235  uint256 initialAmountCollected = campaign.amountCollected */\n      swap1\n      pop\n        /* \"contracts/CrowdFunding.sol\":2265:2273  campaign */\n      dup2\n        /* \"contracts/CrowdFunding.sol\":2265:2282  campaign.donators */\n      0x07\n      add\n        /* \"contracts/CrowdFunding.sol\":2288:2298  msg.sender */\n      caller\n        /* \"contracts/CrowdFunding.sol\":2265:2299  campaign.donators.push(msg.sender) */\n      swap1\n      dup1\n      0x01\n      dup2\n      sload\n      add\n      dup1\n      dup3\n      sstore\n      dup1\n      swap2\n      pop\n      pop\n      0x01\n      swap1\n      sub\n      swap1\n      0x00\n      mstore\n      keccak256(0x00, 0x20)\n      add\n      0x00\n      swap1\n      swap2\n      swap1\n      swap2\n      swap1\n      swap2\n      0x0100\n      exp\n      dup2\n      sload\n      dup2\n      0xffffffffffffffffffffffffffffffffffffffff\n      mul\n      not\n      and\n      swap1\n      dup4\n      0xffffffffffffffffffffffffffffffffffffffff\n      and\n      mul\n      or\n      swap1\n      sstore\n      pop\n        /* \"contracts/CrowdFunding.sol\":2309:2317  campaign */\n      dup2\n        /* \"contracts/CrowdFunding.sol\":2309:2327  campaign.donations */\n      0x08\n      add\n        /* \"contracts/CrowdFunding.sol\":2333:2342  msg.value */\n      callvalue\n        /* \"contracts/CrowdFunding.sol\":2309:2343  campaign.donations.push(msg.value) */\n      swap1\n      dup1\n      0x01\n      dup2\n      sload\n      add\n      dup1\n      dup3\n      sstore\n      dup1\n      swap2\n      pop\n      pop\n      0x01\n      swap1\n      sub\n      swap1\n      0x00\n      mstore\n      keccak256(0x00, 0x20)\n      add\n      0x00\n      swap1\n      swap2\n      swap1\n      swap2\n      swap1\n      swap2\n      pop\n      sstore\n        /* \"contracts/CrowdFunding.sol\":2443:2482  campaign.amountCollected.add(msg.value) */\n      tag_106\n        /* \"contracts/CrowdFunding.sol\":2472:2481  msg.value */\n      callvalue\n        /* \"contracts/CrowdFunding.sol\":2443:2451  campaign */\n      dup4\n        /* \"contracts/CrowdFunding.sol\":2443:2467  campaign.amountCollected */\n      0x04\n      add\n      sload\n        /* \"contracts/CrowdFunding.sol\":2443:2471  campaign.amountCollected.add */\n      tag_75\n      swap1\n        /* \"contracts/CrowdFunding.sol\":2443:2482  campaign.amountCollected.add(msg.value) */\n      swap2\n      swap1\n      0xffffffff\n      and\n      jump\t// in\n    tag_106:\n        /* \"contracts/CrowdFunding.sol\":2416:2424  campaign */\n      dup3\n        /* \"contracts/CrowdFunding.sol\":2416:2440  campaign.amountCollected */\n      0x04\n      add\n        /* \"contracts/CrowdFunding.sol\":2416:2482  campaign.amountCollected = campaign.amountCollected.add(msg.value) */\n      dup2\n      swap1\n      sstore\n      pop\n        /* \"contracts/CrowdFunding.sol\":2575:2583  campaign */\n      dup2\n        /* \"contracts/CrowdFunding.sol\":2575:2590  campaign.target */\n      0x03\n      add\n      sload\n        /* \"contracts/CrowdFunding.sol\":2547:2555  campaign */\n      dup3\n        /* \"contracts/CrowdFunding.sol\":2547:2571  campaign.amountCollected */\n      0x04\n      add\n      sload\n        /* \"contracts/CrowdFunding.sol\":2547:2590  campaign.amountCollected >= campaign.target */\n      lt\n        /* \"contracts/CrowdFunding.sol\":2543:2676  if (campaign.amountCollected >= campaign.target) {... */\n      tag_107\n      jumpi\n        /* \"contracts/CrowdFunding.sol\":2627:2631  true */\n      0x01\n        /* \"contracts/CrowdFunding.sol\":2606:2614  campaign */\n      dup3\n        /* \"contracts/CrowdFunding.sol\":2606:2624  campaign.completed */\n      0x06\n      add\n      0x00\n        /* \"contracts/CrowdFunding.sol\":2606:2631  campaign.completed = true */\n      0x0100\n      exp\n      dup2\n      sload\n      dup2\n      0xff\n      mul\n      not\n      and\n      swap1\n      dup4\n      iszero\n      iszero\n      mul\n      or\n      swap1\n      sstore\n      pop\n        /* \"contracts/CrowdFunding.sol\":2543:2676  if (campaign.amountCollected >= campaign.target) {... */\n    tag_107:\n        /* \"contracts/CrowdFunding.sol\":2761:2770  bool sent */\n      0x00\n        /* \"contracts/CrowdFunding.sol\":2784:2792  campaign */\n      dup3\n        /* \"contracts/CrowdFunding.sol\":2784:2798  campaign.owner */\n      0x00\n      add\n      0x00\n      swap1\n      sload\n      swap1\n      0x0100\n      exp\n      swap1\n      div\n      0xffffffffffffffffffffffffffffffffffffffff\n      and\n        /* \"contracts/CrowdFunding.sol\":2776:2804  payable(campaign.owner).call */\n      0xffffffffffffffffffffffffffffffffffffffff\n      and\n        /* \"contracts/CrowdFunding.sol\":2812:2821  msg.value */\n      callvalue\n        /* \"contracts/CrowdFunding.sol\":2776:2826  payable(campaign.owner).call{value: msg.value}(\"\") */\n      mload(0x40)\n      tag_108\n      swap1\n      tag_109\n      jump\t// in\n    tag_108:\n      0x00\n      mload(0x40)\n      dup1\n      dup4\n      sub\n      dup2\n      dup6\n      dup8\n      gas\n      call\n      swap3\n      pop\n      pop\n      pop\n      returndatasize\n      dup1\n      0x00\n      dup2\n      eq\n      tag_112\n      jumpi\n      mload(0x40)\n      swap2\n      pop\n      and(add(returndatasize, 0x3f), not(0x1f))\n      dup3\n      add\n      0x40\n      mstore\n      returndatasize\n      dup3\n      mstore\n      returndatasize\n      0x00\n      0x20\n      dup5\n      add\n      returndatacopy\n      jump(tag_111)\n    tag_112:\n      0x60\n      swap2\n      pop\n    tag_111:\n      pop\n        /* \"contracts/CrowdFunding.sol\":2760:2826  (bool sent, ) = payable(campaign.owner).call{value: msg.value}(\"\") */\n      pop\n      swap1\n      pop\n        /* \"contracts/CrowdFunding.sol\":2844:2848  sent */\n      dup1\n        /* \"contracts/CrowdFunding.sol\":2836:2891  require(sent, \"Failed to send Ether to campaign owner\") */\n      tag_113\n      jumpi\n      mload(0x40)\n      0x08c379a000000000000000000000000000000000000000000000000000000000\n      dup2\n      mstore\n      0x04\n      add\n      tag_114\n      swap1\n      tag_115\n      jump\t// in\n    tag_114:\n      mload(0x40)\n      dup1\n      swap2\n      sub\n      swap1\n      revert\n    tag_113:\n        /* \"contracts/CrowdFunding.sol\":2991:3028  initialAmountCollected.add(msg.value) */\n      tag_116\n        /* \"contracts/CrowdFunding.sol\":3018:3027  msg.value */\n      callvalue\n        /* \"contracts/CrowdFunding.sol\":2991:3013  initialAmountCollected */\n      dup4\n        /* \"contracts/CrowdFunding.sol\":2991:3017  initialAmountCollected.add */\n      tag_75\n      swap1\n        /* \"contracts/CrowdFunding.sol\":2991:3028  initialAmountCollected.add(msg.value) */\n      swap2\n      swap1\n      0xffffffff\n      and\n      jump\t// in\n    tag_116:\n        /* \"contracts/CrowdFunding.sol\":2963:2971  campaign */\n      dup4\n        /* \"contracts/CrowdFunding.sol\":2963:2987  campaign.amountCollected */\n      0x04\n      add\n      sload\n        /* \"contracts/CrowdFunding.sol\":2963:3028  campaign.amountCollected == initialAmountCollected.add(msg.value) */\n      eq\n        /* \"contracts/CrowdFunding.sol\":2956:3029  assert(campaign.amountCollected == initialAmountCollected.add(msg.value)) */\n      tag_117\n      jumpi\n      tag_118\n      tag_119\n      jump\t// in\n    tag_118:\n    tag_117:\n        /* \"contracts/CrowdFunding.sol\":1801:3036  {... */\n      pop\n      pop\n      pop\n        /* \"contracts/CrowdFunding.sol\":1745:3036  function donateToCampaign(uint256 _id) external payable {... */\n      pop\n      jump\t// out\n        /* \"contracts/CrowdFunding.sol\":4436:4745  function deleteCampaign(uint256 _id) external {... */\n    tag_41:\n        /* \"contracts/CrowdFunding.sol\":4492:4517  Campaign storage campaign */\n      0x00\n        /* \"contracts/CrowdFunding.sol\":4520:4529  campaigns */\n      dup1\n        /* \"contracts/CrowdFunding.sol\":4520:4534  campaigns[_id] */\n      0x00\n        /* \"contracts/CrowdFunding.sol\":4530:4533  _id */\n      dup4\n        /* \"contracts/CrowdFunding.sol\":4520:4534  campaigns[_id] */\n      dup2\n      mstore\n      0x20\n      add\n      swap1\n      dup2\n      mstore\n      0x20\n      add\n      0x00\n      keccak256\n        /* \"contracts/CrowdFunding.sol\":4492:4534  Campaign storage campaign = campaigns[_id] */\n      swap1\n      pop\n        /* \"contracts/CrowdFunding.sol\":4566:4574  campaign */\n      dup1\n        /* \"contracts/CrowdFunding.sol\":4566:4580  campaign.owner */\n      0x00\n      add\n      0x00\n      swap1\n      sload\n      swap1\n      0x0100\n      exp\n      swap1\n      div\n      0xffffffffffffffffffffffffffffffffffffffff\n      and\n        /* \"contracts/CrowdFunding.sol\":4552:4580  msg.sender == campaign.owner */\n      0xffffffffffffffffffffffffffffffffffffffff\n      and\n        /* \"contracts/CrowdFunding.sol\":4552:4562  msg.sender */\n      caller\n        /* \"contracts/CrowdFunding.sol\":4552:4580  msg.sender == campaign.owner */\n      0xffffffffffffffffffffffffffffffffffffffff\n      and\n      eq\n        /* \"contracts/CrowdFunding.sol\":4544:4619  require(msg.sender == campaign.owner, \"Only the campaign owner can delete\") */\n      tag_121\n      jumpi\n      mload(0x40)\n      0x08c379a000000000000000000000000000000000000000000000000000000000\n      dup2\n      mstore\n      0x04\n      add\n      tag_122\n      swap1\n      tag_123\n      jump\t// in\n    tag_122:\n      mload(0x40)\n      dup1\n      swap2\n      sub\n      swap1\n      revert\n    tag_121:\n        /* \"contracts/CrowdFunding.sol\":4665:4666  0 */\n      0x00\n        /* \"contracts/CrowdFunding.sol\":4637:4645  campaign */\n      dup2\n        /* \"contracts/CrowdFunding.sol\":4637:4661  campaign.amountCollected */\n      0x04\n      add\n      sload\n        /* \"contracts/CrowdFunding.sol\":4637:4666  campaign.amountCollected == 0 */\n      eq\n        /* \"contracts/CrowdFunding.sol\":4629:4706  require(campaign.amountCollected == 0, \"Cannot delete a campaign with funds\") */\n      tag_124\n      jumpi\n      mload(0x40)\n      0x08c379a000000000000000000000000000000000000000000000000000000000\n      dup2\n      mstore\n      0x04\n      add\n      tag_125\n      swap1\n      tag_126\n      jump\t// in\n    tag_125:\n      mload(0x40)\n      dup1\n      swap2\n      sub\n      swap1\n      revert\n    tag_124:\n        /* \"contracts/CrowdFunding.sol\":4724:4733  campaigns */\n      0x00\n        /* \"contracts/CrowdFunding.sol\":4724:4738  campaigns[_id] */\n      dup1\n        /* \"contracts/CrowdFunding.sol\":4734:4737  _id */\n      dup4\n        /* \"contracts/CrowdFunding.sol\":4724:4738  campaigns[_id] */\n      dup2\n      mstore\n      0x20\n      add\n      swap1\n      dup2\n      mstore\n      0x20\n      add\n      0x00\n      keccak256\n      0x00\n        /* \"contracts/CrowdFunding.sol\":4717:4738  delete campaigns[_id] */\n      dup1\n      dup3\n      add\n      exp(0x0100, 0x00)\n      dup2\n      sload\n      swap1\n      0xffffffffffffffffffffffffffffffffffffffff\n      mul\n      not\n      and\n      swap1\n      sstore\n      0x01\n      dup3\n      add\n      0x00\n      tag_127\n      swap2\n      swap1\n      tag_128\n      jump\t// in\n    tag_127:\n      0x02\n      dup3\n      add\n      0x00\n      tag_129\n      swap2\n      swap1\n      tag_128\n      jump\t// in\n    tag_129:\n      0x03\n      dup3\n      add\n      0x00\n      swap1\n      sstore\n      0x04\n      dup3\n      add\n      0x00\n      swap1\n      sstore\n      0x05\n      dup3\n      add\n      0x00\n      tag_130\n      swap2\n      swap1\n      tag_128\n      jump\t// in\n    tag_130:\n      0x06\n      dup3\n      add\n      exp(0x0100, 0x00)\n      dup2\n      sload\n      swap1\n      0xff\n      mul\n      not\n      and\n      swap1\n      sstore\n      0x07\n      dup3\n      add\n      0x00\n      tag_131\n      swap2\n      swap1\n      tag_132\n      jump\t// in\n    tag_131:\n      0x08\n      dup3\n      add\n      0x00\n      tag_133\n      swap2\n      swap1\n      tag_134\n      jump\t// in\n    tag_133:\n      pop\n      pop\n        /* \"contracts/CrowdFunding.sol\":4482:4745  {... */\n      pop\n        /* \"contracts/CrowdFunding.sol\":4436:4745  function deleteCampaign(uint256 _id) external {... */\n      pop\n      jump\t// out\n        /* \"contracts/CrowdFunding.sol\":3357:3691  function getCampaigns() external view returns (Campaign[] memory) {... */\n    tag_44:\n        /* \"contracts/CrowdFunding.sol\":3404:3421  Campaign[] memory */\n      0x60\n        /* \"contracts/CrowdFunding.sol\":3433:3463  Campaign[] memory allCampaigns */\n      0x00\n        /* \"contracts/CrowdFunding.sol\":3481:3498  numberOfCampaigns */\n      sload(0x01)\n        /* \"contracts/CrowdFunding.sol\":3466:3499  new Campaign[](numberOfCampaigns) */\n      0xffffffffffffffff\n      dup2\n      gt\n      iszero\n      tag_136\n      jumpi\n      tag_137\n      tag_138\n      jump\t// in\n    tag_137:\n    tag_136:\n      mload(0x40)\n      swap1\n      dup1\n      dup3\n      mstore\n      dup1\n      0x20\n      mul\n      0x20\n      add\n      dup3\n      add\n      0x40\n      mstore\n      dup1\n      iszero\n      tag_139\n      jumpi\n      dup2\n      0x20\n      add\n    tag_140:\n      tag_141\n      tag_142\n      jump\t// in\n    tag_141:\n      dup2\n      mstore\n      0x20\n      add\n      swap1\n      0x01\n      swap1\n      sub\n      swap1\n      dup2\n      tag_140\n      jumpi\n      swap1\n      pop\n    tag_139:\n      pop\n        /* \"contracts/CrowdFunding.sol\":3433:3499  Campaign[] memory allCampaigns = new Campaign[](numberOfCampaigns) */\n      swap1\n      pop\n        /* \"contracts/CrowdFunding.sol\":3515:3524  uint256 i */\n      0x00\n        /* \"contracts/CrowdFunding.sol\":3510:3655  for (uint256 i = 0; i < numberOfCampaigns; i++) {... */\n    tag_143:\n        /* \"contracts/CrowdFunding.sol\":3534:3551  numberOfCampaigns */\n      sload(0x01)\n        /* \"contracts/CrowdFunding.sol\":3530:3531  i */\n      dup2\n        /* \"contracts/CrowdFunding.sol\":3530:3551  i < numberOfCampaigns */\n      lt\n        /* \"contracts/CrowdFunding.sol\":3510:3655  for (uint256 i = 0; i < numberOfCampaigns; i++) {... */\n      iszero\n      tag_144\n      jumpi\n        /* \"contracts/CrowdFunding.sol\":3572:3593  Campaign storage item */\n      0x00\n        /* \"contracts/CrowdFunding.sol\":3596:3605  campaigns */\n      dup1\n        /* \"contracts/CrowdFunding.sol\":3596:3608  campaigns[i] */\n      0x00\n        /* \"contracts/CrowdFunding.sol\":3606:3607  i */\n      dup4\n        /* \"contracts/CrowdFunding.sol\":3596:3608  campaigns[i] */\n      dup2\n      mstore\n      0x20\n      add\n      swap1\n      dup2\n      mstore\n      0x20\n      add\n      0x00\n      keccak256\n        /* \"contracts/CrowdFunding.sol\":3572:3608  Campaign storage item = campaigns[i] */\n      swap1\n      pop\n        /* \"contracts/CrowdFunding.sol\":3640:3644  item */\n      dup1\n        /* \"contracts/CrowdFunding.sol\":3622:3644  allCampaigns[i] = item */\n      mload(0x40)\n      dup1\n      0x0120\n      add\n      0x40\n      mstore\n      swap1\n      dup2\n      0x00\n      dup3\n      add\n      0x00\n      swap1\n      sload\n      swap1\n      0x0100\n      exp\n      swap1\n      div\n      0xffffffffffffffffffffffffffffffffffffffff\n      and\n      0xffffffffffffffffffffffffffffffffffffffff\n      and\n      0xffffffffffffffffffffffffffffffffffffffff\n      and\n      dup2\n      mstore\n      0x20\n      add\n      0x01\n      dup3\n      add\n      dup1\n      sload\n      tag_146\n      swap1\n      tag_79\n      jump\t// in\n    tag_146:\n      dup1\n      0x1f\n      add\n      0x20\n      dup1\n      swap2\n      div\n      mul\n      0x20\n      add\n      mload(0x40)\n      swap1\n      dup2\n      add\n      0x40\n      mstore\n      dup1\n      swap3\n      swap2\n      swap1\n      dup2\n      dup2\n      mstore\n      0x20\n      add\n      dup3\n      dup1\n      sload\n      tag_147\n      swap1\n      tag_79\n      jump\t// in\n    tag_147:\n      dup1\n      iszero\n      tag_148\n      jumpi\n      dup1\n      0x1f\n      lt\n      tag_149\n      jumpi\n      0x0100\n      dup1\n      dup4\n      sload\n      div\n      mul\n      dup4\n      mstore\n      swap2\n      0x20\n      add\n      swap2\n      jump(tag_148)\n    tag_149:\n      dup3\n      add\n      swap2\n      swap1\n      0x00\n      mstore\n      keccak256(0x00, 0x20)\n      swap1\n    tag_150:\n      dup2\n      sload\n      dup2\n      mstore\n      swap1\n      0x01\n      add\n      swap1\n      0x20\n      add\n      dup1\n      dup4\n      gt\n      tag_150\n      jumpi\n      dup3\n      swap1\n      sub\n      0x1f\n      and\n      dup3\n      add\n      swap2\n    tag_148:\n      pop\n      pop\n      pop\n      pop\n      pop\n      dup2\n      mstore\n      0x20\n      add\n      0x02\n      dup3\n      add\n      dup1\n      sload\n      tag_151\n      swap1\n      tag_79\n      jump\t// in\n    tag_151:\n      dup1\n      0x1f\n      add\n      0x20\n      dup1\n      swap2\n      div\n      mul\n      0x20\n      add\n      mload(0x40)\n      swap1\n      dup2\n      add\n      0x40\n      mstore\n      dup1\n      swap3\n      swap2\n      swap1\n      dup2\n      dup2\n      mstore\n      0x20\n      add\n      dup3\n      dup1\n      sload\n      tag_152\n      swap1\n      tag_79\n      jump\t// in\n    tag_152:\n      dup1\n      iszero\n      tag_153\n      jumpi\n      dup1\n      0x1f\n      lt\n      tag_154\n      jumpi\n      0x0100\n      dup1\n      dup4\n      sload\n      div\n      mul\n      dup4\n      mstore\n      swap2\n      0x20\n      add\n      swap2\n      jump(tag_153)\n    tag_154:\n      dup3\n      add\n      swap2\n      swap1\n      0x00\n      mstore\n      keccak256(0x00, 0x20)\n      swap1\n    tag_155:\n      dup2\n      sload\n      dup2\n      mstore\n      swap1\n      0x01\n      add\n      swap1\n      0x20\n      add\n      dup1\n      dup4\n      gt\n      tag_155\n      jumpi\n      dup3\n      swap1\n      sub\n      0x1f\n      and\n      dup3\n      add\n      swap2\n    tag_153:\n      pop\n      pop\n      pop\n      pop\n      pop\n      dup2\n      mstore\n      0x20\n      add\n      0x03\n      dup3\n      add\n      sload\n      dup2\n      mstore\n      0x20\n      add\n      0x04\n      dup3\n      add\n      sload\n      dup2\n      mstore\n      0x20\n      add\n      0x05\n      dup3\n      add\n      dup1\n      sload\n      tag_156\n      swap1\n      tag_79\n      jump\t// in\n    tag_156:\n      dup1\n      0x1f\n      add\n      0x20\n      dup1\n      swap2\n      div\n      mul\n      0x20\n      add\n      mload(0x40)\n      swap1\n      dup2\n      add\n      0x40\n      mstore\n      dup1\n      swap3\n      swap2\n      swap1\n      dup2\n      dup2\n      mstore\n      0x20\n      add\n      dup3\n      dup1\n      sload\n      tag_157\n      swap1\n      tag_79\n      jump\t// in\n    tag_157:\n      dup1\n      iszero\n      tag_158\n      jumpi\n      dup1\n      0x1f\n      lt\n      tag_159\n      jumpi\n      0x0100\n      dup1\n      dup4\n      sload\n      div\n      mul\n      dup4\n      mstore\n      swap2\n      0x20\n      add\n      swap2\n      jump(tag_158)\n    tag_159:\n      dup3\n      add\n      swap2\n      swap1\n      0x00\n      mstore\n      keccak256(0x00, 0x20)\n      swap1\n    tag_160:\n      dup2\n      sload\n      dup2\n      mstore\n      swap1\n      0x01\n      add\n      swap1\n      0x20\n      add\n      dup1\n      dup4\n      gt\n      tag_160\n      jumpi\n      dup3\n      swap1\n      sub\n      0x1f\n      and\n      dup3\n      add\n      swap2\n    tag_158:\n      pop\n      pop\n      pop\n      pop\n      pop\n      dup2\n      mstore\n      0x20\n      add\n      0x06\n      dup3\n      add\n      0x00\n      swap1\n      sload\n      swap1\n      0x0100\n      exp\n      swap1\n      div\n      0xff\n      and\n      iszero\n      iszero\n      iszero\n      iszero\n      dup2\n      mstore\n      0x20\n      add\n      0x07\n      dup3\n      add\n      dup1\n      sload\n      dup1\n      0x20\n      mul\n      0x20\n      add\n      mload(0x40)\n      swap1\n      dup2\n      add\n      0x40\n      mstore\n      dup1\n      swap3\n      swap2\n      swap1\n      dup2\n      dup2\n      mstore\n      0x20\n      add\n      dup3\n      dup1\n      sload\n      dup1\n      iszero\n      tag_161\n      jumpi\n      0x20\n      mul\n      dup3\n      add\n      swap2\n      swap1\n      0x00\n      mstore\n      keccak256(0x00, 0x20)\n      swap1\n    tag_162:\n      dup2\n      0x00\n      swap1\n      sload\n      swap1\n      0x0100\n      exp\n      swap1\n      div\n      0xffffffffffffffffffffffffffffffffffffffff\n      and\n      0xffffffffffffffffffffffffffffffffffffffff\n      and\n      dup2\n      mstore\n      0x20\n      add\n      swap1\n      0x01\n      add\n      swap1\n      dup1\n      dup4\n      gt\n      tag_162\n      jumpi\n    tag_161:\n      pop\n      pop\n      pop\n      pop\n      pop\n      dup2\n      mstore\n      0x20\n      add\n      0x08\n      dup3\n      add\n      dup1\n      sload\n      dup1\n      0x20\n      mul\n      0x20\n      add\n      mload(0x40)\n      swap1\n      dup2\n      add\n      0x40\n      mstore\n      dup1\n      swap3\n      swap2\n      swap1\n      dup2\n      dup2\n      mstore\n      0x20\n      add\n      dup3\n      dup1\n      sload\n      dup1\n      iszero\n      tag_163\n      jumpi\n      0x20\n      mul\n      dup3\n      add\n      swap2\n      swap1\n      0x00\n      mstore\n      keccak256(0x00, 0x20)\n      swap1\n    tag_164:\n      dup2\n      sload\n      dup2\n      mstore\n      0x20\n      add\n      swap1\n      0x01\n      add\n      swap1\n      dup1\n      dup4\n      gt\n      tag_164\n      jumpi\n    tag_163:\n      pop\n      pop\n      pop\n      pop\n      pop\n      dup2\n      mstore\n      pop\n      pop\n        /* \"contracts/CrowdFunding.sol\":3622:3634  allCampaigns */\n      dup4\n        /* \"contracts/CrowdFunding.sol\":3635:3636  i */\n      dup4\n        /* \"contracts/CrowdFunding.sol\":3622:3637  allCampaigns[i] */\n      dup2\n      mload\n      dup2\n      lt\n      tag_165\n      jumpi\n      tag_166\n      tag_167\n      jump\t// in\n    tag_166:\n    tag_165:\n      0x20\n      mul\n      0x20\n      add\n      add\n        /* \"contracts/CrowdFunding.sol\":3622:3644  allCampaigns[i] = item */\n      dup2\n      swap1\n      mstore\n      pop\n        /* \"contracts/CrowdFunding.sol\":3558:3655  {... */\n      pop\n        /* \"contracts/CrowdFunding.sol\":3553:3556  i++ */\n      dup1\n      dup1\n      0x01\n      add\n      swap2\n      pop\n      pop\n        /* \"contracts/CrowdFunding.sol\":3510:3655  for (uint256 i = 0; i < numberOfCampaigns; i++) {... */\n      jump(tag_143)\n    tag_144:\n      pop\n        /* \"contracts/CrowdFunding.sol\":3672:3684  allCampaigns */\n      dup1\n        /* \"contracts/CrowdFunding.sol\":3665:3684  return allCampaigns */\n      swap2\n      pop\n      pop\n        /* \"contracts/CrowdFunding.sol\":3357:3691  function getCampaigns() external view returns (Campaign[] memory) {... */\n      swap1\n      jump\t// out\n        /* \"contracts/CrowdFunding.sol\":3760:4377  function updateCampaign(... */\n    tag_51:\n        /* \"contracts/CrowdFunding.sol\":3957:3982  Campaign storage campaign */\n      0x00\n        /* \"contracts/CrowdFunding.sol\":3985:3994  campaigns */\n      dup1\n        /* \"contracts/CrowdFunding.sol\":3985:3999  campaigns[_id] */\n      0x00\n        /* \"contracts/CrowdFunding.sol\":3995:3998  _id */\n      dup11\n        /* \"contracts/CrowdFunding.sol\":3985:3999  campaigns[_id] */\n      dup2\n      mstore\n      0x20\n      add\n      swap1\n      dup2\n      mstore\n      0x20\n      add\n      0x00\n      keccak256\n        /* \"contracts/CrowdFunding.sol\":3957:3999  Campaign storage campaign = campaigns[_id] */\n      swap1\n      pop\n        /* \"contracts/CrowdFunding.sol\":4031:4039  campaign */\n      dup1\n        /* \"contracts/CrowdFunding.sol\":4031:4045  campaign.owner */\n      0x00\n      add\n      0x00\n      swap1\n      sload\n      swap1\n      0x0100\n      exp\n      swap1\n      div\n      0xffffffffffffffffffffffffffffffffffffffff\n      and\n        /* \"contracts/CrowdFunding.sol\":4017:4045  msg.sender == campaign.owner */\n      0xffffffffffffffffffffffffffffffffffffffff\n      and\n        /* \"contracts/CrowdFunding.sol\":4017:4027  msg.sender */\n      caller\n        /* \"contracts/CrowdFunding.sol\":4017:4045  msg.sender == campaign.owner */\n      0xffffffffffffffffffffffffffffffffffffffff\n      and\n      eq\n        /* \"contracts/CrowdFunding.sol\":4009:4084  require(msg.sender == campaign.owner, \"Only the campaign owner can update\") */\n      tag_169\n      jumpi\n      mload(0x40)\n      0x08c379a000000000000000000000000000000000000000000000000000000000\n      dup2\n      mstore\n      0x04\n      add\n      tag_170\n      swap1\n      tag_171\n      jump\t// in\n    tag_170:\n      mload(0x40)\n      dup1\n      swap2\n      sub\n      swap1\n      revert\n    tag_169:\n        /* \"contracts/CrowdFunding.sol\":4112:4113  0 */\n      0x00\n        /* \"contracts/CrowdFunding.sol\":4102:4109  _target */\n      dup5\n        /* \"contracts/CrowdFunding.sol\":4102:4113  _target > 0 */\n      gt\n        /* \"contracts/CrowdFunding.sol\":4094:4147  require(_target > 0, \"Target must be greater than 0\") */\n      tag_172\n      jumpi\n      mload(0x40)\n      0x08c379a000000000000000000000000000000000000000000000000000000000\n      dup2\n      mstore\n      0x04\n      add\n      tag_173\n      swap1\n      tag_60\n      jump\t// in\n    tag_173:\n      mload(0x40)\n      dup1\n      swap2\n      sub\n      swap1\n      revert\n    tag_172:\n        /* \"contracts/CrowdFunding.sol\":4166:4174  campaign */\n      dup1\n        /* \"contracts/CrowdFunding.sol\":4166:4184  campaign.completed */\n      0x06\n      add\n      0x00\n      swap1\n      sload\n      swap1\n      0x0100\n      exp\n      swap1\n      div\n      0xff\n      and\n        /* \"contracts/CrowdFunding.sol\":4165:4184  !campaign.completed */\n      iszero\n        /* \"contracts/CrowdFunding.sol\":4157:4223  require(!campaign.completed, \"Cannot update a completed campaign\") */\n      tag_174\n      jumpi\n      mload(0x40)\n      0x08c379a000000000000000000000000000000000000000000000000000000000\n      dup2\n      mstore\n      0x04\n      add\n      tag_175\n      swap1\n      tag_176\n      jump\t// in\n    tag_175:\n      mload(0x40)\n      dup1\n      swap2\n      sub\n      swap1\n      revert\n    tag_174:\n        /* \"contracts/CrowdFunding.sol\":4251:4257  _title */\n      dup8\n      dup8\n        /* \"contracts/CrowdFunding.sol\":4234:4242  campaign */\n      dup3\n        /* \"contracts/CrowdFunding.sol\":4234:4248  campaign.title */\n      0x01\n      add\n        /* \"contracts/CrowdFunding.sol\":4234:4257  campaign.title = _title */\n      swap2\n      dup3\n      tag_177\n      swap3\n      swap2\n      swap1\n      tag_71\n      jump\t// in\n    tag_177:\n      pop\n        /* \"contracts/CrowdFunding.sol\":4290:4302  _description */\n      dup6\n      dup6\n        /* \"contracts/CrowdFunding.sol\":4267:4275  campaign */\n      dup3\n        /* \"contracts/CrowdFunding.sol\":4267:4287  campaign.description */\n      0x02\n      add\n        /* \"contracts/CrowdFunding.sol\":4267:4302  campaign.description = _description */\n      swap2\n      dup3\n      tag_178\n      swap3\n      swap2\n      swap1\n      tag_71\n      jump\t// in\n    tag_178:\n      pop\n        /* \"contracts/CrowdFunding.sol\":4330:4337  _target */\n      dup4\n        /* \"contracts/CrowdFunding.sol\":4312:4320  campaign */\n      dup2\n        /* \"contracts/CrowdFunding.sol\":4312:4327  campaign.target */\n      0x03\n      add\n        /* \"contracts/CrowdFunding.sol\":4312:4337  campaign.target = _target */\n      dup2\n      swap1\n      sstore\n      pop\n        /* \"contracts/CrowdFunding.sol\":4364:4370  _image */\n      dup3\n      dup3\n        /* \"contracts/CrowdFunding.sol\":4347:4355  campaign */\n      dup3\n        /* \"contracts/CrowdFunding.sol\":4347:4361  campaign.image */\n      0x05\n      add\n        /* \"contracts/CrowdFunding.sol\":4347:4370  campaign.image = _image */\n      swap2\n      dup3\n      tag_179\n      swap3\n      swap2\n      swap1\n      tag_71\n      jump\t// in\n    tag_179:\n      pop\n        /* \"contracts/CrowdFunding.sol\":3947:4377  {... */\n      pop\n        /* \"contracts/CrowdFunding.sol\":3760:4377  function updateCampaign(... */\n      pop\n      pop\n      pop\n      pop\n      pop\n      pop\n      pop\n      pop\n      jump\t// out\n        /* \"@openzeppelin/contracts/utils/math/SafeMath.sol\":2755:2851  function add(uint256 a, uint256 b) internal pure returns (uint256) {... */\n    tag_75:\n        /* \"@openzeppelin/contracts/utils/math/SafeMath.sol\":2813:2820  uint256 */\n      0x00\n        /* \"@openzeppelin/contracts/utils/math/SafeMath.sol\":2843:2844  b */\n      dup2\n        /* \"@openzeppelin/contracts/utils/math/SafeMath.sol\":2839:2840  a */\n      dup4\n        /* \"@openzeppelin/contracts/utils/math/SafeMath.sol\":2839:2844  a + b */\n      tag_181\n      swap2\n      swap1\n      tag_182\n      jump\t// in\n    tag_181:\n        /* \"@openzeppelin/contracts/utils/math/SafeMath.sol\":2832:2844  return a + b */\n      swap1\n      pop\n        /* \"@openzeppelin/contracts/utils/math/SafeMath.sol\":2755:2851  function add(uint256 a, uint256 b) internal pure returns (uint256) {... */\n      swap3\n      swap2\n      pop\n      pop\n      jump\t// out\n        /* \"@openzeppelin/contracts/utils/math/SafeMath.sol\":3122:3218  function sub(uint256 a, uint256 b) internal pure returns (uint256) {... */\n    tag_77:\n        /* \"@openzeppelin/contracts/utils/math/SafeMath.sol\":3180:3187  uint256 */\n      0x00\n        /* \"@openzeppelin/contracts/utils/math/SafeMath.sol\":3210:3211  b */\n      dup2\n        /* \"@openzeppelin/contracts/utils/math/SafeMath.sol\":3206:3207  a */\n      dup4\n        /* \"@openzeppelin/contracts/utils/math/SafeMath.sol\":3206:3211  a - b */\n      tag_184\n      swap2\n      swap1\n      tag_185\n      jump\t// in\n    tag_184:\n        /* \"@openzeppelin/contracts/utils/math/SafeMath.sol\":3199:3211  return a - b */\n      swap1\n      pop\n        /* \"@openzeppelin/contracts/utils/math/SafeMath.sol\":3122:3218  function sub(uint256 a, uint256 b) internal pure returns (uint256) {... */\n      swap3\n      swap2\n      pop\n      pop\n      jump\t// out\n    tag_128:\n      pop\n      dup1\n      sload\n      tag_186\n      swap1\n      tag_79\n      jump\t// in\n    tag_186:\n      0x00\n      dup3\n      sstore\n      dup1\n      0x1f\n      lt\n      tag_188\n      jumpi\n      pop\n      jump(tag_187)\n    tag_188:\n      0x1f\n      add\n      0x20\n      swap1\n      div\n      swap1\n      0x00\n      mstore\n      keccak256(0x00, 0x20)\n      swap1\n      dup2\n      add\n      swap1\n      tag_189\n      swap2\n      swap1\n      tag_190\n      jump\t// in\n    tag_189:\n    tag_187:\n      pop\n      jump\t// out\n    tag_132:\n      pop\n      dup1\n      sload\n      0x00\n      dup3\n      sstore\n      swap1\n      0x00\n      mstore\n      keccak256(0x00, 0x20)\n      swap1\n      dup2\n      add\n      swap1\n      tag_192\n      swap2\n      swap1\n      tag_190\n      jump\t// in\n    tag_192:\n      pop\n      jump\t// out\n    tag_134:\n      pop\n      dup1\n      sload\n      0x00\n      dup3\n      sstore\n      swap1\n      0x00\n      mstore\n      keccak256(0x00, 0x20)\n      swap1\n      dup2\n      add\n      swap1\n      tag_194\n      swap2\n      swap1\n      tag_190\n      jump\t// in\n    tag_194:\n      pop\n      jump\t// out\n    tag_142:\n      mload(0x40)\n      dup1\n      0x0120\n      add\n      0x40\n      mstore\n      dup1\n      and(0xffffffffffffffffffffffffffffffffffffffff, 0x00)\n      dup2\n      mstore\n      0x20\n      add\n      0x60\n      dup2\n      mstore\n      0x20\n      add\n      0x60\n      dup2\n      mstore\n      0x20\n      add\n      0x00\n      dup2\n      mstore\n      0x20\n      add\n      0x00\n      dup2\n      mstore\n      0x20\n      add\n      0x60\n      dup2\n      mstore\n      0x20\n      add\n      iszero(iszero(0x00))\n      dup2\n      mstore\n      0x20\n      add\n      0x60\n      dup2\n      mstore\n      0x20\n      add\n      0x60\n      dup2\n      mstore\n      pop\n      swap1\n      jump\t// out\n    tag_190:\n    tag_195:\n      dup1\n      dup3\n      gt\n      iszero\n      tag_196\n      jumpi\n      0x00\n      dup2\n      0x00\n      swap1\n      sstore\n      pop\n      0x01\n      add\n      jump(tag_195)\n    tag_196:\n      pop\n      swap1\n      jump\t// out\n        /* \"#utility.yul\":7:84   */\n    tag_197:\n        /* \"#utility.yul\":44:51   */\n      0x00\n        /* \"#utility.yul\":73:78   */\n      dup2\n        /* \"#utility.yul\":62:78   */\n      swap1\n      pop\n        /* \"#utility.yul\":7:84   */\n      swap2\n      swap1\n      pop\n      jump\t// out\n        /* \"#utility.yul\":90:208   */\n    tag_198:\n        /* \"#utility.yul\":177:201   */\n      tag_296\n        /* \"#utility.yul\":195:200   */\n      dup2\n        /* \"#utility.yul\":177:201   */\n      tag_197\n      jump\t// in\n    tag_296:\n        /* \"#utility.yul\":172:175   */\n      dup3\n        /* \"#utility.yul\":165:202   */\n      mstore\n        /* \"#utility.yul\":90:208   */\n      pop\n      pop\n      jump\t// out\n        /* \"#utility.yul\":214:436   */\n    tag_15:\n        /* \"#utility.yul\":307:311   */\n      0x00\n        /* \"#utility.yul\":345:347   */\n      0x20\n        /* \"#utility.yul\":334:343   */\n      dup3\n        /* \"#utility.yul\":330:348   */\n      add\n        /* \"#utility.yul\":322:348   */\n      swap1\n      pop\n        /* \"#utility.yul\":358:429   */\n      tag_298\n        /* \"#utility.yul\":426:427   */\n      0x00\n        /* \"#utility.yul\":415:424   */\n      dup4\n        /* \"#utility.yul\":411:428   */\n      add\n        /* \"#utility.yul\":402:408   */\n      dup5\n        /* \"#utility.yul\":358:429   */\n      tag_198\n      jump\t// in\n    tag_298:\n        /* \"#utility.yul\":214:436   */\n      swap3\n      swap2\n      pop\n      pop\n      jump\t// out\n        /* \"#utility.yul\":523:640   */\n    tag_200:\n        /* \"#utility.yul\":632:633   */\n      0x00\n        /* \"#utility.yul\":629:630   */\n      dup1\n        /* \"#utility.yul\":622:634   */\n      revert\n        /* \"#utility.yul\":646:763   */\n    tag_201:\n        /* \"#utility.yul\":755:756   */\n      0x00\n        /* \"#utility.yul\":752:753   */\n      dup1\n        /* \"#utility.yul\":745:757   */\n      revert\n        /* \"#utility.yul\":769:891   */\n    tag_202:\n        /* \"#utility.yul\":842:866   */\n      tag_303\n        /* \"#utility.yul\":860:865   */\n      dup2\n        /* \"#utility.yul\":842:866   */\n      tag_197\n      jump\t// in\n    tag_303:\n        /* \"#utility.yul\":835:840   */\n      dup2\n        /* \"#utility.yul\":832:867   */\n      eq\n        /* \"#utility.yul\":822:885   */\n      tag_304\n      jumpi\n        /* \"#utility.yul\":881:882   */\n      0x00\n        /* \"#utility.yul\":878:879   */\n      dup1\n        /* \"#utility.yul\":871:883   */\n      revert\n        /* \"#utility.yul\":822:885   */\n    tag_304:\n        /* \"#utility.yul\":769:891   */\n      pop\n      jump\t// out\n        /* \"#utility.yul\":897:1036   */\n    tag_203:\n        /* \"#utility.yul\":943:948   */\n      0x00\n        /* \"#utility.yul\":981:987   */\n      dup2\n        /* \"#utility.yul\":968:988   */\n      calldataload\n        /* \"#utility.yul\":959:988   */\n      swap1\n      pop\n        /* \"#utility.yul\":997:1030   */\n      tag_306\n        /* \"#utility.yul\":1024:1029   */\n      dup2\n        /* \"#utility.yul\":997:1030   */\n      tag_202\n      jump\t// in\n    tag_306:\n        /* \"#utility.yul\":897:1036   */\n      swap3\n      swap2\n      pop\n      pop\n      jump\t// out\n        /* \"#utility.yul\":1042:1371   */\n    tag_19:\n        /* \"#utility.yul\":1101:1107   */\n      0x00\n        /* \"#utility.yul\":1150:1152   */\n      0x20\n        /* \"#utility.yul\":1138:1147   */\n      dup3\n        /* \"#utility.yul\":1129:1136   */\n      dup5\n        /* \"#utility.yul\":1125:1148   */\n      sub\n        /* \"#utility.yul\":1121:1153   */\n      slt\n        /* \"#utility.yul\":1118:1237   */\n      iszero\n      tag_308\n      jumpi\n        /* \"#utility.yul\":1156:1235   */\n      tag_309\n      tag_200\n      jump\t// in\n    tag_309:\n        /* \"#utility.yul\":1118:1237   */\n    tag_308:\n        /* \"#utility.yul\":1276:1277   */\n      0x00\n        /* \"#utility.yul\":1301:1354   */\n      tag_310\n        /* \"#utility.yul\":1346:1353   */\n      dup5\n        /* \"#utility.yul\":1337:1343   */\n      dup3\n        /* \"#utility.yul\":1326:1335   */\n      dup6\n        /* \"#utility.yul\":1322:1344   */\n      add\n        /* \"#utility.yul\":1301:1354   */\n      tag_203\n      jump\t// in\n    tag_310:\n        /* \"#utility.yul\":1291:1354   */\n      swap2\n      pop\n        /* \"#utility.yul\":1247:1364   */\n      pop\n        /* \"#utility.yul\":1042:1371   */\n      swap3\n      swap2\n      pop\n      pop\n      jump\t// out\n        /* \"#utility.yul\":1377:1491   */\n    tag_204:\n        /* \"#utility.yul\":1444:1450   */\n      0x00\n        /* \"#utility.yul\":1478:1483   */\n      dup2\n        /* \"#utility.yul\":1472:1484   */\n      mload\n        /* \"#utility.yul\":1462:1484   */\n      swap1\n      pop\n        /* \"#utility.yul\":1377:1491   */\n      swap2\n      swap1\n      pop\n      jump\t// out\n        /* \"#utility.yul\":1497:1681   */\n    tag_205:\n        /* \"#utility.yul\":1596:1607   */\n      0x00\n        /* \"#utility.yul\":1630:1636   */\n      dup3\n        /* \"#utility.yul\":1625:1628   */\n      dup3\n        /* \"#utility.yul\":1618:1637   */\n      mstore\n        /* \"#utility.yul\":1670:1674   */\n      0x20\n        /* \"#utility.yul\":1665:1668   */\n      dup3\n        /* \"#utility.yul\":1661:1675   */\n      add\n        /* \"#utility.yul\":1646:1675   */\n      swap1\n      pop\n        /* \"#utility.yul\":1497:1681   */\n      swap3\n      swap2\n      pop\n      pop\n      jump\t// out\n        /* \"#utility.yul\":1687:1819   */\n    tag_206:\n        /* \"#utility.yul\":1754:1758   */\n      0x00\n        /* \"#utility.yul\":1777:1780   */\n      dup2\n        /* \"#utility.yul\":1769:1780   */\n      swap1\n      pop\n        /* \"#utility.yul\":1807:1811   */\n      0x20\n        /* \"#utility.yul\":1802:1805   */\n      dup3\n        /* \"#utility.yul\":1798:1812   */\n      add\n        /* \"#utility.yul\":1790:1812   */\n      swap1\n      pop\n        /* \"#utility.yul\":1687:1819   */\n      swap2\n      swap1\n      pop\n      jump\t// out\n        /* \"#utility.yul\":1825:1951   */\n    tag_207:\n        /* \"#utility.yul\":1862:1869   */\n      0x00\n        /* \"#utility.yul\":1902:1944   */\n      0xffffffffffffffffffffffffffffffffffffffff\n        /* \"#utility.yul\":1895:1900   */\n      dup3\n        /* \"#utility.yul\":1891:1945   */\n      and\n        /* \"#utility.yul\":1880:1945   */\n      swap1\n      pop\n        /* \"#utility.yul\":1825:1951   */\n      swap2\n      swap1\n      pop\n      jump\t// out\n        /* \"#utility.yul\":1957:2053   */\n    tag_208:\n        /* \"#utility.yul\":1994:2001   */\n      0x00\n        /* \"#utility.yul\":2023:2047   */\n      tag_316\n        /* \"#utility.yul\":2041:2046   */\n      dup3\n        /* \"#utility.yul\":2023:2047   */\n      tag_207\n      jump\t// in\n    tag_316:\n        /* \"#utility.yul\":2012:2047   */\n      swap1\n      pop\n        /* \"#utility.yul\":1957:2053   */\n      swap2\n      swap1\n      pop\n      jump\t// out\n        /* \"#utility.yul\":2059:2167   */\n    tag_209:\n        /* \"#utility.yul\":2136:2160   */\n      tag_318\n        /* \"#utility.yul\":2154:2159   */\n      dup2\n        /* \"#utility.yul\":2136:2160   */\n      tag_208\n      jump\t// in\n    tag_318:\n        /* \"#utility.yul\":2131:2134   */\n      dup3\n        /* \"#utility.yul\":2124:2161   */\n      mstore\n        /* \"#utility.yul\":2059:2167   */\n      pop\n      pop\n      jump\t// out\n        /* \"#utility.yul\":2173:2352   */\n    tag_210:\n        /* \"#utility.yul\":2242:2252   */\n      0x00\n        /* \"#utility.yul\":2263:2309   */\n      tag_320\n        /* \"#utility.yul\":2305:2308   */\n      dup4\n        /* \"#utility.yul\":2297:2303   */\n      dup4\n        /* \"#utility.yul\":2263:2309   */\n      tag_209\n      jump\t// in\n    tag_320:\n        /* \"#utility.yul\":2341:2345   */\n      0x20\n        /* \"#utility.yul\":2336:2339   */\n      dup4\n        /* \"#utility.yul\":2332:2346   */\n      add\n        /* \"#utility.yul\":2318:2346   */\n      swap1\n      pop\n        /* \"#utility.yul\":2173:2352   */\n      swap3\n      swap2\n      pop\n      pop\n      jump\t// out\n        /* \"#utility.yul\":2358:2471   */\n    tag_211:\n        /* \"#utility.yul\":2428:2432   */\n      0x00\n        /* \"#utility.yul\":2460:2464   */\n      0x20\n        /* \"#utility.yul\":2455:2458   */\n      dup3\n        /* \"#utility.yul\":2451:2465   */\n      add\n        /* \"#utility.yul\":2443:2465   */\n      swap1\n      pop\n        /* \"#utility.yul\":2358:2471   */\n      swap2\n      swap1\n      pop\n      jump\t// out\n        /* \"#utility.yul\":2507:3239   */\n    tag_212:\n        /* \"#utility.yul\":2626:2629   */\n      0x00\n        /* \"#utility.yul\":2655:2709   */\n      tag_323\n        /* \"#utility.yul\":2703:2708   */\n      dup3\n        /* \"#utility.yul\":2655:2709   */\n      tag_204\n      jump\t// in\n    tag_323:\n        /* \"#utility.yul\":2725:2811   */\n      tag_324\n        /* \"#utility.yul\":2804:2810   */\n      dup2\n        /* \"#utility.yul\":2799:2802   */\n      dup6\n        /* \"#utility.yul\":2725:2811   */\n      tag_205\n      jump\t// in\n    tag_324:\n        /* \"#utility.yul\":2718:2811   */\n      swap4\n      pop\n        /* \"#utility.yul\":2835:2891   */\n      tag_325\n        /* \"#utility.yul\":2885:2890   */\n      dup4\n        /* \"#utility.yul\":2835:2891   */\n      tag_206\n      jump\t// in\n    tag_325:\n        /* \"#utility.yul\":2914:2921   */\n      dup1\n        /* \"#utility.yul\":2945:2946   */\n      0x00\n        /* \"#utility.yul\":2930:3214   */\n    tag_326:\n        /* \"#utility.yul\":2955:2961   */\n      dup4\n        /* \"#utility.yul\":2952:2953   */\n      dup2\n        /* \"#utility.yul\":2949:2962   */\n      lt\n        /* \"#utility.yul\":2930:3214   */\n      iszero\n      tag_328\n      jumpi\n        /* \"#utility.yul\":3031:3037   */\n      dup2\n        /* \"#utility.yul\":3025:3038   */\n      mload\n        /* \"#utility.yul\":3058:3121   */\n      tag_329\n        /* \"#utility.yul\":3117:3120   */\n      dup9\n        /* \"#utility.yul\":3102:3115   */\n      dup3\n        /* \"#utility.yul\":3058:3121   */\n      tag_210\n      jump\t// in\n    tag_329:\n        /* \"#utility.yul\":3051:3121   */\n      swap8\n      pop\n        /* \"#utility.yul\":3144:3204   */\n      tag_330\n        /* \"#utility.yul\":3197:3203   */\n      dup4\n        /* \"#utility.yul\":3144:3204   */\n      tag_211\n      jump\t// in\n    tag_330:\n        /* \"#utility.yul\":3134:3204   */\n      swap3\n      pop\n        /* \"#utility.yul\":2990:3214   */\n      pop\n        /* \"#utility.yul\":2977:2978   */\n      0x01\n        /* \"#utility.yul\":2974:2975   */\n      dup2\n        /* \"#utility.yul\":2970:2979   */\n      add\n        /* \"#utility.yul\":2965:2979   */\n      swap1\n      pop\n        /* \"#utility.yul\":2930:3214   */\n      jump(tag_326)\n    tag_328:\n        /* \"#utility.yul\":2934:2948   */\n      pop\n        /* \"#utility.yul\":3230:3233   */\n      dup6\n        /* \"#utility.yul\":3223:3233   */\n      swap4\n      pop\n        /* \"#utility.yul\":2631:3239   */\n      pop\n      pop\n      pop\n        /* \"#utility.yul\":2507:3239   */\n      swap3\n      swap2\n      pop\n      pop\n      jump\t// out\n        /* \"#utility.yul\":3245:3359   */\n    tag_213:\n        /* \"#utility.yul\":3312:3318   */\n      0x00\n        /* \"#utility.yul\":3346:3351   */\n      dup2\n        /* \"#utility.yul\":3340:3352   */\n      mload\n        /* \"#utility.yul\":3330:3352   */\n      swap1\n      pop\n        /* \"#utility.yul\":3245:3359   */\n      swap2\n      swap1\n      pop\n      jump\t// out\n        /* \"#utility.yul\":3365:3549   */\n    tag_214:\n        /* \"#utility.yul\":3464:3475   */\n      0x00\n        /* \"#utility.yul\":3498:3504   */\n      dup3\n        /* \"#utility.yul\":3493:3496   */\n      dup3\n        /* \"#utility.yul\":3486:3505   */\n      mstore\n        /* \"#utility.yul\":3538:3542   */\n      0x20\n        /* \"#utility.yul\":3533:3536   */\n      dup3\n        /* \"#utility.yul\":3529:3543   */\n      add\n        /* \"#utility.yul\":3514:3543   */\n      swap1\n      pop\n        /* \"#utility.yul\":3365:3549   */\n      swap3\n      swap2\n      pop\n      pop\n      jump\t// out\n        /* \"#utility.yul\":3555:3687   */\n    tag_215:\n        /* \"#utility.yul\":3622:3626   */\n      0x00\n        /* \"#utility.yul\":3645:3648   */\n      dup2\n        /* \"#utility.yul\":3637:3648   */\n      swap1\n      pop\n        /* \"#utility.yul\":3675:3679   */\n      0x20\n        /* \"#utility.yul\":3670:3673   */\n      dup3\n        /* \"#utility.yul\":3666:3680   */\n      add\n        /* \"#utility.yul\":3658:3680   */\n      swap1\n      pop\n        /* \"#utility.yul\":3555:3687   */\n      swap2\n      swap1\n      pop\n      jump\t// out\n        /* \"#utility.yul\":3693:3801   */\n    tag_216:\n        /* \"#utility.yul\":3770:3794   */\n      tag_335\n        /* \"#utility.yul\":3788:3793   */\n      dup2\n        /* \"#utility.yul\":3770:3794   */\n      tag_197\n      jump\t// in\n    tag_335:\n        /* \"#utility.yul\":3765:3768   */\n      dup3\n        /* \"#utility.yul\":3758:3795   */\n      mstore\n        /* \"#utility.yul\":3693:3801   */\n      pop\n      pop\n      jump\t// out\n        /* \"#utility.yul\":3807:3986   */\n    tag_217:\n        /* \"#utility.yul\":3876:3886   */\n      0x00\n        /* \"#utility.yul\":3897:3943   */\n      tag_337\n        /* \"#utility.yul\":3939:3942   */\n      dup4\n        /* \"#utility.yul\":3931:3937   */\n      dup4\n        /* \"#utility.yul\":3897:3943   */\n      tag_216\n      jump\t// in\n    tag_337:\n        /* \"#utility.yul\":3975:3979   */\n      0x20\n        /* \"#utility.yul\":3970:3973   */\n      dup4\n        /* \"#utility.yul\":3966:3980   */\n      add\n        /* \"#utility.yul\":3952:3980   */\n      swap1\n      pop\n        /* \"#utility.yul\":3807:3986   */\n      swap3\n      swap2\n      pop\n      pop\n      jump\t// out\n        /* \"#utility.yul\":3992:4105   */\n    tag_218:\n        /* \"#utility.yul\":4062:4066   */\n      0x00\n        /* \"#utility.yul\":4094:4098   */\n      0x20\n        /* \"#utility.yul\":4089:4092   */\n      dup3\n        /* \"#utility.yul\":4085:4099   */\n      add\n        /* \"#utility.yul\":4077:4099   */\n      swap1\n      pop\n        /* \"#utility.yul\":3992:4105   */\n      swap2\n      swap1\n      pop\n      jump\t// out\n        /* \"#utility.yul\":4141:4873   */\n    tag_219:\n        /* \"#utility.yul\":4260:4263   */\n      0x00\n        /* \"#utility.yul\":4289:4343   */\n      tag_340\n        /* \"#utility.yul\":4337:4342   */\n      dup3\n        /* \"#utility.yul\":4289:4343   */\n      tag_213\n      jump\t// in\n    tag_340:\n        /* \"#utility.yul\":4359:4445   */\n      tag_341\n        /* \"#utility.yul\":4438:4444   */\n      dup2\n        /* \"#utility.yul\":4433:4436   */\n      dup6\n        /* \"#utility.yul\":4359:4445   */\n      tag_214\n      jump\t// in\n    tag_341:\n        /* \"#utility.yul\":4352:4445   */\n      swap4\n      pop\n        /* \"#utility.yul\":4469:4525   */\n      tag_342\n        /* \"#utility.yul\":4519:4524   */\n      dup4\n        /* \"#utility.yul\":4469:4525   */\n      tag_215\n      jump\t// in\n    tag_342:\n        /* \"#utility.yul\":4548:4555   */\n      dup1\n        /* \"#utility.yul\":4579:4580   */\n      0x00\n        /* \"#utility.yul\":4564:4848   */\n    tag_343:\n        /* \"#utility.yul\":4589:4595   */\n      dup4\n        /* \"#utility.yul\":4586:4587   */\n      dup2\n        /* \"#utility.yul\":4583:4596   */\n      lt\n        /* \"#utility.yul\":4564:4848   */\n      iszero\n      tag_345\n      jumpi\n        /* \"#utility.yul\":4665:4671   */\n      dup2\n        /* \"#utility.yul\":4659:4672   */\n      mload\n        /* \"#utility.yul\":4692:4755   */\n      tag_346\n        /* \"#utility.yul\":4751:4754   */\n      dup9\n        /* \"#utility.yul\":4736:4749   */\n      dup3\n        /* \"#utility.yul\":4692:4755   */\n      tag_217\n      jump\t// in\n    tag_346:\n        /* \"#utility.yul\":4685:4755   */\n      swap8\n      pop\n        /* \"#utility.yul\":4778:4838   */\n      tag_347\n        /* \"#utility.yul\":4831:4837   */\n      dup4\n        /* \"#utility.yul\":4778:4838   */\n      tag_218\n      jump\t// in\n    tag_347:\n        /* \"#utility.yul\":4768:4838   */\n      swap3\n      pop\n        /* \"#utility.yul\":4624:4848   */\n      pop\n        /* \"#utility.yul\":4611:4612   */\n      0x01\n        /* \"#utility.yul\":4608:4609   */\n      dup2\n        /* \"#utility.yul\":4604:4613   */\n      add\n        /* \"#utility.yul\":4599:4613   */\n      swap1\n      pop\n        /* \"#utility.yul\":4564:4848   */\n      jump(tag_343)\n    tag_345:\n        /* \"#utility.yul\":4568:4582   */\n      pop\n        /* \"#utility.yul\":4864:4867   */\n      dup6\n        /* \"#utility.yul\":4857:4867   */\n      swap4\n      pop\n        /* \"#utility.yul\":4265:4873   */\n      pop\n      pop\n      pop\n        /* \"#utility.yul\":4141:4873   */\n      swap3\n      swap2\n      pop\n      pop\n      jump\t// out\n        /* \"#utility.yul\":4879:5513   */\n    tag_22:\n        /* \"#utility.yul\":5100:5104   */\n      0x00\n        /* \"#utility.yul\":5138:5140   */\n      0x40\n        /* \"#utility.yul\":5127:5136   */\n      dup3\n        /* \"#utility.yul\":5123:5141   */\n      add\n        /* \"#utility.yul\":5115:5141   */\n      swap1\n      pop\n        /* \"#utility.yul\":5187:5196   */\n      dup2\n        /* \"#utility.yul\":5181:5185   */\n      dup2\n        /* \"#utility.yul\":5177:5197   */\n      sub\n        /* \"#utility.yul\":5173:5174   */\n      0x00\n        /* \"#utility.yul\":5162:5171   */\n      dup4\n        /* \"#utility.yul\":5158:5175   */\n      add\n        /* \"#utility.yul\":5151:5198   */\n      mstore\n        /* \"#utility.yul\":5215:5323   */\n      tag_349\n        /* \"#utility.yul\":5318:5322   */\n      dup2\n        /* \"#utility.yul\":5309:5315   */\n      dup6\n        /* \"#utility.yul\":5215:5323   */\n      tag_212\n      jump\t// in\n    tag_349:\n        /* \"#utility.yul\":5207:5323   */\n      swap1\n      pop\n        /* \"#utility.yul\":5370:5379   */\n      dup2\n        /* \"#utility.yul\":5364:5368   */\n      dup2\n        /* \"#utility.yul\":5360:5380   */\n      sub\n        /* \"#utility.yul\":5355:5357   */\n      0x20\n        /* \"#utility.yul\":5344:5353   */\n      dup4\n        /* \"#utility.yul\":5340:5358   */\n      add\n        /* \"#utility.yul\":5333:5381   */\n      mstore\n        /* \"#utility.yul\":5398:5506   */\n      tag_350\n        /* \"#utility.yul\":5501:5505   */\n      dup2\n        /* \"#utility.yul\":5492:5498   */\n      dup5\n        /* \"#utility.yul\":5398:5506   */\n      tag_219\n      jump\t// in\n    tag_350:\n        /* \"#utility.yul\":5390:5506   */\n      swap1\n      pop\n        /* \"#utility.yul\":4879:5513   */\n      swap4\n      swap3\n      pop\n      pop\n      pop\n      jump\t// out\n        /* \"#utility.yul\":5519:5641   */\n    tag_220:\n        /* \"#utility.yul\":5592:5616   */\n      tag_352\n        /* \"#utility.yul\":5610:5615   */\n      dup2\n        /* \"#utility.yul\":5592:5616   */\n      tag_208\n      jump\t// in\n    tag_352:\n        /* \"#utility.yul\":5585:5590   */\n      dup2\n        /* \"#utility.yul\":5582:5617   */\n      eq\n        /* \"#utility.yul\":5572:5635   */\n      tag_353\n      jumpi\n        /* \"#utility.yul\":5631:5632   */\n      0x00\n        /* \"#utility.yul\":5628:5629   */\n      dup1\n        /* \"#utility.yul\":5621:5633   */\n      revert\n        /* \"#utility.yul\":5572:5635   */\n    tag_353:\n        /* \"#utility.yul\":5519:5641   */\n      pop\n      jump\t// out\n        /* \"#utility.yul\":5647:5786   */\n    tag_221:\n        /* \"#utility.yul\":5693:5698   */\n      0x00\n        /* \"#utility.yul\":5731:5737   */\n      dup2\n        /* \"#utility.yul\":5718:5738   */\n      calldataload\n        /* \"#utility.yul\":5709:5738   */\n      swap1\n      pop\n        /* \"#utility.yul\":5747:5780   */\n      tag_355\n        /* \"#utility.yul\":5774:5779   */\n      dup2\n        /* \"#utility.yul\":5747:5780   */\n      tag_220\n      jump\t// in\n    tag_355:\n        /* \"#utility.yul\":5647:5786   */\n      swap3\n      swap2\n      pop\n      pop\n      jump\t// out\n        /* \"#utility.yul\":5792:5909   */\n    tag_222:\n        /* \"#utility.yul\":5901:5902   */\n      0x00\n        /* \"#utility.yul\":5898:5899   */\n      dup1\n        /* \"#utility.yul\":5891:5903   */\n      revert\n        /* \"#utility.yul\":5915:6032   */\n    tag_223:\n        /* \"#utility.yul\":6024:6025   */\n      0x00\n        /* \"#utility.yul\":6021:6022   */\n      dup1\n        /* \"#utility.yul\":6014:6026   */\n      revert\n        /* \"#utility.yul\":6038:6155   */\n    tag_224:\n        /* \"#utility.yul\":6147:6148   */\n      0x00\n        /* \"#utility.yul\":6144:6145   */\n      dup1\n        /* \"#utility.yul\":6137:6149   */\n      revert\n        /* \"#utility.yul\":6175:6728   */\n    tag_225:\n        /* \"#utility.yul\":6233:6241   */\n      0x00\n        /* \"#utility.yul\":6243:6249   */\n      dup1\n        /* \"#utility.yul\":6293:6296   */\n      dup4\n        /* \"#utility.yul\":6286:6290   */\n      0x1f\n        /* \"#utility.yul\":6278:6284   */\n      dup5\n        /* \"#utility.yul\":6274:6291   */\n      add\n        /* \"#utility.yul\":6270:6297   */\n      slt\n        /* \"#utility.yul\":6260:6382   */\n      tag_360\n      jumpi\n        /* \"#utility.yul\":6301:6380   */\n      tag_361\n      tag_222\n      jump\t// in\n    tag_361:\n        /* \"#utility.yul\":6260:6382   */\n    tag_360:\n        /* \"#utility.yul\":6414:6420   */\n      dup3\n        /* \"#utility.yul\":6401:6421   */\n      calldataload\n        /* \"#utility.yul\":6391:6421   */\n      swap1\n      pop\n        /* \"#utility.yul\":6444:6462   */\n      0xffffffffffffffff\n        /* \"#utility.yul\":6436:6442   */\n      dup2\n        /* \"#utility.yul\":6433:6463   */\n      gt\n        /* \"#utility.yul\":6430:6547   */\n      iszero\n      tag_362\n      jumpi\n        /* \"#utility.yul\":6466:6545   */\n      tag_363\n      tag_223\n      jump\t// in\n    tag_363:\n        /* \"#utility.yul\":6430:6547   */\n    tag_362:\n        /* \"#utility.yul\":6580:6584   */\n      0x20\n        /* \"#utility.yul\":6572:6578   */\n      dup4\n        /* \"#utility.yul\":6568:6585   */\n      add\n        /* \"#utility.yul\":6556:6585   */\n      swap2\n      pop\n        /* \"#utility.yul\":6634:6637   */\n      dup4\n        /* \"#utility.yul\":6626:6630   */\n      0x01\n        /* \"#utility.yul\":6618:6624   */\n      dup3\n        /* \"#utility.yul\":6614:6631   */\n      mul\n        /* \"#utility.yul\":6604:6612   */\n      dup4\n        /* \"#utility.yul\":6600:6632   */\n      add\n        /* \"#utility.yul\":6597:6638   */\n      gt\n        /* \"#utility.yul\":6594:6722   */\n      iszero\n      tag_364\n      jumpi\n        /* \"#utility.yul\":6641:6720   */\n      tag_365\n      tag_224\n      jump\t// in\n    tag_365:\n        /* \"#utility.yul\":6594:6722   */\n    tag_364:\n        /* \"#utility.yul\":6175:6728   */\n      swap3\n      pop\n      swap3\n      swap1\n      pop\n      jump\t// out\n        /* \"#utility.yul\":6734:8245   */\n    tag_26:\n        /* \"#utility.yul\":6865:6871   */\n      0x00\n        /* \"#utility.yul\":6873:6879   */\n      dup1\n        /* \"#utility.yul\":6881:6887   */\n      0x00\n        /* \"#utility.yul\":6889:6895   */\n      dup1\n        /* \"#utility.yul\":6897:6903   */\n      0x00\n        /* \"#utility.yul\":6905:6911   */\n      dup1\n        /* \"#utility.yul\":6913:6919   */\n      0x00\n        /* \"#utility.yul\":6921:6927   */\n      dup1\n        /* \"#utility.yul\":6970:6973   */\n      0xa0\n        /* \"#utility.yul\":6958:6967   */\n      dup10\n        /* \"#utility.yul\":6949:6956   */\n      dup12\n        /* \"#utility.yul\":6945:6968   */\n      sub\n        /* \"#utility.yul\":6941:6974   */\n      slt\n        /* \"#utility.yul\":6938:7058   */\n      iszero\n      tag_367\n      jumpi\n        /* \"#utility.yul\":6977:7056   */\n      tag_368\n      tag_200\n      jump\t// in\n    tag_368:\n        /* \"#utility.yul\":6938:7058   */\n    tag_367:\n        /* \"#utility.yul\":7097:7098   */\n      0x00\n        /* \"#utility.yul\":7122:7175   */\n      tag_369\n        /* \"#utility.yul\":7167:7174   */\n      dup12\n        /* \"#utility.yul\":7158:7164   */\n      dup3\n        /* \"#utility.yul\":7147:7156   */\n      dup13\n        /* \"#utility.yul\":7143:7165   */\n      add\n        /* \"#utility.yul\":7122:7175   */\n      tag_221\n      jump\t// in\n    tag_369:\n        /* \"#utility.yul\":7112:7175   */\n      swap9\n      pop\n        /* \"#utility.yul\":7068:7185   */\n      pop\n        /* \"#utility.yul\":7252:7254   */\n      0x20\n        /* \"#utility.yul\":7241:7250   */\n      dup10\n        /* \"#utility.yul\":7237:7255   */\n      add\n        /* \"#utility.yul\":7224:7256   */\n      calldataload\n        /* \"#utility.yul\":7283:7301   */\n      0xffffffffffffffff\n        /* \"#utility.yul\":7275:7281   */\n      dup2\n        /* \"#utility.yul\":7272:7302   */\n      gt\n        /* \"#utility.yul\":7269:7386   */\n      iszero\n      tag_370\n      jumpi\n        /* \"#utility.yul\":7305:7384   */\n      tag_371\n      tag_201\n      jump\t// in\n    tag_371:\n        /* \"#utility.yul\":7269:7386   */\n    tag_370:\n        /* \"#utility.yul\":7418:7483   */\n      tag_372\n        /* \"#utility.yul\":7475:7482   */\n      dup12\n        /* \"#utility.yul\":7466:7472   */\n      dup3\n        /* \"#utility.yul\":7455:7464   */\n      dup13\n        /* \"#utility.yul\":7451:7473   */\n      add\n        /* \"#utility.yul\":7418:7483   */\n      tag_225\n      jump\t// in\n    tag_372:\n        /* \"#utility.yul\":7400:7483   */\n      swap8\n      pop\n      swap8\n      pop\n        /* \"#utility.yul\":7195:7493   */\n      pop\n        /* \"#utility.yul\":7560:7562   */\n      0x40\n        /* \"#utility.yul\":7549:7558   */\n      dup10\n        /* \"#utility.yul\":7545:7563   */\n      add\n        /* \"#utility.yul\":7532:7564   */\n      calldataload\n        /* \"#utility.yul\":7591:7609   */\n      0xffffffffffffffff\n        /* \"#utility.yul\":7583:7589   */\n      dup2\n        /* \"#utility.yul\":7580:7610   */\n      gt\n        /* \"#utility.yul\":7577:7694   */\n      iszero\n      tag_373\n      jumpi\n        /* \"#utility.yul\":7613:7692   */\n      tag_374\n      tag_201\n      jump\t// in\n    tag_374:\n        /* \"#utility.yul\":7577:7694   */\n    tag_373:\n        /* \"#utility.yul\":7726:7791   */\n      tag_375\n        /* \"#utility.yul\":7783:7790   */\n      dup12\n        /* \"#utility.yul\":7774:7780   */\n      dup3\n        /* \"#utility.yul\":7763:7772   */\n      dup13\n        /* \"#utility.yul\":7759:7781   */\n      add\n        /* \"#utility.yul\":7726:7791   */\n      tag_225\n      jump\t// in\n    tag_375:\n        /* \"#utility.yul\":7708:7791   */\n      swap6\n      pop\n      swap6\n      pop\n        /* \"#utility.yul\":7503:7801   */\n      pop\n        /* \"#utility.yul\":7840:7842   */\n      0x60\n        /* \"#utility.yul\":7866:7919   */\n      tag_376\n        /* \"#utility.yul\":7911:7918   */\n      dup12\n        /* \"#utility.yul\":7902:7908   */\n      dup3\n        /* \"#utility.yul\":7891:7900   */\n      dup13\n        /* \"#utility.yul\":7887:7909   */\n      add\n        /* \"#utility.yul\":7866:7919   */\n      tag_203\n      jump\t// in\n    tag_376:\n        /* \"#utility.yul\":7856:7919   */\n      swap4\n      pop\n        /* \"#utility.yul\":7811:7929   */\n      pop\n        /* \"#utility.yul\":7996:7999   */\n      0x80\n        /* \"#utility.yul\":7985:7994   */\n      dup10\n        /* \"#utility.yul\":7981:8000   */\n      add\n        /* \"#utility.yul\":7968:8001   */\n      calldataload\n        /* \"#utility.yul\":8028:8046   */\n      0xffffffffffffffff\n        /* \"#utility.yul\":8020:8026   */\n      dup2\n        /* \"#utility.yul\":8017:8047   */\n      gt\n        /* \"#utility.yul\":8014:8131   */\n      iszero\n      tag_377\n      jumpi\n        /* \"#utility.yul\":8050:8129   */\n      tag_378\n      tag_201\n      jump\t// in\n    tag_378:\n        /* \"#utility.yul\":8014:8131   */\n    tag_377:\n        /* \"#utility.yul\":8163:8228   */\n      tag_379\n        /* \"#utility.yul\":8220:8227   */\n      dup12\n        /* \"#utility.yul\":8211:8217   */\n      dup3\n        /* \"#utility.yul\":8200:8209   */\n      dup13\n        /* \"#utility.yul\":8196:8218   */\n      add\n        /* \"#utility.yul\":8163:8228   */\n      tag_225\n      jump\t// in\n    tag_379:\n        /* \"#utility.yul\":8145:8228   */\n      swap3\n      pop\n      swap3\n      pop\n        /* \"#utility.yul\":7939:8238   */\n      pop\n        /* \"#utility.yul\":6734:8245   */\n      swap3\n      swap6\n      swap9\n      pop\n      swap3\n      swap6\n      swap9\n      swap1\n      swap4\n      swap7\n      pop\n      jump\t// out\n        /* \"#utility.yul\":8251:8369   */\n    tag_226:\n        /* \"#utility.yul\":8338:8362   */\n      tag_381\n        /* \"#utility.yul\":8356:8361   */\n      dup2\n        /* \"#utility.yul\":8338:8362   */\n      tag_208\n      jump\t// in\n    tag_381:\n        /* \"#utility.yul\":8333:8336   */\n      dup3\n        /* \"#utility.yul\":8326:8363   */\n      mstore\n        /* \"#utility.yul\":8251:8369   */\n      pop\n      pop\n      jump\t// out\n        /* \"#utility.yul\":8375:8474   */\n    tag_227:\n        /* \"#utility.yul\":8427:8433   */\n      0x00\n        /* \"#utility.yul\":8461:8466   */\n      dup2\n        /* \"#utility.yul\":8455:8467   */\n      mload\n        /* \"#utility.yul\":8445:8467   */\n      swap1\n      pop\n        /* \"#utility.yul\":8375:8474   */\n      swap2\n      swap1\n      pop\n      jump\t// out\n        /* \"#utility.yul\":8480:8649   */\n    tag_228:\n        /* \"#utility.yul\":8564:8575   */\n      0x00\n        /* \"#utility.yul\":8598:8604   */\n      dup3\n        /* \"#utility.yul\":8593:8596   */\n      dup3\n        /* \"#utility.yul\":8586:8605   */\n      mstore\n        /* \"#utility.yul\":8638:8642   */\n      0x20\n        /* \"#utility.yul\":8633:8636   */\n      dup3\n        /* \"#utility.yul\":8629:8643   */\n      add\n        /* \"#utility.yul\":8614:8643   */\n      swap1\n      pop\n        /* \"#utility.yul\":8480:8649   */\n      swap3\n      swap2\n      pop\n      pop\n      jump\t// out\n        /* \"#utility.yul\":8655:8794   */\n    tag_229:\n        /* \"#utility.yul\":8744:8750   */\n      dup3\n        /* \"#utility.yul\":8739:8742   */\n      dup2\n        /* \"#utility.yul\":8734:8737   */\n      dup4\n        /* \"#utility.yul\":8728:8751   */\n      mcopy\n        /* \"#utility.yul\":8785:8786   */\n      0x00\n        /* \"#utility.yul\":8776:8782   */\n      dup4\n        /* \"#utility.yul\":8771:8774   */\n      dup4\n        /* \"#utility.yul\":8767:8783   */\n      add\n        /* \"#utility.yul\":8760:8787   */\n      mstore\n        /* \"#utility.yul\":8655:8794   */\n      pop\n      pop\n      pop\n      jump\t// out\n        /* \"#utility.yul\":8800:8902   */\n    tag_230:\n        /* \"#utility.yul\":8841:8847   */\n      0x00\n        /* \"#utility.yul\":8892:8894   */\n      0x1f\n        /* \"#utility.yul\":8888:8895   */\n      not\n        /* \"#utility.yul\":8883:8885   */\n      0x1f\n        /* \"#utility.yul\":8876:8881   */\n      dup4\n        /* \"#utility.yul\":8872:8886   */\n      add\n        /* \"#utility.yul\":8868:8896   */\n      and\n        /* \"#utility.yul\":8858:8896   */\n      swap1\n      pop\n        /* \"#utility.yul\":8800:8902   */\n      swap2\n      swap1\n      pop\n      jump\t// out\n        /* \"#utility.yul\":8908:9285   */\n    tag_231:\n        /* \"#utility.yul\":8996:8999   */\n      0x00\n        /* \"#utility.yul\":9024:9063   */\n      tag_387\n        /* \"#utility.yul\":9057:9062   */\n      dup3\n        /* \"#utility.yul\":9024:9063   */\n      tag_227\n      jump\t// in\n    tag_387:\n        /* \"#utility.yul\":9079:9150   */\n      tag_388\n        /* \"#utility.yul\":9143:9149   */\n      dup2\n        /* \"#utility.yul\":9138:9141   */\n      dup6\n        /* \"#utility.yul\":9079:9150   */\n      tag_228\n      jump\t// in\n    tag_388:\n        /* \"#utility.yul\":9072:9150   */\n      swap4\n      pop\n        /* \"#utility.yul\":9159:9224   */\n      tag_389\n        /* \"#utility.yul\":9217:9223   */\n      dup2\n        /* \"#utility.yul\":9212:9215   */\n      dup6\n        /* \"#utility.yul\":9205:9209   */\n      0x20\n        /* \"#utility.yul\":9198:9203   */\n      dup7\n        /* \"#utility.yul\":9194:9210   */\n      add\n        /* \"#utility.yul\":9159:9224   */\n      tag_229\n      jump\t// in\n    tag_389:\n        /* \"#utility.yul\":9249:9278   */\n      tag_390\n        /* \"#utility.yul\":9271:9277   */\n      dup2\n        /* \"#utility.yul\":9249:9278   */\n      tag_230\n      jump\t// in\n    tag_390:\n        /* \"#utility.yul\":9244:9247   */\n      dup5\n        /* \"#utility.yul\":9240:9279   */\n      add\n        /* \"#utility.yul\":9233:9279   */\n      swap2\n      pop\n        /* \"#utility.yul\":9000:9285   */\n      pop\n        /* \"#utility.yul\":8908:9285   */\n      swap3\n      swap2\n      pop\n      pop\n      jump\t// out\n        /* \"#utility.yul\":9291:9381   */\n    tag_232:\n        /* \"#utility.yul\":9325:9332   */\n      0x00\n        /* \"#utility.yul\":9368:9373   */\n      dup2\n        /* \"#utility.yul\":9361:9374   */\n      iszero\n        /* \"#utility.yul\":9354:9375   */\n      iszero\n        /* \"#utility.yul\":9343:9375   */\n      swap1\n      pop\n        /* \"#utility.yul\":9291:9381   */\n      swap2\n      swap1\n      pop\n      jump\t// out\n        /* \"#utility.yul\":9387:9496   */\n    tag_233:\n        /* \"#utility.yul\":9468:9489   */\n      tag_393\n        /* \"#utility.yul\":9483:9488   */\n      dup2\n        /* \"#utility.yul\":9468:9489   */\n      tag_232\n      jump\t// in\n    tag_393:\n        /* \"#utility.yul\":9463:9466   */\n      dup3\n        /* \"#utility.yul\":9456:9490   */\n      mstore\n        /* \"#utility.yul\":9387:9496   */\n      pop\n      pop\n      jump\t// out\n        /* \"#utility.yul\":9502:10649   */\n    tag_34:\n        /* \"#utility.yul\":9817:9821   */\n      0x00\n        /* \"#utility.yul\":9855:9858   */\n      0xe0\n        /* \"#utility.yul\":9844:9853   */\n      dup3\n        /* \"#utility.yul\":9840:9859   */\n      add\n        /* \"#utility.yul\":9832:9859   */\n      swap1\n      pop\n        /* \"#utility.yul\":9869:9940   */\n      tag_395\n        /* \"#utility.yul\":9937:9938   */\n      0x00\n        /* \"#utility.yul\":9926:9935   */\n      dup4\n        /* \"#utility.yul\":9922:9939   */\n      add\n        /* \"#utility.yul\":9913:9919   */\n      dup11\n        /* \"#utility.yul\":9869:9940   */\n      tag_226\n      jump\t// in\n    tag_395:\n        /* \"#utility.yul\":9987:9996   */\n      dup2\n        /* \"#utility.yul\":9981:9985   */\n      dup2\n        /* \"#utility.yul\":9977:9997   */\n      sub\n        /* \"#utility.yul\":9972:9974   */\n      0x20\n        /* \"#utility.yul\":9961:9970   */\n      dup4\n        /* \"#utility.yul\":9957:9975   */\n      add\n        /* \"#utility.yul\":9950:9998   */\n      mstore\n        /* \"#utility.yul\":10015:10093   */\n      tag_396\n        /* \"#utility.yul\":10088:10092   */\n      dup2\n        /* \"#utility.yul\":10079:10085   */\n      dup10\n        /* \"#utility.yul\":10015:10093   */\n      tag_231\n      jump\t// in\n    tag_396:\n        /* \"#utility.yul\":10007:10093   */\n      swap1\n      pop\n        /* \"#utility.yul\":10140:10149   */\n      dup2\n        /* \"#utility.yul\":10134:10138   */\n      dup2\n        /* \"#utility.yul\":10130:10150   */\n      sub\n        /* \"#utility.yul\":10125:10127   */\n      0x40\n        /* \"#utility.yul\":10114:10123   */\n      dup4\n        /* \"#utility.yul\":10110:10128   */\n      add\n        /* \"#utility.yul\":10103:10151   */\n      mstore\n        /* \"#utility.yul\":10168:10246   */\n      tag_397\n        /* \"#utility.yul\":10241:10245   */\n      dup2\n        /* \"#utility.yul\":10232:10238   */\n      dup9\n        /* \"#utility.yul\":10168:10246   */\n      tag_231\n      jump\t// in\n    tag_397:\n        /* \"#utility.yul\":10160:10246   */\n      swap1\n      pop\n        /* \"#utility.yul\":10256:10328   */\n      tag_398\n        /* \"#utility.yul\":10324:10326   */\n      0x60\n        /* \"#utility.yul\":10313:10322   */\n      dup4\n        /* \"#utility.yul\":10309:10327   */\n      add\n        /* \"#utility.yul\":10300:10306   */\n      dup8\n        /* \"#utility.yul\":10256:10328   */\n      tag_198\n      jump\t// in\n    tag_398:\n        /* \"#utility.yul\":10338:10411   */\n      tag_399\n        /* \"#utility.yul\":10406:10409   */\n      0x80\n        /* \"#utility.yul\":10395:10404   */\n      dup4\n        /* \"#utility.yul\":10391:10410   */\n      add\n        /* \"#utility.yul\":10382:10388   */\n      dup7\n        /* \"#utility.yul\":10338:10411   */\n      tag_198\n      jump\t// in\n    tag_399:\n        /* \"#utility.yul\":10459:10468   */\n      dup2\n        /* \"#utility.yul\":10453:10457   */\n      dup2\n        /* \"#utility.yul\":10449:10469   */\n      sub\n        /* \"#utility.yul\":10443:10446   */\n      0xa0\n        /* \"#utility.yul\":10432:10441   */\n      dup4\n        /* \"#utility.yul\":10428:10447   */\n      add\n        /* \"#utility.yul\":10421:10470   */\n      mstore\n        /* \"#utility.yul\":10487:10565   */\n      tag_400\n        /* \"#utility.yul\":10560:10564   */\n      dup2\n        /* \"#utility.yul\":10551:10557   */\n      dup6\n        /* \"#utility.yul\":10487:10565   */\n      tag_231\n      jump\t// in\n    tag_400:\n        /* \"#utility.yul\":10479:10565   */\n      swap1\n      pop\n        /* \"#utility.yul\":10575:10642   */\n      tag_401\n        /* \"#utility.yul\":10637:10640   */\n      0xc0\n        /* \"#utility.yul\":10626:10635   */\n      dup4\n        /* \"#utility.yul\":10622:10641   */\n      add\n        /* \"#utility.yul\":10613:10619   */\n      dup5\n        /* \"#utility.yul\":10575:10642   */\n      tag_233\n      jump\t// in\n    tag_401:\n        /* \"#utility.yul\":9502:10649   */\n      swap9\n      swap8\n      pop\n      pop\n      pop\n      pop\n      pop\n      pop\n      pop\n      pop\n      jump\t// out\n        /* \"#utility.yul\":10655:10794   */\n    tag_234:\n        /* \"#utility.yul\":10747:10753   */\n      0x00\n        /* \"#utility.yul\":10781:10786   */\n      dup2\n        /* \"#utility.yul\":10775:10787   */\n      mload\n        /* \"#utility.yul\":10765:10787   */\n      swap1\n      pop\n        /* \"#utility.yul\":10655:10794   */\n      swap2\n      swap1\n      pop\n      jump\t// out\n        /* \"#utility.yul\":10800:11009   */\n    tag_235:\n        /* \"#utility.yul\":10924:10935   */\n      0x00\n        /* \"#utility.yul\":10958:10964   */\n      dup3\n        /* \"#utility.yul\":10953:10956   */\n      dup3\n        /* \"#utility.yul\":10946:10965   */\n      mstore\n        /* \"#utility.yul\":10998:11002   */\n      0x20\n        /* \"#utility.yul\":10993:10996   */\n      dup3\n        /* \"#utility.yul\":10989:11003   */\n      add\n        /* \"#utility.yul\":10974:11003   */\n      swap1\n      pop\n        /* \"#utility.yul\":10800:11009   */\n      swap3\n      swap2\n      pop\n      pop\n      jump\t// out\n        /* \"#utility.yul\":11015:11172   */\n    tag_236:\n        /* \"#utility.yul\":11107:11111   */\n      0x00\n        /* \"#utility.yul\":11130:11133   */\n      dup2\n        /* \"#utility.yul\":11122:11133   */\n      swap1\n      pop\n        /* \"#utility.yul\":11160:11164   */\n      0x20\n        /* \"#utility.yul\":11155:11158   */\n      dup3\n        /* \"#utility.yul\":11151:11165   */\n      add\n        /* \"#utility.yul\":11143:11165   */\n      swap1\n      pop\n        /* \"#utility.yul\":11015:11172   */\n      swap2\n      swap1\n      pop\n      jump\t// out\n        /* \"#utility.yul\":11178:11337   */\n    tag_237:\n        /* \"#utility.yul\":11252:11263   */\n      0x00\n        /* \"#utility.yul\":11286:11292   */\n      dup3\n        /* \"#utility.yul\":11281:11284   */\n      dup3\n        /* \"#utility.yul\":11274:11293   */\n      mstore\n        /* \"#utility.yul\":11326:11330   */\n      0x20\n        /* \"#utility.yul\":11321:11324   */\n      dup3\n        /* \"#utility.yul\":11317:11331   */\n      add\n        /* \"#utility.yul\":11302:11331   */\n      swap1\n      pop\n        /* \"#utility.yul\":11178:11337   */\n      swap3\n      swap2\n      pop\n      pop\n      jump\t// out\n        /* \"#utility.yul\":11343:11700   */\n    tag_238:\n        /* \"#utility.yul\":11421:11424   */\n      0x00\n        /* \"#utility.yul\":11449:11488   */\n      tag_407\n        /* \"#utility.yul\":11482:11487   */\n      dup3\n        /* \"#utility.yul\":11449:11488   */\n      tag_227\n      jump\t// in\n    tag_407:\n        /* \"#utility.yul\":11504:11565   */\n      tag_408\n        /* \"#utility.yul\":11558:11564   */\n      dup2\n        /* \"#utility.yul\":11553:11556   */\n      dup6\n        /* \"#utility.yul\":11504:11565   */\n      tag_237\n      jump\t// in\n    tag_408:\n        /* \"#utility.yul\":11497:11565   */\n      swap4\n      pop\n        /* \"#utility.yul\":11574:11639   */\n      tag_409\n        /* \"#utility.yul\":11632:11638   */\n      dup2\n        /* \"#utility.yul\":11627:11630   */\n      dup6\n        /* \"#utility.yul\":11620:11624   */\n      0x20\n        /* \"#utility.yul\":11613:11618   */\n      dup7\n        /* \"#utility.yul\":11609:11625   */\n      add\n        /* \"#utility.yul\":11574:11639   */\n      tag_229\n      jump\t// in\n    tag_409:\n        /* \"#utility.yul\":11664:11693   */\n      tag_410\n        /* \"#utility.yul\":11686:11692   */\n      dup2\n        /* \"#utility.yul\":11664:11693   */\n      tag_230\n      jump\t// in\n    tag_410:\n        /* \"#utility.yul\":11659:11662   */\n      dup5\n        /* \"#utility.yul\":11655:11694   */\n      add\n        /* \"#utility.yul\":11648:11694   */\n      swap2\n      pop\n        /* \"#utility.yul\":11425:11700   */\n      pop\n        /* \"#utility.yul\":11343:11700   */\n      swap3\n      swap2\n      pop\n      pop\n      jump\t// out\n        /* \"#utility.yul\":11706:11805   */\n    tag_239:\n        /* \"#utility.yul\":11777:11798   */\n      tag_412\n        /* \"#utility.yul\":11792:11797   */\n      dup2\n        /* \"#utility.yul\":11777:11798   */\n      tag_232\n      jump\t// in\n    tag_412:\n        /* \"#utility.yul\":11772:11775   */\n      dup3\n        /* \"#utility.yul\":11765:11799   */\n      mstore\n        /* \"#utility.yul\":11706:11805   */\n      pop\n      pop\n      jump\t// out\n        /* \"#utility.yul\":11811:11985   */\n    tag_240:\n        /* \"#utility.yul\":11900:11911   */\n      0x00\n        /* \"#utility.yul\":11934:11940   */\n      dup3\n        /* \"#utility.yul\":11929:11932   */\n      dup3\n        /* \"#utility.yul\":11922:11941   */\n      mstore\n        /* \"#utility.yul\":11974:11978   */\n      0x20\n        /* \"#utility.yul\":11969:11972   */\n      dup3\n        /* \"#utility.yul\":11965:11979   */\n      add\n        /* \"#utility.yul\":11950:11979   */\n      swap1\n      pop\n        /* \"#utility.yul\":11811:11985   */\n      swap3\n      swap2\n      pop\n      pop\n      jump\t// out\n        /* \"#utility.yul\":12021:12733   */\n    tag_241:\n        /* \"#utility.yul\":12130:12133   */\n      0x00\n        /* \"#utility.yul\":12159:12213   */\n      tag_415\n        /* \"#utility.yul\":12207:12212   */\n      dup3\n        /* \"#utility.yul\":12159:12213   */\n      tag_204\n      jump\t// in\n    tag_415:\n        /* \"#utility.yul\":12229:12305   */\n      tag_416\n        /* \"#utility.yul\":12298:12304   */\n      dup2\n        /* \"#utility.yul\":12293:12296   */\n      dup6\n        /* \"#utility.yul\":12229:12305   */\n      tag_240\n      jump\t// in\n    tag_416:\n        /* \"#utility.yul\":12222:12305   */\n      swap4\n      pop\n        /* \"#utility.yul\":12329:12385   */\n      tag_417\n        /* \"#utility.yul\":12379:12384   */\n      dup4\n        /* \"#utility.yul\":12329:12385   */\n      tag_206\n      jump\t// in\n    tag_417:\n        /* \"#utility.yul\":12408:12415   */\n      dup1\n        /* \"#utility.yul\":12439:12440   */\n      0x00\n        /* \"#utility.yul\":12424:12708   */\n    tag_418:\n        /* \"#utility.yul\":12449:12455   */\n      dup4\n        /* \"#utility.yul\":12446:12447   */\n      dup2\n        /* \"#utility.yul\":12443:12456   */\n      lt\n        /* \"#utility.yul\":12424:12708   */\n      iszero\n      tag_420\n      jumpi\n        /* \"#utility.yul\":12525:12531   */\n      dup2\n        /* \"#utility.yul\":12519:12532   */\n      mload\n        /* \"#utility.yul\":12552:12615   */\n      tag_421\n        /* \"#utility.yul\":12611:12614   */\n      dup9\n        /* \"#utility.yul\":12596:12609   */\n      dup3\n        /* \"#utility.yul\":12552:12615   */\n      tag_210\n      jump\t// in\n    tag_421:\n        /* \"#utility.yul\":12545:12615   */\n      swap8\n      pop\n        /* \"#utility.yul\":12638:12698   */\n      tag_422\n        /* \"#utility.yul\":12691:12697   */\n      dup4\n        /* \"#utility.yul\":12638:12698   */\n      tag_211\n      jump\t// in\n    tag_422:\n        /* \"#utility.yul\":12628:12698   */\n      swap3\n      pop\n        /* \"#utility.yul\":12484:12708   */\n      pop\n        /* \"#utility.yul\":12471:12472   */\n      0x01\n        /* \"#utility.yul\":12468:12469   */\n      dup2\n        /* \"#utility.yul\":12464:12473   */\n      add\n        /* \"#utility.yul\":12459:12473   */\n      swap1\n      pop\n        /* \"#utility.yul\":12424:12708   */\n      jump(tag_418)\n    tag_420:\n        /* \"#utility.yul\":12428:12442   */\n      pop\n        /* \"#utility.yul\":12724:12727   */\n      dup6\n        /* \"#utility.yul\":12717:12727   */\n      swap4\n      pop\n        /* \"#utility.yul\":12135:12733   */\n      pop\n      pop\n      pop\n        /* \"#utility.yul\":12021:12733   */\n      swap3\n      swap2\n      pop\n      pop\n      jump\t// out\n        /* \"#utility.yul\":12739:12913   */\n    tag_242:\n        /* \"#utility.yul\":12828:12839   */\n      0x00\n        /* \"#utility.yul\":12862:12868   */\n      dup3\n        /* \"#utility.yul\":12857:12860   */\n      dup3\n        /* \"#utility.yul\":12850:12869   */\n      mstore\n        /* \"#utility.yul\":12902:12906   */\n      0x20\n        /* \"#utility.yul\":12897:12900   */\n      dup3\n        /* \"#utility.yul\":12893:12907   */\n      add\n        /* \"#utility.yul\":12878:12907   */\n      swap1\n      pop\n        /* \"#utility.yul\":12739:12913   */\n      swap3\n      swap2\n      pop\n      pop\n      jump\t// out\n        /* \"#utility.yul\":12949:13661   */\n    tag_243:\n        /* \"#utility.yul\":13058:13061   */\n      0x00\n        /* \"#utility.yul\":13087:13141   */\n      tag_425\n        /* \"#utility.yul\":13135:13140   */\n      dup3\n        /* \"#utility.yul\":13087:13141   */\n      tag_213\n      jump\t// in\n    tag_425:\n        /* \"#utility.yul\":13157:13233   */\n      tag_426\n        /* \"#utility.yul\":13226:13232   */\n      dup2\n        /* \"#utility.yul\":13221:13224   */\n      dup6\n        /* \"#utility.yul\":13157:13233   */\n      tag_242\n      jump\t// in\n    tag_426:\n        /* \"#utility.yul\":13150:13233   */\n      swap4\n      pop\n        /* \"#utility.yul\":13257:13313   */\n      tag_427\n        /* \"#utility.yul\":13307:13312   */\n      dup4\n        /* \"#utility.yul\":13257:13313   */\n      tag_215\n      jump\t// in\n    tag_427:\n        /* \"#utility.yul\":13336:13343   */\n      dup1\n        /* \"#utility.yul\":13367:13368   */\n      0x00\n        /* \"#utility.yul\":13352:13636   */\n    tag_428:\n        /* \"#utility.yul\":13377:13383   */\n      dup4\n        /* \"#utility.yul\":13374:13375   */\n      dup2\n        /* \"#utility.yul\":13371:13384   */\n      lt\n        /* \"#utility.yul\":13352:13636   */\n      iszero\n      tag_430\n      jumpi\n        /* \"#utility.yul\":13453:13459   */\n      dup2\n        /* \"#utility.yul\":13447:13460   */\n      mload\n        /* \"#utility.yul\":13480:13543   */\n      tag_431\n        /* \"#utility.yul\":13539:13542   */\n      dup9\n        /* \"#utility.yul\":13524:13537   */\n      dup3\n        /* \"#utility.yul\":13480:13543   */\n      tag_217\n      jump\t// in\n    tag_431:\n        /* \"#utility.yul\":13473:13543   */\n      swap8\n      pop\n        /* \"#utility.yul\":13566:13626   */\n      tag_432\n        /* \"#utility.yul\":13619:13625   */\n      dup4\n        /* \"#utility.yul\":13566:13626   */\n      tag_218\n      jump\t// in\n    tag_432:\n        /* \"#utility.yul\":13556:13626   */\n      swap3\n      pop\n        /* \"#utility.yul\":13412:13636   */\n      pop\n        /* \"#utility.yul\":13399:13400   */\n      0x01\n        /* \"#utility.yul\":13396:13397   */\n      dup2\n        /* \"#utility.yul\":13392:13401   */\n      add\n        /* \"#utility.yul\":13387:13401   */\n      swap1\n      pop\n        /* \"#utility.yul\":13352:13636   */\n      jump(tag_428)\n    tag_430:\n        /* \"#utility.yul\":13356:13370   */\n      pop\n        /* \"#utility.yul\":13652:13655   */\n      dup6\n        /* \"#utility.yul\":13645:13655   */\n      swap4\n      pop\n        /* \"#utility.yul\":13063:13661   */\n      pop\n      pop\n      pop\n        /* \"#utility.yul\":12949:13661   */\n      swap3\n      swap2\n      pop\n      pop\n      jump\t// out\n        /* \"#utility.yul\":13735:15930   */\n    tag_244:\n        /* \"#utility.yul\":13844:13847   */\n      0x00\n        /* \"#utility.yul\":13880:13886   */\n      0x0120\n        /* \"#utility.yul\":13875:13878   */\n      dup4\n        /* \"#utility.yul\":13871:13887   */\n      add\n        /* \"#utility.yul\":13970:13974   */\n      0x00\n        /* \"#utility.yul\":13963:13968   */\n      dup4\n        /* \"#utility.yul\":13959:13975   */\n      add\n        /* \"#utility.yul\":13953:13976   */\n      mload\n        /* \"#utility.yul\":13989:14052   */\n      tag_434\n        /* \"#utility.yul\":14046:14050   */\n      0x00\n        /* \"#utility.yul\":14041:14044   */\n      dup7\n        /* \"#utility.yul\":14037:14051   */\n      add\n        /* \"#utility.yul\":14023:14035   */\n      dup3\n        /* \"#utility.yul\":13989:14052   */\n      tag_209\n      jump\t// in\n    tag_434:\n        /* \"#utility.yul\":13897:14062   */\n      pop\n        /* \"#utility.yul\":14145:14149   */\n      0x20\n        /* \"#utility.yul\":14138:14143   */\n      dup4\n        /* \"#utility.yul\":14134:14150   */\n      add\n        /* \"#utility.yul\":14128:14151   */\n      mload\n        /* \"#utility.yul\":14198:14201   */\n      dup5\n        /* \"#utility.yul\":14192:14196   */\n      dup3\n        /* \"#utility.yul\":14188:14202   */\n      sub\n        /* \"#utility.yul\":14181:14185   */\n      0x20\n        /* \"#utility.yul\":14176:14179   */\n      dup7\n        /* \"#utility.yul\":14172:14186   */\n      add\n        /* \"#utility.yul\":14165:14203   */\n      mstore\n        /* \"#utility.yul\":14224:14297   */\n      tag_435\n        /* \"#utility.yul\":14292:14296   */\n      dup3\n        /* \"#utility.yul\":14278:14290   */\n      dup3\n        /* \"#utility.yul\":14224:14297   */\n      tag_238\n      jump\t// in\n    tag_435:\n        /* \"#utility.yul\":14216:14297   */\n      swap2\n      pop\n        /* \"#utility.yul\":14072:14308   */\n      pop\n        /* \"#utility.yul\":14397:14401   */\n      0x40\n        /* \"#utility.yul\":14390:14395   */\n      dup4\n        /* \"#utility.yul\":14386:14402   */\n      add\n        /* \"#utility.yul\":14380:14403   */\n      mload\n        /* \"#utility.yul\":14450:14453   */\n      dup5\n        /* \"#utility.yul\":14444:14448   */\n      dup3\n        /* \"#utility.yul\":14440:14454   */\n      sub\n        /* \"#utility.yul\":14433:14437   */\n      0x40\n        /* \"#utility.yul\":14428:14431   */\n      dup7\n        /* \"#utility.yul\":14424:14438   */\n      add\n        /* \"#utility.yul\":14417:14455   */\n      mstore\n        /* \"#utility.yul\":14476:14549   */\n      tag_436\n        /* \"#utility.yul\":14544:14548   */\n      dup3\n        /* \"#utility.yul\":14530:14542   */\n      dup3\n        /* \"#utility.yul\":14476:14549   */\n      tag_238\n      jump\t// in\n    tag_436:\n        /* \"#utility.yul\":14468:14549   */\n      swap2\n      pop\n        /* \"#utility.yul\":14318:14560   */\n      pop\n        /* \"#utility.yul\":14644:14648   */\n      0x60\n        /* \"#utility.yul\":14637:14642   */\n      dup4\n        /* \"#utility.yul\":14633:14649   */\n      add\n        /* \"#utility.yul\":14627:14650   */\n      mload\n        /* \"#utility.yul\":14663:14726   */\n      tag_437\n        /* \"#utility.yul\":14720:14724   */\n      0x60\n        /* \"#utility.yul\":14715:14718   */\n      dup7\n        /* \"#utility.yul\":14711:14725   */\n      add\n        /* \"#utility.yul\":14697:14709   */\n      dup3\n        /* \"#utility.yul\":14663:14726   */\n      tag_216\n      jump\t// in\n    tag_437:\n        /* \"#utility.yul\":14570:14736   */\n      pop\n        /* \"#utility.yul\":14829:14833   */\n      0x80\n        /* \"#utility.yul\":14822:14827   */\n      dup4\n        /* \"#utility.yul\":14818:14834   */\n      add\n        /* \"#utility.yul\":14812:14835   */\n      mload\n        /* \"#utility.yul\":14848:14911   */\n      tag_438\n        /* \"#utility.yul\":14905:14909   */\n      0x80\n        /* \"#utility.yul\":14900:14903   */\n      dup7\n        /* \"#utility.yul\":14896:14910   */\n      add\n        /* \"#utility.yul\":14882:14894   */\n      dup3\n        /* \"#utility.yul\":14848:14911   */\n      tag_216\n      jump\t// in\n    tag_438:\n        /* \"#utility.yul\":14746:14921   */\n      pop\n        /* \"#utility.yul\":15004:15008   */\n      0xa0\n        /* \"#utility.yul\":14997:15002   */\n      dup4\n        /* \"#utility.yul\":14993:15009   */\n      add\n        /* \"#utility.yul\":14987:15010   */\n      mload\n        /* \"#utility.yul\":15057:15060   */\n      dup5\n        /* \"#utility.yul\":15051:15055   */\n      dup3\n        /* \"#utility.yul\":15047:15061   */\n      sub\n        /* \"#utility.yul\":15040:15044   */\n      0xa0\n        /* \"#utility.yul\":15035:15038   */\n      dup7\n        /* \"#utility.yul\":15031:15045   */\n      add\n        /* \"#utility.yul\":15024:15062   */\n      mstore\n        /* \"#utility.yul\":15083:15156   */\n      tag_439\n        /* \"#utility.yul\":15151:15155   */\n      dup3\n        /* \"#utility.yul\":15137:15149   */\n      dup3\n        /* \"#utility.yul\":15083:15156   */\n      tag_238\n      jump\t// in\n    tag_439:\n        /* \"#utility.yul\":15075:15156   */\n      swap2\n      pop\n        /* \"#utility.yul\":14931:15167   */\n      pop\n        /* \"#utility.yul\":15254:15258   */\n      0xc0\n        /* \"#utility.yul\":15247:15252   */\n      dup4\n        /* \"#utility.yul\":15243:15259   */\n      add\n        /* \"#utility.yul\":15237:15260   */\n      mload\n        /* \"#utility.yul\":15273:15330   */\n      tag_440\n        /* \"#utility.yul\":15324:15328   */\n      0xc0\n        /* \"#utility.yul\":15319:15322   */\n      dup7\n        /* \"#utility.yul\":15315:15329   */\n      add\n        /* \"#utility.yul\":15301:15313   */\n      dup3\n        /* \"#utility.yul\":15273:15330   */\n      tag_239\n      jump\t// in\n    tag_440:\n        /* \"#utility.yul\":15177:15340   */\n      pop\n        /* \"#utility.yul\":15426:15430   */\n      0xe0\n        /* \"#utility.yul\":15419:15424   */\n      dup4\n        /* \"#utility.yul\":15415:15431   */\n      add\n        /* \"#utility.yul\":15409:15432   */\n      mload\n        /* \"#utility.yul\":15479:15482   */\n      dup5\n        /* \"#utility.yul\":15473:15477   */\n      dup3\n        /* \"#utility.yul\":15469:15483   */\n      sub\n        /* \"#utility.yul\":15462:15466   */\n      0xe0\n        /* \"#utility.yul\":15457:15460   */\n      dup7\n        /* \"#utility.yul\":15453:15467   */\n      add\n        /* \"#utility.yul\":15446:15484   */\n      mstore\n        /* \"#utility.yul\":15505:15608   */\n      tag_441\n        /* \"#utility.yul\":15603:15607   */\n      dup3\n        /* \"#utility.yul\":15589:15601   */\n      dup3\n        /* \"#utility.yul\":15505:15608   */\n      tag_241\n      jump\t// in\n    tag_441:\n        /* \"#utility.yul\":15497:15608   */\n      swap2\n      pop\n        /* \"#utility.yul\":15350:15619   */\n      pop\n        /* \"#utility.yul\":15706:15712   */\n      0x0100\n        /* \"#utility.yul\":15699:15704   */\n      dup4\n        /* \"#utility.yul\":15695:15713   */\n      add\n        /* \"#utility.yul\":15689:15714   */\n      mload\n        /* \"#utility.yul\":15763:15766   */\n      dup5\n        /* \"#utility.yul\":15757:15761   */\n      dup3\n        /* \"#utility.yul\":15753:15767   */\n      sub\n        /* \"#utility.yul\":15744:15750   */\n      0x0100\n        /* \"#utility.yul\":15739:15742   */\n      dup7\n        /* \"#utility.yul\":15735:15751   */\n      add\n        /* \"#utility.yul\":15728:15768   */\n      mstore\n        /* \"#utility.yul\":15789:15892   */\n      tag_442\n        /* \"#utility.yul\":15887:15891   */\n      dup3\n        /* \"#utility.yul\":15873:15885   */\n      dup3\n        /* \"#utility.yul\":15789:15892   */\n      tag_243\n      jump\t// in\n    tag_442:\n        /* \"#utility.yul\":15781:15892   */\n      swap2\n      pop\n        /* \"#utility.yul\":15629:15903   */\n      pop\n        /* \"#utility.yul\":15920:15924   */\n      dup1\n        /* \"#utility.yul\":15913:15924   */\n      swap2\n      pop\n        /* \"#utility.yul\":13849:15930   */\n      pop\n        /* \"#utility.yul\":13735:15930   */\n      swap3\n      swap2\n      pop\n      pop\n      jump\t// out\n        /* \"#utility.yul\":15936:16192   */\n    tag_245:\n        /* \"#utility.yul\":16055:16065   */\n      0x00\n        /* \"#utility.yul\":16090:16186   */\n      tag_444\n        /* \"#utility.yul\":16182:16185   */\n      dup4\n        /* \"#utility.yul\":16174:16180   */\n      dup4\n        /* \"#utility.yul\":16090:16186   */\n      tag_244\n      jump\t// in\n    tag_444:\n        /* \"#utility.yul\":16076:16186   */\n      swap1\n      pop\n        /* \"#utility.yul\":15936:16192   */\n      swap3\n      swap2\n      pop\n      pop\n      jump\t// out\n        /* \"#utility.yul\":16198:16336   */\n    tag_246:\n        /* \"#utility.yul\":16293:16297   */\n      0x00\n        /* \"#utility.yul\":16325:16329   */\n      0x20\n        /* \"#utility.yul\":16320:16323   */\n      dup3\n        /* \"#utility.yul\":16316:16330   */\n      add\n        /* \"#utility.yul\":16308:16330   */\n      swap1\n      pop\n        /* \"#utility.yul\":16198:16336   */\n      swap2\n      swap1\n      pop\n      jump\t// out\n        /* \"#utility.yul\":16414:17525   */\n    tag_247:\n        /* \"#utility.yul\":16583:16586   */\n      0x00\n        /* \"#utility.yul\":16612:16691   */\n      tag_447\n        /* \"#utility.yul\":16685:16690   */\n      dup3\n        /* \"#utility.yul\":16612:16691   */\n      tag_234\n      jump\t// in\n    tag_447:\n        /* \"#utility.yul\":16707:16818   */\n      tag_448\n        /* \"#utility.yul\":16811:16817   */\n      dup2\n        /* \"#utility.yul\":16806:16809   */\n      dup6\n        /* \"#utility.yul\":16707:16818   */\n      tag_235\n      jump\t// in\n    tag_448:\n        /* \"#utility.yul\":16700:16818   */\n      swap4\n      pop\n        /* \"#utility.yul\":16844:16847   */\n      dup4\n        /* \"#utility.yul\":16889:16893   */\n      0x20\n        /* \"#utility.yul\":16881:16887   */\n      dup3\n        /* \"#utility.yul\":16877:16894   */\n      mul\n        /* \"#utility.yul\":16872:16875   */\n      dup6\n        /* \"#utility.yul\":16868:16895   */\n      add\n        /* \"#utility.yul\":16919:17000   */\n      tag_449\n        /* \"#utility.yul\":16994:16999   */\n      dup6\n        /* \"#utility.yul\":16919:17000   */\n      tag_236\n      jump\t// in\n    tag_449:\n        /* \"#utility.yul\":17023:17030   */\n      dup1\n        /* \"#utility.yul\":17054:17055   */\n      0x00\n        /* \"#utility.yul\":17039:17480   */\n    tag_450:\n        /* \"#utility.yul\":17064:17070   */\n      dup6\n        /* \"#utility.yul\":17061:17062   */\n      dup2\n        /* \"#utility.yul\":17058:17071   */\n      lt\n        /* \"#utility.yul\":17039:17480   */\n      iszero\n      tag_452\n      jumpi\n        /* \"#utility.yul\":17135:17144   */\n      dup5\n        /* \"#utility.yul\":17129:17133   */\n      dup5\n        /* \"#utility.yul\":17125:17145   */\n      sub\n        /* \"#utility.yul\":17120:17123   */\n      dup10\n        /* \"#utility.yul\":17113:17146   */\n      mstore\n        /* \"#utility.yul\":17186:17192   */\n      dup2\n        /* \"#utility.yul\":17180:17193   */\n      mload\n        /* \"#utility.yul\":17214:17328   */\n      tag_453\n        /* \"#utility.yul\":17323:17327   */\n      dup6\n        /* \"#utility.yul\":17308:17321   */\n      dup3\n        /* \"#utility.yul\":17214:17328   */\n      tag_245\n      jump\t// in\n    tag_453:\n        /* \"#utility.yul\":17206:17328   */\n      swap5\n      pop\n        /* \"#utility.yul\":17351:17436   */\n      tag_454\n        /* \"#utility.yul\":17429:17435   */\n      dup4\n        /* \"#utility.yul\":17351:17436   */\n      tag_246\n      jump\t// in\n    tag_454:\n        /* \"#utility.yul\":17341:17436   */\n      swap3\n      pop\n        /* \"#utility.yul\":17465:17469   */\n      0x20\n        /* \"#utility.yul\":17460:17463   */\n      dup11\n        /* \"#utility.yul\":17456:17470   */\n      add\n        /* \"#utility.yul\":17449:17470   */\n      swap10\n      pop\n        /* \"#utility.yul\":17099:17480   */\n      pop\n        /* \"#utility.yul\":17086:17087   */\n      0x01\n        /* \"#utility.yul\":17083:17084   */\n      dup2\n        /* \"#utility.yul\":17079:17088   */\n      add\n        /* \"#utility.yul\":17074:17088   */\n      swap1\n      pop\n        /* \"#utility.yul\":17039:17480   */\n      jump(tag_450)\n    tag_452:\n        /* \"#utility.yul\":17043:17057   */\n      pop\n        /* \"#utility.yul\":17496:17500   */\n      dup3\n        /* \"#utility.yul\":17489:17500   */\n      swap8\n      pop\n        /* \"#utility.yul\":17516:17519   */\n      dup8\n        /* \"#utility.yul\":17509:17519   */\n      swap6\n      pop\n        /* \"#utility.yul\":16588:17525   */\n      pop\n      pop\n      pop\n      pop\n      pop\n        /* \"#utility.yul\":16414:17525   */\n      swap3\n      swap2\n      pop\n      pop\n      jump\t// out\n        /* \"#utility.yul\":17531:18004   */\n    tag_46:\n        /* \"#utility.yul\":17724:17728   */\n      0x00\n        /* \"#utility.yul\":17762:17764   */\n      0x20\n        /* \"#utility.yul\":17751:17760   */\n      dup3\n        /* \"#utility.yul\":17747:17765   */\n      add\n        /* \"#utility.yul\":17739:17765   */\n      swap1\n      pop\n        /* \"#utility.yul\":17811:17820   */\n      dup2\n        /* \"#utility.yul\":17805:17809   */\n      dup2\n        /* \"#utility.yul\":17801:17821   */\n      sub\n        /* \"#utility.yul\":17797:17798   */\n      0x00\n        /* \"#utility.yul\":17786:17795   */\n      dup4\n        /* \"#utility.yul\":17782:17799   */\n      add\n        /* \"#utility.yul\":17775:17822   */\n      mstore\n        /* \"#utility.yul\":17839:17997   */\n      tag_456\n        /* \"#utility.yul\":17992:17996   */\n      dup2\n        /* \"#utility.yul\":17983:17989   */\n      dup5\n        /* \"#utility.yul\":17839:17997   */\n      tag_247\n      jump\t// in\n    tag_456:\n        /* \"#utility.yul\":17831:17997   */\n      swap1\n      pop\n        /* \"#utility.yul\":17531:18004   */\n      swap3\n      swap2\n      pop\n      pop\n      jump\t// out\n        /* \"#utility.yul\":18010:19521   */\n    tag_50:\n        /* \"#utility.yul\":18141:18147   */\n      0x00\n        /* \"#utility.yul\":18149:18155   */\n      dup1\n        /* \"#utility.yul\":18157:18163   */\n      0x00\n        /* \"#utility.yul\":18165:18171   */\n      dup1\n        /* \"#utility.yul\":18173:18179   */\n      0x00\n        /* \"#utility.yul\":18181:18187   */\n      dup1\n        /* \"#utility.yul\":18189:18195   */\n      0x00\n        /* \"#utility.yul\":18197:18203   */\n      dup1\n        /* \"#utility.yul\":18246:18249   */\n      0xa0\n        /* \"#utility.yul\":18234:18243   */\n      dup10\n        /* \"#utility.yul\":18225:18232   */\n      dup12\n        /* \"#utility.yul\":18221:18244   */\n      sub\n        /* \"#utility.yul\":18217:18250   */\n      slt\n        /* \"#utility.yul\":18214:18334   */\n      iszero\n      tag_458\n      jumpi\n        /* \"#utility.yul\":18253:18332   */\n      tag_459\n      tag_200\n      jump\t// in\n    tag_459:\n        /* \"#utility.yul\":18214:18334   */\n    tag_458:\n        /* \"#utility.yul\":18373:18374   */\n      0x00\n        /* \"#utility.yul\":18398:18451   */\n      tag_460\n        /* \"#utility.yul\":18443:18450   */\n      dup12\n        /* \"#utility.yul\":18434:18440   */\n      dup3\n        /* \"#utility.yul\":18423:18432   */\n      dup13\n        /* \"#utility.yul\":18419:18441   */\n      add\n        /* \"#utility.yul\":18398:18451   */\n      tag_203\n      jump\t// in\n    tag_460:\n        /* \"#utility.yul\":18388:18451   */\n      swap9\n      pop\n        /* \"#utility.yul\":18344:18461   */\n      pop\n        /* \"#utility.yul\":18528:18530   */\n      0x20\n        /* \"#utility.yul\":18517:18526   */\n      dup10\n        /* \"#utility.yul\":18513:18531   */\n      add\n        /* \"#utility.yul\":18500:18532   */\n      calldataload\n        /* \"#utility.yul\":18559:18577   */\n      0xffffffffffffffff\n        /* \"#utility.yul\":18551:18557   */\n      dup2\n        /* \"#utility.yul\":18548:18578   */\n      gt\n        /* \"#utility.yul\":18545:18662   */\n      iszero\n      tag_461\n      jumpi\n        /* \"#utility.yul\":18581:18660   */\n      tag_462\n      tag_201\n      jump\t// in\n    tag_462:\n        /* \"#utility.yul\":18545:18662   */\n    tag_461:\n        /* \"#utility.yul\":18694:18759   */\n      tag_463\n        /* \"#utility.yul\":18751:18758   */\n      dup12\n        /* \"#utility.yul\":18742:18748   */\n      dup3\n        /* \"#utility.yul\":18731:18740   */\n      dup13\n        /* \"#utility.yul\":18727:18749   */\n      add\n        /* \"#utility.yul\":18694:18759   */\n      tag_225\n      jump\t// in\n    tag_463:\n        /* \"#utility.yul\":18676:18759   */\n      swap8\n      pop\n      swap8\n      pop\n        /* \"#utility.yul\":18471:18769   */\n      pop\n        /* \"#utility.yul\":18836:18838   */\n      0x40\n        /* \"#utility.yul\":18825:18834   */\n      dup10\n        /* \"#utility.yul\":18821:18839   */\n      add\n        /* \"#utility.yul\":18808:18840   */\n      calldataload\n        /* \"#utility.yul\":18867:18885   */\n      0xffffffffffffffff\n        /* \"#utility.yul\":18859:18865   */\n      dup2\n        /* \"#utility.yul\":18856:18886   */\n      gt\n        /* \"#utility.yul\":18853:18970   */\n      iszero\n      tag_464\n      jumpi\n        /* \"#utility.yul\":18889:18968   */\n      tag_465\n      tag_201\n      jump\t// in\n    tag_465:\n        /* \"#utility.yul\":18853:18970   */\n    tag_464:\n        /* \"#utility.yul\":19002:19067   */\n      tag_466\n        /* \"#utility.yul\":19059:19066   */\n      dup12\n        /* \"#utility.yul\":19050:19056   */\n      dup3\n        /* \"#utility.yul\":19039:19048   */\n      dup13\n        /* \"#utility.yul\":19035:19057   */\n      add\n        /* \"#utility.yul\":19002:19067   */\n      tag_225\n      jump\t// in\n    tag_466:\n        /* \"#utility.yul\":18984:19067   */\n      swap6\n      pop\n      swap6\n      pop\n        /* \"#utility.yul\":18779:19077   */\n      pop\n        /* \"#utility.yul\":19116:19118   */\n      0x60\n        /* \"#utility.yul\":19142:19195   */\n      tag_467\n        /* \"#utility.yul\":19187:19194   */\n      dup12\n        /* \"#utility.yul\":19178:19184   */\n      dup3\n        /* \"#utility.yul\":19167:19176   */\n      dup13\n        /* \"#utility.yul\":19163:19185   */\n      add\n        /* \"#utility.yul\":19142:19195   */\n      tag_203\n      jump\t// in\n    tag_467:\n        /* \"#utility.yul\":19132:19195   */\n      swap4\n      pop\n        /* \"#utility.yul\":19087:19205   */\n      pop\n        /* \"#utility.yul\":19272:19275   */\n      0x80\n        /* \"#utility.yul\":19261:19270   */\n      dup10\n        /* \"#utility.yul\":19257:19276   */\n      add\n        /* \"#utility.yul\":19244:19277   */\n      calldataload\n        /* \"#utility.yul\":19304:19322   */\n      0xffffffffffffffff\n        /* \"#utility.yul\":19296:19302   */\n      dup2\n        /* \"#utility.yul\":19293:19323   */\n      gt\n        /* \"#utility.yul\":19290:19407   */\n      iszero\n      tag_468\n      jumpi\n        /* \"#utility.yul\":19326:19405   */\n      tag_469\n      tag_201\n      jump\t// in\n    tag_469:\n        /* \"#utility.yul\":19290:19407   */\n    tag_468:\n        /* \"#utility.yul\":19439:19504   */\n      tag_470\n        /* \"#utility.yul\":19496:19503   */\n      dup12\n        /* \"#utility.yul\":19487:19493   */\n      dup3\n        /* \"#utility.yul\":19476:19485   */\n      dup13\n        /* \"#utility.yul\":19472:19494   */\n      add\n        /* \"#utility.yul\":19439:19504   */\n      tag_225\n      jump\t// in\n    tag_470:\n        /* \"#utility.yul\":19421:19504   */\n      swap3\n      pop\n      swap3\n      pop\n        /* \"#utility.yul\":19215:19514   */\n      pop\n        /* \"#utility.yul\":18010:19521   */\n      swap3\n      swap6\n      swap9\n      pop\n      swap3\n      swap6\n      swap9\n      swap1\n      swap4\n      swap7\n      pop\n      jump\t// out\n        /* \"#utility.yul\":19527:19706   */\n    tag_248:\n        /* \"#utility.yul\":19667:19698   */\n      0x546172676574206d7573742062652067726561746572207468616e2030000000\n        /* \"#utility.yul\":19663:19664   */\n      0x00\n        /* \"#utility.yul\":19655:19661   */\n      dup3\n        /* \"#utility.yul\":19651:19665   */\n      add\n        /* \"#utility.yul\":19644:19699   */\n      mstore\n        /* \"#utility.yul\":19527:19706   */\n      pop\n      jump\t// out\n        /* \"#utility.yul\":19712:20078   */\n    tag_249:\n        /* \"#utility.yul\":19854:19857   */\n      0x00\n        /* \"#utility.yul\":19875:19942   */\n      tag_473\n        /* \"#utility.yul\":19939:19941   */\n      0x1d\n        /* \"#utility.yul\":19934:19937   */\n      dup4\n        /* \"#utility.yul\":19875:19942   */\n      tag_228\n      jump\t// in\n    tag_473:\n        /* \"#utility.yul\":19868:19942   */\n      swap2\n      pop\n        /* \"#utility.yul\":19951:20044   */\n      tag_474\n        /* \"#utility.yul\":20040:20043   */\n      dup3\n        /* \"#utility.yul\":19951:20044   */\n      tag_248\n      jump\t// in\n    tag_474:\n        /* \"#utility.yul\":20069:20071   */\n      0x20\n        /* \"#utility.yul\":20064:20067   */\n      dup3\n        /* \"#utility.yul\":20060:20072   */\n      add\n        /* \"#utility.yul\":20053:20072   */\n      swap1\n      pop\n        /* \"#utility.yul\":19712:20078   */\n      swap2\n      swap1\n      pop\n      jump\t// out\n        /* \"#utility.yul\":20084:20503   */\n    tag_60:\n        /* \"#utility.yul\":20250:20254   */\n      0x00\n        /* \"#utility.yul\":20288:20290   */\n      0x20\n        /* \"#utility.yul\":20277:20286   */\n      dup3\n        /* \"#utility.yul\":20273:20291   */\n      add\n        /* \"#utility.yul\":20265:20291   */\n      swap1\n      pop\n        /* \"#utility.yul\":20337:20346   */\n      dup2\n        /* \"#utility.yul\":20331:20335   */\n      dup2\n        /* \"#utility.yul\":20327:20347   */\n      sub\n        /* \"#utility.yul\":20323:20324   */\n      0x00\n        /* \"#utility.yul\":20312:20321   */\n      dup4\n        /* \"#utility.yul\":20308:20325   */\n      add\n        /* \"#utility.yul\":20301:20348   */\n      mstore\n        /* \"#utility.yul\":20365:20496   */\n      tag_476\n        /* \"#utility.yul\":20491:20495   */\n      dup2\n        /* \"#utility.yul\":20365:20496   */\n      tag_249\n      jump\t// in\n    tag_476:\n        /* \"#utility.yul\":20357:20496   */\n      swap1\n      pop\n        /* \"#utility.yul\":20084:20503   */\n      swap2\n      swap1\n      pop\n      jump\t// out\n        /* \"#utility.yul\":20509:20680   */\n    tag_250:\n        /* \"#utility.yul\":20649:20672   */\n      0x5469746c652063616e6e6f7420626520656d7074790000000000000000000000\n        /* \"#utility.yul\":20645:20646   */\n      0x00\n        /* \"#utility.yul\":20637:20643   */\n      dup3\n        /* \"#utility.yul\":20633:20647   */\n      add\n        /* \"#utility.yul\":20626:20673   */\n      mstore\n        /* \"#utility.yul\":20509:20680   */\n      pop\n      jump\t// out\n        /* \"#utility.yul\":20686:21052   */\n    tag_251:\n        /* \"#utility.yul\":20828:20831   */\n      0x00\n        /* \"#utility.yul\":20849:20916   */\n      tag_479\n        /* \"#utility.yul\":20913:20915   */\n      0x15\n        /* \"#utility.yul\":20908:20911   */\n      dup4\n        /* \"#utility.yul\":20849:20916   */\n      tag_228\n      jump\t// in\n    tag_479:\n        /* \"#utility.yul\":20842:20916   */\n      swap2\n      pop\n        /* \"#utility.yul\":20925:21018   */\n      tag_480\n        /* \"#utility.yul\":21014:21017   */\n      dup3\n        /* \"#utility.yul\":20925:21018   */\n      tag_250\n      jump\t// in\n    tag_480:\n        /* \"#utility.yul\":21043:21045   */\n      0x20\n        /* \"#utility.yul\":21038:21041   */\n      dup3\n        /* \"#utility.yul\":21034:21046   */\n      add\n        /* \"#utility.yul\":21027:21046   */\n      swap1\n      pop\n        /* \"#utility.yul\":20686:21052   */\n      swap2\n      swap1\n      pop\n      jump\t// out\n        /* \"#utility.yul\":21058:21477   */\n    tag_63:\n        /* \"#utility.yul\":21224:21228   */\n      0x00\n        /* \"#utility.yul\":21262:21264   */\n      0x20\n        /* \"#utility.yul\":21251:21260   */\n      dup3\n        /* \"#utility.yul\":21247:21265   */\n      add\n        /* \"#utility.yul\":21239:21265   */\n      swap1\n      pop\n        /* \"#utility.yul\":21311:21320   */\n      dup2\n        /* \"#utility.yul\":21305:21309   */\n      dup2\n        /* \"#utility.yul\":21301:21321   */\n      sub\n        /* \"#utility.yul\":21297:21298   */\n      0x00\n        /* \"#utility.yul\":21286:21295   */\n      dup4\n        /* \"#utility.yul\":21282:21299   */\n      add\n        /* \"#utility.yul\":21275:21322   */\n      mstore\n        /* \"#utility.yul\":21339:21470   */\n      tag_482\n        /* \"#utility.yul\":21465:21469   */\n      dup2\n        /* \"#utility.yul\":21339:21470   */\n      tag_251\n      jump\t// in\n    tag_482:\n        /* \"#utility.yul\":21331:21470   */\n      swap1\n      pop\n        /* \"#utility.yul\":21058:21477   */\n      swap2\n      swap1\n      pop\n      jump\t// out\n        /* \"#utility.yul\":21483:21660   */\n    tag_252:\n        /* \"#utility.yul\":21623:21652   */\n      0x4465736372697074696f6e2063616e6e6f7420626520656d7074790000000000\n        /* \"#utility.yul\":21619:21620   */\n      0x00\n        /* \"#utility.yul\":21611:21617   */\n      dup3\n        /* \"#utility.yul\":21607:21621   */\n      add\n        /* \"#utility.yul\":21600:21653   */\n      mstore\n        /* \"#utility.yul\":21483:21660   */\n      pop\n      jump\t// out\n        /* \"#utility.yul\":21666:22032   */\n    tag_253:\n        /* \"#utility.yul\":21808:21811   */\n      0x00\n        /* \"#utility.yul\":21829:21896   */\n      tag_485\n        /* \"#utility.yul\":21893:21895   */\n      0x1b\n        /* \"#utility.yul\":21888:21891   */\n      dup4\n        /* \"#utility.yul\":21829:21896   */\n      tag_228\n      jump\t// in\n    tag_485:\n        /* \"#utility.yul\":21822:21896   */\n      swap2\n      pop\n        /* \"#utility.yul\":21905:21998   */\n      tag_486\n        /* \"#utility.yul\":21994:21997   */\n      dup3\n        /* \"#utility.yul\":21905:21998   */\n      tag_252\n      jump\t// in\n    tag_486:\n        /* \"#utility.yul\":22023:22025   */\n      0x20\n        /* \"#utility.yul\":22018:22021   */\n      dup3\n        /* \"#utility.yul\":22014:22026   */\n      add\n        /* \"#utility.yul\":22007:22026   */\n      swap1\n      pop\n        /* \"#utility.yul\":21666:22032   */\n      swap2\n      swap1\n      pop\n      jump\t// out\n        /* \"#utility.yul\":22038:22457   */\n    tag_66:\n        /* \"#utility.yul\":22204:22208   */\n      0x00\n        /* \"#utility.yul\":22242:22244   */\n      0x20\n        /* \"#utility.yul\":22231:22240   */\n      dup3\n        /* \"#utility.yul\":22227:22245   */\n      add\n        /* \"#utility.yul\":22219:22245   */\n      swap1\n      pop\n        /* \"#utility.yul\":22291:22300   */\n      dup2\n        /* \"#utility.yul\":22285:22289   */\n      dup2\n        /* \"#utility.yul\":22281:22301   */\n      sub\n        /* \"#utility.yul\":22277:22278   */\n      0x00\n        /* \"#utility.yul\":22266:22275   */\n      dup4\n        /* \"#utility.yul\":22262:22279   */\n      add\n        /* \"#utility.yul\":22255:22302   */\n      mstore\n        /* \"#utility.yul\":22319:22450   */\n      tag_488\n        /* \"#utility.yul\":22445:22449   */\n      dup2\n        /* \"#utility.yul\":22319:22450   */\n      tag_253\n      jump\t// in\n    tag_488:\n        /* \"#utility.yul\":22311:22450   */\n      swap1\n      pop\n        /* \"#utility.yul\":22038:22457   */\n      swap2\n      swap1\n      pop\n      jump\t// out\n        /* \"#utility.yul\":22463:22634   */\n    tag_254:\n        /* \"#utility.yul\":22603:22626   */\n      0x496e76616c6964206f776e657220616464726573730000000000000000000000\n        /* \"#utility.yul\":22599:22600   */\n      0x00\n        /* \"#utility.yul\":22591:22597   */\n      dup3\n        /* \"#utility.yul\":22587:22601   */\n      add\n        /* \"#utility.yul\":22580:22627   */\n      mstore\n        /* \"#utility.yul\":22463:22634   */\n      pop\n      jump\t// out\n        /* \"#utility.yul\":22640:23006   */\n    tag_255:\n        /* \"#utility.yul\":22782:22785   */\n      0x00\n        /* \"#utility.yul\":22803:22870   */\n      tag_491\n        /* \"#utility.yul\":22867:22869   */\n      0x15\n        /* \"#utility.yul\":22862:22865   */\n      dup4\n        /* \"#utility.yul\":22803:22870   */\n      tag_228\n      jump\t// in\n    tag_491:\n        /* \"#utility.yul\":22796:22870   */\n      swap2\n      pop\n        /* \"#utility.yul\":22879:22972   */\n      tag_492\n        /* \"#utility.yul\":22968:22971   */\n      dup3\n        /* \"#utility.yul\":22879:22972   */\n      tag_254\n      jump\t// in\n    tag_492:\n        /* \"#utility.yul\":22997:22999   */\n      0x20\n        /* \"#utility.yul\":22992:22995   */\n      dup3\n        /* \"#utility.yul\":22988:23000   */\n      add\n        /* \"#utility.yul\":22981:23000   */\n      swap1\n      pop\n        /* \"#utility.yul\":22640:23006   */\n      swap2\n      swap1\n      pop\n      jump\t// out\n        /* \"#utility.yul\":23012:23431   */\n    tag_69:\n        /* \"#utility.yul\":23178:23182   */\n      0x00\n        /* \"#utility.yul\":23216:23218   */\n      0x20\n        /* \"#utility.yul\":23205:23214   */\n      dup3\n        /* \"#utility.yul\":23201:23219   */\n      add\n        /* \"#utility.yul\":23193:23219   */\n      swap1\n      pop\n        /* \"#utility.yul\":23265:23274   */\n      dup2\n        /* \"#utility.yul\":23259:23263   */\n      dup2\n        /* \"#utility.yul\":23255:23275   */\n      sub\n        /* \"#utility.yul\":23251:23252   */\n      0x00\n        /* \"#utility.yul\":23240:23249   */\n      dup4\n        /* \"#utility.yul\":23236:23253   */\n      add\n        /* \"#utility.yul\":23229:23276   */\n      mstore\n        /* \"#utility.yul\":23293:23424   */\n      tag_494\n        /* \"#utility.yul\":23419:23423   */\n      dup2\n        /* \"#utility.yul\":23293:23424   */\n      tag_255\n      jump\t// in\n    tag_494:\n        /* \"#utility.yul\":23285:23424   */\n      swap1\n      pop\n        /* \"#utility.yul\":23012:23431   */\n      swap2\n      swap1\n      pop\n      jump\t// out\n        /* \"#utility.yul\":23437:23534   */\n    tag_256:\n        /* \"#utility.yul\":23496:23502   */\n      0x00\n        /* \"#utility.yul\":23524:23527   */\n      dup3\n        /* \"#utility.yul\":23514:23527   */\n      swap1\n      pop\n        /* \"#utility.yul\":23437:23534   */\n      swap3\n      swap2\n      pop\n      pop\n      jump\t// out\n        /* \"#utility.yul\":23540:23720   */\n    tag_138:\n        /* \"#utility.yul\":23588:23665   */\n      0x4e487b7100000000000000000000000000000000000000000000000000000000\n        /* \"#utility.yul\":23585:23586   */\n      0x00\n        /* \"#utility.yul\":23578:23666   */\n      mstore\n        /* \"#utility.yul\":23685:23689   */\n      0x41\n        /* \"#utility.yul\":23682:23683   */\n      0x04\n        /* \"#utility.yul\":23675:23690   */\n      mstore\n        /* \"#utility.yul\":23709:23713   */\n      0x24\n        /* \"#utility.yul\":23706:23707   */\n      0x00\n        /* \"#utility.yul\":23699:23714   */\n      revert\n        /* \"#utility.yul\":23726:23906   */\n    tag_257:\n        /* \"#utility.yul\":23774:23851   */\n      0x4e487b7100000000000000000000000000000000000000000000000000000000\n        /* \"#utility.yul\":23771:23772   */\n      0x00\n        /* \"#utility.yul\":23764:23852   */\n      mstore\n        /* \"#utility.yul\":23871:23875   */\n      0x22\n        /* \"#utility.yul\":23868:23869   */\n      0x04\n        /* \"#utility.yul\":23861:23876   */\n      mstore\n        /* \"#utility.yul\":23895:23899   */\n      0x24\n        /* \"#utility.yul\":23892:23893   */\n      0x00\n        /* \"#utility.yul\":23885:23900   */\n      revert\n        /* \"#utility.yul\":23912:24232   */\n    tag_79:\n        /* \"#utility.yul\":23956:23962   */\n      0x00\n        /* \"#utility.yul\":23993:23994   */\n      0x02\n        /* \"#utility.yul\":23987:23991   */\n      dup3\n        /* \"#utility.yul\":23983:23995   */\n      div\n        /* \"#utility.yul\":23973:23995   */\n      swap1\n      pop\n        /* \"#utility.yul\":24040:24041   */\n      0x01\n        /* \"#utility.yul\":24034:24038   */\n      dup3\n        /* \"#utility.yul\":24030:24042   */\n      and\n        /* \"#utility.yul\":24061:24079   */\n      dup1\n        /* \"#utility.yul\":24051:24132   */\n      tag_499\n      jumpi\n        /* \"#utility.yul\":24117:24121   */\n      0x7f\n        /* \"#utility.yul\":24109:24115   */\n      dup3\n        /* \"#utility.yul\":24105:24122   */\n      and\n        /* \"#utility.yul\":24095:24122   */\n      swap2\n      pop\n        /* \"#utility.yul\":24051:24132   */\n    tag_499:\n        /* \"#utility.yul\":24179:24181   */\n      0x20\n        /* \"#utility.yul\":24171:24177   */\n      dup3\n        /* \"#utility.yul\":24168:24182   */\n      lt\n        /* \"#utility.yul\":24148:24166   */\n      dup2\n        /* \"#utility.yul\":24145:24183   */\n      sub\n        /* \"#utility.yul\":24142:24226   */\n      tag_500\n      jumpi\n        /* \"#utility.yul\":24198:24216   */\n      tag_501\n      tag_257\n      jump\t// in\n    tag_501:\n        /* \"#utility.yul\":24142:24226   */\n    tag_500:\n        /* \"#utility.yul\":23963:24232   */\n      pop\n        /* \"#utility.yul\":23912:24232   */\n      swap2\n      swap1\n      pop\n      jump\t// out\n        /* \"#utility.yul\":24238:24379   */\n    tag_258:\n        /* \"#utility.yul\":24287:24291   */\n      0x00\n        /* \"#utility.yul\":24310:24313   */\n      dup2\n        /* \"#utility.yul\":24302:24313   */\n      swap1\n      pop\n        /* \"#utility.yul\":24333:24336   */\n      dup2\n        /* \"#utility.yul\":24330:24331   */\n      0x00\n        /* \"#utility.yul\":24323:24337   */\n      mstore\n        /* \"#utility.yul\":24367:24371   */\n      0x20\n        /* \"#utility.yul\":24364:24365   */\n      0x00\n        /* \"#utility.yul\":24354:24372   */\n      keccak256\n        /* \"#utility.yul\":24346:24372   */\n      swap1\n      pop\n        /* \"#utility.yul\":24238:24379   */\n      swap2\n      swap1\n      pop\n      jump\t// out\n        /* \"#utility.yul\":24385:24478   */\n    tag_259:\n        /* \"#utility.yul\":24422:24428   */\n      0x00\n        /* \"#utility.yul\":24469:24471   */\n      0x20\n        /* \"#utility.yul\":24464:24466   */\n      0x1f\n        /* \"#utility.yul\":24457:24462   */\n      dup4\n        /* \"#utility.yul\":24453:24467   */\n      add\n        /* \"#utility.yul\":24449:24472   */\n      div\n        /* \"#utility.yul\":24439:24472   */\n      swap1\n      pop\n        /* \"#utility.yul\":24385:24478   */\n      swap2\n      swap1\n      pop\n      jump\t// out\n        /* \"#utility.yul\":24484:24591   */\n    tag_260:\n        /* \"#utility.yul\":24528:24536   */\n      0x00\n        /* \"#utility.yul\":24578:24583   */\n      dup3\n        /* \"#utility.yul\":24572:24576   */\n      dup3\n        /* \"#utility.yul\":24568:24584   */\n      shl\n        /* \"#utility.yul\":24547:24584   */\n      swap1\n      pop\n        /* \"#utility.yul\":24484:24591   */\n      swap3\n      swap2\n      pop\n      pop\n      jump\t// out\n        /* \"#utility.yul\":24597:24990   */\n    tag_261:\n        /* \"#utility.yul\":24666:24672   */\n      0x00\n        /* \"#utility.yul\":24716:24717   */\n      0x08\n        /* \"#utility.yul\":24704:24714   */\n      dup4\n        /* \"#utility.yul\":24700:24718   */\n      mul\n        /* \"#utility.yul\":24739:24836   */\n      tag_506\n        /* \"#utility.yul\":24769:24835   */\n      0xffffffffffffffffffffffffffffffffffffffffffffffffffffffffffffffff\n        /* \"#utility.yul\":24758:24767   */\n      dup3\n        /* \"#utility.yul\":24739:24836   */\n      tag_260\n      jump\t// in\n    tag_506:\n        /* \"#utility.yul\":24857:24896   */\n      tag_507\n        /* \"#utility.yul\":24887:24895   */\n      dup7\n        /* \"#utility.yul\":24876:24885   */\n      dup4\n        /* \"#utility.yul\":24857:24896   */\n      tag_260\n      jump\t// in\n    tag_507:\n        /* \"#utility.yul\":24845:24896   */\n      swap6\n      pop\n        /* \"#utility.yul\":24929:24933   */\n      dup1\n        /* \"#utility.yul\":24925:24934   */\n      not\n        /* \"#utility.yul\":24918:24923   */\n      dup5\n        /* \"#utility.yul\":24914:24935   */\n      and\n        /* \"#utility.yul\":24905:24935   */\n      swap4\n      pop\n        /* \"#utility.yul\":24978:24982   */\n      dup1\n        /* \"#utility.yul\":24968:24976   */\n      dup7\n        /* \"#utility.yul\":24964:24983   */\n      and\n        /* \"#utility.yul\":24957:24962   */\n      dup5\n        /* \"#utility.yul\":24954:24984   */\n      or\n        /* \"#utility.yul\":24944:24984   */\n      swap3\n      pop\n        /* \"#utility.yul\":24673:24990   */\n      pop\n      pop\n        /* \"#utility.yul\":24597:24990   */\n      swap4\n      swap3\n      pop\n      pop\n      pop\n      jump\t// out\n        /* \"#utility.yul\":24996:25056   */\n    tag_262:\n        /* \"#utility.yul\":25024:25027   */\n      0x00\n        /* \"#utility.yul\":25045:25050   */\n      dup2\n        /* \"#utility.yul\":25038:25050   */\n      swap1\n      pop\n        /* \"#utility.yul\":24996:25056   */\n      swap2\n      swap1\n      pop\n      jump\t// out\n        /* \"#utility.yul\":25062:25204   */\n    tag_263:\n        /* \"#utility.yul\":25112:25121   */\n      0x00\n        /* \"#utility.yul\":25145:25198   */\n      tag_510\n        /* \"#utility.yul\":25163:25197   */\n      tag_511\n        /* \"#utility.yul\":25172:25196   */\n      tag_512\n        /* \"#utility.yul\":25190:25195   */\n      dup5\n        /* \"#utility.yul\":25172:25196   */\n      tag_197\n      jump\t// in\n    tag_512:\n        /* \"#utility.yul\":25163:25197   */\n      tag_262\n      jump\t// in\n    tag_511:\n        /* \"#utility.yul\":25145:25198   */\n      tag_197\n      jump\t// in\n    tag_510:\n        /* \"#utility.yul\":25132:25198   */\n      swap1\n      pop\n        /* \"#utility.yul\":25062:25204   */\n      swap2\n      swap1\n      pop\n      jump\t// out\n        /* \"#utility.yul\":25210:25285   */\n    tag_264:\n        /* \"#utility.yul\":25253:25256   */\n      0x00\n        /* \"#utility.yul\":25274:25279   */\n      dup2\n        /* \"#utility.yul\":25267:25279   */\n      swap1\n      pop\n        /* \"#utility.yul\":25210:25285   */\n      swap2\n      swap1\n      pop\n      jump\t// out\n        /* \"#utility.yul\":25291:25560   */\n    tag_265:\n        /* \"#utility.yul\":25401:25440   */\n      tag_515\n        /* \"#utility.yul\":25432:25439   */\n      dup4\n        /* \"#utility.yul\":25401:25440   */\n      tag_263\n      jump\t// in\n    tag_515:\n        /* \"#utility.yul\":25462:25553   */\n      tag_516\n        /* \"#utility.yul\":25511:25552   */\n      tag_517\n        /* \"#utility.yul\":25535:25551   */\n      dup3\n        /* \"#utility.yul\":25511:25552   */\n      tag_264\n      jump\t// in\n    tag_517:\n        /* \"#utility.yul\":25503:25509   */\n      dup5\n        /* \"#utility.yul\":25496:25500   */\n      dup5\n        /* \"#utility.yul\":25490:25501   */\n      sload\n        /* \"#utility.yul\":25462:25553   */\n      tag_261\n      jump\t// in\n    tag_516:\n        /* \"#utility.yul\":25456:25460   */\n      dup3\n        /* \"#utility.yul\":25449:25554   */\n      sstore\n        /* \"#utility.yul\":25367:25560   */\n      pop\n        /* \"#utility.yul\":25291:25560   */\n      pop\n      pop\n      pop\n      jump\t// out\n        /* \"#utility.yul\":25566:25639   */\n    tag_266:\n        /* \"#utility.yul\":25611:25614   */\n      0x00\n        /* \"#utility.yul\":25566:25639   */\n      swap1\n      jump\t// out\n        /* \"#utility.yul\":25645:25834   */\n    tag_267:\n        /* \"#utility.yul\":25722:25754   */\n      tag_520\n      tag_266\n      jump\t// in\n    tag_520:\n        /* \"#utility.yul\":25763:25828   */\n      tag_521\n        /* \"#utility.yul\":25821:25827   */\n      dup2\n        /* \"#utility.yul\":25813:25819   */\n      dup5\n        /* \"#utility.yul\":25807:25811   */\n      dup5\n        /* \"#utility.yul\":25763:25828   */\n      tag_265\n      jump\t// in\n    tag_521:\n        /* \"#utility.yul\":25698:25834   */\n      pop\n        /* \"#utility.yul\":25645:25834   */\n      pop\n      pop\n      jump\t// out\n        /* \"#utility.yul\":25840:26026   */\n    tag_268:\n        /* \"#utility.yul\":25900:26020   */\n    tag_523:\n        /* \"#utility.yul\":25917:25920   */\n      dup2\n        /* \"#utility.yul\":25910:25915   */\n      dup2\n        /* \"#utility.yul\":25907:25921   */\n      lt\n        /* \"#utility.yul\":25900:26020   */\n      iszero\n      tag_525\n      jumpi\n        /* \"#utility.yul\":25971:26010   */\n      tag_526\n        /* \"#utility.yul\":26008:26009   */\n      0x00\n        /* \"#utility.yul\":26001:26006   */\n      dup3\n        /* \"#utility.yul\":25971:26010   */\n      tag_267\n      jump\t// in\n    tag_526:\n        /* \"#utility.yul\":25944:25945   */\n      0x01\n        /* \"#utility.yul\":25937:25942   */\n      dup2\n        /* \"#utility.yul\":25933:25946   */\n      add\n        /* \"#utility.yul\":25924:25946   */\n      swap1\n      pop\n        /* \"#utility.yul\":25900:26020   */\n      jump(tag_523)\n    tag_525:\n        /* \"#utility.yul\":25840:26026   */\n      pop\n      pop\n      jump\t// out\n        /* \"#utility.yul\":26032:26575   */\n    tag_269:\n        /* \"#utility.yul\":26133:26135   */\n      0x1f\n        /* \"#utility.yul\":26128:26131   */\n      dup3\n        /* \"#utility.yul\":26125:26136   */\n      gt\n        /* \"#utility.yul\":26122:26568   */\n      iszero\n      tag_528\n      jumpi\n        /* \"#utility.yul\":26167:26205   */\n      tag_529\n        /* \"#utility.yul\":26199:26204   */\n      dup2\n        /* \"#utility.yul\":26167:26205   */\n      tag_258\n      jump\t// in\n    tag_529:\n        /* \"#utility.yul\":26251:26280   */\n      tag_530\n        /* \"#utility.yul\":26269:26279   */\n      dup5\n        /* \"#utility.yul\":26251:26280   */\n      tag_259\n      jump\t// in\n    tag_530:\n        /* \"#utility.yul\":26241:26249   */\n      dup2\n        /* \"#utility.yul\":26237:26281   */\n      add\n        /* \"#utility.yul\":26434:26436   */\n      0x20\n        /* \"#utility.yul\":26422:26432   */\n      dup6\n        /* \"#utility.yul\":26419:26437   */\n      lt\n        /* \"#utility.yul\":26416:26465   */\n      iszero\n      tag_531\n      jumpi\n        /* \"#utility.yul\":26455:26463   */\n      dup2\n        /* \"#utility.yul\":26440:26463   */\n      swap1\n      pop\n        /* \"#utility.yul\":26416:26465   */\n    tag_531:\n        /* \"#utility.yul\":26478:26558   */\n      tag_532\n        /* \"#utility.yul\":26534:26556   */\n      tag_533\n        /* \"#utility.yul\":26552:26555   */\n      dup6\n        /* \"#utility.yul\":26534:26556   */\n      tag_259\n      jump\t// in\n    tag_533:\n        /* \"#utility.yul\":26524:26532   */\n      dup4\n        /* \"#utility.yul\":26520:26557   */\n      add\n        /* \"#utility.yul\":26507:26518   */\n      dup3\n        /* \"#utility.yul\":26478:26558   */\n      tag_268\n      jump\t// in\n    tag_532:\n        /* \"#utility.yul\":26137:26568   */\n      pop\n      pop\n        /* \"#utility.yul\":26122:26568   */\n    tag_528:\n        /* \"#utility.yul\":26032:26575   */\n      pop\n      pop\n      pop\n      jump\t// out\n        /* \"#utility.yul\":26581:26698   */\n    tag_270:\n        /* \"#utility.yul\":26635:26643   */\n      0x00\n        /* \"#utility.yul\":26685:26690   */\n      dup3\n        /* \"#utility.yul\":26679:26683   */\n      dup3\n        /* \"#utility.yul\":26675:26691   */\n      shr\n        /* \"#utility.yul\":26654:26691   */\n      swap1\n      pop\n        /* \"#utility.yul\":26581:26698   */\n      swap3\n      swap2\n      pop\n      pop\n      jump\t// out\n        /* \"#utility.yul\":26704:26873   */\n    tag_271:\n        /* \"#utility.yul\":26748:26754   */\n      0x00\n        /* \"#utility.yul\":26781:26832   */\n      tag_536\n        /* \"#utility.yul\":26829:26830   */\n      0x00\n        /* \"#utility.yul\":26825:26831   */\n      not\n        /* \"#utility.yul\":26817:26822   */\n      dup5\n        /* \"#utility.yul\":26814:26815   */\n      0x08\n        /* \"#utility.yul\":26810:26823   */\n      mul\n        /* \"#utility.yul\":26781:26832   */\n      tag_270\n      jump\t// in\n    tag_536:\n        /* \"#utility.yul\":26777:26833   */\n      not\n        /* \"#utility.yul\":26862:26866   */\n      dup1\n        /* \"#utility.yul\":26856:26860   */\n      dup4\n        /* \"#utility.yul\":26852:26867   */\n      and\n        /* \"#utility.yul\":26842:26867   */\n      swap2\n      pop\n        /* \"#utility.yul\":26755:26873   */\n      pop\n        /* \"#utility.yul\":26704:26873   */\n      swap3\n      swap2\n      pop\n      pop\n      jump\t// out\n        /* \"#utility.yul\":26878:27173   */\n    tag_272:\n        /* \"#utility.yul\":26954:26958   */\n      0x00\n        /* \"#utility.yul\":27100:27129   */\n      tag_538\n        /* \"#utility.yul\":27125:27128   */\n      dup4\n        /* \"#utility.yul\":27119:27123   */\n      dup4\n        /* \"#utility.yul\":27100:27129   */\n      tag_271\n      jump\t// in\n    tag_538:\n        /* \"#utility.yul\":27092:27129   */\n      swap2\n      pop\n        /* \"#utility.yul\":27162:27165   */\n      dup3\n        /* \"#utility.yul\":27159:27160   */\n      0x02\n        /* \"#utility.yul\":27155:27166   */\n      mul\n        /* \"#utility.yul\":27149:27153   */\n      dup3\n        /* \"#utility.yul\":27146:27167   */\n      or\n        /* \"#utility.yul\":27138:27167   */\n      swap1\n      pop\n        /* \"#utility.yul\":26878:27173   */\n      swap3\n      swap2\n      pop\n      pop\n      jump\t// out\n        /* \"#utility.yul\":27178:28581   */\n    tag_71:\n        /* \"#utility.yul\":27302:27346   */\n      tag_540\n        /* \"#utility.yul\":27342:27345   */\n      dup4\n        /* \"#utility.yul\":27337:27340   */\n      dup4\n        /* \"#utility.yul\":27302:27346   */\n      tag_256\n      jump\t// in\n    tag_540:\n        /* \"#utility.yul\":27411:27429   */\n      0xffffffffffffffff\n        /* \"#utility.yul\":27403:27409   */\n      dup2\n        /* \"#utility.yul\":27400:27430   */\n      gt\n        /* \"#utility.yul\":27397:27453   */\n      iszero\n      tag_541\n      jumpi\n        /* \"#utility.yul\":27433:27451   */\n      tag_542\n      tag_138\n      jump\t// in\n    tag_542:\n        /* \"#utility.yul\":27397:27453   */\n    tag_541:\n        /* \"#utility.yul\":27477:27515   */\n      tag_543\n        /* \"#utility.yul\":27509:27513   */\n      dup3\n        /* \"#utility.yul\":27503:27514   */\n      sload\n        /* \"#utility.yul\":27477:27515   */\n      tag_79\n      jump\t// in\n    tag_543:\n        /* \"#utility.yul\":27562:27629   */\n      tag_544\n        /* \"#utility.yul\":27622:27628   */\n      dup3\n        /* \"#utility.yul\":27614:27620   */\n      dup3\n        /* \"#utility.yul\":27608:27612   */\n      dup6\n        /* \"#utility.yul\":27562:27629   */\n      tag_269\n      jump\t// in\n    tag_544:\n        /* \"#utility.yul\":27656:27657   */\n      0x00\n        /* \"#utility.yul\":27685:27687   */\n      0x1f\n        /* \"#utility.yul\":27677:27683   */\n      dup4\n        /* \"#utility.yul\":27674:27688   */\n      gt\n        /* \"#utility.yul\":27702:27703   */\n      0x01\n        /* \"#utility.yul\":27697:28329   */\n      dup2\n      eq\n      tag_546\n      jumpi\n        /* \"#utility.yul\":28373:28374   */\n      0x00\n        /* \"#utility.yul\":28390:28396   */\n      dup5\n        /* \"#utility.yul\":28387:28471   */\n      iszero\n      tag_547\n      jumpi\n        /* \"#utility.yul\":28446:28455   */\n      dup3\n        /* \"#utility.yul\":28441:28444   */\n      dup8\n        /* \"#utility.yul\":28437:28456   */\n      add\n        /* \"#utility.yul\":28424:28457   */\n      calldataload\n        /* \"#utility.yul\":28415:28457   */\n      swap1\n      pop\n        /* \"#utility.yul\":28387:28471   */\n    tag_547:\n        /* \"#utility.yul\":28497:28564   */\n      tag_548\n        /* \"#utility.yul\":28557:28563   */\n      dup6\n        /* \"#utility.yul\":28550:28555   */\n      dup3\n        /* \"#utility.yul\":28497:28564   */\n      tag_272\n      jump\t// in\n    tag_548:\n        /* \"#utility.yul\":28491:28495   */\n      dup7\n        /* \"#utility.yul\":28484:28565   */\n      sstore\n        /* \"#utility.yul\":28346:28575   */\n      pop\n        /* \"#utility.yul\":27667:28575   */\n      jump(tag_545)\n        /* \"#utility.yul\":27697:28329   */\n    tag_546:\n        /* \"#utility.yul\":27749:27753   */\n      0x1f\n        /* \"#utility.yul\":27745:27754   */\n      not\n        /* \"#utility.yul\":27737:27743   */\n      dup5\n        /* \"#utility.yul\":27733:27755   */\n      and\n        /* \"#utility.yul\":27783:27820   */\n      tag_549\n        /* \"#utility.yul\":27815:27819   */\n      dup7\n        /* \"#utility.yul\":27783:27820   */\n      tag_258\n      jump\t// in\n    tag_549:\n        /* \"#utility.yul\":27842:27843   */\n      0x00\n        /* \"#utility.yul\":27856:28071   */\n    tag_550:\n        /* \"#utility.yul\":27870:27877   */\n      dup3\n        /* \"#utility.yul\":27867:27868   */\n      dup2\n        /* \"#utility.yul\":27864:27878   */\n      lt\n        /* \"#utility.yul\":27856:28071   */\n      iszero\n      tag_552\n      jumpi\n        /* \"#utility.yul\":27956:27965   */\n      dup5\n        /* \"#utility.yul\":27951:27954   */\n      dup10\n        /* \"#utility.yul\":27947:27966   */\n      add\n        /* \"#utility.yul\":27934:27967   */\n      calldataload\n        /* \"#utility.yul\":27926:27932   */\n      dup3\n        /* \"#utility.yul\":27919:27968   */\n      sstore\n        /* \"#utility.yul\":28007:28008   */\n      0x01\n        /* \"#utility.yul\":27999:28005   */\n      dup3\n        /* \"#utility.yul\":27995:28009   */\n      add\n        /* \"#utility.yul\":27985:28009   */\n      swap2\n      pop\n        /* \"#utility.yul\":28054:28056   */\n      0x20\n        /* \"#utility.yul\":28043:28052   */\n      dup6\n        /* \"#utility.yul\":28039:28057   */\n      add\n        /* \"#utility.yul\":28026:28057   */\n      swap5\n      pop\n        /* \"#utility.yul\":27893:27897   */\n      0x20\n        /* \"#utility.yul\":27890:27891   */\n      dup2\n        /* \"#utility.yul\":27886:27898   */\n      add\n        /* \"#utility.yul\":27881:27898   */\n      swap1\n      pop\n        /* \"#utility.yul\":27856:28071   */\n      jump(tag_550)\n    tag_552:\n        /* \"#utility.yul\":28099:28105   */\n      dup7\n        /* \"#utility.yul\":28090:28097   */\n      dup4\n        /* \"#utility.yul\":28087:28106   */\n      lt\n        /* \"#utility.yul\":28084:28270   */\n      iszero\n      tag_553\n      jumpi\n        /* \"#utility.yul\":28164:28173   */\n      dup5\n        /* \"#utility.yul\":28159:28162   */\n      dup10\n        /* \"#utility.yul\":28155:28174   */\n      add\n        /* \"#utility.yul\":28142:28175   */\n      calldataload\n        /* \"#utility.yul\":28207:28255   */\n      tag_554\n        /* \"#utility.yul\":28249:28253   */\n      0x1f\n        /* \"#utility.yul\":28241:28247   */\n      dup10\n        /* \"#utility.yul\":28237:28254   */\n      and\n        /* \"#utility.yul\":28226:28235   */\n      dup3\n        /* \"#utility.yul\":28207:28255   */\n      tag_271\n      jump\t// in\n    tag_554:\n        /* \"#utility.yul\":28199:28205   */\n      dup4\n        /* \"#utility.yul\":28192:28256   */\n      sstore\n        /* \"#utility.yul\":28107:28270   */\n      pop\n        /* \"#utility.yul\":28084:28270   */\n    tag_553:\n        /* \"#utility.yul\":28316:28317   */\n      0x01\n        /* \"#utility.yul\":28312:28313   */\n      0x02\n        /* \"#utility.yul\":28304:28310   */\n      dup9\n        /* \"#utility.yul\":28300:28314   */\n      mul\n        /* \"#utility.yul\":28296:28318   */\n      add\n        /* \"#utility.yul\":28290:28294   */\n      dup9\n        /* \"#utility.yul\":28283:28319   */\n      sstore\n        /* \"#utility.yul\":27704:28329   */\n      pop\n      pop\n      pop\n        /* \"#utility.yul\":27667:28575   */\n    tag_545:\n      pop\n        /* \"#utility.yul\":27277:28581   */\n      pop\n      pop\n      pop\n        /* \"#utility.yul\":27178:28581   */\n      pop\n      pop\n      pop\n      jump\t// out\n        /* \"#utility.yul\":28587:28812   */\n    tag_273:\n        /* \"#utility.yul\":28727:28761   */\n      0x446f6e6174696f6e20616d6f756e74206d757374206265206772656174657220\n        /* \"#utility.yul\":28723:28724   */\n      0x00\n        /* \"#utility.yul\":28715:28721   */\n      dup3\n        /* \"#utility.yul\":28711:28725   */\n      add\n        /* \"#utility.yul\":28704:28762   */\n      mstore\n        /* \"#utility.yul\":28796:28804   */\n      0x7468616e20300000000000000000000000000000000000000000000000000000\n        /* \"#utility.yul\":28791:28793   */\n      0x20\n        /* \"#utility.yul\":28783:28789   */\n      dup3\n        /* \"#utility.yul\":28779:28794   */\n      add\n        /* \"#utility.yul\":28772:28805   */\n      mstore\n        /* \"#utility.yul\":28587:28812   */\n      pop\n      jump\t// out\n        /* \"#utility.yul\":28818:29184   */\n    tag_274:\n        /* \"#utility.yul\":28960:28963   */\n      0x00\n        /* \"#utility.yul\":28981:29048   */\n      tag_557\n        /* \"#utility.yul\":29045:29047   */\n      0x26\n        /* \"#utility.yul\":29040:29043   */\n      dup4\n        /* \"#utility.yul\":28981:29048   */\n      tag_228\n      jump\t// in\n    tag_557:\n        /* \"#utility.yul\":28974:29048   */\n      swap2\n      pop\n        /* \"#utility.yul\":29057:29150   */\n      tag_558\n        /* \"#utility.yul\":29146:29149   */\n      dup3\n        /* \"#utility.yul\":29057:29150   */\n      tag_273\n      jump\t// in\n    tag_558:\n        /* \"#utility.yul\":29175:29177   */\n      0x40\n        /* \"#utility.yul\":29170:29173   */\n      dup3\n        /* \"#utility.yul\":29166:29178   */\n      add\n        /* \"#utility.yul\":29159:29178   */\n      swap1\n      pop\n        /* \"#utility.yul\":28818:29184   */\n      swap2\n      swap1\n      pop\n      jump\t// out\n        /* \"#utility.yul\":29190:29609   */\n    tag_97:\n        /* \"#utility.yul\":29356:29360   */\n      0x00\n        /* \"#utility.yul\":29394:29396   */\n      0x20\n        /* \"#utility.yul\":29383:29392   */\n      dup3\n        /* \"#utility.yul\":29379:29397   */\n      add\n        /* \"#utility.yul\":29371:29397   */\n      swap1\n      pop\n        /* \"#utility.yul\":29443:29452   */\n      dup2\n        /* \"#utility.yul\":29437:29441   */\n      dup2\n        /* \"#utility.yul\":29433:29453   */\n      sub\n        /* \"#utility.yul\":29429:29430   */\n      0x00\n        /* \"#utility.yul\":29418:29427   */\n      dup4\n        /* \"#utility.yul\":29414:29431   */\n      add\n        /* \"#utility.yul\":29407:29454   */\n      mstore\n        /* \"#utility.yul\":29471:29602   */\n      tag_560\n        /* \"#utility.yul\":29597:29601   */\n      dup2\n        /* \"#utility.yul\":29471:29602   */\n      tag_274\n      jump\t// in\n    tag_560:\n        /* \"#utility.yul\":29463:29602   */\n      swap1\n      pop\n        /* \"#utility.yul\":29190:29609   */\n      swap2\n      swap1\n      pop\n      jump\t// out\n        /* \"#utility.yul\":29615:29788   */\n    tag_275:\n        /* \"#utility.yul\":29755:29780   */\n      0x43616d706169676e20646f6573206e6f74206578697374000000000000000000\n        /* \"#utility.yul\":29751:29752   */\n      0x00\n        /* \"#utility.yul\":29743:29749   */\n      dup3\n        /* \"#utility.yul\":29739:29753   */\n      add\n        /* \"#utility.yul\":29732:29781   */\n      mstore\n        /* \"#utility.yul\":29615:29788   */\n      pop\n      jump\t// out\n        /* \"#utility.yul\":29794:30160   */\n    tag_276:\n        /* \"#utility.yul\":29936:29939   */\n      0x00\n        /* \"#utility.yul\":29957:30024   */\n      tag_563\n        /* \"#utility.yul\":30021:30023   */\n      0x17\n        /* \"#utility.yul\":30016:30019   */\n      dup4\n        /* \"#utility.yul\":29957:30024   */\n      tag_228\n      jump\t// in\n    tag_563:\n        /* \"#utility.yul\":29950:30024   */\n      swap2\n      pop\n        /* \"#utility.yul\":30033:30126   */\n      tag_564\n        /* \"#utility.yul\":30122:30125   */\n      dup3\n        /* \"#utility.yul\":30033:30126   */\n      tag_275\n      jump\t// in\n    tag_564:\n        /* \"#utility.yul\":30151:30153   */\n      0x20\n        /* \"#utility.yul\":30146:30149   */\n      dup3\n        /* \"#utility.yul\":30142:30154   */\n      add\n        /* \"#utility.yul\":30135:30154   */\n      swap1\n      pop\n        /* \"#utility.yul\":29794:30160   */\n      swap2\n      swap1\n      pop\n      jump\t// out\n        /* \"#utility.yul\":30166:30585   */\n    tag_100:\n        /* \"#utility.yul\":30332:30336   */\n      0x00\n        /* \"#utility.yul\":30370:30372   */\n      0x20\n        /* \"#utility.yul\":30359:30368   */\n      dup3\n        /* \"#utility.yul\":30355:30373   */\n      add\n        /* \"#utility.yul\":30347:30373   */\n      swap1\n      pop\n        /* \"#utility.yul\":30419:30428   */\n      dup2\n        /* \"#utility.yul\":30413:30417   */\n      dup2\n        /* \"#utility.yul\":30409:30429   */\n      sub\n        /* \"#utility.yul\":30405:30406   */\n      0x00\n        /* \"#utility.yul\":30394:30403   */\n      dup4\n        /* \"#utility.yul\":30390:30407   */\n      add\n        /* \"#utility.yul\":30383:30430   */\n      mstore\n        /* \"#utility.yul\":30447:30578   */\n      tag_566\n        /* \"#utility.yul\":30573:30577   */\n      dup2\n        /* \"#utility.yul\":30447:30578   */\n      tag_276\n      jump\t// in\n    tag_566:\n        /* \"#utility.yul\":30439:30578   */\n      swap1\n      pop\n        /* \"#utility.yul\":30166:30585   */\n      swap2\n      swap1\n      pop\n      jump\t// out\n        /* \"#utility.yul\":30591:30767   */\n    tag_277:\n        /* \"#utility.yul\":30731:30759   */\n      0x43616d706169676e20616c726561647920636f6d706c65746564000000000000\n        /* \"#utility.yul\":30727:30728   */\n      0x00\n        /* \"#utility.yul\":30719:30725   */\n      dup3\n        /* \"#utility.yul\":30715:30729   */\n      add\n        /* \"#utility.yul\":30708:30760   */\n      mstore\n        /* \"#utility.yul\":30591:30767   */\n      pop\n      jump\t// out\n        /* \"#utility.yul\":30773:31139   */\n    tag_278:\n        /* \"#utility.yul\":30915:30918   */\n      0x00\n        /* \"#utility.yul\":30936:31003   */\n      tag_569\n        /* \"#utility.yul\":31000:31002   */\n      0x1a\n        /* \"#utility.yul\":30995:30998   */\n      dup4\n        /* \"#utility.yul\":30936:31003   */\n      tag_228\n      jump\t// in\n    tag_569:\n        /* \"#utility.yul\":30929:31003   */\n      swap2\n      pop\n        /* \"#utility.yul\":31012:31105   */\n      tag_570\n        /* \"#utility.yul\":31101:31104   */\n      dup3\n        /* \"#utility.yul\":31012:31105   */\n      tag_277\n      jump\t// in\n    tag_570:\n        /* \"#utility.yul\":31130:31132   */\n      0x20\n        /* \"#utility.yul\":31125:31128   */\n      dup3\n        /* \"#utility.yul\":31121:31133   */\n      add\n        /* \"#utility.yul\":31114:31133   */\n      swap1\n      pop\n        /* \"#utility.yul\":30773:31139   */\n      swap2\n      swap1\n      pop\n      jump\t// out\n        /* \"#utility.yul\":31145:31564   */\n    tag_103:\n        /* \"#utility.yul\":31311:31315   */\n      0x00\n        /* \"#utility.yul\":31349:31351   */\n      0x20\n        /* \"#utility.yul\":31338:31347   */\n      dup3\n        /* \"#utility.yul\":31334:31352   */\n      add\n        /* \"#utility.yul\":31326:31352   */\n      swap1\n      pop\n        /* \"#utility.yul\":31398:31407   */\n      dup2\n        /* \"#utility.yul\":31392:31396   */\n      dup2\n        /* \"#utility.yul\":31388:31408   */\n      sub\n        /* \"#utility.yul\":31384:31385   */\n      0x00\n        /* \"#utility.yul\":31373:31382   */\n      dup4\n        /* \"#utility.yul\":31369:31386   */\n      add\n        /* \"#utility.yul\":31362:31409   */\n      mstore\n        /* \"#utility.yul\":31426:31557   */\n      tag_572\n        /* \"#utility.yul\":31552:31556   */\n      dup2\n        /* \"#utility.yul\":31426:31557   */\n      tag_278\n      jump\t// in\n    tag_572:\n        /* \"#utility.yul\":31418:31557   */\n      swap1\n      pop\n        /* \"#utility.yul\":31145:31564   */\n      swap2\n      swap1\n      pop\n      jump\t// out\n        /* \"#utility.yul\":31570:31717   */\n    tag_279:\n        /* \"#utility.yul\":31671:31682   */\n      0x00\n        /* \"#utility.yul\":31708:31711   */\n      dup2\n        /* \"#utility.yul\":31693:31711   */\n      swap1\n      pop\n        /* \"#utility.yul\":31570:31717   */\n      swap3\n      swap2\n      pop\n      pop\n      jump\t// out\n        /* \"#utility.yul\":31723:31837   */\n    tag_280:\n      pop\n      jump\t// out\n        /* \"#utility.yul\":31843:32241   */\n    tag_281:\n        /* \"#utility.yul\":32002:32005   */\n      0x00\n        /* \"#utility.yul\":32023:32106   */\n      tag_576\n        /* \"#utility.yul\":32104:32105   */\n      0x00\n        /* \"#utility.yul\":32099:32102   */\n      dup4\n        /* \"#utility.yul\":32023:32106   */\n      tag_279\n      jump\t// in\n    tag_576:\n        /* \"#utility.yul\":32016:32106   */\n      swap2\n      pop\n        /* \"#utility.yul\":32115:32208   */\n      tag_577\n        /* \"#utility.yul\":32204:32207   */\n      dup3\n        /* \"#utility.yul\":32115:32208   */\n      tag_280\n      jump\t// in\n    tag_577:\n        /* \"#utility.yul\":32233:32234   */\n      0x00\n        /* \"#utility.yul\":32228:32231   */\n      dup3\n        /* \"#utility.yul\":32224:32235   */\n      add\n        /* \"#utility.yul\":32217:32235   */\n      swap1\n      pop\n        /* \"#utility.yul\":31843:32241   */\n      swap2\n      swap1\n      pop\n      jump\t// out\n        /* \"#utility.yul\":32247:32626   */\n    tag_109:\n        /* \"#utility.yul\":32431:32434   */\n      0x00\n        /* \"#utility.yul\":32453:32600   */\n      tag_579\n        /* \"#utility.yul\":32596:32599   */\n      dup3\n        /* \"#utility.yul\":32453:32600   */\n      tag_281\n      jump\t// in\n    tag_579:\n        /* \"#utility.yul\":32446:32600   */\n      swap2\n      pop\n        /* \"#utility.yul\":32617:32620   */\n      dup2\n        /* \"#utility.yul\":32610:32620   */\n      swap1\n      pop\n        /* \"#utility.yul\":32247:32626   */\n      swap2\n      swap1\n      pop\n      jump\t// out\n        /* \"#utility.yul\":32632:32857   */\n    tag_282:\n        /* \"#utility.yul\":32772:32806   */\n      0x4661696c656420746f2073656e6420457468657220746f2063616d706169676e\n        /* \"#utility.yul\":32768:32769   */\n      0x00\n        /* \"#utility.yul\":32760:32766   */\n      dup3\n        /* \"#utility.yul\":32756:32770   */\n      add\n        /* \"#utility.yul\":32749:32807   */\n      mstore\n        /* \"#utility.yul\":32841:32849   */\n      0x206f776e65720000000000000000000000000000000000000000000000000000\n        /* \"#utility.yul\":32836:32838   */\n      0x20\n        /* \"#utility.yul\":32828:32834   */\n      dup3\n        /* \"#utility.yul\":32824:32839   */\n      add\n        /* \"#utility.yul\":32817:32850   */\n      mstore\n        /* \"#utility.yul\":32632:32857   */\n      pop\n      jump\t// out\n        /* \"#utility.yul\":32863:33229   */\n    tag_283:\n        /* \"#utility.yul\":33005:33008   */\n      0x00\n        /* \"#utility.yul\":33026:33093   */\n      tag_582\n        /* \"#utility.yul\":33090:33092   */\n      0x26\n        /* \"#utility.yul\":33085:33088   */\n      dup4\n        /* \"#utility.yul\":33026:33093   */\n      tag_228\n      jump\t// in\n    tag_582:\n        /* \"#utility.yul\":33019:33093   */\n      swap2\n      pop\n        /* \"#utility.yul\":33102:33195   */\n      tag_583\n        /* \"#utility.yul\":33191:33194   */\n      dup3\n        /* \"#utility.yul\":33102:33195   */\n      tag_282\n      jump\t// in\n    tag_583:\n        /* \"#utility.yul\":33220:33222   */\n      0x40\n        /* \"#utility.yul\":33215:33218   */\n      dup3\n        /* \"#utility.yul\":33211:33223   */\n      add\n        /* \"#utility.yul\":33204:33223   */\n      swap1\n      pop\n        /* \"#utility.yul\":32863:33229   */\n      swap2\n      swap1\n      pop\n      jump\t// out\n        /* \"#utility.yul\":33235:33654   */\n    tag_115:\n        /* \"#utility.yul\":33401:33405   */\n      0x00\n        /* \"#utility.yul\":33439:33441   */\n      0x20\n        /* \"#utility.yul\":33428:33437   */\n      dup3\n        /* \"#utility.yul\":33424:33442   */\n      add\n        /* \"#utility.yul\":33416:33442   */\n      swap1\n      pop\n        /* \"#utility.yul\":33488:33497   */\n      dup2\n        /* \"#utility.yul\":33482:33486   */\n      dup2\n        /* \"#utility.yul\":33478:33498   */\n      sub\n        /* \"#utility.yul\":33474:33475   */\n      0x00\n        /* \"#utility.yul\":33463:33472   */\n      dup4\n        /* \"#utility.yul\":33459:33476   */\n      add\n        /* \"#utility.yul\":33452:33499   */\n      mstore\n        /* \"#utility.yul\":33516:33647   */\n      tag_585\n        /* \"#utility.yul\":33642:33646   */\n      dup2\n        /* \"#utility.yul\":33516:33647   */\n      tag_283\n      jump\t// in\n    tag_585:\n        /* \"#utility.yul\":33508:33647   */\n      swap1\n      pop\n        /* \"#utility.yul\":33235:33654   */\n      swap2\n      swap1\n      pop\n      jump\t// out\n        /* \"#utility.yul\":33660:33840   */\n    tag_119:\n        /* \"#utility.yul\":33708:33785   */\n      0x4e487b7100000000000000000000000000000000000000000000000000000000\n        /* \"#utility.yul\":33705:33706   */\n      0x00\n        /* \"#utility.yul\":33698:33786   */\n      mstore\n        /* \"#utility.yul\":33805:33809   */\n      0x01\n        /* \"#utility.yul\":33802:33803   */\n      0x04\n        /* \"#utility.yul\":33795:33810   */\n      mstore\n        /* \"#utility.yul\":33829:33833   */\n      0x24\n        /* \"#utility.yul\":33826:33827   */\n      0x00\n        /* \"#utility.yul\":33819:33834   */\n      revert\n        /* \"#utility.yul\":33846:34067   */\n    tag_284:\n        /* \"#utility.yul\":33986:34020   */\n      0x4f6e6c79207468652063616d706169676e206f776e65722063616e2064656c65\n        /* \"#utility.yul\":33982:33983   */\n      0x00\n        /* \"#utility.yul\":33974:33980   */\n      dup3\n        /* \"#utility.yul\":33970:33984   */\n      add\n        /* \"#utility.yul\":33963:34021   */\n      mstore\n        /* \"#utility.yul\":34055:34059   */\n      0x7465000000000000000000000000000000000000000000000000000000000000\n        /* \"#utility.yul\":34050:34052   */\n      0x20\n        /* \"#utility.yul\":34042:34048   */\n      dup3\n        /* \"#utility.yul\":34038:34053   */\n      add\n        /* \"#utility.yul\":34031:34060   */\n      mstore\n        /* \"#utility.yul\":33846:34067   */\n      pop\n      jump\t// out\n        /* \"#utility.yul\":34073:34439   */\n    tag_285:\n        /* \"#utility.yul\":34215:34218   */\n      0x00\n        /* \"#utility.yul\":34236:34303   */\n      tag_589\n        /* \"#utility.yul\":34300:34302   */\n      0x22\n        /* \"#utility.yul\":34295:34298   */\n      dup4\n        /* \"#utility.yul\":34236:34303   */\n      tag_228\n      jump\t// in\n    tag_589:\n        /* \"#utility.yul\":34229:34303   */\n      swap2\n      pop\n        /* \"#utility.yul\":34312:34405   */\n      tag_590\n        /* \"#utility.yul\":34401:34404   */\n      dup3\n        /* \"#utility.yul\":34312:34405   */\n      tag_284\n      jump\t// in\n    tag_590:\n        /* \"#utility.yul\":34430:34432   */\n      0x40\n        /* \"#utility.yul\":34425:34428   */\n      dup3\n        /* \"#utility.yul\":34421:34433   */\n      add\n        /* \"#utility.yul\":34414:34433   */\n      swap1\n      pop\n        /* \"#utility.yul\":34073:34439   */\n      swap2\n      swap1\n      pop\n      jump\t// out\n        /* \"#utility.yul\":34445:34864   */\n    tag_123:\n        /* \"#utility.yul\":34611:34615   */\n      0x00\n        /* \"#utility.yul\":34649:34651   */\n      0x20\n        /* \"#utility.yul\":34638:34647   */\n      dup3\n        /* \"#utility.yul\":34634:34652   */\n      add\n        /* \"#utility.yul\":34626:34652   */\n      swap1\n      pop\n        /* \"#utility.yul\":34698:34707   */\n      dup2\n        /* \"#utility.yul\":34692:34696   */\n      dup2\n        /* \"#utility.yul\":34688:34708   */\n      sub\n        /* \"#utility.yul\":34684:34685   */\n      0x00\n        /* \"#utility.yul\":34673:34682   */\n      dup4\n        /* \"#utility.yul\":34669:34686   */\n      add\n        /* \"#utility.yul\":34662:34709   */\n      mstore\n        /* \"#utility.yul\":34726:34857   */\n      tag_592\n        /* \"#utility.yul\":34852:34856   */\n      dup2\n        /* \"#utility.yul\":34726:34857   */\n      tag_285\n      jump\t// in\n    tag_592:\n        /* \"#utility.yul\":34718:34857   */\n      swap1\n      pop\n        /* \"#utility.yul\":34445:34864   */\n      swap2\n      swap1\n      pop\n      jump\t// out\n        /* \"#utility.yul\":34870:35092   */\n    tag_286:\n        /* \"#utility.yul\":35010:35044   */\n      0x43616e6e6f742064656c65746520612063616d706169676e2077697468206675\n        /* \"#utility.yul\":35006:35007   */\n      0x00\n        /* \"#utility.yul\":34998:35004   */\n      dup3\n        /* \"#utility.yul\":34994:35008   */\n      add\n        /* \"#utility.yul\":34987:35045   */\n      mstore\n        /* \"#utility.yul\":35079:35084   */\n      0x6e64730000000000000000000000000000000000000000000000000000000000\n        /* \"#utility.yul\":35074:35076   */\n      0x20\n        /* \"#utility.yul\":35066:35072   */\n      dup3\n        /* \"#utility.yul\":35062:35077   */\n      add\n        /* \"#utility.yul\":35055:35085   */\n      mstore\n        /* \"#utility.yul\":34870:35092   */\n      pop\n      jump\t// out\n        /* \"#utility.yul\":35098:35464   */\n    tag_287:\n        /* \"#utility.yul\":35240:35243   */\n      0x00\n        /* \"#utility.yul\":35261:35328   */\n      tag_595\n        /* \"#utility.yul\":35325:35327   */\n      0x23\n        /* \"#utility.yul\":35320:35323   */\n      dup4\n        /* \"#utility.yul\":35261:35328   */\n      tag_228\n      jump\t// in\n    tag_595:\n        /* \"#utility.yul\":35254:35328   */\n      swap2\n      pop\n        /* \"#utility.yul\":35337:35430   */\n      tag_596\n        /* \"#utility.yul\":35426:35429   */\n      dup3\n        /* \"#utility.yul\":35337:35430   */\n      tag_286\n      jump\t// in\n    tag_596:\n        /* \"#utility.yul\":35455:35457   */\n      0x40\n        /* \"#utility.yul\":35450:35453   */\n      dup3\n        /* \"#utility.yul\":35446:35458   */\n      add\n        /* \"#utility.yul\":35439:35458   */\n      swap1\n      pop\n        /* \"#utility.yul\":35098:35464   */\n      swap2\n      swap1\n      pop\n      jump\t// out\n        /* \"#utility.yul\":35470:35889   */\n    tag_126:\n        /* \"#utility.yul\":35636:35640   */\n      0x00\n        /* \"#utility.yul\":35674:35676   */\n      0x20\n        /* \"#utility.yul\":35663:35672   */\n      dup3\n        /* \"#utility.yul\":35659:35677   */\n      add\n        /* \"#utility.yul\":35651:35677   */\n      swap1\n      pop\n        /* \"#utility.yul\":35723:35732   */\n      dup2\n        /* \"#utility.yul\":35717:35721   */\n      dup2\n        /* \"#utility.yul\":35713:35733   */\n      sub\n        /* \"#utility.yul\":35709:35710   */\n      0x00\n        /* \"#utility.yul\":35698:35707   */\n      dup4\n        /* \"#utility.yul\":35694:35711   */\n      add\n        /* \"#utility.yul\":35687:35734   */\n      mstore\n        /* \"#utility.yul\":35751:35882   */\n      tag_598\n        /* \"#utility.yul\":35877:35881   */\n      dup2\n        /* \"#utility.yul\":35751:35882   */\n      tag_287\n      jump\t// in\n    tag_598:\n        /* \"#utility.yul\":35743:35882   */\n      swap1\n      pop\n        /* \"#utility.yul\":35470:35889   */\n      swap2\n      swap1\n      pop\n      jump\t// out\n        /* \"#utility.yul\":35895:36075   */\n    tag_167:\n        /* \"#utility.yul\":35943:36020   */\n      0x4e487b7100000000000000000000000000000000000000000000000000000000\n        /* \"#utility.yul\":35940:35941   */\n      0x00\n        /* \"#utility.yul\":35933:36021   */\n      mstore\n        /* \"#utility.yul\":36040:36044   */\n      0x32\n        /* \"#utility.yul\":36037:36038   */\n      0x04\n        /* \"#utility.yul\":36030:36045   */\n      mstore\n        /* \"#utility.yul\":36064:36068   */\n      0x24\n        /* \"#utility.yul\":36061:36062   */\n      0x00\n        /* \"#utility.yul\":36054:36069   */\n      revert\n        /* \"#utility.yul\":36081:36302   */\n    tag_288:\n        /* \"#utility.yul\":36221:36255   */\n      0x4f6e6c79207468652063616d706169676e206f776e65722063616e2075706461\n        /* \"#utility.yul\":36217:36218   */\n      0x00\n        /* \"#utility.yul\":36209:36215   */\n      dup3\n        /* \"#utility.yul\":36205:36219   */\n      add\n        /* \"#utility.yul\":36198:36256   */\n      mstore\n        /* \"#utility.yul\":36290:36294   */\n      0x7465000000000000000000000000000000000000000000000000000000000000\n        /* \"#utility.yul\":36285:36287   */\n      0x20\n        /* \"#utility.yul\":36277:36283   */\n      dup3\n        /* \"#utility.yul\":36273:36288   */\n      add\n        /* \"#utility.yul\":36266:36295   */\n      mstore\n        /* \"#utility.yul\":36081:36302   */\n      pop\n      jump\t// out\n        /* \"#utility.yul\":36308:36674   */\n    tag_289:\n        /* \"#utility.yul\":36450:36453   */\n      0x00\n        /* \"#utility.yul\":36471:36538   */\n      tag_602\n        /* \"#utility.yul\":36535:36537   */\n      0x22\n        /* \"#utility.yul\":36530:36533   */\n      dup4\n        /* \"#utility.yul\":36471:36538   */\n      tag_228\n      jump\t// in\n    tag_602:\n        /* \"#utility.yul\":36464:36538   */\n      swap2\n      pop\n        /* \"#utility.yul\":36547:36640   */\n      tag_603\n        /* \"#utility.yul\":36636:36639   */\n      dup3\n        /* \"#utility.yul\":36547:36640   */\n      tag_288\n      jump\t// in\n    tag_603:\n        /* \"#utility.yul\":36665:36667   */\n      0x40\n        /* \"#utility.yul\":36660:36663   */\n      dup3\n        /* \"#utility.yul\":36656:36668   */\n      add\n        /* \"#utility.yul\":36649:36668   */\n      swap1\n      pop\n        /* \"#utility.yul\":36308:36674   */\n      swap2\n      swap1\n      pop\n      jump\t// out\n        /* \"#utility.yul\":36680:37099   */\n    tag_171:\n        /* \"#utility.yul\":36846:36850   */\n      0x00\n        /* \"#utility.yul\":36884:36886   */\n      0x20\n        /* \"#utility.yul\":36873:36882   */\n      dup3\n        /* \"#utility.yul\":36869:36887   */\n      add\n        /* \"#utility.yul\":36861:36887   */\n      swap1\n      pop\n        /* \"#utility.yul\":36933:36942   */\n      dup2\n        /* \"#utility.yul\":36927:36931   */\n      dup2\n        /* \"#utility.yul\":36923:36943   */\n      sub\n        /* \"#utility.yul\":36919:36920   */\n      0x00\n        /* \"#utility.yul\":36908:36917   */\n      dup4\n        /* \"#utility.yul\":36904:36921   */\n      add\n        /* \"#utility.yul\":36897:36944   */\n      mstore\n        /* \"#utility.yul\":36961:37092   */\n      tag_605\n        /* \"#utility.yul\":37087:37091   */\n      dup2\n        /* \"#utility.yul\":36961:37092   */\n      tag_289\n      jump\t// in\n    tag_605:\n        /* \"#utility.yul\":36953:37092   */\n      swap1\n      pop\n        /* \"#utility.yul\":36680:37099   */\n      swap2\n      swap1\n      pop\n      jump\t// out\n        /* \"#utility.yul\":37105:37326   */\n    tag_290:\n        /* \"#utility.yul\":37245:37279   */\n      0x43616e6e6f7420757064617465206120636f6d706c657465642063616d706169\n        /* \"#utility.yul\":37241:37242   */\n      0x00\n        /* \"#utility.yul\":37233:37239   */\n      dup3\n        /* \"#utility.yul\":37229:37243   */\n      add\n        /* \"#utility.yul\":37222:37280   */\n      mstore\n        /* \"#utility.yul\":37314:37318   */\n      0x676e000000000000000000000000000000000000000000000000000000000000\n        /* \"#utility.yul\":37309:37311   */\n      0x20\n        /* \"#utility.yul\":37301:37307   */\n      dup3\n        /* \"#utility.yul\":37297:37312   */\n      add\n        /* \"#utility.yul\":37290:37319   */\n      mstore\n        /* \"#utility.yul\":37105:37326   */\n      pop\n      jump\t// out\n        /* \"#utility.yul\":37332:37698   */\n    tag_291:\n        /* \"#utility.yul\":37474:37477   */\n      0x00\n        /* \"#utility.yul\":37495:37562   */\n      tag_608\n        /* \"#utility.yul\":37559:37561   */\n      0x22\n        /* \"#utility.yul\":37554:37557   */\n      dup4\n        /* \"#utility.yul\":37495:37562   */\n      tag_228\n      jump\t// in\n    tag_608:\n        /* \"#utility.yul\":37488:37562   */\n      swap2\n      pop\n        /* \"#utility.yul\":37571:37664   */\n      tag_609\n        /* \"#utility.yul\":37660:37663   */\n      dup3\n        /* \"#utility.yul\":37571:37664   */\n      tag_290\n      jump\t// in\n    tag_609:\n        /* \"#utility.yul\":37689:37691   */\n      0x40\n        /* \"#utility.yul\":37684:37687   */\n      dup3\n        /* \"#utility.yul\":37680:37692   */\n      add\n        /* \"#utility.yul\":37673:37692   */\n      swap1\n      pop\n        /* \"#utility.yul\":37332:37698   */\n      swap2\n      swap1\n      pop\n      jump\t// out\n        /* \"#utility.yul\":37704:38123   */\n    tag_176:\n        /* \"#utility.yul\":37870:37874   */\n      0x00\n        /* \"#utility.yul\":37908:37910   */\n      0x20\n        /* \"#utility.yul\":37897:37906   */\n      dup3\n        /* \"#utility.yul\":37893:37911   */\n      add\n        /* \"#utility.yul\":37885:37911   */\n      swap1\n      pop\n        /* \"#utility.yul\":37957:37966   */\n      dup2\n        /* \"#utility.yul\":37951:37955   */\n      dup2\n        /* \"#utility.yul\":37947:37967   */\n      sub\n        /* \"#utility.yul\":37943:37944   */\n      0x00\n        /* \"#utility.yul\":37932:37941   */\n      dup4\n        /* \"#utility.yul\":37928:37945   */\n      add\n        /* \"#utility.yul\":37921:37968   */\n      mstore\n        /* \"#utility.yul\":37985:38116   */\n      tag_611\n        /* \"#utility.yul\":38111:38115   */\n      dup2\n        /* \"#utility.yul\":37985:38116   */\n      tag_291\n      jump\t// in\n    tag_611:\n        /* \"#utility.yul\":37977:38116   */\n      swap1\n      pop\n        /* \"#utility.yul\":37704:38123   */\n      swap2\n      swap1\n      pop\n      jump\t// out\n        /* \"#utility.yul\":38129:38309   */\n    tag_292:\n        /* \"#utility.yul\":38177:38254   */\n      0x4e487b7100000000000000000000000000000000000000000000000000000000\n        /* \"#utility.yul\":38174:38175   */\n      0x00\n        /* \"#utility.yul\":38167:38255   */\n      mstore\n        /* \"#utility.yul\":38274:38278   */\n      0x11\n        /* \"#utility.yul\":38271:38272   */\n      0x04\n        /* \"#utility.yul\":38264:38279   */\n      mstore\n        /* \"#utility.yul\":38298:38302   */\n      0x24\n        /* \"#utility.yul\":38295:38296   */\n      0x00\n        /* \"#utility.yul\":38288:38303   */\n      revert\n        /* \"#utility.yul\":38315:38506   */\n    tag_182:\n        /* \"#utility.yul\":38355:38358   */\n      0x00\n        /* \"#utility.yul\":38374:38394   */\n      tag_614\n        /* \"#utility.yul\":38392:38393   */\n      dup3\n        /* \"#utility.yul\":38374:38394   */\n      tag_197\n      jump\t// in\n    tag_614:\n        /* \"#utility.yul\":38369:38394   */\n      swap2\n      pop\n        /* \"#utility.yul\":38408:38428   */\n      tag_615\n        /* \"#utility.yul\":38426:38427   */\n      dup4\n        /* \"#utility.yul\":38408:38428   */\n      tag_197\n      jump\t// in\n    tag_615:\n        /* \"#utility.yul\":38403:38428   */\n      swap3\n      pop\n        /* \"#utility.yul\":38451:38452   */\n      dup3\n        /* \"#utility.yul\":38448:38449   */\n      dup3\n        /* \"#utility.yul\":38444:38453   */\n      add\n        /* \"#utility.yul\":38437:38453   */\n      swap1\n      pop\n        /* \"#utility.yul\":38472:38475   */\n      dup1\n        /* \"#utility.yul\":38469:38470   */\n      dup3\n        /* \"#utility.yul\":38466:38476   */\n      gt\n        /* \"#utility.yul\":38463:38499   */\n      iszero\n      tag_616\n      jumpi\n        /* \"#utility.yul\":38479:38497   */\n      tag_617\n      tag_292\n      jump\t// in\n    tag_617:\n        /* \"#utility.yul\":38463:38499   */\n    tag_616:\n        /* \"#utility.yul\":38315:38506   */\n      swap3\n      swap2\n      pop\n      pop\n      jump\t// out\n        /* \"#utility.yul\":38512:38706   */\n    tag_185:\n        /* \"#utility.yul\":38552:38556   */\n      0x00\n        /* \"#utility.yul\":38572:38592   */\n      tag_619\n        /* \"#utility.yul\":38590:38591   */\n      dup3\n        /* \"#utility.yul\":38572:38592   */\n      tag_197\n      jump\t// in\n    tag_619:\n        /* \"#utility.yul\":38567:38592   */\n      swap2\n      pop\n        /* \"#utility.yul\":38606:38626   */\n      tag_620\n        /* \"#utility.yul\":38624:38625   */\n      dup4\n        /* \"#utility.yul\":38606:38626   */\n      tag_197\n      jump\t// in\n    tag_620:\n        /* \"#utility.yul\":38601:38626   */\n      swap3\n      pop\n        /* \"#utility.yul\":38650:38651   */\n      dup3\n        /* \"#utility.yul\":38647:38648   */\n      dup3\n        /* \"#utility.yul\":38643:38652   */\n      sub\n        /* \"#utility.yul\":38635:38652   */\n      swap1\n      pop\n        /* \"#utility.yul\":38674:38675   */\n      dup2\n        /* \"#utility.yul\":38668:38672   */\n      dup2\n        /* \"#utility.yul\":38665:38676   */\n      gt\n        /* \"#utility.yul\":38662:38699   */\n      iszero\n      tag_621\n      jumpi\n        /* \"#utility.yul\":38679:38697   */\n      tag_622\n      tag_292\n      jump\t// in\n    tag_622:\n        /* \"#utility.yul\":38662:38699   */\n    tag_621:\n        /* \"#utility.yul\":38512:38706   */\n      swap3\n      swap2\n      pop\n      pop\n      jump\t// out\n\n    auxdata: 0xa2646970667358221220c13123b866482b785cdaaa0a887494f6359a7113be76ad4d5df172c235996eb264736f6c634300081a0033\n}\n",
				"bytecode": {
					"linkReferences": {},
					"object": "60806040525f6001553480156012575f80fd5b506124fe806100205f395ff3fe60806040526004361061007a575f3560e01c806342a4fda81161004d57806342a4fda814610163578063759701931461017f578063a6b03633146101a7578063c5675b10146101d15761007a565b806307ca140d1461007e5780630fa91fa9146100a85780631227d335146100e5578063141961bc14610121575b5f80fd5b348015610089575f80fd5b506100926101f9565b60405161009f9190611253565b60405180910390f35b3480156100b3575f80fd5b506100ce60048036038101906100c9919061129e565b6101ff565b6040516100dc929190611467565b60405180910390f35b3480156100f0575f80fd5b5061010b60048036038101906101069190611527565b6102fc565b6040516101189190611253565b60405180910390f35b34801561012c575f80fd5b506101476004803603810190610142919061129e565b610535565b60405161015a9796959493929190611697565b60405180910390f35b61017d6004803603810190610178919061129e565b61072f565b005b34801561018a575f80fd5b506101a560048036038101906101a0919061129e565b610a38565b005b3480156101b2575f80fd5b506101bb610bc9565b6040516101c891906119e1565b60405180910390f35b3480156101dc575f80fd5b506101f760048036038101906101f29190611a01565b610f97565b005b60015481565b6060805f805f8581526020019081526020015f20905080600701816008018180548060200260200160405190810160405280929190818152602001828054801561029b57602002820191905f5260205f20905b815f9054906101000a900473ffffffffffffffffffffffffffffffffffffffff1673ffffffffffffffffffffffffffffffffffffffff1681526020019060010190808311610252575b50505050509150808054806020026020016040519081016040528092919081815260200182805480156102eb57602002820191905f5260205f20905b8154815260200190600101908083116102d7575b505050505090509250925050915091565b5f80841161033f576040517f08c379a000000000000000000000000000000000000000000000000000000000815260040161033690611b22565b60405180910390fd5b5f8888905011610384576040517f08c379a000000000000000000000000000000000000000000000000000000000815260040161037b90611b8a565b60405180910390fd5b5f86869050116103c9576040517f08c379a00000000000000000000000000000000000000000000000000000000081526004016103c090611bf2565b60405180910390fd5b5f73ffffffffffffffffffffffffffffffffffffffff168973ffffffffffffffffffffffffffffffffffffffff1603610437576040517f08c379a000000000000000000000000000000000000000000000000000000000815260040161042e90611c5a565b60405180910390fd5b5f805f60015481526020019081526020015f20905089815f015f6101000a81548173ffffffffffffffffffffffffffffffffffffffff021916908373ffffffffffffffffffffffffffffffffffffffff16021790555088888260010191826104a0929190611ea9565b5086868260020191826104b4929190611ea9565b508481600301819055505f816004018190555083838260050191826104da929190611ea9565b505f816006015f6101000a81548160ff02191690831515021790555061050b6001805461111d90919063ffffffff16565b6001819055506105266001805461113290919063ffffffff16565b91505098975050505050505050565b5f602052805f5260405f205f91509050805f015f9054906101000a900473ffffffffffffffffffffffffffffffffffffffff169080600101805461057890611cdc565b80601f01602080910402602001604051908101604052809291908181526020018280546105a490611cdc565b80156105ef5780601f106105c6576101008083540402835291602001916105ef565b820191905f5260205f20905b8154815290600101906020018083116105d257829003601f168201915b50505050509080600201805461060490611cdc565b80601f016020809104026020016040519081016040528092919081815260200182805461063090611cdc565b801561067b5780601f106106525761010080835404028352916020019161067b565b820191905f5260205f20905b81548152906001019060200180831161065e57829003601f168201915b50505050509080600301549080600401549080600501805461069c90611cdc565b80601f01602080910402602001604051908101604052809291908181526020018280546106c890611cdc565b80156107135780601f106106ea57610100808354040283529160200191610713565b820191905f5260205f20905b8154815290600101906020018083116106f657829003601f168201915b505050505090806006015f9054906101000a900460ff16905087565b5f3411610771576040517f08c379a000000000000000000000000000000000000000000000000000000000815260040161076890611fe6565b60405180910390fd5b5f805f8381526020019081526020015f2090505f73ffffffffffffffffffffffffffffffffffffffff16815f015f9054906101000a900473ffffffffffffffffffffffffffffffffffffffff1673ffffffffffffffffffffffffffffffffffffffff1603610814576040517f08c379a000000000000000000000000000000000000000000000000000000000815260040161080b9061204e565b60405180910390fd5b806006015f9054906101000a900460ff1615610865576040517f08c379a000000000000000000000000000000000000000000000000000000000815260040161085c906120b6565b60405180910390fd5b5f816004015490508160070133908060018154018082558091505060019003905f5260205f20015f9091909190916101000a81548173ffffffffffffffffffffffffffffffffffffffff021916908373ffffffffffffffffffffffffffffffffffffffff1602179055508160080134908060018154018082558091505060019003905f5260205f20015f909190919091505561090e34836004015461111d90919063ffffffff16565b82600401819055508160030154826004015410610942576001826006015f6101000a81548160ff0219169083151502179055505b5f825f015f9054906101000a900473ffffffffffffffffffffffffffffffffffffffff1673ffffffffffffffffffffffffffffffffffffffff163460405161098990612101565b5f6040518083038185875af1925050503d805f81146109c3576040519150601f19603f3d011682016040523d82523d5f602084013e6109c8565b606091505b5050905080610a0c576040517f08c379a0000000000000000000000000000000000000000000000000000000008152600401610a0390612185565b60405180910390fd5b610a1f348361111d90919063ffffffff16565b836004015414610a3257610a316121a3565b5b50505050565b5f805f8381526020019081526020015f209050805f015f9054906101000a900473ffffffffffffffffffffffffffffffffffffffff1673ffffffffffffffffffffffffffffffffffffffff163373ffffffffffffffffffffffffffffffffffffffff1614610adb576040517f08c379a0000000000000000000000000000000000000000000000000000000008152600401610ad290612240565b60405180910390fd5b5f816004015414610b21576040517f08c379a0000000000000000000000000000000000000000000000000000000008152600401610b18906122ce565b60405180910390fd5b5f808381526020019081526020015f205f8082015f6101000a81549073ffffffffffffffffffffffffffffffffffffffff0219169055600182015f610b669190611147565b600282015f610b759190611147565b600382015f9055600482015f9055600582015f610b929190611147565b600682015f6101000a81549060ff0219169055600782015f610bb49190611184565b600882015f610bc391906111a2565b50505050565b60605f60015467ffffffffffffffff811115610be857610be7611c82565b5b604051908082528060200260200182016040528015610c2157816020015b610c0e6111c0565b815260200190600190039081610c065790505b5090505f5b600154811015610f8f575f805f8381526020019081526020015f20905080604051806101200160405290815f82015f9054906101000a900473ffffffffffffffffffffffffffffffffffffffff1673ffffffffffffffffffffffffffffffffffffffff1673ffffffffffffffffffffffffffffffffffffffff168152602001600182018054610cb490611cdc565b80601f0160208091040260200160405190810160405280929190818152602001828054610ce090611cdc565b8015610d2b5780601f10610d0257610100808354040283529160200191610d2b565b820191905f5260205f20905b815481529060010190602001808311610d0e57829003601f168201915b50505050508152602001600282018054610d4490611cdc565b80601f0160208091040260200160405190810160405280929190818152602001828054610d7090611cdc565b8015610dbb5780601f10610d9257610100808354040283529160200191610dbb565b820191905f5260205f20905b815481529060010190602001808311610d9e57829003601f168201915b505050505081526020016003820154815260200160048201548152602001600582018054610de890611cdc565b80601f0160208091040260200160405190810160405280929190818152602001828054610e1490611cdc565b8015610e5f5780601f10610e3657610100808354040283529160200191610e5f565b820191905f5260205f20905b815481529060010190602001808311610e4257829003601f168201915b50505050508152602001600682015f9054906101000a900460ff1615151515815260200160078201805480602002602001604051908101604052809291908181526020018280548015610f0457602002820191905f5260205f20905b815f9054906101000a900473ffffffffffffffffffffffffffffffffffffffff1673ffffffffffffffffffffffffffffffffffffffff1681526020019060010190808311610ebb575b5050505050815260200160088201805480602002602001604051908101604052809291908181526020018280548015610f5a57602002820191905f5260205f20905b815481526020019060010190808311610f46575b505050505081525050838381518110610f7657610f756122ec565b5b6020026020010181905250508080600101915050610c26565b508091505090565b5f805f8a81526020019081526020015f209050805f015f9054906101000a900473ffffffffffffffffffffffffffffffffffffffff1673ffffffffffffffffffffffffffffffffffffffff163373ffffffffffffffffffffffffffffffffffffffff161461103a576040517f08c379a000000000000000000000000000000000000000000000000000000000815260040161103190612389565b60405180910390fd5b5f841161107c576040517f08c379a000000000000000000000000000000000000000000000000000000000815260040161107390611b22565b60405180910390fd5b806006015f9054906101000a900460ff16156110cd576040517f08c379a00000000000000000000000000000000000000000000000000000000081526004016110c490612417565b60405180910390fd5b87878260010191826110e0929190611ea9565b5085858260020191826110f4929190611ea9565b508381600301819055508282826005019182611111929190611ea9565b50505050505050505050565b5f818361112a9190612462565b905092915050565b5f818361113f9190612495565b905092915050565b50805461115390611cdc565b5f825580601f106111645750611181565b601f0160209004905f5260205f20908101906111809190611220565b5b50565b5080545f8255905f5260205f209081019061119f9190611220565b50565b5080545f8255905f5260205f20908101906111bd9190611220565b50565b6040518061012001604052805f73ffffffffffffffffffffffffffffffffffffffff16815260200160608152602001606081526020015f81526020015f8152602001606081526020015f1515815260200160608152602001606081525090565b5b80821115611237575f815f905550600101611221565b5090565b5f819050919050565b61124d8161123b565b82525050565b5f6020820190506112665f830184611244565b92915050565b5f80fd5b5f80fd5b61127d8161123b565b8114611287575f80fd5b50565b5f8135905061129881611274565b92915050565b5f602082840312156112b3576112b261126c565b5b5f6112c08482850161128a565b91505092915050565b5f81519050919050565b5f82825260208201905092915050565b5f819050602082019050919050565b5f73ffffffffffffffffffffffffffffffffffffffff82169050919050565b5f61131b826112f2565b9050919050565b61132b81611311565b82525050565b5f61133c8383611322565b60208301905092915050565b5f602082019050919050565b5f61135e826112c9565b61136881856112d3565b9350611373836112e3565b805f5b838110156113a357815161138a8882611331565b975061139583611348565b925050600181019050611376565b5085935050505092915050565b5f81519050919050565b5f82825260208201905092915050565b5f819050602082019050919050565b6113e28161123b565b82525050565b5f6113f383836113d9565b60208301905092915050565b5f602082019050919050565b5f611415826113b0565b61141f81856113ba565b935061142a836113ca565b805f5b8381101561145a57815161144188826113e8565b975061144c836113ff565b92505060018101905061142d565b5085935050505092915050565b5f6040820190508181035f83015261147f8185611354565b90508181036020830152611493818461140b565b90509392505050565b6114a581611311565b81146114af575f80fd5b50565b5f813590506114c08161149c565b92915050565b5f80fd5b5f80fd5b5f80fd5b5f8083601f8401126114e7576114e66114c6565b5b8235905067ffffffffffffffff811115611504576115036114ca565b5b6020830191508360018202830111156115205761151f6114ce565b5b9250929050565b5f805f805f805f8060a0898b0312156115435761154261126c565b5b5f6115508b828c016114b2565b985050602089013567ffffffffffffffff81111561157157611570611270565b5b61157d8b828c016114d2565b9750975050604089013567ffffffffffffffff8111156115a05761159f611270565b5b6115ac8b828c016114d2565b955095505060606115bf8b828c0161128a565b935050608089013567ffffffffffffffff8111156115e0576115df611270565b5b6115ec8b828c016114d2565b92509250509295985092959890939650565b61160781611311565b82525050565b5f81519050919050565b5f82825260208201905092915050565b8281835e5f83830152505050565b5f601f19601f8301169050919050565b5f61164f8261160d565b6116598185611617565b9350611669818560208601611627565b61167281611635565b840191505092915050565b5f8115159050919050565b6116918161167d565b82525050565b5f60e0820190506116aa5f83018a6115fe565b81810360208301526116bc8189611645565b905081810360408301526116d08188611645565b90506116df6060830187611244565b6116ec6080830186611244565b81810360a08301526116fe8185611645565b905061170d60c0830184611688565b98975050505050505050565b5f81519050919050565b5f82825260208201905092915050565b5f819050602082019050919050565b5f82825260208201905092915050565b5f61175c8261160d565b6117668185611742565b9350611776818560208601611627565b61177f81611635565b840191505092915050565b6117938161167d565b82525050565b5f82825260208201905092915050565b5f6117b3826112c9565b6117bd8185611799565b93506117c8836112e3565b805f5b838110156117f85781516117df8882611331565b97506117ea83611348565b9250506001810190506117cb565b5085935050505092915050565b5f82825260208201905092915050565b5f61181f826113b0565b6118298185611805565b9350611834836113ca565b805f5b8381101561186457815161184b88826113e8565b9750611856836113ff565b925050600181019050611837565b5085935050505092915050565b5f61012083015f8301516118875f860182611322565b506020830151848203602086015261189f8282611752565b915050604083015184820360408601526118b98282611752565b91505060608301516118ce60608601826113d9565b5060808301516118e160808601826113d9565b5060a083015184820360a08601526118f98282611752565b91505060c083015161190e60c086018261178a565b5060e083015184820360e086015261192682826117a9565b9150506101008301518482036101008601526119428282611815565b9150508091505092915050565b5f61195a8383611871565b905092915050565b5f602082019050919050565b5f61197882611719565b6119828185611723565b93508360208202850161199485611733565b805f5b858110156119cf57848403895281516119b0858261194f565b94506119bb83611962565b925060208a01995050600181019050611997565b50829750879550505050505092915050565b5f6020820190508181035f8301526119f9818461196e565b905092915050565b5f805f805f805f8060a0898b031215611a1d57611a1c61126c565b5b5f611a2a8b828c0161128a565b985050602089013567ffffffffffffffff811115611a4b57611a4a611270565b5b611a578b828c016114d2565b9750975050604089013567ffffffffffffffff811115611a7a57611a79611270565b5b611a868b828c016114d2565b95509550506060611a998b828c0161128a565b935050608089013567ffffffffffffffff811115611aba57611ab9611270565b5b611ac68b828c016114d2565b92509250509295985092959890939650565b7f546172676574206d7573742062652067726561746572207468616e20300000005f82015250565b5f611b0c601d83611617565b9150611b1782611ad8565b602082019050919050565b5f6020820190508181035f830152611b3981611b00565b9050919050565b7f5469746c652063616e6e6f7420626520656d70747900000000000000000000005f82015250565b5f611b74601583611617565b9150611b7f82611b40565b602082019050919050565b5f6020820190508181035f830152611ba181611b68565b9050919050565b7f4465736372697074696f6e2063616e6e6f7420626520656d70747900000000005f82015250565b5f611bdc601b83611617565b9150611be782611ba8565b602082019050919050565b5f6020820190508181035f830152611c0981611bd0565b9050919050565b7f496e76616c6964206f776e6572206164647265737300000000000000000000005f82015250565b5f611c44601583611617565b9150611c4f82611c10565b602082019050919050565b5f6020820190508181035f830152611c7181611c38565b9050919050565b5f82905092915050565b7f4e487b71000000000000000000000000000000000000000000000000000000005f52604160045260245ffd5b7f4e487b71000000000000000000000000000000000000000000000000000000005f52602260045260245ffd5b5f6002820490506001821680611cf357607f821691505b602082108103611d0657611d05611caf565b5b50919050565b5f819050815f5260205f209050919050565b5f6020601f8301049050919050565b5f82821b905092915050565b5f60088302611d687fffffffffffffffffffffffffffffffffffffffffffffffffffffffffffffffff82611d2d565b611d728683611d2d565b95508019841693508086168417925050509392505050565b5f819050919050565b5f611dad611da8611da38461123b565b611d8a565b61123b565b9050919050565b5f819050919050565b611dc683611d93565b611dda611dd282611db4565b848454611d39565b825550505050565b5f90565b611dee611de2565b611df9818484611dbd565b505050565b5b81811015611e1c57611e115f82611de6565b600181019050611dff565b5050565b601f821115611e6157611e3281611d0c565b611e3b84611d1e565b81016020851015611e4a578190505b611e5e611e5685611d1e565b830182611dfe565b50505b505050565b5f82821c905092915050565b5f611e815f1984600802611e66565b1980831691505092915050565b5f611e998383611e72565b9150826002028217905092915050565b611eb38383611c78565b67ffffffffffffffff811115611ecc57611ecb611c82565b5b611ed68254611cdc565b611ee1828285611e20565b5f601f831160018114611f0e575f8415611efc578287013590505b611f068582611e8e565b865550611f6d565b601f198416611f1c86611d0c565b5f5b82811015611f4357848901358255600182019150602085019450602081019050611f1e565b86831015611f605784890135611f5c601f891682611e72565b8355505b6001600288020188555050505b50505050505050565b7f446f6e6174696f6e20616d6f756e74206d7573742062652067726561746572205f8201527f7468616e20300000000000000000000000000000000000000000000000000000602082015250565b5f611fd0602683611617565b9150611fdb82611f76565b604082019050919050565b5f6020820190508181035f830152611ffd81611fc4565b9050919050565b7f43616d706169676e20646f6573206e6f742065786973740000000000000000005f82015250565b5f612038601783611617565b915061204382612004565b602082019050919050565b5f6020820190508181035f8301526120658161202c565b9050919050565b7f43616d706169676e20616c726561647920636f6d706c657465640000000000005f82015250565b5f6120a0601a83611617565b91506120ab8261206c565b602082019050919050565b5f6020820190508181035f8301526120cd81612094565b9050919050565b5f81905092915050565b50565b5f6120ec5f836120d4565b91506120f7826120de565b5f82019050919050565b5f61210b826120e1565b9150819050919050565b7f4661696c656420746f2073656e6420457468657220746f2063616d706169676e5f8201527f206f776e65720000000000000000000000000000000000000000000000000000602082015250565b5f61216f602683611617565b915061217a82612115565b604082019050919050565b5f6020820190508181035f83015261219c81612163565b9050919050565b7f4e487b71000000000000000000000000000000000000000000000000000000005f52600160045260245ffd5b7f4f6e6c79207468652063616d706169676e206f776e65722063616e2064656c655f8201527f7465000000000000000000000000000000000000000000000000000000000000602082015250565b5f61222a602283611617565b9150612235826121d0565b604082019050919050565b5f6020820190508181035f8301526122578161221e565b9050919050565b7f43616e6e6f742064656c65746520612063616d706169676e20776974682066755f8201527f6e64730000000000000000000000000000000000000000000000000000000000602082015250565b5f6122b8602383611617565b91506122c38261225e565b604082019050919050565b5f6020820190508181035f8301526122e5816122ac565b9050919050565b7f4e487b71000000000000000000000000000000000000000000000000000000005f52603260045260245ffd5b7f4f6e6c79207468652063616d706169676e206f776e65722063616e20757064615f8201527f7465000000000000000000000000000000000000000000000000000000000000602082015250565b5f612373602283611617565b915061237e82612319565b604082019050919050565b5f6020820190508181035f8301526123a081612367565b9050919050565b7f43616e6e6f7420757064617465206120636f6d706c657465642063616d7061695f8201527f676e000000000000000000000000000000000000000000000000000000000000602082015250565b5f612401602283611617565b915061240c826123a7565b604082019050919050565b5f6020820190508181035f83015261242e816123f5565b9050919050565b7f4e487b71000000000000000000000000000000000000000000000000000000005f52601160045260245ffd5b5f61246c8261123b565b91506124778361123b565b925082820190508082111561248f5761248e612435565b5b92915050565b5f61249f8261123b565b91506124aa8361123b565b92508282039050818111156124c2576124c1612435565b5b9291505056fea2646970667358221220c13123b866482b785cdaaa0a887494f6359a7113be76ad4d5df172c235996eb264736f6c634300081a0033",
					"opcodes": "PUSH1 0x80 PUSH1 0x40 MSTORE PUSH0 PUSH1 0x1 SSTORE CALLVALUE DUP1 ISZERO PUSH1 0x12 JUMPI PUSH0 DUP1 REVERT JUMPDEST POP PUSH2 0x24FE DUP1 PUSH2 0x20 PUSH0 CODECOPY PUSH0 RETURN INVALID PUSH1 0x80 PUSH1 0x40 MSTORE PUSH1 0x4 CALLDATASIZE LT PUSH2 0x7A JUMPI PUSH0 CALLDATALOAD PUSH1 0xE0 SHR DUP1 PUSH4 0x42A4FDA8 GT PUSH2 0x4D JUMPI DUP1 PUSH4 0x42A4FDA8 EQ PUSH2 0x163 JUMPI DUP1 PUSH4 0x75970193 EQ PUSH2 0x17F JUMPI DUP1 PUSH4 0xA6B03633 EQ PUSH2 0x1A7 JUMPI DUP1 PUSH4 0xC5675B10 EQ PUSH2 0x1D1 JUMPI PUSH2 0x7A JUMP JUMPDEST DUP1 PUSH4 0x7CA140D EQ PUSH2 0x7E JUMPI DUP1 PUSH4 0xFA91FA9 EQ PUSH2 0xA8 JUMPI DUP1 PUSH4 0x1227D335 EQ PUSH2 0xE5 JUMPI DUP1 PUSH4 0x141961BC EQ PUSH2 0x121 JUMPI JUMPDEST PUSH0 DUP1 REVERT JUMPDEST CALLVALUE DUP1 ISZERO PUSH2 0x89 JUMPI PUSH0 DUP1 REVERT JUMPDEST POP PUSH2 0x92 PUSH2 0x1F9 JUMP JUMPDEST PUSH1 0x40 MLOAD PUSH2 0x9F SWAP2 SWAP1 PUSH2 0x1253 JUMP JUMPDEST PUSH1 0x40 MLOAD DUP1 SWAP2 SUB SWAP1 RETURN JUMPDEST CALLVALUE DUP1 ISZERO PUSH2 0xB3 JUMPI PUSH0 DUP1 REVERT JUMPDEST POP PUSH2 0xCE PUSH1 0x4 DUP1 CALLDATASIZE SUB DUP2 ADD SWAP1 PUSH2 0xC9 SWAP2 SWAP1 PUSH2 0x129E JUMP JUMPDEST PUSH2 0x1FF JUMP JUMPDEST PUSH1 0x40 MLOAD PUSH2 0xDC SWAP3 SWAP2 SWAP1 PUSH2 0x1467 JUMP JUMPDEST PUSH1 0x40 MLOAD DUP1 SWAP2 SUB SWAP1 RETURN JUMPDEST CALLVALUE DUP1 ISZERO PUSH2 0xF0 JUMPI PUSH0 DUP1 REVERT JUMPDEST POP PUSH2 0x10B PUSH1 0x4 DUP1 CALLDATASIZE SUB DUP2 ADD SWAP1 PUSH2 0x106 SWAP2 SWAP1 PUSH2 0x1527 JUMP JUMPDEST PUSH2 0x2FC JUMP JUMPDEST PUSH1 0x40 MLOAD PUSH2 0x118 SWAP2 SWAP1 PUSH2 0x1253 JUMP JUMPDEST PUSH1 0x40 MLOAD DUP1 SWAP2 SUB SWAP1 RETURN JUMPDEST CALLVALUE DUP1 ISZERO PUSH2 0x12C JUMPI PUSH0 DUP1 REVERT JUMPDEST POP PUSH2 0x147 PUSH1 0x4 DUP1 CALLDATASIZE SUB DUP2 ADD SWAP1 PUSH2 0x142 SWAP2 SWAP1 PUSH2 0x129E JUMP JUMPDEST PUSH2 0x535 JUMP JUMPDEST PUSH1 0x40 MLOAD PUSH2 0x15A SWAP8 SWAP7 SWAP6 SWAP5 SWAP4 SWAP3 SWAP2 SWAP1 PUSH2 0x1697 JUMP JUMPDEST PUSH1 0x40 MLOAD DUP1 SWAP2 SUB SWAP1 RETURN JUMPDEST PUSH2 0x17D PUSH1 0x4 DUP1 CALLDATASIZE SUB DUP2 ADD SWAP1 PUSH2 0x178 SWAP2 SWAP1 PUSH2 0x129E JUMP JUMPDEST PUSH2 0x72F JUMP JUMPDEST STOP JUMPDEST CALLVALUE DUP1 ISZERO PUSH2 0x18A JUMPI PUSH0 DUP1 REVERT JUMPDEST POP PUSH2 0x1A5 PUSH1 0x4 DUP1 CALLDATASIZE SUB DUP2 ADD SWAP1 PUSH2 0x1A0 SWAP2 SWAP1 PUSH2 0x129E JUMP JUMPDEST PUSH2 0xA38 JUMP JUMPDEST STOP JUMPDEST CALLVALUE DUP1 ISZERO PUSH2 0x1B2 JUMPI PUSH0 DUP1 REVERT JUMPDEST POP PUSH2 0x1BB PUSH2 0xBC9 JUMP JUMPDEST PUSH1 0x40 MLOAD PUSH2 0x1C8 SWAP2 SWAP1 PUSH2 0x19E1 JUMP JUMPDEST PUSH1 0x40 MLOAD DUP1 SWAP2 SUB SWAP1 RETURN JUMPDEST CALLVALUE DUP1 ISZERO PUSH2 0x1DC JUMPI PUSH0 DUP1 REVERT JUMPDEST POP PUSH2 0x1F7 PUSH1 0x4 DUP1 CALLDATASIZE SUB DUP2 ADD SWAP1 PUSH2 0x1F2 SWAP2 SWAP1 PUSH2 0x1A01 JUMP JUMPDEST PUSH2 0xF97 JUMP JUMPDEST STOP JUMPDEST PUSH1 0x1 SLOAD DUP2 JUMP JUMPDEST PUSH1 0x60 DUP1 PUSH0 DUP1 PUSH0 DUP6 DUP2 MSTORE PUSH1 0x20 ADD SWAP1 DUP2 MSTORE PUSH1 0x20 ADD PUSH0 KECCAK256 SWAP1 POP DUP1 PUSH1 0x7 ADD DUP2 PUSH1 0x8 ADD DUP2 DUP1 SLOAD DUP1 PUSH1 0x20 MUL PUSH1 0x20 ADD PUSH1 0x40 MLOAD SWAP1 DUP2 ADD PUSH1 0x40 MSTORE DUP1 SWAP3 SWAP2 SWAP1 DUP2 DUP2 MSTORE PUSH1 0x20 ADD DUP3 DUP1 SLOAD DUP1 ISZERO PUSH2 0x29B JUMPI PUSH1 0x20 MUL DUP3 ADD SWAP2 SWAP1 PUSH0 MSTORE PUSH1 0x20 PUSH0 KECCAK256 SWAP1 JUMPDEST DUP2 PUSH0 SWAP1 SLOAD SWAP1 PUSH2 0x100 EXP SWAP1 DIV PUSH20 0xFFFFFFFFFFFFFFFFFFFFFFFFFFFFFFFFFFFFFFFF AND PUSH20 0xFFFFFFFFFFFFFFFFFFFFFFFFFFFFFFFFFFFFFFFF AND DUP2 MSTORE PUSH1 0x20 ADD SWAP1 PUSH1 0x1 ADD SWAP1 DUP1 DUP4 GT PUSH2 0x252 JUMPI JUMPDEST POP POP POP POP POP SWAP2 POP DUP1 DUP1 SLOAD DUP1 PUSH1 0x20 MUL PUSH1 0x20 ADD PUSH1 0x40 MLOAD SWAP1 DUP2 ADD PUSH1 0x40 MSTORE DUP1 SWAP3 SWAP2 SWAP1 DUP2 DUP2 MSTORE PUSH1 0x20 ADD DUP3 DUP1 SLOAD DUP1 ISZERO PUSH2 0x2EB JUMPI PUSH1 0x20 MUL DUP3 ADD SWAP2 SWAP1 PUSH0 MSTORE PUSH1 0x20 PUSH0 KECCAK256 SWAP1 JUMPDEST DUP2 SLOAD DUP2 MSTORE PUSH1 0x20 ADD SWAP1 PUSH1 0x1 ADD SWAP1 DUP1 DUP4 GT PUSH2 0x2D7 JUMPI JUMPDEST POP POP POP POP POP SWAP1 POP SWAP3 POP SWAP3 POP POP SWAP2 POP SWAP2 JUMP JUMPDEST PUSH0 DUP1 DUP5 GT PUSH2 0x33F JUMPI PUSH1 0x40 MLOAD PUSH32 0x8C379A000000000000000000000000000000000000000000000000000000000 DUP2 MSTORE PUSH1 0x4 ADD PUSH2 0x336 SWAP1 PUSH2 0x1B22 JUMP JUMPDEST PUSH1 0x40 MLOAD DUP1 SWAP2 SUB SWAP1 REVERT JUMPDEST PUSH0 DUP9 DUP9 SWAP1 POP GT PUSH2 0x384 JUMPI PUSH1 0x40 MLOAD PUSH32 0x8C379A000000000000000000000000000000000000000000000000000000000 DUP2 MSTORE PUSH1 0x4 ADD PUSH2 0x37B SWAP1 PUSH2 0x1B8A JUMP JUMPDEST PUSH1 0x40 MLOAD DUP1 SWAP2 SUB SWAP1 REVERT JUMPDEST PUSH0 DUP7 DUP7 SWAP1 POP GT PUSH2 0x3C9 JUMPI PUSH1 0x40 MLOAD PUSH32 0x8C379A000000000000000000000000000000000000000000000000000000000 DUP2 MSTORE PUSH1 0x4 ADD PUSH2 0x3C0 SWAP1 PUSH2 0x1BF2 JUMP JUMPDEST PUSH1 0x40 MLOAD DUP1 SWAP2 SUB SWAP1 REVERT JUMPDEST PUSH0 PUSH20 0xFFFFFFFFFFFFFFFFFFFFFFFFFFFFFFFFFFFFFFFF AND DUP10 PUSH20 0xFFFFFFFFFFFFFFFFFFFFFFFFFFFFFFFFFFFFFFFF AND SUB PUSH2 0x437 JUMPI PUSH1 0x40 MLOAD PUSH32 0x8C379A000000000000000000000000000000000000000000000000000000000 DUP2 MSTORE PUSH1 0x4 ADD PUSH2 0x42E SWAP1 PUSH2 0x1C5A JUMP JUMPDEST PUSH1 0x40 MLOAD DUP1 SWAP2 SUB SWAP1 REVERT JUMPDEST PUSH0 DUP1 PUSH0 PUSH1 0x1 SLOAD DUP2 MSTORE PUSH1 0x20 ADD SWAP1 DUP2 MSTORE PUSH1 0x20 ADD PUSH0 KECCAK256 SWAP1 POP DUP10 DUP2 PUSH0 ADD PUSH0 PUSH2 0x100 EXP DUP2 SLOAD DUP2 PUSH20 0xFFFFFFFFFFFFFFFFFFFFFFFFFFFFFFFFFFFFFFFF MUL NOT AND SWAP1 DUP4 PUSH20 0xFFFFFFFFFFFFFFFFFFFFFFFFFFFFFFFFFFFFFFFF AND MUL OR SWAP1 SSTORE POP DUP9 DUP9 DUP3 PUSH1 0x1 ADD SWAP2 DUP3 PUSH2 0x4A0 SWAP3 SWAP2 SWAP1 PUSH2 0x1EA9 JUMP JUMPDEST POP DUP7 DUP7 DUP3 PUSH1 0x2 ADD SWAP2 DUP3 PUSH2 0x4B4 SWAP3 SWAP2 SWAP1 PUSH2 0x1EA9 JUMP JUMPDEST POP DUP5 DUP2 PUSH1 0x3 ADD DUP2 SWAP1 SSTORE POP PUSH0 DUP2 PUSH1 0x4 ADD DUP2 SWAP1 SSTORE POP DUP4 DUP4 DUP3 PUSH1 0x5 ADD SWAP2 DUP3 PUSH2 0x4DA SWAP3 SWAP2 SWAP1 PUSH2 0x1EA9 JUMP JUMPDEST POP PUSH0 DUP2 PUSH1 0x6 ADD PUSH0 PUSH2 0x100 EXP DUP2 SLOAD DUP2 PUSH1 0xFF MUL NOT AND SWAP1 DUP4 ISZERO ISZERO MUL OR SWAP1 SSTORE POP PUSH2 0x50B PUSH1 0x1 DUP1 SLOAD PUSH2 0x111D SWAP1 SWAP2 SWAP1 PUSH4 0xFFFFFFFF AND JUMP JUMPDEST PUSH1 0x1 DUP2 SWAP1 SSTORE POP PUSH2 0x526 PUSH1 0x1 DUP1 SLOAD PUSH2 0x1132 SWAP1 SWAP2 SWAP1 PUSH4 0xFFFFFFFF AND JUMP JUMPDEST SWAP2 POP POP SWAP9 SWAP8 POP POP POP POP POP POP POP POP JUMP JUMPDEST PUSH0 PUSH1 0x20 MSTORE DUP1 PUSH0 MSTORE PUSH1 0x40 PUSH0 KECCAK256 PUSH0 SWAP2 POP SWAP1 POP DUP1 PUSH0 ADD PUSH0 SWAP1 SLOAD SWAP1 PUSH2 0x100 EXP SWAP1 DIV PUSH20 0xFFFFFFFFFFFFFFFFFFFFFFFFFFFFFFFFFFFFFFFF AND SWAP1 DUP1 PUSH1 0x1 ADD DUP1 SLOAD PUSH2 0x578 SWAP1 PUSH2 0x1CDC JUMP JUMPDEST DUP1 PUSH1 0x1F ADD PUSH1 0x20 DUP1 SWAP2 DIV MUL PUSH1 0x20 ADD PUSH1 0x40 MLOAD SWAP1 DUP2 ADD PUSH1 0x40 MSTORE DUP1 SWAP3 SWAP2 SWAP1 DUP2 DUP2 MSTORE PUSH1 0x20 ADD DUP3 DUP1 SLOAD PUSH2 0x5A4 SWAP1 PUSH2 0x1CDC JUMP JUMPDEST DUP1 ISZERO PUSH2 0x5EF JUMPI DUP1 PUSH1 0x1F LT PUSH2 0x5C6 JUMPI PUSH2 0x100 DUP1 DUP4 SLOAD DIV MUL DUP4 MSTORE SWAP2 PUSH1 0x20 ADD SWAP2 PUSH2 0x5EF JUMP JUMPDEST DUP3 ADD SWAP2 SWAP1 PUSH0 MSTORE PUSH1 0x20 PUSH0 KECCAK256 SWAP1 JUMPDEST DUP2 SLOAD DUP2 MSTORE SWAP1 PUSH1 0x1 ADD SWAP1 PUSH1 0x20 ADD DUP1 DUP4 GT PUSH2 0x5D2 JUMPI DUP3 SWAP1 SUB PUSH1 0x1F AND DUP3 ADD SWAP2 JUMPDEST POP POP POP POP POP SWAP1 DUP1 PUSH1 0x2 ADD DUP1 SLOAD PUSH2 0x604 SWAP1 PUSH2 0x1CDC JUMP JUMPDEST DUP1 PUSH1 0x1F ADD PUSH1 0x20 DUP1 SWAP2 DIV MUL PUSH1 0x20 ADD PUSH1 0x40 MLOAD SWAP1 DUP2 ADD PUSH1 0x40 MSTORE DUP1 SWAP3 SWAP2 SWAP1 DUP2 DUP2 MSTORE PUSH1 0x20 ADD DUP3 DUP1 SLOAD PUSH2 0x630 SWAP1 PUSH2 0x1CDC JUMP JUMPDEST DUP1 ISZERO PUSH2 0x67B JUMPI DUP1 PUSH1 0x1F LT PUSH2 0x652 JUMPI PUSH2 0x100 DUP1 DUP4 SLOAD DIV MUL DUP4 MSTORE SWAP2 PUSH1 0x20 ADD SWAP2 PUSH2 0x67B JUMP JUMPDEST DUP3 ADD SWAP2 SWAP1 PUSH0 MSTORE PUSH1 0x20 PUSH0 KECCAK256 SWAP1 JUMPDEST DUP2 SLOAD DUP2 MSTORE SWAP1 PUSH1 0x1 ADD SWAP1 PUSH1 0x20 ADD DUP1 DUP4 GT PUSH2 0x65E JUMPI DUP3 SWAP1 SUB PUSH1 0x1F AND DUP3 ADD SWAP2 JUMPDEST POP POP POP POP POP SWAP1 DUP1 PUSH1 0x3 ADD SLOAD SWAP1 DUP1 PUSH1 0x4 ADD SLOAD SWAP1 DUP1 PUSH1 0x5 ADD DUP1 SLOAD PUSH2 0x69C SWAP1 PUSH2 0x1CDC JUMP JUMPDEST DUP1 PUSH1 0x1F ADD PUSH1 0x20 DUP1 SWAP2 DIV MUL PUSH1 0x20 ADD PUSH1 0x40 MLOAD SWAP1 DUP2 ADD PUSH1 0x40 MSTORE DUP1 SWAP3 SWAP2 SWAP1 DUP2 DUP2 MSTORE PUSH1 0x20 ADD DUP3 DUP1 SLOAD PUSH2 0x6C8 SWAP1 PUSH2 0x1CDC JUMP JUMPDEST DUP1 ISZERO PUSH2 0x713 JUMPI DUP1 PUSH1 0x1F LT PUSH2 0x6EA JUMPI PUSH2 0x100 DUP1 DUP4 SLOAD DIV MUL DUP4 MSTORE SWAP2 PUSH1 0x20 ADD SWAP2 PUSH2 0x713 JUMP JUMPDEST DUP3 ADD SWAP2 SWAP1 PUSH0 MSTORE PUSH1 0x20 PUSH0 KECCAK256 SWAP1 JUMPDEST DUP2 SLOAD DUP2 MSTORE SWAP1 PUSH1 0x1 ADD SWAP1 PUSH1 0x20 ADD DUP1 DUP4 GT PUSH2 0x6F6 JUMPI DUP3 SWAP1 SUB PUSH1 0x1F AND DUP3 ADD SWAP2 JUMPDEST POP POP POP POP POP SWAP1 DUP1 PUSH1 0x6 ADD PUSH0 SWAP1 SLOAD SWAP1 PUSH2 0x100 EXP SWAP1 DIV PUSH1 0xFF AND SWAP1 POP DUP8 JUMP JUMPDEST PUSH0 CALLVALUE GT PUSH2 0x771 JUMPI PUSH1 0x40 MLOAD PUSH32 0x8C379A000000000000000000000000000000000000000000000000000000000 DUP2 MSTORE PUSH1 0x4 ADD PUSH2 0x768 SWAP1 PUSH2 0x1FE6 JUMP JUMPDEST PUSH1 0x40 MLOAD DUP1 SWAP2 SUB SWAP1 REVERT JUMPDEST PUSH0 DUP1 PUSH0 DUP4 DUP2 MSTORE PUSH1 0x20 ADD SWAP1 DUP2 MSTORE PUSH1 0x20 ADD PUSH0 KECCAK256 SWAP1 POP PUSH0 PUSH20 0xFFFFFFFFFFFFFFFFFFFFFFFFFFFFFFFFFFFFFFFF AND DUP2 PUSH0 ADD PUSH0 SWAP1 SLOAD SWAP1 PUSH2 0x100 EXP SWAP1 DIV PUSH20 0xFFFFFFFFFFFFFFFFFFFFFFFFFFFFFFFFFFFFFFFF AND PUSH20 0xFFFFFFFFFFFFFFFFFFFFFFFFFFFFFFFFFFFFFFFF AND SUB PUSH2 0x814 JUMPI PUSH1 0x40 MLOAD PUSH32 0x8C379A000000000000000000000000000000000000000000000000000000000 DUP2 MSTORE PUSH1 0x4 ADD PUSH2 0x80B SWAP1 PUSH2 0x204E JUMP JUMPDEST PUSH1 0x40 MLOAD DUP1 SWAP2 SUB SWAP1 REVERT JUMPDEST DUP1 PUSH1 0x6 ADD PUSH0 SWAP1 SLOAD SWAP1 PUSH2 0x100 EXP SWAP1 DIV PUSH1 0xFF AND ISZERO PUSH2 0x865 JUMPI PUSH1 0x40 MLOAD PUSH32 0x8C379A000000000000000000000000000000000000000000000000000000000 DUP2 MSTORE PUSH1 0x4 ADD PUSH2 0x85C SWAP1 PUSH2 0x20B6 JUMP JUMPDEST PUSH1 0x40 MLOAD DUP1 SWAP2 SUB SWAP1 REVERT JUMPDEST PUSH0 DUP2 PUSH1 0x4 ADD SLOAD SWAP1 POP DUP2 PUSH1 0x7 ADD CALLER SWAP1 DUP1 PUSH1 0x1 DUP2 SLOAD ADD DUP1 DUP3 SSTORE DUP1 SWAP2 POP POP PUSH1 0x1 SWAP1 SUB SWAP1 PUSH0 MSTORE PUSH1 0x20 PUSH0 KECCAK256 ADD PUSH0 SWAP1 SWAP2 SWAP1 SWAP2 SWAP1 SWAP2 PUSH2 0x100 EXP DUP2 SLOAD DUP2 PUSH20 0xFFFFFFFFFFFFFFFFFFFFFFFFFFFFFFFFFFFFFFFF MUL NOT AND SWAP1 DUP4 PUSH20 0xFFFFFFFFFFFFFFFFFFFFFFFFFFFFFFFFFFFFFFFF AND MUL OR SWAP1 SSTORE POP DUP2 PUSH1 0x8 ADD CALLVALUE SWAP1 DUP1 PUSH1 0x1 DUP2 SLOAD ADD DUP1 DUP3 SSTORE DUP1 SWAP2 POP POP PUSH1 0x1 SWAP1 SUB SWAP1 PUSH0 MSTORE PUSH1 0x20 PUSH0 KECCAK256 ADD PUSH0 SWAP1 SWAP2 SWAP1 SWAP2 SWAP1 SWAP2 POP SSTORE PUSH2 0x90E CALLVALUE DUP4 PUSH1 0x4 ADD SLOAD PUSH2 0x111D SWAP1 SWAP2 SWAP1 PUSH4 0xFFFFFFFF AND JUMP JUMPDEST DUP3 PUSH1 0x4 ADD DUP2 SWAP1 SSTORE POP DUP2 PUSH1 0x3 ADD SLOAD DUP3 PUSH1 0x4 ADD SLOAD LT PUSH2 0x942 JUMPI PUSH1 0x1 DUP3 PUSH1 0x6 ADD PUSH0 PUSH2 0x100 EXP DUP2 SLOAD DUP2 PUSH1 0xFF MUL NOT AND SWAP1 DUP4 ISZERO ISZERO MUL OR SWAP1 SSTORE POP JUMPDEST PUSH0 DUP3 PUSH0 ADD PUSH0 SWAP1 SLOAD SWAP1 PUSH2 0x100 EXP SWAP1 DIV PUSH20 0xFFFFFFFFFFFFFFFFFFFFFFFFFFFFFFFFFFFFFFFF AND PUSH20 0xFFFFFFFFFFFFFFFFFFFFFFFFFFFFFFFFFFFFFFFF AND CALLVALUE PUSH1 0x40 MLOAD PUSH2 0x989 SWAP1 PUSH2 0x2101 JUMP JUMPDEST PUSH0 PUSH1 0x40 MLOAD DUP1 DUP4 SUB DUP2 DUP6 DUP8 GAS CALL SWAP3 POP POP POP RETURNDATASIZE DUP1 PUSH0 DUP2 EQ PUSH2 0x9C3 JUMPI PUSH1 0x40 MLOAD SWAP2 POP PUSH1 0x1F NOT PUSH1 0x3F RETURNDATASIZE ADD AND DUP3 ADD PUSH1 0x40 MSTORE RETURNDATASIZE DUP3 MSTORE RETURNDATASIZE PUSH0 PUSH1 0x20 DUP5 ADD RETURNDATACOPY PUSH2 0x9C8 JUMP JUMPDEST PUSH1 0x60 SWAP2 POP JUMPDEST POP POP SWAP1 POP DUP1 PUSH2 0xA0C JUMPI PUSH1 0x40 MLOAD PUSH32 0x8C379A000000000000000000000000000000000000000000000000000000000 DUP2 MSTORE PUSH1 0x4 ADD PUSH2 0xA03 SWAP1 PUSH2 0x2185 JUMP JUMPDEST PUSH1 0x40 MLOAD DUP1 SWAP2 SUB SWAP1 REVERT JUMPDEST PUSH2 0xA1F CALLVALUE DUP4 PUSH2 0x111D SWAP1 SWAP2 SWAP1 PUSH4 0xFFFFFFFF AND JUMP JUMPDEST DUP4 PUSH1 0x4 ADD SLOAD EQ PUSH2 0xA32 JUMPI PUSH2 0xA31 PUSH2 0x21A3 JUMP JUMPDEST JUMPDEST POP POP POP POP JUMP JUMPDEST PUSH0 DUP1 PUSH0 DUP4 DUP2 MSTORE PUSH1 0x20 ADD SWAP1 DUP2 MSTORE PUSH1 0x20 ADD PUSH0 KECCAK256 SWAP1 POP DUP1 PUSH0 ADD PUSH0 SWAP1 SLOAD SWAP1 PUSH2 0x100 EXP SWAP1 DIV PUSH20 0xFFFFFFFFFFFFFFFFFFFFFFFFFFFFFFFFFFFFFFFF AND PUSH20 0xFFFFFFFFFFFFFFFFFFFFFFFFFFFFFFFFFFFFFFFF AND CALLER PUSH20 0xFFFFFFFFFFFFFFFFFFFFFFFFFFFFFFFFFFFFFFFF AND EQ PUSH2 0xADB JUMPI PUSH1 0x40 MLOAD PUSH32 0x8C379A000000000000000000000000000000000000000000000000000000000 DUP2 MSTORE PUSH1 0x4 ADD PUSH2 0xAD2 SWAP1 PUSH2 0x2240 JUMP JUMPDEST PUSH1 0x40 MLOAD DUP1 SWAP2 SUB SWAP1 REVERT JUMPDEST PUSH0 DUP2 PUSH1 0x4 ADD SLOAD EQ PUSH2 0xB21 JUMPI PUSH1 0x40 MLOAD PUSH32 0x8C379A000000000000000000000000000000000000000000000000000000000 DUP2 MSTORE PUSH1 0x4 ADD PUSH2 0xB18 SWAP1 PUSH2 0x22CE JUMP JUMPDEST PUSH1 0x40 MLOAD DUP1 SWAP2 SUB SWAP1 REVERT JUMPDEST PUSH0 DUP1 DUP4 DUP2 MSTORE PUSH1 0x20 ADD SWAP1 DUP2 MSTORE PUSH1 0x20 ADD PUSH0 KECCAK256 PUSH0 DUP1 DUP3 ADD PUSH0 PUSH2 0x100 EXP DUP2 SLOAD SWAP1 PUSH20 0xFFFFFFFFFFFFFFFFFFFFFFFFFFFFFFFFFFFFFFFF MUL NOT AND SWAP1 SSTORE PUSH1 0x1 DUP3 ADD PUSH0 PUSH2 0xB66 SWAP2 SWAP1 PUSH2 0x1147 JUMP JUMPDEST PUSH1 0x2 DUP3 ADD PUSH0 PUSH2 0xB75 SWAP2 SWAP1 PUSH2 0x1147 JUMP JUMPDEST PUSH1 0x3 DUP3 ADD PUSH0 SWAP1 SSTORE PUSH1 0x4 DUP3 ADD PUSH0 SWAP1 SSTORE PUSH1 0x5 DUP3 ADD PUSH0 PUSH2 0xB92 SWAP2 SWAP1 PUSH2 0x1147 JUMP JUMPDEST PUSH1 0x6 DUP3 ADD PUSH0 PUSH2 0x100 EXP DUP2 SLOAD SWAP1 PUSH1 0xFF MUL NOT AND SWAP1 SSTORE PUSH1 0x7 DUP3 ADD PUSH0 PUSH2 0xBB4 SWAP2 SWAP1 PUSH2 0x1184 JUMP JUMPDEST PUSH1 0x8 DUP3 ADD PUSH0 PUSH2 0xBC3 SWAP2 SWAP1 PUSH2 0x11A2 JUMP JUMPDEST POP POP POP POP JUMP JUMPDEST PUSH1 0x60 PUSH0 PUSH1 0x1 SLOAD PUSH8 0xFFFFFFFFFFFFFFFF DUP2 GT ISZERO PUSH2 0xBE8 JUMPI PUSH2 0xBE7 PUSH2 0x1C82 JUMP JUMPDEST JUMPDEST PUSH1 0x40 MLOAD SWAP1 DUP1 DUP3 MSTORE DUP1 PUSH1 0x20 MUL PUSH1 0x20 ADD DUP3 ADD PUSH1 0x40 MSTORE DUP1 ISZERO PUSH2 0xC21 JUMPI DUP2 PUSH1 0x20 ADD JUMPDEST PUSH2 0xC0E PUSH2 0x11C0 JUMP JUMPDEST DUP2 MSTORE PUSH1 0x20 ADD SWAP1 PUSH1 0x1 SWAP1 SUB SWAP1 DUP2 PUSH2 0xC06 JUMPI SWAP1 POP JUMPDEST POP SWAP1 POP PUSH0 JUMPDEST PUSH1 0x1 SLOAD DUP2 LT ISZERO PUSH2 0xF8F JUMPI PUSH0 DUP1 PUSH0 DUP4 DUP2 MSTORE PUSH1 0x20 ADD SWAP1 DUP2 MSTORE PUSH1 0x20 ADD PUSH0 KECCAK256 SWAP1 POP DUP1 PUSH1 0x40 MLOAD DUP1 PUSH2 0x120 ADD PUSH1 0x40 MSTORE SWAP1 DUP2 PUSH0 DUP3 ADD PUSH0 SWAP1 SLOAD SWAP1 PUSH2 0x100 EXP SWAP1 DIV PUSH20 0xFFFFFFFFFFFFFFFFFFFFFFFFFFFFFFFFFFFFFFFF AND PUSH20 0xFFFFFFFFFFFFFFFFFFFFFFFFFFFFFFFFFFFFFFFF AND PUSH20 0xFFFFFFFFFFFFFFFFFFFFFFFFFFFFFFFFFFFFFFFF AND DUP2 MSTORE PUSH1 0x20 ADD PUSH1 0x1 DUP3 ADD DUP1 SLOAD PUSH2 0xCB4 SWAP1 PUSH2 0x1CDC JUMP JUMPDEST DUP1 PUSH1 0x1F ADD PUSH1 0x20 DUP1 SWAP2 DIV MUL PUSH1 0x20 ADD PUSH1 0x40 MLOAD SWAP1 DUP2 ADD PUSH1 0x40 MSTORE DUP1 SWAP3 SWAP2 SWAP1 DUP2 DUP2 MSTORE PUSH1 0x20 ADD DUP3 DUP1 SLOAD PUSH2 0xCE0 SWAP1 PUSH2 0x1CDC JUMP JUMPDEST DUP1 ISZERO PUSH2 0xD2B JUMPI DUP1 PUSH1 0x1F LT PUSH2 0xD02 JUMPI PUSH2 0x100 DUP1 DUP4 SLOAD DIV MUL DUP4 MSTORE SWAP2 PUSH1 0x20 ADD SWAP2 PUSH2 0xD2B JUMP JUMPDEST DUP3 ADD SWAP2 SWAP1 PUSH0 MSTORE PUSH1 0x20 PUSH0 KECCAK256 SWAP1 JUMPDEST DUP2 SLOAD DUP2 MSTORE SWAP1 PUSH1 0x1 ADD SWAP1 PUSH1 0x20 ADD DUP1 DUP4 GT PUSH2 0xD0E JUMPI DUP3 SWAP1 SUB PUSH1 0x1F AND DUP3 ADD SWAP2 JUMPDEST POP POP POP POP POP DUP2 MSTORE PUSH1 0x20 ADD PUSH1 0x2 DUP3 ADD DUP1 SLOAD PUSH2 0xD44 SWAP1 PUSH2 0x1CDC JUMP JUMPDEST DUP1 PUSH1 0x1F ADD PUSH1 0x20 DUP1 SWAP2 DIV MUL PUSH1 0x20 ADD PUSH1 0x40 MLOAD SWAP1 DUP2 ADD PUSH1 0x40 MSTORE DUP1 SWAP3 SWAP2 SWAP1 DUP2 DUP2 MSTORE PUSH1 0x20 ADD DUP3 DUP1 SLOAD PUSH2 0xD70 SWAP1 PUSH2 0x1CDC JUMP JUMPDEST DUP1 ISZERO PUSH2 0xDBB JUMPI DUP1 PUSH1 0x1F LT PUSH2 0xD92 JUMPI PUSH2 0x100 DUP1 DUP4 SLOAD DIV MUL DUP4 MSTORE SWAP2 PUSH1 0x20 ADD SWAP2 PUSH2 0xDBB JUMP JUMPDEST DUP3 ADD SWAP2 SWAP1 PUSH0 MSTORE PUSH1 0x20 PUSH0 KECCAK256 SWAP1 JUMPDEST DUP2 SLOAD DUP2 MSTORE SWAP1 PUSH1 0x1 ADD SWAP1 PUSH1 0x20 ADD DUP1 DUP4 GT PUSH2 0xD9E JUMPI DUP3 SWAP1 SUB PUSH1 0x1F AND DUP3 ADD SWAP2 JUMPDEST POP POP POP POP POP DUP2 MSTORE PUSH1 0x20 ADD PUSH1 0x3 DUP3 ADD SLOAD DUP2 MSTORE PUSH1 0x20 ADD PUSH1 0x4 DUP3 ADD SLOAD DUP2 MSTORE PUSH1 0x20 ADD PUSH1 0x5 DUP3 ADD DUP1 SLOAD PUSH2 0xDE8 SWAP1 PUSH2 0x1CDC JUMP JUMPDEST DUP1 PUSH1 0x1F ADD PUSH1 0x20 DUP1 SWAP2 DIV MUL PUSH1 0x20 ADD PUSH1 0x40 MLOAD SWAP1 DUP2 ADD PUSH1 0x40 MSTORE DUP1 SWAP3 SWAP2 SWAP1 DUP2 DUP2 MSTORE PUSH1 0x20 ADD DUP3 DUP1 SLOAD PUSH2 0xE14 SWAP1 PUSH2 0x1CDC JUMP JUMPDEST DUP1 ISZERO PUSH2 0xE5F JUMPI DUP1 PUSH1 0x1F LT PUSH2 0xE36 JUMPI PUSH2 0x100 DUP1 DUP4 SLOAD DIV MUL DUP4 MSTORE SWAP2 PUSH1 0x20 ADD SWAP2 PUSH2 0xE5F JUMP JUMPDEST DUP3 ADD SWAP2 SWAP1 PUSH0 MSTORE PUSH1 0x20 PUSH0 KECCAK256 SWAP1 JUMPDEST DUP2 SLOAD DUP2 MSTORE SWAP1 PUSH1 0x1 ADD SWAP1 PUSH1 0x20 ADD DUP1 DUP4 GT PUSH2 0xE42 JUMPI DUP3 SWAP1 SUB PUSH1 0x1F AND DUP3 ADD SWAP2 JUMPDEST POP POP POP POP POP DUP2 MSTORE PUSH1 0x20 ADD PUSH1 0x6 DUP3 ADD PUSH0 SWAP1 SLOAD SWAP1 PUSH2 0x100 EXP SWAP1 DIV PUSH1 0xFF AND ISZERO ISZERO ISZERO ISZERO DUP2 MSTORE PUSH1 0x20 ADD PUSH1 0x7 DUP3 ADD DUP1 SLOAD DUP1 PUSH1 0x20 MUL PUSH1 0x20 ADD PUSH1 0x40 MLOAD SWAP1 DUP2 ADD PUSH1 0x40 MSTORE DUP1 SWAP3 SWAP2 SWAP1 DUP2 DUP2 MSTORE PUSH1 0x20 ADD DUP3 DUP1 SLOAD DUP1 ISZERO PUSH2 0xF04 JUMPI PUSH1 0x20 MUL DUP3 ADD SWAP2 SWAP1 PUSH0 MSTORE PUSH1 0x20 PUSH0 KECCAK256 SWAP1 JUMPDEST DUP2 PUSH0 SWAP1 SLOAD SWAP1 PUSH2 0x100 EXP SWAP1 DIV PUSH20 0xFFFFFFFFFFFFFFFFFFFFFFFFFFFFFFFFFFFFFFFF AND PUSH20 0xFFFFFFFFFFFFFFFFFFFFFFFFFFFFFFFFFFFFFFFF AND DUP2 MSTORE PUSH1 0x20 ADD SWAP1 PUSH1 0x1 ADD SWAP1 DUP1 DUP4 GT PUSH2 0xEBB JUMPI JUMPDEST POP POP POP POP POP DUP2 MSTORE PUSH1 0x20 ADD PUSH1 0x8 DUP3 ADD DUP1 SLOAD DUP1 PUSH1 0x20 MUL PUSH1 0x20 ADD PUSH1 0x40 MLOAD SWAP1 DUP2 ADD PUSH1 0x40 MSTORE DUP1 SWAP3 SWAP2 SWAP1 DUP2 DUP2 MSTORE PUSH1 0x20 ADD DUP3 DUP1 SLOAD DUP1 ISZERO PUSH2 0xF5A JUMPI PUSH1 0x20 MUL DUP3 ADD SWAP2 SWAP1 PUSH0 MSTORE PUSH1 0x20 PUSH0 KECCAK256 SWAP1 JUMPDEST DUP2 SLOAD DUP2 MSTORE PUSH1 0x20 ADD SWAP1 PUSH1 0x1 ADD SWAP1 DUP1 DUP4 GT PUSH2 0xF46 JUMPI JUMPDEST POP POP POP POP POP DUP2 MSTORE POP POP DUP4 DUP4 DUP2 MLOAD DUP2 LT PUSH2 0xF76 JUMPI PUSH2 0xF75 PUSH2 0x22EC JUMP JUMPDEST JUMPDEST PUSH1 0x20 MUL PUSH1 0x20 ADD ADD DUP2 SWAP1 MSTORE POP POP DUP1 DUP1 PUSH1 0x1 ADD SWAP2 POP POP PUSH2 0xC26 JUMP JUMPDEST POP DUP1 SWAP2 POP POP SWAP1 JUMP JUMPDEST PUSH0 DUP1 PUSH0 DUP11 DUP2 MSTORE PUSH1 0x20 ADD SWAP1 DUP2 MSTORE PUSH1 0x20 ADD PUSH0 KECCAK256 SWAP1 POP DUP1 PUSH0 ADD PUSH0 SWAP1 SLOAD SWAP1 PUSH2 0x100 EXP SWAP1 DIV PUSH20 0xFFFFFFFFFFFFFFFFFFFFFFFFFFFFFFFFFFFFFFFF AND PUSH20 0xFFFFFFFFFFFFFFFFFFFFFFFFFFFFFFFFFFFFFFFF AND CALLER PUSH20 0xFFFFFFFFFFFFFFFFFFFFFFFFFFFFFFFFFFFFFFFF AND EQ PUSH2 0x103A JUMPI PUSH1 0x40 MLOAD PUSH32 0x8C379A000000000000000000000000000000000000000000000000000000000 DUP2 MSTORE PUSH1 0x4 ADD PUSH2 0x1031 SWAP1 PUSH2 0x2389 JUMP JUMPDEST PUSH1 0x40 MLOAD DUP1 SWAP2 SUB SWAP1 REVERT JUMPDEST PUSH0 DUP5 GT PUSH2 0x107C JUMPI PUSH1 0x40 MLOAD PUSH32 0x8C379A000000000000000000000000000000000000000000000000000000000 DUP2 MSTORE PUSH1 0x4 ADD PUSH2 0x1073 SWAP1 PUSH2 0x1B22 JUMP JUMPDEST PUSH1 0x40 MLOAD DUP1 SWAP2 SUB SWAP1 REVERT JUMPDEST DUP1 PUSH1 0x6 ADD PUSH0 SWAP1 SLOAD SWAP1 PUSH2 0x100 EXP SWAP1 DIV PUSH1 0xFF AND ISZERO PUSH2 0x10CD JUMPI PUSH1 0x40 MLOAD PUSH32 0x8C379A000000000000000000000000000000000000000000000000000000000 DUP2 MSTORE PUSH1 0x4 ADD PUSH2 0x10C4 SWAP1 PUSH2 0x2417 JUMP JUMPDEST PUSH1 0x40 MLOAD DUP1 SWAP2 SUB SWAP1 REVERT JUMPDEST DUP8 DUP8 DUP3 PUSH1 0x1 ADD SWAP2 DUP3 PUSH2 0x10E0 SWAP3 SWAP2 SWAP1 PUSH2 0x1EA9 JUMP JUMPDEST POP DUP6 DUP6 DUP3 PUSH1 0x2 ADD SWAP2 DUP3 PUSH2 0x10F4 SWAP3 SWAP2 SWAP1 PUSH2 0x1EA9 JUMP JUMPDEST POP DUP4 DUP2 PUSH1 0x3 ADD DUP2 SWAP1 SSTORE POP DUP3 DUP3 DUP3 PUSH1 0x5 ADD SWAP2 DUP3 PUSH2 0x1111 SWAP3 SWAP2 SWAP1 PUSH2 0x1EA9 JUMP JUMPDEST POP POP POP POP POP POP POP POP POP POP JUMP JUMPDEST PUSH0 DUP2 DUP4 PUSH2 0x112A SWAP2 SWAP1 PUSH2 0x2462 JUMP JUMPDEST SWAP1 POP SWAP3 SWAP2 POP POP JUMP JUMPDEST PUSH0 DUP2 DUP4 PUSH2 0x113F SWAP2 SWAP1 PUSH2 0x2495 JUMP JUMPDEST SWAP1 POP SWAP3 SWAP2 POP POP JUMP JUMPDEST POP DUP1 SLOAD PUSH2 0x1153 SWAP1 PUSH2 0x1CDC JUMP JUMPDEST PUSH0 DUP3 SSTORE DUP1 PUSH1 0x1F LT PUSH2 0x1164 JUMPI POP PUSH2 0x1181 JUMP JUMPDEST PUSH1 0x1F ADD PUSH1 0x20 SWAP1 DIV SWAP1 PUSH0 MSTORE PUSH1 0x20 PUSH0 KECCAK256 SWAP1 DUP2 ADD SWAP1 PUSH2 0x1180 SWAP2 SWAP1 PUSH2 0x1220 JUMP JUMPDEST JUMPDEST POP JUMP JUMPDEST POP DUP1 SLOAD PUSH0 DUP3 SSTORE SWAP1 PUSH0 MSTORE PUSH1 0x20 PUSH0 KECCAK256 SWAP1 DUP2 ADD SWAP1 PUSH2 0x119F SWAP2 SWAP1 PUSH2 0x1220 JUMP JUMPDEST POP JUMP JUMPDEST POP DUP1 SLOAD PUSH0 DUP3 SSTORE SWAP1 PUSH0 MSTORE PUSH1 0x20 PUSH0 KECCAK256 SWAP1 DUP2 ADD SWAP1 PUSH2 0x11BD SWAP2 SWAP1 PUSH2 0x1220 JUMP JUMPDEST POP JUMP JUMPDEST PUSH1 0x40 MLOAD DUP1 PUSH2 0x120 ADD PUSH1 0x40 MSTORE DUP1 PUSH0 PUSH20 0xFFFFFFFFFFFFFFFFFFFFFFFFFFFFFFFFFFFFFFFF AND DUP2 MSTORE PUSH1 0x20 ADD PUSH1 0x60 DUP2 MSTORE PUSH1 0x20 ADD PUSH1 0x60 DUP2 MSTORE PUSH1 0x20 ADD PUSH0 DUP2 MSTORE PUSH1 0x20 ADD PUSH0 DUP2 MSTORE PUSH1 0x20 ADD PUSH1 0x60 DUP2 MSTORE PUSH1 0x20 ADD PUSH0 ISZERO ISZERO DUP2 MSTORE PUSH1 0x20 ADD PUSH1 0x60 DUP2 MSTORE PUSH1 0x20 ADD PUSH1 0x60 DUP2 MSTORE POP SWAP1 JUMP JUMPDEST JUMPDEST DUP1 DUP3 GT ISZERO PUSH2 0x1237 JUMPI PUSH0 DUP2 PUSH0 SWAP1 SSTORE POP PUSH1 0x1 ADD PUSH2 0x1221 JUMP JUMPDEST POP SWAP1 JUMP JUMPDEST PUSH0 DUP2 SWAP1 POP SWAP2 SWAP1 POP JUMP JUMPDEST PUSH2 0x124D DUP2 PUSH2 0x123B JUMP JUMPDEST DUP3 MSTORE POP POP JUMP JUMPDEST PUSH0 PUSH1 0x20 DUP3 ADD SWAP1 POP PUSH2 0x1266 PUSH0 DUP4 ADD DUP5 PUSH2 0x1244 JUMP JUMPDEST SWAP3 SWAP2 POP POP JUMP JUMPDEST PUSH0 DUP1 REVERT JUMPDEST PUSH0 DUP1 REVERT JUMPDEST PUSH2 0x127D DUP2 PUSH2 0x123B JUMP JUMPDEST DUP2 EQ PUSH2 0x1287 JUMPI PUSH0 DUP1 REVERT JUMPDEST POP JUMP JUMPDEST PUSH0 DUP2 CALLDATALOAD SWAP1 POP PUSH2 0x1298 DUP2 PUSH2 0x1274 JUMP JUMPDEST SWAP3 SWAP2 POP POP JUMP JUMPDEST PUSH0 PUSH1 0x20 DUP3 DUP5 SUB SLT ISZERO PUSH2 0x12B3 JUMPI PUSH2 0x12B2 PUSH2 0x126C JUMP JUMPDEST JUMPDEST PUSH0 PUSH2 0x12C0 DUP5 DUP3 DUP6 ADD PUSH2 0x128A JUMP JUMPDEST SWAP2 POP POP SWAP3 SWAP2 POP POP JUMP JUMPDEST PUSH0 DUP2 MLOAD SWAP1 POP SWAP2 SWAP1 POP JUMP JUMPDEST PUSH0 DUP3 DUP3 MSTORE PUSH1 0x20 DUP3 ADD SWAP1 POP SWAP3 SWAP2 POP POP JUMP JUMPDEST PUSH0 DUP2 SWAP1 POP PUSH1 0x20 DUP3 ADD SWAP1 POP SWAP2 SWAP1 POP JUMP JUMPDEST PUSH0 PUSH20 0xFFFFFFFFFFFFFFFFFFFFFFFFFFFFFFFFFFFFFFFF DUP3 AND SWAP1 POP SWAP2 SWAP1 POP JUMP JUMPDEST PUSH0 PUSH2 0x131B DUP3 PUSH2 0x12F2 JUMP JUMPDEST SWAP1 POP SWAP2 SWAP1 POP JUMP JUMPDEST PUSH2 0x132B DUP2 PUSH2 0x1311 JUMP JUMPDEST DUP3 MSTORE POP POP JUMP JUMPDEST PUSH0 PUSH2 0x133C DUP4 DUP4 PUSH2 0x1322 JUMP JUMPDEST PUSH1 0x20 DUP4 ADD SWAP1 POP SWAP3 SWAP2 POP POP JUMP JUMPDEST PUSH0 PUSH1 0x20 DUP3 ADD SWAP1 POP SWAP2 SWAP1 POP JUMP JUMPDEST PUSH0 PUSH2 0x135E DUP3 PUSH2 0x12C9 JUMP JUMPDEST PUSH2 0x1368 DUP2 DUP6 PUSH2 0x12D3 JUMP JUMPDEST SWAP4 POP PUSH2 0x1373 DUP4 PUSH2 0x12E3 JUMP JUMPDEST DUP1 PUSH0 JUMPDEST DUP4 DUP2 LT ISZERO PUSH2 0x13A3 JUMPI DUP2 MLOAD PUSH2 0x138A DUP9 DUP3 PUSH2 0x1331 JUMP JUMPDEST SWAP8 POP PUSH2 0x1395 DUP4 PUSH2 0x1348 JUMP JUMPDEST SWAP3 POP POP PUSH1 0x1 DUP2 ADD SWAP1 POP PUSH2 0x1376 JUMP JUMPDEST POP DUP6 SWAP4 POP POP POP POP SWAP3 SWAP2 POP POP JUMP JUMPDEST PUSH0 DUP2 MLOAD SWAP1 POP SWAP2 SWAP1 POP JUMP JUMPDEST PUSH0 DUP3 DUP3 MSTORE PUSH1 0x20 DUP3 ADD SWAP1 POP SWAP3 SWAP2 POP POP JUMP JUMPDEST PUSH0 DUP2 SWAP1 POP PUSH1 0x20 DUP3 ADD SWAP1 POP SWAP2 SWAP1 POP JUMP JUMPDEST PUSH2 0x13E2 DUP2 PUSH2 0x123B JUMP JUMPDEST DUP3 MSTORE POP POP JUMP JUMPDEST PUSH0 PUSH2 0x13F3 DUP4 DUP4 PUSH2 0x13D9 JUMP JUMPDEST PUSH1 0x20 DUP4 ADD SWAP1 POP SWAP3 SWAP2 POP POP JUMP JUMPDEST PUSH0 PUSH1 0x20 DUP3 ADD SWAP1 POP SWAP2 SWAP1 POP JUMP JUMPDEST PUSH0 PUSH2 0x1415 DUP3 PUSH2 0x13B0 JUMP JUMPDEST PUSH2 0x141F DUP2 DUP6 PUSH2 0x13BA JUMP JUMPDEST SWAP4 POP PUSH2 0x142A DUP4 PUSH2 0x13CA JUMP JUMPDEST DUP1 PUSH0 JUMPDEST DUP4 DUP2 LT ISZERO PUSH2 0x145A JUMPI DUP2 MLOAD PUSH2 0x1441 DUP9 DUP3 PUSH2 0x13E8 JUMP JUMPDEST SWAP8 POP PUSH2 0x144C DUP4 PUSH2 0x13FF JUMP JUMPDEST SWAP3 POP POP PUSH1 0x1 DUP2 ADD SWAP1 POP PUSH2 0x142D JUMP JUMPDEST POP DUP6 SWAP4 POP POP POP POP SWAP3 SWAP2 POP POP JUMP JUMPDEST PUSH0 PUSH1 0x40 DUP3 ADD SWAP1 POP DUP2 DUP2 SUB PUSH0 DUP4 ADD MSTORE PUSH2 0x147F DUP2 DUP6 PUSH2 0x1354 JUMP JUMPDEST SWAP1 POP DUP2 DUP2 SUB PUSH1 0x20 DUP4 ADD MSTORE PUSH2 0x1493 DUP2 DUP5 PUSH2 0x140B JUMP JUMPDEST SWAP1 POP SWAP4 SWAP3 POP POP POP JUMP JUMPDEST PUSH2 0x14A5 DUP2 PUSH2 0x1311 JUMP JUMPDEST DUP2 EQ PUSH2 0x14AF JUMPI PUSH0 DUP1 REVERT JUMPDEST POP JUMP JUMPDEST PUSH0 DUP2 CALLDATALOAD SWAP1 POP PUSH2 0x14C0 DUP2 PUSH2 0x149C JUMP JUMPDEST SWAP3 SWAP2 POP POP JUMP JUMPDEST PUSH0 DUP1 REVERT JUMPDEST PUSH0 DUP1 REVERT JUMPDEST PUSH0 DUP1 REVERT JUMPDEST PUSH0 DUP1 DUP4 PUSH1 0x1F DUP5 ADD SLT PUSH2 0x14E7 JUMPI PUSH2 0x14E6 PUSH2 0x14C6 JUMP JUMPDEST JUMPDEST DUP3 CALLDATALOAD SWAP1 POP PUSH8 0xFFFFFFFFFFFFFFFF DUP2 GT ISZERO PUSH2 0x1504 JUMPI PUSH2 0x1503 PUSH2 0x14CA JUMP JUMPDEST JUMPDEST PUSH1 0x20 DUP4 ADD SWAP2 POP DUP4 PUSH1 0x1 DUP3 MUL DUP4 ADD GT ISZERO PUSH2 0x1520 JUMPI PUSH2 0x151F PUSH2 0x14CE JUMP JUMPDEST JUMPDEST SWAP3 POP SWAP3 SWAP1 POP JUMP JUMPDEST PUSH0 DUP1 PUSH0 DUP1 PUSH0 DUP1 PUSH0 DUP1 PUSH1 0xA0 DUP10 DUP12 SUB SLT ISZERO PUSH2 0x1543 JUMPI PUSH2 0x1542 PUSH2 0x126C JUMP JUMPDEST JUMPDEST PUSH0 PUSH2 0x1550 DUP12 DUP3 DUP13 ADD PUSH2 0x14B2 JUMP JUMPDEST SWAP9 POP POP PUSH1 0x20 DUP10 ADD CALLDATALOAD PUSH8 0xFFFFFFFFFFFFFFFF DUP2 GT ISZERO PUSH2 0x1571 JUMPI PUSH2 0x1570 PUSH2 0x1270 JUMP JUMPDEST JUMPDEST PUSH2 0x157D DUP12 DUP3 DUP13 ADD PUSH2 0x14D2 JUMP JUMPDEST SWAP8 POP SWAP8 POP POP PUSH1 0x40 DUP10 ADD CALLDATALOAD PUSH8 0xFFFFFFFFFFFFFFFF DUP2 GT ISZERO PUSH2 0x15A0 JUMPI PUSH2 0x159F PUSH2 0x1270 JUMP JUMPDEST JUMPDEST PUSH2 0x15AC DUP12 DUP3 DUP13 ADD PUSH2 0x14D2 JUMP JUMPDEST SWAP6 POP SWAP6 POP POP PUSH1 0x60 PUSH2 0x15BF DUP12 DUP3 DUP13 ADD PUSH2 0x128A JUMP JUMPDEST SWAP4 POP POP PUSH1 0x80 DUP10 ADD CALLDATALOAD PUSH8 0xFFFFFFFFFFFFFFFF DUP2 GT ISZERO PUSH2 0x15E0 JUMPI PUSH2 0x15DF PUSH2 0x1270 JUMP JUMPDEST JUMPDEST PUSH2 0x15EC DUP12 DUP3 DUP13 ADD PUSH2 0x14D2 JUMP JUMPDEST SWAP3 POP SWAP3 POP POP SWAP3 SWAP6 SWAP9 POP SWAP3 SWAP6 SWAP9 SWAP1 SWAP4 SWAP7 POP JUMP JUMPDEST PUSH2 0x1607 DUP2 PUSH2 0x1311 JUMP JUMPDEST DUP3 MSTORE POP POP JUMP JUMPDEST PUSH0 DUP2 MLOAD SWAP1 POP SWAP2 SWAP1 POP JUMP JUMPDEST PUSH0 DUP3 DUP3 MSTORE PUSH1 0x20 DUP3 ADD SWAP1 POP SWAP3 SWAP2 POP POP JUMP JUMPDEST DUP3 DUP2 DUP4 MCOPY PUSH0 DUP4 DUP4 ADD MSTORE POP POP POP JUMP JUMPDEST PUSH0 PUSH1 0x1F NOT PUSH1 0x1F DUP4 ADD AND SWAP1 POP SWAP2 SWAP1 POP JUMP JUMPDEST PUSH0 PUSH2 0x164F DUP3 PUSH2 0x160D JUMP JUMPDEST PUSH2 0x1659 DUP2 DUP6 PUSH2 0x1617 JUMP JUMPDEST SWAP4 POP PUSH2 0x1669 DUP2 DUP6 PUSH1 0x20 DUP7 ADD PUSH2 0x1627 JUMP JUMPDEST PUSH2 0x1672 DUP2 PUSH2 0x1635 JUMP JUMPDEST DUP5 ADD SWAP2 POP POP SWAP3 SWAP2 POP POP JUMP JUMPDEST PUSH0 DUP2 ISZERO ISZERO SWAP1 POP SWAP2 SWAP1 POP JUMP JUMPDEST PUSH2 0x1691 DUP2 PUSH2 0x167D JUMP JUMPDEST DUP3 MSTORE POP POP JUMP JUMPDEST PUSH0 PUSH1 0xE0 DUP3 ADD SWAP1 POP PUSH2 0x16AA PUSH0 DUP4 ADD DUP11 PUSH2 0x15FE JUMP JUMPDEST DUP2 DUP2 SUB PUSH1 0x20 DUP4 ADD MSTORE PUSH2 0x16BC DUP2 DUP10 PUSH2 0x1645 JUMP JUMPDEST SWAP1 POP DUP2 DUP2 SUB PUSH1 0x40 DUP4 ADD MSTORE PUSH2 0x16D0 DUP2 DUP9 PUSH2 0x1645 JUMP JUMPDEST SWAP1 POP PUSH2 0x16DF PUSH1 0x60 DUP4 ADD DUP8 PUSH2 0x1244 JUMP JUMPDEST PUSH2 0x16EC PUSH1 0x80 DUP4 ADD DUP7 PUSH2 0x1244 JUMP JUMPDEST DUP2 DUP2 SUB PUSH1 0xA0 DUP4 ADD MSTORE PUSH2 0x16FE DUP2 DUP6 PUSH2 0x1645 JUMP JUMPDEST SWAP1 POP PUSH2 0x170D PUSH1 0xC0 DUP4 ADD DUP5 PUSH2 0x1688 JUMP JUMPDEST SWAP9 SWAP8 POP POP POP POP POP POP POP POP JUMP JUMPDEST PUSH0 DUP2 MLOAD SWAP1 POP SWAP2 SWAP1 POP JUMP JUMPDEST PUSH0 DUP3 DUP3 MSTORE PUSH1 0x20 DUP3 ADD SWAP1 POP SWAP3 SWAP2 POP POP JUMP JUMPDEST PUSH0 DUP2 SWAP1 POP PUSH1 0x20 DUP3 ADD SWAP1 POP SWAP2 SWAP1 POP JUMP JUMPDEST PUSH0 DUP3 DUP3 MSTORE PUSH1 0x20 DUP3 ADD SWAP1 POP SWAP3 SWAP2 POP POP JUMP JUMPDEST PUSH0 PUSH2 0x175C DUP3 PUSH2 0x160D JUMP JUMPDEST PUSH2 0x1766 DUP2 DUP6 PUSH2 0x1742 JUMP JUMPDEST SWAP4 POP PUSH2 0x1776 DUP2 DUP6 PUSH1 0x20 DUP7 ADD PUSH2 0x1627 JUMP JUMPDEST PUSH2 0x177F DUP2 PUSH2 0x1635 JUMP JUMPDEST DUP5 ADD SWAP2 POP POP SWAP3 SWAP2 POP POP JUMP JUMPDEST PUSH2 0x1793 DUP2 PUSH2 0x167D JUMP JUMPDEST DUP3 MSTORE POP POP JUMP JUMPDEST PUSH0 DUP3 DUP3 MSTORE PUSH1 0x20 DUP3 ADD SWAP1 POP SWAP3 SWAP2 POP POP JUMP JUMPDEST PUSH0 PUSH2 0x17B3 DUP3 PUSH2 0x12C9 JUMP JUMPDEST PUSH2 0x17BD DUP2 DUP6 PUSH2 0x1799 JUMP JUMPDEST SWAP4 POP PUSH2 0x17C8 DUP4 PUSH2 0x12E3 JUMP JUMPDEST DUP1 PUSH0 JUMPDEST DUP4 DUP2 LT ISZERO PUSH2 0x17F8 JUMPI DUP2 MLOAD PUSH2 0x17DF DUP9 DUP3 PUSH2 0x1331 JUMP JUMPDEST SWAP8 POP PUSH2 0x17EA DUP4 PUSH2 0x1348 JUMP JUMPDEST SWAP3 POP POP PUSH1 0x1 DUP2 ADD SWAP1 POP PUSH2 0x17CB JUMP JUMPDEST POP DUP6 SWAP4 POP POP POP POP SWAP3 SWAP2 POP POP JUMP JUMPDEST PUSH0 DUP3 DUP3 MSTORE PUSH1 0x20 DUP3 ADD SWAP1 POP SWAP3 SWAP2 POP POP JUMP JUMPDEST PUSH0 PUSH2 0x181F DUP3 PUSH2 0x13B0 JUMP JUMPDEST PUSH2 0x1829 DUP2 DUP6 PUSH2 0x1805 JUMP JUMPDEST SWAP4 POP PUSH2 0x1834 DUP4 PUSH2 0x13CA JUMP JUMPDEST DUP1 PUSH0 JUMPDEST DUP4 DUP2 LT ISZERO PUSH2 0x1864 JUMPI DUP2 MLOAD PUSH2 0x184B DUP9 DUP3 PUSH2 0x13E8 JUMP JUMPDEST SWAP8 POP PUSH2 0x1856 DUP4 PUSH2 0x13FF JUMP JUMPDEST SWAP3 POP POP PUSH1 0x1 DUP2 ADD SWAP1 POP PUSH2 0x1837 JUMP JUMPDEST POP DUP6 SWAP4 POP POP POP POP SWAP3 SWAP2 POP POP JUMP JUMPDEST PUSH0 PUSH2 0x120 DUP4 ADD PUSH0 DUP4 ADD MLOAD PUSH2 0x1887 PUSH0 DUP7 ADD DUP3 PUSH2 0x1322 JUMP JUMPDEST POP PUSH1 0x20 DUP4 ADD MLOAD DUP5 DUP3 SUB PUSH1 0x20 DUP7 ADD MSTORE PUSH2 0x189F DUP3 DUP3 PUSH2 0x1752 JUMP JUMPDEST SWAP2 POP POP PUSH1 0x40 DUP4 ADD MLOAD DUP5 DUP3 SUB PUSH1 0x40 DUP7 ADD MSTORE PUSH2 0x18B9 DUP3 DUP3 PUSH2 0x1752 JUMP JUMPDEST SWAP2 POP POP PUSH1 0x60 DUP4 ADD MLOAD PUSH2 0x18CE PUSH1 0x60 DUP7 ADD DUP3 PUSH2 0x13D9 JUMP JUMPDEST POP PUSH1 0x80 DUP4 ADD MLOAD PUSH2 0x18E1 PUSH1 0x80 DUP7 ADD DUP3 PUSH2 0x13D9 JUMP JUMPDEST POP PUSH1 0xA0 DUP4 ADD MLOAD DUP5 DUP3 SUB PUSH1 0xA0 DUP7 ADD MSTORE PUSH2 0x18F9 DUP3 DUP3 PUSH2 0x1752 JUMP JUMPDEST SWAP2 POP POP PUSH1 0xC0 DUP4 ADD MLOAD PUSH2 0x190E PUSH1 0xC0 DUP7 ADD DUP3 PUSH2 0x178A JUMP JUMPDEST POP PUSH1 0xE0 DUP4 ADD MLOAD DUP5 DUP3 SUB PUSH1 0xE0 DUP7 ADD MSTORE PUSH2 0x1926 DUP3 DUP3 PUSH2 0x17A9 JUMP JUMPDEST SWAP2 POP POP PUSH2 0x100 DUP4 ADD MLOAD DUP5 DUP3 SUB PUSH2 0x100 DUP7 ADD MSTORE PUSH2 0x1942 DUP3 DUP3 PUSH2 0x1815 JUMP JUMPDEST SWAP2 POP POP DUP1 SWAP2 POP POP SWAP3 SWAP2 POP POP JUMP JUMPDEST PUSH0 PUSH2 0x195A DUP4 DUP4 PUSH2 0x1871 JUMP JUMPDEST SWAP1 POP SWAP3 SWAP2 POP POP JUMP JUMPDEST PUSH0 PUSH1 0x20 DUP3 ADD SWAP1 POP SWAP2 SWAP1 POP JUMP JUMPDEST PUSH0 PUSH2 0x1978 DUP3 PUSH2 0x1719 JUMP JUMPDEST PUSH2 0x1982 DUP2 DUP6 PUSH2 0x1723 JUMP JUMPDEST SWAP4 POP DUP4 PUSH1 0x20 DUP3 MUL DUP6 ADD PUSH2 0x1994 DUP6 PUSH2 0x1733 JUMP JUMPDEST DUP1 PUSH0 JUMPDEST DUP6 DUP2 LT ISZERO PUSH2 0x19CF JUMPI DUP5 DUP5 SUB DUP10 MSTORE DUP2 MLOAD PUSH2 0x19B0 DUP6 DUP3 PUSH2 0x194F JUMP JUMPDEST SWAP5 POP PUSH2 0x19BB DUP4 PUSH2 0x1962 JUMP JUMPDEST SWAP3 POP PUSH1 0x20 DUP11 ADD SWAP10 POP POP PUSH1 0x1 DUP2 ADD SWAP1 POP PUSH2 0x1997 JUMP JUMPDEST POP DUP3 SWAP8 POP DUP8 SWAP6 POP POP POP POP POP POP SWAP3 SWAP2 POP POP JUMP JUMPDEST PUSH0 PUSH1 0x20 DUP3 ADD SWAP1 POP DUP2 DUP2 SUB PUSH0 DUP4 ADD MSTORE PUSH2 0x19F9 DUP2 DUP5 PUSH2 0x196E JUMP JUMPDEST SWAP1 POP SWAP3 SWAP2 POP POP JUMP JUMPDEST PUSH0 DUP1 PUSH0 DUP1 PUSH0 DUP1 PUSH0 DUP1 PUSH1 0xA0 DUP10 DUP12 SUB SLT ISZERO PUSH2 0x1A1D JUMPI PUSH2 0x1A1C PUSH2 0x126C JUMP JUMPDEST JUMPDEST PUSH0 PUSH2 0x1A2A DUP12 DUP3 DUP13 ADD PUSH2 0x128A JUMP JUMPDEST SWAP9 POP POP PUSH1 0x20 DUP10 ADD CALLDATALOAD PUSH8 0xFFFFFFFFFFFFFFFF DUP2 GT ISZERO PUSH2 0x1A4B JUMPI PUSH2 0x1A4A PUSH2 0x1270 JUMP JUMPDEST JUMPDEST PUSH2 0x1A57 DUP12 DUP3 DUP13 ADD PUSH2 0x14D2 JUMP JUMPDEST SWAP8 POP SWAP8 POP POP PUSH1 0x40 DUP10 ADD CALLDATALOAD PUSH8 0xFFFFFFFFFFFFFFFF DUP2 GT ISZERO PUSH2 0x1A7A JUMPI PUSH2 0x1A79 PUSH2 0x1270 JUMP JUMPDEST JUMPDEST PUSH2 0x1A86 DUP12 DUP3 DUP13 ADD PUSH2 0x14D2 JUMP JUMPDEST SWAP6 POP SWAP6 POP POP PUSH1 0x60 PUSH2 0x1A99 DUP12 DUP3 DUP13 ADD PUSH2 0x128A JUMP JUMPDEST SWAP4 POP POP PUSH1 0x80 DUP10 ADD CALLDATALOAD PUSH8 0xFFFFFFFFFFFFFFFF DUP2 GT ISZERO PUSH2 0x1ABA JUMPI PUSH2 0x1AB9 PUSH2 0x1270 JUMP JUMPDEST JUMPDEST PUSH2 0x1AC6 DUP12 DUP3 DUP13 ADD PUSH2 0x14D2 JUMP JUMPDEST SWAP3 POP SWAP3 POP POP SWAP3 SWAP6 SWAP9 POP SWAP3 SWAP6 SWAP9 SWAP1 SWAP4 SWAP7 POP JUMP JUMPDEST PUSH32 0x546172676574206D7573742062652067726561746572207468616E2030000000 PUSH0 DUP3 ADD MSTORE POP JUMP JUMPDEST PUSH0 PUSH2 0x1B0C PUSH1 0x1D DUP4 PUSH2 0x1617 JUMP JUMPDEST SWAP2 POP PUSH2 0x1B17 DUP3 PUSH2 0x1AD8 JUMP JUMPDEST PUSH1 0x20 DUP3 ADD SWAP1 POP SWAP2 SWAP1 POP JUMP JUMPDEST PUSH0 PUSH1 0x20 DUP3 ADD SWAP1 POP DUP2 DUP2 SUB PUSH0 DUP4 ADD MSTORE PUSH2 0x1B39 DUP2 PUSH2 0x1B00 JUMP JUMPDEST SWAP1 POP SWAP2 SWAP1 POP JUMP JUMPDEST PUSH32 0x5469746C652063616E6E6F7420626520656D7074790000000000000000000000 PUSH0 DUP3 ADD MSTORE POP JUMP JUMPDEST PUSH0 PUSH2 0x1B74 PUSH1 0x15 DUP4 PUSH2 0x1617 JUMP JUMPDEST SWAP2 POP PUSH2 0x1B7F DUP3 PUSH2 0x1B40 JUMP JUMPDEST PUSH1 0x20 DUP3 ADD SWAP1 POP SWAP2 SWAP1 POP JUMP JUMPDEST PUSH0 PUSH1 0x20 DUP3 ADD SWAP1 POP DUP2 DUP2 SUB PUSH0 DUP4 ADD MSTORE PUSH2 0x1BA1 DUP2 PUSH2 0x1B68 JUMP JUMPDEST SWAP1 POP SWAP2 SWAP1 POP JUMP JUMPDEST PUSH32 0x4465736372697074696F6E2063616E6E6F7420626520656D7074790000000000 PUSH0 DUP3 ADD MSTORE POP JUMP JUMPDEST PUSH0 PUSH2 0x1BDC PUSH1 0x1B DUP4 PUSH2 0x1617 JUMP JUMPDEST SWAP2 POP PUSH2 0x1BE7 DUP3 PUSH2 0x1BA8 JUMP JUMPDEST PUSH1 0x20 DUP3 ADD SWAP1 POP SWAP2 SWAP1 POP JUMP JUMPDEST PUSH0 PUSH1 0x20 DUP3 ADD SWAP1 POP DUP2 DUP2 SUB PUSH0 DUP4 ADD MSTORE PUSH2 0x1C09 DUP2 PUSH2 0x1BD0 JUMP JUMPDEST SWAP1 POP SWAP2 SWAP1 POP JUMP JUMPDEST PUSH32 0x496E76616C6964206F776E657220616464726573730000000000000000000000 PUSH0 DUP3 ADD MSTORE POP JUMP JUMPDEST PUSH0 PUSH2 0x1C44 PUSH1 0x15 DUP4 PUSH2 0x1617 JUMP JUMPDEST SWAP2 POP PUSH2 0x1C4F DUP3 PUSH2 0x1C10 JUMP JUMPDEST PUSH1 0x20 DUP3 ADD SWAP1 POP SWAP2 SWAP1 POP JUMP JUMPDEST PUSH0 PUSH1 0x20 DUP3 ADD SWAP1 POP DUP2 DUP2 SUB PUSH0 DUP4 ADD MSTORE PUSH2 0x1C71 DUP2 PUSH2 0x1C38 JUMP JUMPDEST SWAP1 POP SWAP2 SWAP1 POP JUMP JUMPDEST PUSH0 DUP3 SWAP1 POP SWAP3 SWAP2 POP POP JUMP JUMPDEST PUSH32 0x4E487B7100000000000000000000000000000000000000000000000000000000 PUSH0 MSTORE PUSH1 0x41 PUSH1 0x4 MSTORE PUSH1 0x24 PUSH0 REVERT JUMPDEST PUSH32 0x4E487B7100000000000000000000000000000000000000000000000000000000 PUSH0 MSTORE PUSH1 0x22 PUSH1 0x4 MSTORE PUSH1 0x24 PUSH0 REVERT JUMPDEST PUSH0 PUSH1 0x2 DUP3 DIV SWAP1 POP PUSH1 0x1 DUP3 AND DUP1 PUSH2 0x1CF3 JUMPI PUSH1 0x7F DUP3 AND SWAP2 POP JUMPDEST PUSH1 0x20 DUP3 LT DUP2 SUB PUSH2 0x1D06 JUMPI PUSH2 0x1D05 PUSH2 0x1CAF JUMP JUMPDEST JUMPDEST POP SWAP2 SWAP1 POP JUMP JUMPDEST PUSH0 DUP2 SWAP1 POP DUP2 PUSH0 MSTORE PUSH1 0x20 PUSH0 KECCAK256 SWAP1 POP SWAP2 SWAP1 POP JUMP JUMPDEST PUSH0 PUSH1 0x20 PUSH1 0x1F DUP4 ADD DIV SWAP1 POP SWAP2 SWAP1 POP JUMP JUMPDEST PUSH0 DUP3 DUP3 SHL SWAP1 POP SWAP3 SWAP2 POP POP JUMP JUMPDEST PUSH0 PUSH1 0x8 DUP4 MUL PUSH2 0x1D68 PUSH32 0xFFFFFFFFFFFFFFFFFFFFFFFFFFFFFFFFFFFFFFFFFFFFFFFFFFFFFFFFFFFFFFFF DUP3 PUSH2 0x1D2D JUMP JUMPDEST PUSH2 0x1D72 DUP7 DUP4 PUSH2 0x1D2D JUMP JUMPDEST SWAP6 POP DUP1 NOT DUP5 AND SWAP4 POP DUP1 DUP7 AND DUP5 OR SWAP3 POP POP POP SWAP4 SWAP3 POP POP POP JUMP JUMPDEST PUSH0 DUP2 SWAP1 POP SWAP2 SWAP1 POP JUMP JUMPDEST PUSH0 PUSH2 0x1DAD PUSH2 0x1DA8 PUSH2 0x1DA3 DUP5 PUSH2 0x123B JUMP JUMPDEST PUSH2 0x1D8A JUMP JUMPDEST PUSH2 0x123B JUMP JUMPDEST SWAP1 POP SWAP2 SWAP1 POP JUMP JUMPDEST PUSH0 DUP2 SWAP1 POP SWAP2 SWAP1 POP JUMP JUMPDEST PUSH2 0x1DC6 DUP4 PUSH2 0x1D93 JUMP JUMPDEST PUSH2 0x1DDA PUSH2 0x1DD2 DUP3 PUSH2 0x1DB4 JUMP JUMPDEST DUP5 DUP5 SLOAD PUSH2 0x1D39 JUMP JUMPDEST DUP3 SSTORE POP POP POP POP JUMP JUMPDEST PUSH0 SWAP1 JUMP JUMPDEST PUSH2 0x1DEE PUSH2 0x1DE2 JUMP JUMPDEST PUSH2 0x1DF9 DUP2 DUP5 DUP5 PUSH2 0x1DBD JUMP JUMPDEST POP POP POP JUMP JUMPDEST JUMPDEST DUP2 DUP2 LT ISZERO PUSH2 0x1E1C JUMPI PUSH2 0x1E11 PUSH0 DUP3 PUSH2 0x1DE6 JUMP JUMPDEST PUSH1 0x1 DUP2 ADD SWAP1 POP PUSH2 0x1DFF JUMP JUMPDEST POP POP JUMP JUMPDEST PUSH1 0x1F DUP3 GT ISZERO PUSH2 0x1E61 JUMPI PUSH2 0x1E32 DUP2 PUSH2 0x1D0C JUMP JUMPDEST PUSH2 0x1E3B DUP5 PUSH2 0x1D1E JUMP JUMPDEST DUP2 ADD PUSH1 0x20 DUP6 LT ISZERO PUSH2 0x1E4A JUMPI DUP2 SWAP1 POP JUMPDEST PUSH2 0x1E5E PUSH2 0x1E56 DUP6 PUSH2 0x1D1E JUMP JUMPDEST DUP4 ADD DUP3 PUSH2 0x1DFE JUMP JUMPDEST POP POP JUMPDEST POP POP POP JUMP JUMPDEST PUSH0 DUP3 DUP3 SHR SWAP1 POP SWAP3 SWAP2 POP POP JUMP JUMPDEST PUSH0 PUSH2 0x1E81 PUSH0 NOT DUP5 PUSH1 0x8 MUL PUSH2 0x1E66 JUMP JUMPDEST NOT DUP1 DUP4 AND SWAP2 POP POP SWAP3 SWAP2 POP POP JUMP JUMPDEST PUSH0 PUSH2 0x1E99 DUP4 DUP4 PUSH2 0x1E72 JUMP JUMPDEST SWAP2 POP DUP3 PUSH1 0x2 MUL DUP3 OR SWAP1 POP SWAP3 SWAP2 POP POP JUMP JUMPDEST PUSH2 0x1EB3 DUP4 DUP4 PUSH2 0x1C78 JUMP JUMPDEST PUSH8 0xFFFFFFFFFFFFFFFF DUP2 GT ISZERO PUSH2 0x1ECC JUMPI PUSH2 0x1ECB PUSH2 0x1C82 JUMP JUMPDEST JUMPDEST PUSH2 0x1ED6 DUP3 SLOAD PUSH2 0x1CDC JUMP JUMPDEST PUSH2 0x1EE1 DUP3 DUP3 DUP6 PUSH2 0x1E20 JUMP JUMPDEST PUSH0 PUSH1 0x1F DUP4 GT PUSH1 0x1 DUP2 EQ PUSH2 0x1F0E JUMPI PUSH0 DUP5 ISZERO PUSH2 0x1EFC JUMPI DUP3 DUP8 ADD CALLDATALOAD SWAP1 POP JUMPDEST PUSH2 0x1F06 DUP6 DUP3 PUSH2 0x1E8E JUMP JUMPDEST DUP7 SSTORE POP PUSH2 0x1F6D JUMP JUMPDEST PUSH1 0x1F NOT DUP5 AND PUSH2 0x1F1C DUP7 PUSH2 0x1D0C JUMP JUMPDEST PUSH0 JUMPDEST DUP3 DUP2 LT ISZERO PUSH2 0x1F43 JUMPI DUP5 DUP10 ADD CALLDATALOAD DUP3 SSTORE PUSH1 0x1 DUP3 ADD SWAP2 POP PUSH1 0x20 DUP6 ADD SWAP5 POP PUSH1 0x20 DUP2 ADD SWAP1 POP PUSH2 0x1F1E JUMP JUMPDEST DUP7 DUP4 LT ISZERO PUSH2 0x1F60 JUMPI DUP5 DUP10 ADD CALLDATALOAD PUSH2 0x1F5C PUSH1 0x1F DUP10 AND DUP3 PUSH2 0x1E72 JUMP JUMPDEST DUP4 SSTORE POP JUMPDEST PUSH1 0x1 PUSH1 0x2 DUP9 MUL ADD DUP9 SSTORE POP POP POP JUMPDEST POP POP POP POP POP POP POP JUMP JUMPDEST PUSH32 0x446F6E6174696F6E20616D6F756E74206D757374206265206772656174657220 PUSH0 DUP3 ADD MSTORE PUSH32 0x7468616E20300000000000000000000000000000000000000000000000000000 PUSH1 0x20 DUP3 ADD MSTORE POP JUMP JUMPDEST PUSH0 PUSH2 0x1FD0 PUSH1 0x26 DUP4 PUSH2 0x1617 JUMP JUMPDEST SWAP2 POP PUSH2 0x1FDB DUP3 PUSH2 0x1F76 JUMP JUMPDEST PUSH1 0x40 DUP3 ADD SWAP1 POP SWAP2 SWAP1 POP JUMP JUMPDEST PUSH0 PUSH1 0x20 DUP3 ADD SWAP1 POP DUP2 DUP2 SUB PUSH0 DUP4 ADD MSTORE PUSH2 0x1FFD DUP2 PUSH2 0x1FC4 JUMP JUMPDEST SWAP1 POP SWAP2 SWAP1 POP JUMP JUMPDEST PUSH32 0x43616D706169676E20646F6573206E6F74206578697374000000000000000000 PUSH0 DUP3 ADD MSTORE POP JUMP JUMPDEST PUSH0 PUSH2 0x2038 PUSH1 0x17 DUP4 PUSH2 0x1617 JUMP JUMPDEST SWAP2 POP PUSH2 0x2043 DUP3 PUSH2 0x2004 JUMP JUMPDEST PUSH1 0x20 DUP3 ADD SWAP1 POP SWAP2 SWAP1 POP JUMP JUMPDEST PUSH0 PUSH1 0x20 DUP3 ADD SWAP1 POP DUP2 DUP2 SUB PUSH0 DUP4 ADD MSTORE PUSH2 0x2065 DUP2 PUSH2 0x202C JUMP JUMPDEST SWAP1 POP SWAP2 SWAP1 POP JUMP JUMPDEST PUSH32 0x43616D706169676E20616C726561647920636F6D706C65746564000000000000 PUSH0 DUP3 ADD MSTORE POP JUMP JUMPDEST PUSH0 PUSH2 0x20A0 PUSH1 0x1A DUP4 PUSH2 0x1617 JUMP JUMPDEST SWAP2 POP PUSH2 0x20AB DUP3 PUSH2 0x206C JUMP JUMPDEST PUSH1 0x20 DUP3 ADD SWAP1 POP SWAP2 SWAP1 POP JUMP JUMPDEST PUSH0 PUSH1 0x20 DUP3 ADD SWAP1 POP DUP2 DUP2 SUB PUSH0 DUP4 ADD MSTORE PUSH2 0x20CD DUP2 PUSH2 0x2094 JUMP JUMPDEST SWAP1 POP SWAP2 SWAP1 POP JUMP JUMPDEST PUSH0 DUP2 SWAP1 POP SWAP3 SWAP2 POP POP JUMP JUMPDEST POP JUMP JUMPDEST PUSH0 PUSH2 0x20EC PUSH0 DUP4 PUSH2 0x20D4 JUMP JUMPDEST SWAP2 POP PUSH2 0x20F7 DUP3 PUSH2 0x20DE JUMP JUMPDEST PUSH0 DUP3 ADD SWAP1 POP SWAP2 SWAP1 POP JUMP JUMPDEST PUSH0 PUSH2 0x210B DUP3 PUSH2 0x20E1 JUMP JUMPDEST SWAP2 POP DUP2 SWAP1 POP SWAP2 SWAP1 POP JUMP JUMPDEST PUSH32 0x4661696C656420746F2073656E6420457468657220746F2063616D706169676E PUSH0 DUP3 ADD MSTORE PUSH32 0x206F776E65720000000000000000000000000000000000000000000000000000 PUSH1 0x20 DUP3 ADD MSTORE POP JUMP JUMPDEST PUSH0 PUSH2 0x216F PUSH1 0x26 DUP4 PUSH2 0x1617 JUMP JUMPDEST SWAP2 POP PUSH2 0x217A DUP3 PUSH2 0x2115 JUMP JUMPDEST PUSH1 0x40 DUP3 ADD SWAP1 POP SWAP2 SWAP1 POP JUMP JUMPDEST PUSH0 PUSH1 0x20 DUP3 ADD SWAP1 POP DUP2 DUP2 SUB PUSH0 DUP4 ADD MSTORE PUSH2 0x219C DUP2 PUSH2 0x2163 JUMP JUMPDEST SWAP1 POP SWAP2 SWAP1 POP JUMP JUMPDEST PUSH32 0x4E487B7100000000000000000000000000000000000000000000000000000000 PUSH0 MSTORE PUSH1 0x1 PUSH1 0x4 MSTORE PUSH1 0x24 PUSH0 REVERT JUMPDEST PUSH32 0x4F6E6C79207468652063616D706169676E206F776E65722063616E2064656C65 PUSH0 DUP3 ADD MSTORE PUSH32 0x7465000000000000000000000000000000000000000000000000000000000000 PUSH1 0x20 DUP3 ADD MSTORE POP JUMP JUMPDEST PUSH0 PUSH2 0x222A PUSH1 0x22 DUP4 PUSH2 0x1617 JUMP JUMPDEST SWAP2 POP PUSH2 0x2235 DUP3 PUSH2 0x21D0 JUMP JUMPDEST PUSH1 0x40 DUP3 ADD SWAP1 POP SWAP2 SWAP1 POP JUMP JUMPDEST PUSH0 PUSH1 0x20 DUP3 ADD SWAP1 POP DUP2 DUP2 SUB PUSH0 DUP4 ADD MSTORE PUSH2 0x2257 DUP2 PUSH2 0x221E JUMP JUMPDEST SWAP1 POP SWAP2 SWAP1 POP JUMP JUMPDEST PUSH32 0x43616E6E6F742064656C65746520612063616D706169676E2077697468206675 PUSH0 DUP3 ADD MSTORE PUSH32 0x6E64730000000000000000000000000000000000000000000000000000000000 PUSH1 0x20 DUP3 ADD MSTORE POP JUMP JUMPDEST PUSH0 PUSH2 0x22B8 PUSH1 0x23 DUP4 PUSH2 0x1617 JUMP JUMPDEST SWAP2 POP PUSH2 0x22C3 DUP3 PUSH2 0x225E JUMP JUMPDEST PUSH1 0x40 DUP3 ADD SWAP1 POP SWAP2 SWAP1 POP JUMP JUMPDEST PUSH0 PUSH1 0x20 DUP3 ADD SWAP1 POP DUP2 DUP2 SUB PUSH0 DUP4 ADD MSTORE PUSH2 0x22E5 DUP2 PUSH2 0x22AC JUMP JUMPDEST SWAP1 POP SWAP2 SWAP1 POP JUMP JUMPDEST PUSH32 0x4E487B7100000000000000000000000000000000000000000000000000000000 PUSH0 MSTORE PUSH1 0x32 PUSH1 0x4 MSTORE PUSH1 0x24 PUSH0 REVERT JUMPDEST PUSH32 0x4F6E6C79207468652063616D706169676E206F776E65722063616E2075706461 PUSH0 DUP3 ADD MSTORE PUSH32 0x7465000000000000000000000000000000000000000000000000000000000000 PUSH1 0x20 DUP3 ADD MSTORE POP JUMP JUMPDEST PUSH0 PUSH2 0x2373 PUSH1 0x22 DUP4 PUSH2 0x1617 JUMP JUMPDEST SWAP2 POP PUSH2 0x237E DUP3 PUSH2 0x2319 JUMP JUMPDEST PUSH1 0x40 DUP3 ADD SWAP1 POP SWAP2 SWAP1 POP JUMP JUMPDEST PUSH0 PUSH1 0x20 DUP3 ADD SWAP1 POP DUP2 DUP2 SUB PUSH0 DUP4 ADD MSTORE PUSH2 0x23A0 DUP2 PUSH2 0x2367 JUMP JUMPDEST SWAP1 POP SWAP2 SWAP1 POP JUMP JUMPDEST PUSH32 0x43616E6E6F7420757064617465206120636F6D706C657465642063616D706169 PUSH0 DUP3 ADD MSTORE PUSH32 0x676E000000000000000000000000000000000000000000000000000000000000 PUSH1 0x20 DUP3 ADD MSTORE POP JUMP JUMPDEST PUSH0 PUSH2 0x2401 PUSH1 0x22 DUP4 PUSH2 0x1617 JUMP JUMPDEST SWAP2 POP PUSH2 0x240C DUP3 PUSH2 0x23A7 JUMP JUMPDEST PUSH1 0x40 DUP3 ADD SWAP1 POP SWAP2 SWAP1 POP JUMP JUMPDEST PUSH0 PUSH1 0x20 DUP3 ADD SWAP1 POP DUP2 DUP2 SUB PUSH0 DUP4 ADD MSTORE PUSH2 0x242E DUP2 PUSH2 0x23F5 JUMP JUMPDEST SWAP1 POP SWAP2 SWAP1 POP JUMP JUMPDEST PUSH32 0x4E487B7100000000000000000000000000000000000000000000000000000000 PUSH0 MSTORE PUSH1 0x11 PUSH1 0x4 MSTORE PUSH1 0x24 PUSH0 REVERT JUMPDEST PUSH0 PUSH2 0x246C DUP3 PUSH2 0x123B JUMP JUMPDEST SWAP2 POP PUSH2 0x2477 DUP4 PUSH2 0x123B JUMP JUMPDEST SWAP3 POP DUP3 DUP3 ADD SWAP1 POP DUP1 DUP3 GT ISZERO PUSH2 0x248F JUMPI PUSH2 0x248E PUSH2 0x2435 JUMP JUMPDEST JUMPDEST SWAP3 SWAP2 POP POP JUMP JUMPDEST PUSH0 PUSH2 0x249F DUP3 PUSH2 0x123B JUMP JUMPDEST SWAP2 POP PUSH2 0x24AA DUP4 PUSH2 0x123B JUMP JUMPDEST SWAP3 POP DUP3 DUP3 SUB SWAP1 POP DUP2 DUP2 GT ISZERO PUSH2 0x24C2 JUMPI PUSH2 0x24C1 PUSH2 0x2435 JUMP JUMPDEST JUMPDEST SWAP3 SWAP2 POP POP JUMP INVALID LOG2 PUSH5 0x6970667358 0x22 SLT KECCAK256 0xC1 BALANCE 0x23 0xB8 PUSH7 0x482B785CDAAA0A DUP9 PUSH21 0x94F6359A7113BE76AD4D5DF172C235996EB264736F PUSH13 0x634300081A0033000000000000 "
				},
				"gasEstimates": {
					"creation": {
						"codeDepositCost": "1894000",
						"executionCost": "7001",
						"totalCost": "1901001"
					},
					"external": {
						"campaigns(uint256)": "infinite",
						"createCampaign(address,string,string,uint256,string)": "infinite",
						"deleteCampaign(uint256)": "infinite",
						"donateToCampaign(uint256)": "infinite",
						"getCampaigns()": "infinite",
						"getDonators(uint256)": "infinite",
						"numberOfCampaigns()": "2426",
						"updateCampaign(uint256,string,string,uint256,string)": "infinite"
					}
				},
				"methodIdentifiers": {
					"campaigns(uint256)": "141961bc",
					"createCampaign(address,string,string,uint256,string)": "1227d335",
					"deleteCampaign(uint256)": "75970193",
					"donateToCampaign(uint256)": "42a4fda8",
					"getCampaigns()": "a6b03633",
					"getDonators(uint256)": "0fa91fa9",
					"numberOfCampaigns()": "07ca140d",
					"updateCampaign(uint256,string,string,uint256,string)": "c5675b10"
				}
			},
			"storageLayout": {
				"storage": [
					{
						"astId": 343,
						"contract": "contracts/CrowdFunding.sol:CrowdFunding",
						"label": "campaigns",
						"offset": 0,
						"slot": "0",
						"type": "t_mapping(t_uint256,t_struct(Campaign)338_storage)"
					},
					{
						"astId": 346,
						"contract": "contracts/CrowdFunding.sol:CrowdFunding",
						"label": "numberOfCampaigns",
						"offset": 0,
						"slot": "1",
						"type": "t_uint256"
					}
				],
				"types": {
					"t_address": {
						"encoding": "inplace",
						"label": "address",
						"numberOfBytes": "20"
					},
					"t_array(t_address)dyn_storage": {
						"base": "t_address",
						"encoding": "dynamic_array",
						"label": "address[]",
						"numberOfBytes": "32"
					},
					"t_array(t_uint256)dyn_storage": {
						"base": "t_uint256",
						"encoding": "dynamic_array",
						"label": "uint256[]",
						"numberOfBytes": "32"
					},
					"t_bool": {
						"encoding": "inplace",
						"label": "bool",
						"numberOfBytes": "1"
					},
					"t_mapping(t_uint256,t_struct(Campaign)338_storage)": {
						"encoding": "mapping",
						"key": "t_uint256",
						"label": "mapping(uint256 => struct CrowdFunding.Campaign)",
						"numberOfBytes": "32",
						"value": "t_struct(Campaign)338_storage"
					},
					"t_string_storage": {
						"encoding": "bytes",
						"label": "string",
						"numberOfBytes": "32"
					},
					"t_struct(Campaign)338_storage": {
						"encoding": "inplace",
						"label": "struct CrowdFunding.Campaign",
						"members": [
							{
								"astId": 319,
								"contract": "contracts/CrowdFunding.sol:CrowdFunding",
								"label": "owner",
								"offset": 0,
								"slot": "0",
								"type": "t_address"
							},
							{
								"astId": 321,
								"contract": "contracts/CrowdFunding.sol:CrowdFunding",
								"label": "title",
								"offset": 0,
								"slot": "1",
								"type": "t_string_storage"
							},
							{
								"astId": 323,
								"contract": "contracts/CrowdFunding.sol:CrowdFunding",
								"label": "description",
								"offset": 0,
								"slot": "2",
								"type": "t_string_storage"
							},
							{
								"astId": 325,
								"contract": "contracts/CrowdFunding.sol:CrowdFunding",
								"label": "target",
								"offset": 0,
								"slot": "3",
								"type": "t_uint256"
							},
							{
								"astId": 327,
								"contract": "contracts/CrowdFunding.sol:CrowdFunding",
								"label": "amountCollected",
								"offset": 0,
								"slot": "4",
								"type": "t_uint256"
							},
							{
								"astId": 329,
								"contract": "contracts/CrowdFunding.sol:CrowdFunding",
								"label": "image",
								"offset": 0,
								"slot": "5",
								"type": "t_string_storage"
							},
							{
								"astId": 331,
								"contract": "contracts/CrowdFunding.sol:CrowdFunding",
								"label": "completed",
								"offset": 0,
								"slot": "6",
								"type": "t_bool"
							},
							{
								"astId": 334,
								"contract": "contracts/CrowdFunding.sol:CrowdFunding",
								"label": "donators",
								"offset": 0,
								"slot": "7",
								"type": "t_array(t_address)dyn_storage"
							},
							{
								"astId": 337,
								"contract": "contracts/CrowdFunding.sol:CrowdFunding",
								"label": "donations",
								"offset": 0,
								"slot": "8",
								"type": "t_array(t_uint256)dyn_storage"
							}
						],
						"numberOfBytes": "288"
					},
					"t_uint256": {
						"encoding": "inplace",
						"label": "uint256",
						"numberOfBytes": "32"
					}
				}
			},
			"userdoc": {
				"kind": "user",
				"methods": {},
				"version": 1
			}
		}
	}
}